:020000040000FA
:10000000D05C0010D1010000D9010000DB0100002C
:10001000DD010000DF010000E10100000000000040
:10002000000000000000000000000000E3010000EC
:10003000E501000000000000E7010000FB060000F1
:10004000EB010000EF0700001F0800002F08000070
:100050003F08000033E20000EB010000EB0100006C
:10006000C9E30000EB010000EB010000EB01000020
:10007000EB010000EB010000EB010000EB010000D0
:10008000EB01000069010000EB010000EB01000042
:10009000EB010000EB010000EB010000EB010000B0
:1000A00023F60000EB01000031D00000EB0100005E
:1000B000EB010000EB010000EB010000EB01000090
:1000C000EB010000EB010000EB010000EB01000080
:1000D000EB010000EB0100002D050000EB0100002A
:1000E000EB010000DFF80CD010F07AFB004800476D
:1000F00071050000D05C00100A4A02EB01111022C9
:10010000A1F500710FF0E5BE074A01EB410102EBDA
:100110008101A1F5C0710A6802604A68426089687D
:1001200081607047E46C0100D472010010B50C4886
:1001300043F61031002201E000F8012B491E89B27C
:10014000FAD208494FF45C50FF2301E001F8013B6B
:10015000401E80B2FAD2024880F80C2410BD000084
:10016000FC0400100809001010B5164C01212046AF
:100170000CF0FAFC00280BD0134920460CF0EEFBE3
:10018000124A012120461170BDE810400CF0F1BC6C
:1001900010BD10B50B4C20460CF060FA20460CF058
:1001A00071FA012120460CF076FA01220021204646
:1001B0000CF07BFA4FF0E0214FF40030C1F8000161
:1001C00010BD000000400240A85500103F02001082
:1001D0000648804706480047FEE7FEE7FEE7FEE7E1
:1001E000FEE7FEE7FEE7FEE7FEE7FEE7CDD2000012
:1001F000E50000002F4A30B1012807D0022808D0BE
:1002000003280AD0FEE7C2F8041104E0C2F8A811DE
:1002100001E0C2F800110CF0CBBFD2F8080120F0C9
:100220001F00C2F80801D2F808010843C2F808010B
:10023000704730B1012806D0022806D0032806D026
:10024000FEE71D4804E01D4802E01D4800E01D488F
:1002500000687047174A012906D0002903D152F8D7
:10026000C41F81431160704752F8C41F0143F9E76E
:1002700010490020C1F8C00030BF70471249042067
:1002800008600C490820C1F8C00030BF70470E4913
:100290000420086007490920C1F8C00030BF70473A
:1002A00009490420086003490320C1F8C00030BF99
:1002B0007047000000C00F40580200105C020010A0
:1002C000600200106402001010ED00E0D2B201E004
:1002D00000F8012B491EFBD270470022F6E710B54B
:1002E00013460A4604461946FFF7F0FF204610BDA4
:1002F00096230022114610F0A1B97047FFFFFFFFBF
:10030000844840F20121C0F88011C0F88411C0F87F
:100310008811C0F88C11C0F89011C0F89411C0F881
:100320009811C0F89C11C0F8A011C0F8A411C0F831
:10033000A811C0F8AC11C0F8B011C0F8B411C0F8E1
:10034000B811C0F8BC11C0F8C011C0F8C411C0F891
:10035000C811C0F8CC11C0F8D011C0F8D411C0F841
:10036000D811C0F8DC11C0F8E011C0F8E411C0F8F1
:10037000E811C0F8EC11C0F8F011C0F8F411C0F8A1
:10038000F811C0F8FC11C0F80012C0F80412C0F84F
:100390000812C0F80C12C0F81012C0F81412C0F8FD
:1003A0001812C0F81C12C0F82012C0F82412C0F8AD
:1003B0002812C0F82C12C0F83012C0F83412C0F85D
:1003C0003812C0F83C12C0F84012C0F84412C0F80D
:1003D0004812C0F84C12C0F85012C0F85412C0F8BD
:1003E0005812C0F85C12C0F86412C0F84011C0F88E
:1003F0004411C0F84811C0F85011C0F86011C0F89D
:100400007011C0F87411C0F87811C0F87C117047F1
:100410002DE9F041DFF80081434653F8C40F40F462
:100420000060186041F61F70C3F818013B4C0122B0
:1004300022600026A660FFF763FF3948394900684B
:10044000B0FBF1F5D86B00B16D084FF47A77B7FBCC
:10045000F5F000F11301B1FBF0F323630F236363A5
:10046000A663E263B1FBF0F1891C2164626400F1D0
:100470003E01B1FBF0FCC4F848C0B1FBF0FCC4F88D
:100480004CC02365B1FBF0F06065A265A26240F24A
:100490000330C4F804014FF48D40C4F80001C4F8DF
:1004A00000016421002000F04FF940F28310206227
:1004B000C821002000F048F940F203102062022019
:1004C00060620020401C8028FCD340F2E7104543C6
:1004D000B5FBF7F080B260628320206212480068AA
:1004E0002662D4F8000140F40020C4F80001012184
:1004F000002000F029F90121002000F025F9D8F8AA
:10050000DC0120F01F0040F01100C8F8DC01BDE85C
:10051000F081000000C0024000C00F4000C0092070
:100520005802001040420F00004006A010B5012202
:10053000132100200CF0A8FF002818D06FF07F4096
:10054000401EFDD17B487C49012203781BB100226B
:100550000270122001E00270022008604FF40021B6
:1005600000200CF0B1FF75494020C1F8800110BD9A
:100570000020FFF75EFE4FF47A71B0FBF1F000242B
:10058000401E2646B0F1807F0CD220F07F404FF015
:10059000E025401E68611F21601E00F0BAF8AE61C0
:1005A000072028610122D10400200CF050FF012116
:1005B000262000F0AEF861494020C1F800010CF09F
:1005C0009EFC0CF01BFC0DF08CFD5A4806700420BC
:1005D0000DF0A5FE0CF083FD0EF0D4F8FFF7D9FD69
:1005E0000CF037FB0CF08BFC0CF0DDFBFFF710FF81
:1005F000002000F0C3F952480021406900F0E7F9FB
:10060000012000F0BBF900200CF055FC4A4D1220EF
:100610004FF0501628600CF0DDFCFF2803D0641C5E
:10062000022C02D004E0002402E0304600F0A0FAE0
:100630002868801E1128EED2DFE800F0093B354122
:100640000F171A1D23292F4720594D535C003046A0
:1006500000F08EFA08F058FADDE7304600F088FA2C
:100660000CF0C6FA09F036FDD5E708F0BFFCD2E77A
:1006700008F096FECFE709F0B9F9CCE70BF048FC9B
:10068000C9E7304600F074FA0AF0C0F9C3E7304613
:1006900000F06EFA0AF064FABDE7304600F068FA3E
:1006A0000AF0F9FAB7E7304600F062FA09F0FAFE0C
:1006B000B1E7304600F05CFA0AF00EF8ABE73046DE
:1006C00000F056FA09F0F9FEA5E7304600F050FABE
:1006D0000BF090FB9FE7304600F04AFA0AF0D4FE98
:1006E00099E7304600F044FA0AF0C4FB93E70BF0B8
:1006F00054F890E70BF03AFE8DE712480168491C68
:10070000016070470F490A680B689B1A8342FBD34C
:100710007047C906090E002806DA00F00F0000F144
:10072000E02080F8141D704700F1E02080F80014EC
:1007300070470000440200104802001004E000E08E
:100740001C00001000000010F0B5844A00230224B1
:10075000FF2612684FF47A7504274FF0010CA8B1F8
:10076000012824D0022832D003280ED17C484460CE
:10077000C360B2FBF5F2521E4A43826106604761D4
:10078000C0F804C04168C907FCD1F0BD4FF040205B
:100790004460C360B2FBF5F2521E4A4382610660B8
:1007A0004761C0F804C04168C907FCD1F0BD6D487D
:1007B0004460C360B2FBF5F2521E4A438261066098
:1007C0004761C0F804C04168C907FCD1F0BD664864
:1007D0004460C360B2FBF5F2521E4A438261066078
:1007E0004761C0F804C04168C907FCD1F0BD4FF0B3
:1007F0004021012008605D480168491C01605C4897
:1008000001785C48012906D08168491C81604168F3
:10081000491C416070470168491C0160F7E7514974
:100820000120086053484168491C416070474E49A7
:10083000012008604F488168491C81607047484921
:10084000012008604B48C168491CC1607047012104
:1008500038B1012808D0022809D0032806D1404821
:1008600003E04FF0402000E03E48416070473E48C2
:10087000FBE7002140B1012809D03B4A022801D002
:10088000032800D1516070474FF0402000E0354808
:100890004160704738B1012808D002280CD00328E5
:1008A00009D12F4903E04FF0402100E02D4948686D
:1008B00040F00200486070472B49F8E770B500240B
:1008C0002C4D2D4A032338B1012818D0022821D0FD
:1008D00003282AD0002070BD2C6052F8C40F40F0CD
:1008E000020010604FF04020426842F00202426075
:1008F0004EF65F22C2608161436101201FE06C609F
:1009000052F8C40F40F00400106016488161436142
:10091000022014E0AC6052F8C40F40F48000106074
:10092000114881614361032009E0EC6052F8C40F73
:1009300040F4000010600A4881614361042000F027
:1009400002F8012070BD00F01F0201219140400912
:10095000800000F1E020C0F8001170475C02001038
:100960000040094000800040000009400C020010D7
:10097000400200100400001000C00F40FA4908B502
:100980000028886942F210720CD040F001008861A2
:100990000092886940F4006088610098401E0090D1
:1009A000F7D108BD20F40060886110460092401E17
:1009B0000090FCD1886920F00100886108BDEB49F6
:1009C000002208C8521C08C1802AFAD3704770B5AB
:1009D000E84BE74C4FF0270208001A615A61C3F850
:1009E0007022C3F87422C3F81821C3F81C21C3F87D
:1009F0002021C3F824219A61DA61C3F8D020C3F81A
:100A0000D420C3F8D820C3F8DC20C3F8E020C3F812
:100A1000E4201A625A62C3F83021C3F83421C3F8C3
:100A2000E820C3F8EC20C3F8F020C3F8F420C3F8A2
:100A30000821C3F81421C3F80C21C3F81021C3F80E
:100A40000021CD4A116C41F002011164916D41F019
:100A50000A019165C94B53F8C41F41F001011960A7
:100A6000C7490A6822F001020A60BF4A4FF0000538
:100A70009561916921F00E019161916941F00A013E
:100A80009161916941F020019161916921F08001AA
:100A90009161916921F480719161916921F40071F2
:100AA0009161916921F480619161916921F4006102
:100AB0009161B449B44E0968B1FBF6F1C3F8F41082
:100AC000916841F080619160916821F0200191600E
:100AD000916841F400619160916841F480519160A6
:100AE000916821F400519160916821F480419160F6
:100AF0009168A64B01EA030191609168A44B41EA19
:100B0000030191601560116841F01C51116011687A
:100B100041F480211160116841F480711160116805
:100B200041F0740111605560516841F000615160FD
:100B3000516841F400215160516841F48061516075
:100B4000516840F20F1341EA03015160146154618E
:100B500001D0FFF734FF00204FF47F01CA1102C417
:100B6000401C9042FBD342F21070401EFDD170BD7C
:100B70007F4900224FF4FF3301C1521C9A42FBD33C
:100B80007047F0B5C3F58874C4EB0414C2F5F07572
:100B9000E40104EB8504764D121A2C440025C2F5BD
:100BA000F077591A059E08E0002001E040C4401C7F
:100BB0008242FBD804EB87046D1CA942F4D8F0BD37
:100BC0006B4BB0F5F07F0DD2B1F5887F0AD2A1F260
:100BD0000F11C0F5F070A1EB011100EB4110401EA8
:100BE00043F8202070472DE9F0439446DDF81C902F
:100BF0001F460C460546604501D9AC4695B2BC423D
:100C000001D90F469CB2ACEB0500391B00B20EB205
:100C100050B1A6B1B04230DDC0EB46010FB2710059
:100C2000404201EB400825E04A4621462846FFF7AE
:100C3000C7FF641CA4B2A742F6D2BDE8F0834A46BF
:100C400021462846FFF7BCFF6D1CADB2AC45F6D27D
:100C5000F3E74A4621462846FFF7B2FF6D1CADB2C6
:100C6000002F04DD641CA4B208EB070001E007EBD1
:100C7000460007B26545ECD11DE0C6EB40010FFA16
:100C800081FC7100404201EB400812E04A462146D7
:100C90002846FFF795FF641CA4B2BCF1000F04DDE9
:100CA0006D1CADB208EB0C0001E00CEB46000FFA36
:100CB00080FCBC42EAD14A4621462846BDE8F043C2
:100CC0007EE72DE9FF5F884607469A46114668464B
:100CD000DDF838B0FFF710FA0025E946002419F8CE
:100CE00005C008EB0506C4F107002CFA00F0C007A8
:100CF00007EB0400B1B280B201D0524600E05A4680
:100D0000FFF75EFF641C082CEDD36D1C102DE5D39E
:100D1000BDE8FF9F2DE9FE4F884607469A461146DB
:100D20006846DDF830B0FFF7EFF90025E94600240A
:100D300019F805C008EB0506C4F107002CFA00F00D
:100D4000C00707EB0400B1B280B201D0524600E008
:100D50005A46FFF735FF641C082CEDD36D1C0C2D93
:100D6000E5D3BDE8FE8F0000008008200082082047
:100D7000000001A000C002400080092000C00F4018
:100D8000008C08205C0200109C997400FFFF00FC9E
:100D90000000DF012DE9F8439946089F16460D46ED
:100DA00004464FF4EC7816F8012B4B4629462046B2
:100DB0000097FFF786FF444502D20834A4B207E04B
:100DC000FF2D4FF0000402D81035ADB200E0002531
:100DD00030780028E7D1BDE8F8832DE9FF4F81B0D6
:100DE00090468C46074604460D460026A4F11400A2
:100DF00080B242466146FFF7E3FEA5F11400641C91
:100E000081B2A4B242463846FFF7DAFE6D1C761C6A
:100E1000B6B2ADB2282EE9D3ACF114003C4665461B
:100E200000260CF1140AA7F1140B07F11409009025
:100E30000098A4F1140881B21FFA88F0049AFFF711
:100E4000BFFE1FFA8AF11FFA88F0049AFFF7B8FE76
:100E5000641CA5F11408A4B21FFA88F11FFA8BF0E4
:100E6000049AFFF7ADFE1FFA88F11FFA89F0049A81
:100E7000FFF7A6FE6D1C761CB6B2ADB20A2ED7D314
:100E80000024ACF1140A0CF11409A7F1140807F1BD
:100E9000140507F10A061FFA8AF1B0B2049AFFF7A7
:100EA0008FFE1FFA89F1B0B2049AFFF789FE7F1C0A
:100EB0000CF10A06BFB2B1B21FFA88F0049AFFF72C
:100EC0007FFEB1B2A8B2049AFFF77AFE641C0CF15F
:100ED000010CA4B21FFA8CFC0A2CDAD305B0BDE8D1
:100EE000F08F30B50446F84A2378002000EB8011DB
:100EF000555C9D4204D11144657849788D4204D0F7
:100F0000401C80B27728F1D3002030BD30B50446B4
:100F1000EE4A2378002000EB001112F811509D4298
:100F200005D102EB4101657849788D4204D0401C1F
:100F300080B2C428EFD3002030BD2DE9F04F044625
:100F400084468A46002702FB03F0C1179146DFF86A
:100F5000808300EB517B21E009980025C65D3006B7
:100F600002D5D8F8002001E0D8F8042051462046E8
:100F7000FFF726FE641C7006A4B2060EA4EB0C015B
:100F8000494505D10AF1010064461FFA80FA03E0E1
:100F90006D1CEDB2082DE2D37F1CBFB2B7EBEB0F97
:100FA000DADB9CE72DE9F047884604460546C74949
:100FB00002EB0210DFF818A301EB40094FF0000C20
:100FC00043BB09EB0C0000268778380602D5DAF817
:100FD000002001E0DAF8042041462046FFF7F0FD4A
:100FE0007806641C070EA4B2601B10280CD0761C77
:100FF000F6B2082EE9D30CF1010C0CF0FF0CBCF199
:10100000200FDED3BDE8F08708F101002C461FFA5F
:1010100080F8F0E709EB0C0000268778380602D547
:10102000DAF8042001E0DAF8002041462046FFF714
:10103000C7FD7806641C070EA4B2601B10280BD0F5
:10104000761CF6B2082EE9D30CF1010C0CF0FF0C63
:10105000BCF1200FDED3D5E708F101002C461FFAC2
:1010600080F8F1E72DE9F0478846044605469649A1
:1010700002EB8210DFF858A200EB01094FF0000CE0
:101080003BBB09EB0C0000268778380602D5DAF85E
:10109000002001E0DAF8042041462046FFF790FDE9
:1010A0007806641C070EA4B2601B18280BD0761CAF
:1010B000F6B2082EE9D30CF1010C0CF0FF0CBCF1D8
:1010C0003F0FDED39EE708F101002C461FFA80F89F
:1010D000F1E709EB0C0000268778380602D5DAF82C
:1010E000042001E0DAF8002041462046FFF768FDC1
:1010F0007806641C070EA4B2601B18280BD0761C5F
:10110000F6B2082EE9D30CF1010C0CF0FF0CBCF187
:101110003F0FDED376E708F101002C461FFA80F876
:10112000F1E730B514460D46024621462846FFF742
:1011300099FF182030BD30B514460D4602462146B1
:101140002846FFF72FFF122030BD2DE9F84F9A46B1
:1011500015460C46064600274FF4F0794FF4887880
:101160002A78002A3AD0F01986B2802A15D906F1D9
:101170001800484505D916340026A4B2444500D9C4
:1011800000242846FFF7ADFE80B253462246314682
:10119000FFF7C7FF0746AD1CE2E70D2A15D00A2A64
:1011A0001AD006F10C00484505D90C340026A4B22B
:1011B000444500D90024464841680091036821460F
:1011C0003046FFF77EFD6D1CCAE71634A4B24445D5
:1011D00000D900240027F6E70026FBE7BDE8F88FDA
:1011E000F8B515460F46064600242878002821D079
:1011F000A0F13001092901D888B204E02E2815D0C9
:101200002D2815D00C2000EBC001C1EB8010314916
:10121000372301EB80000090301980B2202239463C
:10122000FFF78BFE2034A4B26D1CDEE70A20EAE74C
:101230000B20E8E7F8BD2DE9F84306469946154628
:101240000C4600204FF4F0784FF488772A78002A73
:1012500042D0304486B2802A14D906F110004045AD
:1012600005D910340026A4B2BC4200D90024284677
:10127000FFF74CFE80B24B4622463146FFF75BFF3C
:10128000AD1CE3E70D2A16D00A2A1BD006F1080090
:10129000404505D908340026A4B2BC4200D9002438
:1012A0000B4841680091036821463046FFF709FD6D
:1012B0000A206D1CCAE71034A4B2BC4200D9002435
:1012C0000020F6E70026FBE7641D01009B3B0100C0
:1012D00014000010787901007DE52DE9F8430646F9
:1012E000994615460C4600204FF4F0784FF4887765
:1012F0002A78002A3AD0304486B2802A14D906F1DE
:101300001000404505D910340026A4B2BC4200D9D3
:1013100000242846FFF7FAFD80B24B4622463146AC
:10132000FFF709FFAD1CE3E70D2A16D00A2A1BD0F0
:1013300006F10800404505D908340026A4B2BC4295
:1013400000D90024344841680091036821463046A2
:10135000FFF7E0FC08206D1CCAE71034A4B2BC42C1
:1013600000D900240020F6E70026FBE733E5F0B5BE
:10137000062A01D90A2201E002B90122052900D971
:101380000521914200D91146244D00244FF0200C34
:1013900005F804C0641CE4B20C2CF9D314460A27E7
:1013A0000CE0B0FBF7F607FB1606B0FBF7F005EB19
:1013B000040E3036641E0EF8016CE4B2002CF0D13D
:1013C00069B1104605E02C1814F8014C2C54401E4D
:1013D000C0B2491EC9B2F6D22E21295401E005F847
:1013E00002C07BB90020511E0AE02B5C302B09D1D2
:1013F0002B185B782E2B05D005F800C0401CC0B21E
:101400008842F2DB521CD0B2002102E02954401C79
:10141000C0B20C28FAD3F0BD140000109C55001087
:1014200070472DE9F84F0024A2464FF04C0940F2D6
:101430000F18FE4F4FF04E0BFD48009004EB440197
:10144000A00001EB041100EB810004EB840509EB23
:10145000051680B2B2B24346E421FFF792FB0120A9
:1014600000EB0510E323B2B280B219460097FFF7F4
:10147000BAFBB2B2B0B24346E3210097FFF7B3FB29
:101480004D2000EB051082B2564680B24346E32160
:10149000CDF800A0FFF7A7FB0BEB051082B280B2DE
:1014A0004346E3210096FFF79EFB4F2000EB05101B
:1014B00082B280B24346E3210096FFF794FB641C9E
:1014C000062CB9D3BDE8F88F10B5FFF7AAFFD948AD
:1014D000D749002341606FF07F410160D6A2F1211E
:1014E0005420FFF7A8FE0023F121BDE81040D4A24C
:1014F000A420FFF7A0BE10B5FFF793FFCD48CC495D
:10150000002341606FF07F410160F121BDE8104090
:10151000CCA25420FFF78FBE10B5FFF782FFC5485D
:10152000C349002341606FF07F410160F121BDE8B4
:101530001040C5A25420FFF77EBE10B5FFF771FF23
:10154000BC48BB49002341606FF07F410160F1213D
:10155000BDE81040BDA25420FFF76DBE2DE9F04755
:101560000446FFF75EFFB349B14A6FF07F40C1E91F
:101570000002B74E002C06F118054FF4D1784FF059
:1015800071094FF0000403D0AF1D4FF06C0A2DE03D
:10159000474601E0042C11D004EB440006EB400266
:1015A00004EB840109EB01100023F121FFF743FE56
:1015B000641CE4B2052CEDD3BDE8F0872A4638461A
:1015C000F2E7042C0ED08CB1032C14D004EB4400B1
:1015D00006EB400204EB840109EB01100023F1212A
:1015E0001E320EE005F11E02404601E03A4650462A
:1015F0000023F12105E0964A4FF4A7703032002312
:10160000F121FFF718FE641CE4B2052CD9D3D3E70F
:1016100010B5FFF706FF87488549002341606FF04A
:101620007F4101608BA2F1215420FFF704FE0023CB
:10163000F121BDE8104088A2A420FFF7FCBD10B541
:10164000FFF7EFFE7B487A49002341606FF07F414E
:101650000160F121BDE8104080A25420FFF7EBBDEE
:1016600010B5FFF7DEFE73486FF07F4140F2431480
:1016700001606F4941607A48D0F84C1301291BD0B2
:1016800000292ED1002377A2F2215320FFF7D3FDAA
:10169000002377A2F221A320FFF7CDFD002377A23C
:1016A000F221F320FFF7C7FD002377A22046BDE813
:1016B0001040F221FFF7BFBD002376A2F221532094
:1016C000FFF7B9FD002376A2F221A320FFF7B3FDB7
:1016D000002375A2F221F320FFF7ADFD002374A2D1
:1016E000E4E710BD10B5FFF79CFE52486FF07F4154
:1016F00001604F4941605A48D0F84C03012816D088
:10170000002826D100236DA2F221A320FFF793FD2C
:1017100000236CA2F221F320FFF78DFD00236CA2C1
:10172000F2214FF4A670BDE81040FFF784BD0023FE
:1017300069A2F221A320FFF77EFD002368A2F22117
:10174000F320FFF778FD002367A2F22140F2431057
:10175000E9E710BD2DE9F84F0546DFF894814FF415
:10176000F07ACA2352465C210020CDF80080FFF7B2
:1017700008FA05EB450000EBC5015C2000EB4107D2
:101780006FF07F4600223B46462110460096FFF749
:101790002AFA28223B46462110460096FFF723FAF4
:1017A00050223B46462110460096FFF71CFA0124C2
:1017B0004FF0500904EB840109EB01103B4602464F
:1017C00046210096FFF70FFA641CE4B2052CF1D312
:1017D00000244627AD1C0DE004EB440000EBC400E0
:1017E00007EB40010B46524600200096FFF7FBF93D
:1017F000641CE4B2AC42EFD30E49194840F24314E2
:10180000C1F80480D0F84C1340F2931501290CD094
:10181000002977D1002337A249210320FFF70BFDD0
:101820000023492135A22B206DE08FE06843690039
:1018300038003100140000106D7365630000000073
:101840007365630056000000410000006D730000E6
:10185000286B0100487A00004B487A002A310000CA
:10186000FC040010C4DAD7E8B2E2CAD400000000D9
:10187000B3CCBFD8B8BAD4D800000000B3CCBFD81E
:10188000B5E7D4B400000000C1D0B1EDB2E2CAD4D3
:1018900000000000492E522054455354000000001F
:1018A0004C4F414400000000504F5745520000008B
:1018B000434150414349545900000000CFC2D2BBBC
:1018C000B2BD0000B2E2CAD4BDE1B9FB0000000025
:1018D00020B7B5BBD80000004E45585400000000AA
:1018E000524553554C5400004241434B0000000008
:1018F00034346500D0F2BAC500000000CFEEC4BF9A
:101900000000000049E0FFF796FC0023FEA24921F9
:101910005320FFF790FC0023FDA24921A320FFF7ED
:101920008AFC0023FCA24921F320FFF784FC00235A
:10193000FCA249212046FFF77EFC0023FCA201B057
:101940002846BDE8F04F4921FFF775BC0023FAA2F5
:1019500049210320FFF76FFC0023F8A249212B2027
:10196000FFF769FC0023F7A249215320FFF763FC2E
:101970000023F6A24921A320FFF75DFC0023F5A276
:101980004921F320FFF757FC0023F4A24921204608
:10199000FFF751FC0023F3A2D1E793E52DE9F84FBF
:1019A0000646DFF8C8834FF4F07ACA2352465C211A
:1019B0000020CDF80080FFF7E4F806EB460000EBCE
:1019C000C6015C2000EB41076FF07F4500223B46DB
:1019D000462110460095FFF706F928223B4646218E
:1019E00010460095FFF7FFF850223B46462110466F
:1019F0000095FFF7F8F801244FF0500904EBC400FC
:101A000000EB041109EB81003B460246462100959C
:101A1000FFF7E9F8641CE4B2042CEFD30024462756
:101A2000B61C0DE004EB440000EBC40007EB4001E2
:101A30000B46524600200095FFF7D5F8641CE4B22F
:101A4000B442EFD3CA49CB4840F21B14C1F804801A
:101A5000D0F84C1340F27F1501292AD0002949D132
:101A60000023AFF2701249210320FFF7E4FB0023AB
:101A7000AFF2781249212B20FFF7DDFB0023A2A251
:101A800049215320FFF7D7FB0023A1A24921B7200A
:101A9000FFF7D1FB0023B8A249212046FFF7CBFB7B
:101AA0000023B8A201B02846BDE8F04F4921FFF756
:101AB000C2BB0023A0A249210320FFF7BCFB0023E7
:101AC0009EA249212B20FFF7B6FB00239DA24921AE
:101AD0005320FFF7B0FB00239CA24921B720FFF75A
:101AE000AAFB0023AAA249212046FFF7A4FB00235A
:101AF000A9A2D7E7E6E410B50446FFF792FC9C499B
:101B0000A74B9C4A6FF07F40BCB1C1E90003012C98
:101B10003BD0D2F84C03012866D000286DD10023B9
:101B2000A0A2F2215320FFF786FB00239FA2F221FF
:101B3000A320BDE81040FFF77EBBC1E90003D2F847
:101B40004C03012812D0002857D1002399A2F2217A
:101B50005320FFF770FB002399A2F221A320FFF787
:101B60006AFB002399A2F221FC20E2E7002399A25C
:101B7000F2215320FFF75FFB002398A2F221A3205C
:101B8000FFF759FB002397A2EDE7D2F84C1340F280
:101B90009314012901D079B120E0002393A2F2210E
:101BA0005320FFF748FB002393A2F221A320FFF765
:101BB00042FB002393A20DE0002394A2F2215320C4
:101BC000FFF739FB002394A2F221A320FFF733FB98
:101BD000002394A2F2212046FFF72DFB002393A2BD
:101BE000F22140F2BD10A4E7002391A2F22153207C
:101BF000FFF721FB002390A299E710BD10B5FFF776
:101C000010FC5B486FF07F415A4C016064494160B1
:101C1000D4F84C03012824D0002833D1002388A213
:101C2000E7215420FFF707FB002387A2FB21542064
:101C3000FFF701FBD4F84C134FF4A2704FF4CA74B1
:101C4000012917D000291DD1002381A2F121FFF71E
:101C5000F2FA002380A22046BDE81040F121FFF7F0
:101C6000EABA00237EA2E7215420FFF7E4FA00231A
:101C70007DA2DBE700237EA2F121FFF7DCFA00233F
:101C80007DA2E8E710BD70B50646FFF7CAFB3848ED
:101C9000434B38494FF4A2744FF4CA756FF07F423A
:101CA0004EB3012E27D0C0E90023D1F84C130129EF
:101CB00027D0002926D1002371A2F1215420FFF75B
:101CC000BAFA002370A2E721A420FFF7B4FA002398
:101CD0006FA2FB21A420FFF7AEFA00235CA2F12142
:101CE0002046FFF7A8FA00235BA22846BDE8704013
:101CF000F121FFF7A0BAC0E90023D1F84C13012964
:101D0000CAE009E125E10000B2CECAFD31000000C1
:101D1000B2CECAFD32000000BDD8D6B9B5E7D1B900
:101D200000000000BDD8D6B9B5E7C1F7000000003B
:101D3000CAB1BCE4000000004E4F00004D4F4445C6
:101D4000000000005041524131000000504152411A
:101D500032000000434F464656000000434F4646BF
:101D60004300000054494D45000000003434650034
:101D700014000010FC040010BDE1B9FB312020204C
:101D800000000000BDE1B9FB32202020000000006F
:101D9000524553310000000052455332000000000C
:101DA000380031002020C8A1CFFB20002020C8B778
:101DB000C8CF2000B2E2C1BFCFD4CABE000000002D
:101DC000B5B5BAC5CFD4CABE00000000B5B5BCC613
:101DD000CAFD00004D454153534554004E6F2E44FB
:101DE00049535000434F554E5420000046494C453E
:101DF00020534554000000005361766544617461CE
:101E0000000000004D4F524500000000CEC4BCFE53
:101E1000B9DCC0ED00000000B1A3B4E6CAFDBEDD30
:101E200000000000B8FCB6E000000000322F3200D5
:101E300043414E43454C2000434F4E4649524D00CE
:101E4000C7E5B3FD00000000B1EDB8F100000000EF
:101E5000C9CFD2BBD2B30000CFC2D2BBD2B3000035
:101E6000434C4541000000004C4953540000000021
:101E70004C617374205000004E657874205000004F
:101E8000C9BEB3FDD0D00000D7D4B6AF000000006B
:101E9000B8B4D6C60000000021D0002959D10023D3
:101EA000AFF22402F1215420FFF7C5F90023F9A273
:101EB000E721A420FFF7BFF90023AFF23402FB2192
:101EC000A420FFF7B8F90023F4A2E721F420FFF7DC
:101ED000B2F90023AFF25002FB21F420FBE600230D
:101EE000F0A2F1215420FFF7A6F90023EFA2E72189
:101EF000A420FFF7A0F90023EEA2FB21A420FFF706
:101F00009AF90023EDA2E721F420FFF794F90023CA
:101F1000FB21E8A2F4200FE00023E2A2F1215420EB
:101F2000FFF789F90023E3A2E721A420FFF783F953
:101F30000023E4A2FB21A420FFF77DF90023AFF2E8
:101F4000D002F1212046FFF776F90023AFF2D80244
:101F5000CBE670BD10B50446FFF763FADB49DC48F9
:101F6000DC4A6FF07F43ECB1C1E90030012C36D080
:101F7000D2F84C0301287CD000287BD10023D6A2C4
:101F8000F2215320FFF757F90023D6A2F221A32014
:101F9000FFF751F90023D6A2F221F320BDE810404B
:101FA000FFF749B9C1E90030D2F84C0301280DD040
:101FB00000285FD10023AFF20422F2215320FFF763
:101FC0003AF90023CDA2F221A320E7E70023CEA215
:101FD000F2215320FFF72FF90023CDA2F3E7D2F827
:101FE0004C134FF4CA74012932D000296AD100235E
:101FF000C9A2E7215420FFF71EF90023AFF2F01227
:10200000FB215420FFF717F90023C5A2E721A420E4
:10201000FFF711F90023BAA2FB21A420FFF70BF967
:102020000023C1A2F121F420FFF705F90023B4A297
:10203000FB21F420FFF7FFF80023AFF21822E7217D
:102040002046FFF7F8F80023B9A2FB212046A5E7B8
:102050000023B9A2E7215420FFF7EDF80023B8A22E
:10206000FB215420FFF7E7F80023E721B6A2A420C4
:1020700001E018E026E0FFF7DEF80023B4A2FB2120
:10208000A420FFF7D8F80023B3A2F121F420FFF732
:10209000D2F80023AEA2FB21F420FFF7CCF80023F6
:1020A000AFF2A022CBE70023ADA2F2215320FFF72D
:1020B000C2F80023ACA2F221A320FFF7BCF8002352
:1020C000ABA269E710BD814810B56FF07F41016098
:1020D0007F4941607F48D0F84C03012810D0002888
:1020E00017D10023AFF23432F2215320FFF7A3F8C7
:1020F0000023A1A2F221BDE81040A320FFF79BB866
:10210000002381A2F2215320FFF795F800239DA21E
:10211000F0E710BD70B56D486FF07F414FF48374E8
:1021200001606B4941606B4840F29315D0F84C1345
:1021300001291BD000292ED1002394A2F221532083
:10214000FFF779F800236AA2F221A320FFF773F8C2
:10215000002391A2F2212046FFF76DF8002390A200
:102160002846BDE87040F221FFF765B800238FA232
:10217000F2215320FFF75FF800238FA2F221A32062
:10218000FFF759F800238FA2F2212046FFF753F8FA
:1021900000238EA2E4E770BD08B58F4800210090AF
:1021A0001623D2220846FEF7ECFC08BD08B58B4882
:1021B0000090CD2340F2DF125C210020FEF7E1FC0D
:1021C00008BD08B58448002100901623A0220846C7
:1021D000FEF7D7FCFFF725F9BDE80840E6E708B5AC
:1021E0007D48002100901623A0220846FEF7C9FC76
:1021F000FFF717F979480090CD2340F2DF1246210E
:102200000020FEF7BEFC08BD2DE9F047FFF7D9FF1F
:102210002E4C71486FF07F462E4DC4E90060D5F812
:102220004C03012801D018B109E000236C4A02E0F8
:102230006B4A0023F23A04210020FEF7FCFF4FF026
:102240005010C4E90060674F00244FF01A0907F1ED
:1022500091086FF0270601E0032C1AD2D5F84C0341
:10226000012801D028B1C4E004EB840007EB400250
:1022700003E0C4EB041101EB080204EB440000EBA3
:10228000C40109EB410081B200231846FEF7D3FFD9
:10229000AFE0A9E0CFDFD0D400000000B6D4CAFD83
:1022A0000000000044656C526F7700004C494E45B9
:1022B0000000000041544F55000000004C4F4720E3
:1022C00000000000434F50590000000014000010AF
:1022D00038003100FC040010B5E7D1B9D0A3D5FD1A
:1022E00000000000B5E7C1F7D0A3D5FD0000000055
:1022F000B5E7D7E8D0A3D5FD00000000CFB5CDB33A
:10230000C9E8D6C3000000004D4541444953500080
:102310005359535345540000CEC4BCFE0000000086
:10232000CFB5CDB300000000B9A4BEDF00000000AF
:1023300020322F320000000046494C4500000000CA
:102340004D414E450000000053595320000000004D
:102350005345542000000000544F4F4C0000000033
:10236000564F4C43616C00004374726C43616C00C7
:1023700043757243616C0000B2E2C1BFC9E8D6C3C5
:10238000000000004D65617353657400B5E7C8DD5A
:10239000D0A3D5FD00000000CDCBB3F600000000B7
:1023A000C7E5B3FDD0A3D5FD000000004320436F77
:1023B00072726574000000005220436F727265747F
:1023C000000000004578697400000000436C65203F
:1023D000436F727200000000F35203003434650052
:1023E00074680100A95B0100D5F84C03012808D0EE
:1023F00060B1641C062CFFF42FAFBDE8F047FFF777
:102400002FB904EB840007EB400203E0C4EB041196
:1024100001EB080204EB440000EBC40006EB4000B3
:1024200081B20023FA2031E72DE9F047FFF7C9FE1A
:10243000F84CF9486FF07F46F84DC4E90060D5F8D4
:102440004C03012801D018B10AE00023F44A02E04D
:10245000F34A0023F23A042100201632FEF7EBFE85
:102460004FF05011C4E90061EE4FA24600244FF036
:102470001A0907F13C086FF0270601E0032C1AD275
:10248000D5F84C03012801D028B119E004EB8400F1
:1024900007EB400203E0C4EB041101EB080204EB7C
:1024A000440000EBC40109EB410081B2002318464F
:1024B000FEF7C1FE04E0D5F84C03012811D0A8B105
:1024C000641C062CDAD3D849CAF804100023D7A21A
:1024D000BA214FF4DD70FEF7AEFEBDE8F047FFF71E
:1024E000BFB804EB840007EB400203E0C4EB041127
:1024F00001EB080204EB440000EBC40006EB4000D3
:1025000081B20023FA20D3E72DE9F041FFF759FE0D
:10251000C04EC1486FF07F44C04FC6E90040D7F8B5
:102520004C03012801D018B10AE00023BC4A02E0A4
:10253000BB4A0023F23A042100202C32FEF77BFE36
:102540004FF05010C6E9004000241A2500E01CD2CC
:10255000D7F84C03012801D038B116E0B14904EB9B
:102560008400963101EB400204E0AE49C4EB041054
:10257000D231421804EB440000EBC40005EB4000EC
:1025800081B200231846FEF756FE641C032CDED3EE
:10259000A54870604FF00003A4A24FF0BA014FF4B9
:1025A000DD70FEF748FEBDE8F041FFF759B82DE9B0
:1025B000F047FFF714FE974C97486FF07F46974D12
:1025C000C4E90060D5F84C03012801D018B10AE035
:1025D0000023934A02E0924A0023F23A04210020A9
:1025E0004232FEF728FE4FF05010C4E90060904FD1
:1025F00000244FF01A09A7F15A086FF0270601E0EE
:10260000032C19D2D5F84C03012801D020B118E0D1
:10261000C4EB0410C21903E0C4EB041101EB08027F
:1026200004EB440000EBC40109EB410081B200233C
:102630001846FEF700FE04E0D5F84C03012807D049
:1026400050B1641C062CDBD3BDE8F047FFF708B897
:10265000C4EB0410C21903E0C4EB041101EB08023F
:1026600004EB440000EBC40006EB400081B2002301
:10267000FA20DEE708B56C480090BE2340F2DF1276
:10268000A0210020FEF77DFA08BD08B562480021B0
:1026900000901623A0220846FEF773FAFEF7C1FE4B
:1026A000BDE80840E6E738B55A4D04464FF05010F3
:1026B00068606048012300EB8402C8211420FEF703
:1026C000BAFD5C4801235C3000EB8402C8214FF462
:1026D0008C70FEF7B0FD544868605748009037236F
:1026E00028227A215020FEF728FC544800903723F6
:1026F00028227A217820FEF720FC514800903723C9
:1027000028227A218C20FEF718FC38BD2DE9F047ED
:10271000FFF7BBFF3F4C40486FF07F453F4EC4E999
:102720000050D6F84C03012801D018B10AE000236C
:102730003B4A02E03A4A0023F23A042100201632D2
:10274000FEF779FD4FF05010C4E900503D4F0024D2
:102750004FF01A09A7F130086FF0270501E0032CAC
:1027600016D2D6F84C03012801D018B115E007EBBA
:10277000C40201E008EBC40204EB440000EBC40116
:1027800009EB410081B200231846FEF754FD04E036
:10279000D6F84C0301280CD070B1641C062CDED393
:1027A00096F88803FFF77FFFBDE8F0470020FFF7AA
:1027B000A2B907EBC40201E008EBC40204EB440039
:1027C00000EBC40005EB400081B20023FA20DCE7F7
:1027D00038B5154C40F2DF15A0232A4656210020BB
:1027E0000094FEF7CEF9E3232A46C121002000948D
:1027F000FEF7C7F938BD08B5074800210090162339
:10280000B2220846FEF7BDF9FEF70BFEBDE8084010
:10281000DEE7000014000010F3520300FC04001077
:1028200074680100945C0100343465006D41480017
:102830001A5E0100046101007D8C0100C09E010050
:10284000D39F0100AE6501000B4630B4F949144630
:10285000085C183100EB40004218A1B298B230BCBD
:102860000023FEF7E8BC2DE9F05FFFF7C4FFF24C50
:10287000F2486FF07F45C4E90050F14ED6F84C03A2
:10288000012801D018B10AE00023EE4A02E0ED4A27
:102890000023F23A042100202C32FEF7CCFCE6485B
:1028A000DFF8A493002405604FF05015BE274FF4C5
:1028B000B478A9F1150A4FF6FF7B456003E0012CBF
:1028C00008D0022C15D0D6F84C0301287BD0002864
:1028D0007ED01EE0D6F84C03012801D0C8B902E032
:1028E00009F1070201E00AF1070238460023182126
:1028F0000DE0D6F84C03012801D050B901E0D24ACE
:1029000001E0D14A153A4046002318210E32FEF765
:1029100092FC641C032CD2D3D6F89003012300EB65
:10292000400101EBC001C948E8360A1818213C20D3
:10293000FEF781FC3179002306223068FEF717FD8F
:102940000123C34A1821FA20FEF775FCB068B94983
:1029500000EB40001B394218012318214FF4A070EE
:10296000FEF769FCD6F8A00218224FF4A571E83EE4
:10297000FFF76AFF0023B7A22C211846FEF7ADFC33
:102980000023B5A22C217820FEF7A7FC0023B4A2D7
:102990002C21FA20FEF7A1FC0023B3A22C2140F247
:1029A0009D10FEF79AFCDFF8C882A34F0624A4F11D
:1029B0000800052802D3A01F082812D9C7F80480F0
:1029C00010E000E004E0C4EBC40101EB090203E005
:1029D000C4EBC40101EB0A0204EB84010BEA4110D1
:1029E00084E77D6004EB440006EB001151F8140C01
:1029F00060B111F8101C01230622FEF7B8FCC4EBED
:102A00000410203881B20123914A05E0C4EB041080
:102A1000203881B2012397A27820FEF75EFC641C67
:102A20000F2CC4D3C7F80480D6F8D4024446B94664
:102A300040B196F8D81201230622FEF798FC012334
:102A4000834A01E001238BA2C421FA20FEF745FC52
:102A5000B04610274E46A7F11200052802D3801C6D
:102A6000082801D9746000E0756007EB470108EBA6
:102A70000111A1F58051D1F8240E60B191F8281E02
:102A800001230622FEF773FCC7EB0710B63881B2AC
:102A900001236F4A05E0C7EB0710B63881B2012366
:102AA00074A2FA20FEF719FC7F1C192FD3D374608F
:102AB000D8F8D402A146474650B197F8C012012376
:102AC0000622D7F8BC02FEF752FC0123604A01E05F
:102AD000012368A2C4217820FEF7FFFBC846DFF877
:102AE0009C910124E01E052802D2C6F8048000E073
:102AF000756004EBC40101EB0902C4EB04102B3038
:102B000081B200230820093AFEF7E7FB641C0A2C77
:102B1000E8D3C6F804804D49D7F88803783901EB2B
:102B200080020023C4211846FEF7D7FB002354A2DD
:102B3000D4211846FEF7D1FB002353A2D421F8205C
:102B4000FEF7CBFBBDE8F05F0020FEF7D4BF08B571
:102B500047480090A02340F2DF12AF210020FEF78B
:102B600010F808BD10B5FFF717FBFEF75AFCBDE8DB
:102B70001040ECE770B5FFF7F5FF2F4C2F486FF0D2
:102B80007F45C4E900502F4A0023423204211846F1
:102B9000FEF751FB4FF05010C4E900502848D0F820
:102BA0004C03012801D078B120E0002338A21A217B
:102BB0001846FEF740FB002337A230212820FEF7FD
:102BC0003AFB002337A20DE0002338A21A21184651
:102BD000FEF731FB002337A230212820FEF72BFB24
:102BE000002337A230218C20FEF725FB002336A2DC
:102BF0003021F020FEF71FFB002335A230214FF4D7
:102C0000AA70FEF718FB002333A230214FF4DC70CA
:102C1000FEF711FBBDE870400020FEF76CBF08B561
:102C2000134800909A2340F2DF125A210020FDF74A
:102C3000A8FF08BD7F6B010014000010F3520300D1
:102C4000FC040010746801007B690100D861010078
:102C50009C55001042494E004C4F57205B465D008A
:102C6000484947485B465D00434F554E54000000BD
:102C7000343465002D2D2D2D2D2D0000585B0100C5
:102C80004155583A000000004F55543A00000000EA
:102C90004D657468203A0000467265715B487A5D44
:102CA000000000004C65766C5B565D00B7BDCABD88
:102CB000203A0000C6B5C2CA5B487A5D0000000039
:102CC000B5E7C6BD5B565D0043705B465D00000026
:102CD000445B205D00000000434D500008B5FE48F5
:102CE000002100901623A8220846FDF74AFFFEF7B0
:102CF00098FBBDE8084092E72DE9F05FFFF7EEFF93
:102D0000F64DF5486FF07F44F54FC5E90040D7F820
:102D10004C03012801D018B10AE00023F14A02E077
:102D2000F04A0023F23A042100205832FEF783FAD9
:102D30004FF05016C5E90046DFF8ACB3EB4F002466
:102D40004FF01A086FF02709ABF1480AE448D0F8B1
:102D50004C03012801D0C0B142E0032C0AD2E01E8E
:102D6000022801D26F6000E06E6004EB84010BEB7F
:102D7000410216E0A01F022801D26F6000E06E60E1
:102D800004EB84010BEB41021FE0032C13D2E01E85
:102D9000022801D26F6000E06E6004EB44010AEB90
:102DA000810204EB440000EBC40108EB410081B256
:102DB0000023184612E0A01F022801D26F6000E035
:102DC0006E6004EB44010AEB810204EB440000EB6B
:102DD000C40109EB410081B20023FA20FEF72BFA6F
:102DE000641C062CB2D3BDE8F05F0020FFF7B2B838
:102DF0002DE9F843B94EBA4C4FF0501507467560AF
:102E0000D4F88803BA4900EBC000421801231A2104
:102E1000492004F56274FEF70EFAA068012300EB66
:102E2000400101EBC000B349421830214920FEF7B0
:102E300002FAE068012300EB400101EBC000AE495B
:102E4000421846214920FEF7F6F9E06B40F243189C
:102E500000EB400101EBC000A749002331314218CB
:102E60001A214046FEF7E7F9206C012300EB4001F0
:102E700001EBC000A049A4F56274AE3142183021C4
:102E80004046FEF7D8F93878012800D0002010B16C
:102E9000FF20706001E028467560009058234FF4D1
:102EA000C47244214FF4A170FDF76BFED4F8040105
:102EB000914D00EB400101EBC000E73542190123C1
:102EC00046214046FEF7B7F9FEF7ABFA38780128FD
:102ED00004D0BDE8F8430020FEF70DBE6FF07F4040
:102EE000306086480024682770606D2613E094B136
:102EF00004EB440000EBC400421904EB840006EB31
:102F0000001080B20023F121FEF795F9641C022C19
:102F1000EDD3BDE8F8832A463846F3E7F8B56F4CA1
:102F200006464FF0501060603078012800D0002035
:102F300020B3FF206060009028234FF4E672182130
:102F400040F2A310FDF71DFE65486B4D0123D0F83C
:102F50001813E73501EB410000EBC10042191821BD
:102F60004FF4D270FEF767F9FEF75BFA307801286C
:102F700006D0BDE8F8400020FEF7BDBD6068DAE786
:102F80006FF07F4020605D486060002468276D26F8
:102F900012E08CB104EB440000EBC400421904EBD6
:102FA000840006EB001080B20023F121FEF743F904
:102FB000641C022CEDD3F8BD2A463846F4E72DE90F
:102FC000F05F0124DFF82491444EDFF814814FF4C0
:102FD000AD7B4FF0501A3325E71E042F02D2C6F8FE
:102FE000049001E0C6F804A098F80D0400EB8000FE
:102FF00004EB400000EB800008EB8001D1F8A8054D
:10300000421C3DD091F8AC1501230522FEF7AFF923
:103010003B4A05EB04110023F620FEF75EF998F811
:103020000D0400EB800004EB400000EB800008EB97
:10303000800101F58051D1F81006421C25D091F88D
:10304000141601230522FEF792F92D4A05EB04110F
:1030500000235846FEF741F998F80D0400EB800074
:1030600004EB4000404400F5005090F88306FF2830
:1030700010D005EB04114FF0000380B121A20FE046
:1030800005EB0411002320A2C6E705EB0411002381
:103090001DA2DEE705EB041100231DA200E01DA226
:1030A0004FF4DF70FEF719F9042F02D2C6F804902E
:1030B00001E0C6F804A098F80D04474600EB800034
:1030C00004EB4000384490F80D041E2824D905EB89
:1030D000041100230CA228E0F35203001400001096
:1030E000FC04001074680100266601003434650099
:1030F0002C600100D86101009B63010038003100A1
:103100009C550010500000002D2D2D2D00000000BA
:103110002D0000004600000000EB400101EBC00064
:10312000FE49421805EB041100232620FEF7D5F8CE
:1031300097F80D0400EB800004EB4000384490F851
:10314000DF04022805D905EB04110023AFF2480281
:1031500008E000EB400101EBC000F149421805EB2B
:10316000041100239220FEF7B8F897F80D0401230C
:1031700000EB800004EB400003220021FEF7F7F88B
:1031800005EB04110023E74A0820FEF7A6F8641CAB
:10319000E4B20B2CFFF420AFBDE8F09F2DE9F84F0F
:1031A0000446007802280CD002D9A078FEF76BFD07
:1031B0002078DD4E4FF0FF094FF05017012803D063
:1031C00004E0FEF71BFDF3E7A078C8B1384677604E
:1031D00000902A235E221A213620FDF7D2FCDFF868
:1031E0004C83D3490023D8F8400300EBC0004218B9
:1031F0001A213620FEF71FF82078022804D006E0B6
:103200004846C6F80490E3E7A07800287ED0384608
:103210007760009042231E2232210020FDF7B1FC8E
:103220000023C4A232211846FEF705F8C346032541
:10323000B246B8462078A84202D1A078022866D0CB
:10324000CAF80480DAF804000090232000EB051788
:10325000132000EB05163B464FF499723146FA20D5
:10326000FDF78FFCE07800EB800005EB400000EB01
:1032700080010BEB8101D1F88005421C7ED091F8D2
:10328000841501230522FEF772F8A64A3146002371
:10329000FA20FEF722F82078A84202D1A07803286D
:1032A0006DD0CAF80480DAF8040000903B4631463D
:1032B0004FF4C1724FF4A570FDF763FCE07800EBAA
:1032C000800005EB400000EB80010BEB810101F574
:1032D0008051D1F8E805421C6AD091F8EC15012321
:1032E0000522FEF744F88F4A314600234FF4A570BB
:1032F000FDF7F3FF2078A84202D1A07804285DD022
:10330000CAF80480DAF804003B4601E041E044E0FA
:103310000090314640F2DF124FF4D270FDF731FCDD
:10332000E0784FF0000300EB800005EB400101EB7B
:103330000B0000F50050314690F88106FF2840D080
:10334000AFF240224FF4D270FDF7C7FF2078A842B9
:1033500001D1A07888B3CAF80480DAF8040000909C
:103360003B4631467E222820FDF70BFCE07800EB3F
:10337000800005EB400101EB0B0001E010E014E0E0
:1033800090F80B04302822D931460023AFF288226E
:1033900025E04846C6F804903BE7CAF8049051E798
:1033A00031460023AFF2A02272E7CAF804907AE710
:1033B00031460023AFF2B02298E705E0CAF8049046
:1033C000A0E7AFF2BC22BDE7CAF80490C5E700EB66
:1033D000400101EBC000514942183146002328202A
:1033E000FDF77BFF2078A84202D1A07801281AD0EF
:1033F000CAF80480DAF8040000903B463146C42243
:103400007E20FDF7BEFBE07800EB800005EB40017D
:1034100001EB0B0090F8DD04022807D931460023A8
:10342000AFF21C320AE0CAF80490E3E700EB400177
:1034300001EBC0003A494218314600237E20FDF7D7
:103440004CFFCAF80480E078012300EB800005EB14
:10345000400003220021801EFDF789FF3146002332
:10346000304A0820FDF739FF6D1CEDB20D2DFFF439
:10347000E1AEBDE8F88F2DE9F8432B4D4FF0501623
:1034800004466E600078012800D00020FF2700B1BC
:103490006F60686800902A2358221A213020FDF7B7
:1034A00070FB2248DFF87880012390F80C0408F1C3
:1034B000FD0800EB800101EB08021A213020FDF726
:1034C000BAFE2078022803D0002018B16F6002E015
:1034D0000120FAE76E606868009040231E223021C8
:1034E0000820FDF74EFB012312A230210820FDF732
:1034F000A2FEFDF796FF20780F496FF07F4201286A
:1035000006D0022828D06078BDE8F843FEF7F3BA69
:10351000C5E900210024454654260FE0D86101008A
:103520009B6301009C55001014000010FC04001067
:103530002C6001004E6F2E003800310004EB840037
:10354000421906EB001080B20023F121FDF773FE53
:10355000641C022CE1D3DCE4C5E90021F74D002412
:103560004FF4A276C4EBC400421904EB840006EBCE
:10357000001080B20023F121FDF75DFE641C022CD7
:10358000F0D3C6E42DE9F8430446ED48ED4D4FF085
:103590005016D0F8D00301280ED1E84A0123153A7D
:1035A0001746D2211E206E60FDF745FE01233A46E4
:1035B000D2219620FDF73FFE2078012800D0002080
:1035C000FF2708B16F6000E06E60DFF87C830023A6
:1035D00005220321D8F80400FDF7C9FE68680090B1
:1035E0002C23C02218216720FDF7CBFA0023D74AED
:1035F0001A216820FDF71FFE0123D5A21A21AE2053
:10360000FDF719FE2078022803D0002018B16F6062
:1036100002E00120FAE76E60002305220321D8F8BA
:103620001C00FDF7A4FE686800904223C0222E21F2
:103630006720FDF7A6FA0023C44A30216820FDF771
:10364000FAFD0123C2A23021AE20FDF7F4FD20785F
:10365000032803D0002018B16F6002E00120FAE7D0
:103660006E60002305220321D8F83400FDF77FFEA9
:10367000686800905823C02244216720FDF781FA32
:103680000023B24A46216820FDF7D5FD0123B1A2EF
:103690004621AE20FDF7CFFD2078042803D000207E
:1036A00018B16F6002E00120FAE76E600023032288
:1036B0001946D8F84C00FDF75AFE686800902C2394
:1036C00040F2C312182140F27110FDF75AFA00239C
:1036D0009E4A1A214FF4B970FDF7ADFD01239EA259
:1036E0001A214FF4D770FDF7A6FD2078052803D0E6
:1036F000002018B16F6002E00120FAE76E602078C8
:10370000062803D0002018B16F6002E00120FAE71C
:103710006E60FDF786FE2278904958266FF07F4054
:10372000052A27D2DFE802F0030726262700BDE896
:10373000F843FDF795BFC5E9000198F8540A884998
:1037400000EB400001EB40020023F1215820FDF77F
:1037500072FD844D012404EB840005EB440206EB6A
:10376000001080B20023F121921EFDF764FD641C5D
:10377000032CF0D3EFE6C5E9000160784FF4A4799B
:1037800040B30128F6D1002547466078002300EBBE
:103790004000284400EB400007EBC0000522D0F8B1
:1037A0006C070321FDF7E3FD05EB850006EB001038
:1037B00080B20023654AF121FDF73DFD6D1C032D0C
:1037C000E3D3002368A201B04846BDE8F043F121ED
:1037D000FDF731BD002547466078002300EB40002F
:1037E000284400EB400007EBC0000522D0F86C072E
:1037F0000321FDF7BCFD05EB850006EB001080B250
:103800000023524AF121FDF716FD6D1C032DE3D371
:103810000023574AD7E72DE9F84F04464848494E58
:103820004FF05015D0F8D00301280ED1434A0123A0
:10383000153A1746D2211E207560FDF7FCFC0123C6
:103840003A46D2219620FDF7F6FC2078012800D0D8
:103850000020FF2708B1776000E075607068009075
:103860002C23C02218216720FDF78BF9DFF8D880C0
:103870003C49002398F8F000B53101EBC0021A2151
:103880006820FDF7D8FC2078022803D0002018B16A
:10389000776002E00120FAE775600023052203212A
:1038A000D8F8C400FDF763FD706800904223C02281
:1038B0002E216720FDF765F90023244A3021682076
:1038C000FDF7B9FC012322A23021AE20FDF7B3FCA5
:1038D0002078042803D0002018B1776002E001208E
:1038E000FAE77560002305220321D8F8AC00FDF744
:1038F0003EFD706840F2C31940F2711A00902C230B
:103900004A4618215046FDF73CF94FF4B97B002395
:103910000E4A1A215846FDF78EFC01230DA21A21EA
:103920004FF4D770FDF787FC2078052803D00020DE
:1039300018B177601FE00120FAE71BE0A2640100E4
:10394000FC040010140000100C4000109C550010E6
:1039500041000000560000006D7300003800310087
:1039600062660100445B01005052455600000000B1
:10397000D81800007560002305220321D8F8DC0068
:10398000FDF7F5FC7068009042234A462E21504610
:10399000FDF7F7F80023FE4A30215846FDF74BFCAF
:1039A0000123AFF2500230214FF4D770FDF743FCF2
:1039B000FDF737FD2078002803D8BDE8F84FFDF764
:1039C0004FBE56E52DE9F84FDFF8C89305460526AA
:1039D000D9F8A0016A78B0FBF6F1DFF8BC83491D85
:1039E000914201D91E2006E0B0FBF6F106FB110062
:1039F00000EB8000401D88F80200C0B2401F90FB21
:103A0000F6F0C0B2FDF7CAFF0024DFF890B3E44F30
:103A100019E0CBF804706878002300EB80002044A4
:103A2000022219461838FDF7A2FC04EB440000EB13
:103A3000C4015F2000EB410081B20123D44A03207E
:103A4000FDF7F9FB641C98F80200B246401F90FB9A
:103A5000FAF0A042DDD8D04E05242436A6F10C079A
:103A6000BCE0D046B4FBF8F0B4FBF8F136F8100037
:103A7000B4FBF8FC401E83B20AFB114007EB400088
:103A80004088401E82B2B4FBF8F006EB400030F8EC
:103A9000020C401C81B208FB1C40DBF804C037F864
:103AA0001000CDF800C0401C80B2FDF76AF8B4FBEE
:103AB000F8F108FB1140C8B14046B4FBF0F108FB37
:103AC0001141012934D0B4FBF0F100FB114102296E
:103AD0003CD0B4FBF0F100FB1141032947D0B4FB0B
:103AE000F0F100FB1141042950D076E0611F4046FF
:103AF000B1FBF0F26978B4FBF8F301EB81010A4401
:103B000002EB0901A74A91F89D11C1EBC1010A44DA
:103B1000B4FBF0F106EB410108FB134031F8021C45
:103B200037F81000C91CC01C89B280B2002352E0D3
:103B3000611FB1FBF8F1687800EB8000084400EBEE
:103B4000400109EBC10050F88C0C0CE0611FB1FB87
:103B5000F8F1687800EB8000084400EB400109EBC5
:103B6000C100D0F8DC000023052203211FE0611F03
:103B7000B1FBF8F1687800EB8000084400EB4001ED
:103B8000894800EBC100D0F8CC01ECE7611FB1FB24
:103B9000F8F16878002300EB8000084400EB400156
:103BA0008148062200EBC1001946D0F83403FDF726
:103BB000DEFBB4FBF8F006EB4000B4FBF8F230F8A3
:103BC000020C0023C01C81B208FB1240704A37F877
:103BD0001000C01C80B2FDF72EFB641C6E4880787C
:103BE0008442FFF43EAF44E42DE9F84F05460078E7
:103BF000012800D00020694C4FF0501610B1FF2072
:103C0000606000E06660634F002303221946D7F826
:103C1000A001FDF7ACFB606800902C23C92218219D
:103C20006720FCF7AEFF0023594A1A216820FDF7F0
:103C300002FB2878022804D0002020B1FF20606019
:103C400003E00120F9E73046666000904223C0227D
:103C50002E216720FCF795FF97F8B4010023C0EBF5
:103C6000C00150481C380A1830216820FDF7E3FADB
:103C70002878032804D0002020B1FF20606002E0F3
:103C80000120F9E766606068A14640F27114009077
:103C90002C234FF4DD7218212046FCF772FF97F8B1
:103CA000B501BA46C0EBC0013E483E460E380A1880
:103CB00000231A212046FDF7BEFAD6F8A0010526FA
:103CC000B0FBF6F16A78DFF8D080491C914201D947
:103CD000232008E0B0FBF6F106FB110000EB4000EA
:103CE000062101EB400088F80200C0B2401F90FBA3
:103CF000F6F0C0B2FDF72EFD00245F27B34619E0B1
:103D00002748C9F804006878002300EB80002044AD
:103D100002221946001FFDF72AFB04EB440000EBCA
:103D2000C40107EB410081B20123194A0320FDF7CA
:103D300082FA641C98F80200401F90FBFBF0A0423E
:103D4000DED8687801287DD1134E05242436A6F1EB
:103D50000C0717E12878A04201D1012000E00020E3
:103D600008B1FF2000E00E48D846C9F80400B4FBB3
:103D7000F8F0B4FBF8F136F81000401E83B20BFBEC
:103D8000114007EB40004088401E82B20EE0000068
:103D90009C5500100C40001038000010140000105A
:103DA00034346500255C0100F04C0010B4FBF8F0E1
:103DB00006EB4000B4FBF8FC30F8020C401C81B26A
:103DC00008FB1C40D9F804C037F81000CDF800C03B
:103DD000401C80B2FCF7D5FEB4FBF8F108FB1140A3
:103DE000C8B14046B4FBF0F108FB1141012936D0BF
:103DF000B4FBF0F100FB114102293ED0B4FBF0F11D
:103E000000FB1141032946D0B4FBF0F100FB114146
:103E100004297BD0B5E0611F4046B1FBF0F2697820
:103E200001EB81010A4402EB0A0191F8B111C1EBE7
:103E3000C102FE490A44B4FBF0F106EB410131F83E
:103E4000021C00E0A3E0B4FBF8F308FB1340C91C1C
:103E500037F8100089B2C01C80B200238FE0611FC8
:103E6000B1FBF8F1687800EB8000084400EB4001FA
:103E70000AEBC100D0F854011AE0611FB1FBF8F160
:103E8000687800EB8000084400EB40010AEBC100B9
:103E9000D0F8BC0247E0611FB1FBF8F1687800EB95
:103EA0008000084400EB40010AEBC100D0F8240474
:103EB000002305220321FDF75AFAB4FBF8F006EBC4
:103EC0004000B4FBF8F230F8020C0023C01C81B2B1
:103ED00008FB1240D64A37F81000C01C80B2FDF72C
:103EE000AAF9B4FBF8F006EB4000B4FBF8F230F8A6
:103EF000020CC01C81B208FB124037F810003F30A2
:103F000080B20023AFF2B45239E0FFE7611FB1FB8A
:103F1000F8F1687800EB8000084400EB40010AEB00
:103F2000C100D0F88C05002305220321FDF71FFAFC
:103F3000B4FBF8F006EB4000B4FBF8F230F8020CEA
:103F40000023C01C81B208FB1240B94A37F81000A8
:103F5000C01C80B2FDF76FF9B4FBF8F006EB40002F
:103F6000B4FBF8F230F8020CC01C81B208FB12401E
:103F700037F810003F3080B20023AFF22C62FDF71B
:103F80005AF9641CAB4880788442FFF4E3AEFDF735
:103F900048FA2878A84A58256FF07F414FF4CA762E
:103FA000052836D230B101284DD0022807D0032889
:103FB00049D119E0C9E90012FDF752FB43E09B4FDC
:103FC000C9E9001200241C3FC4EBC400C21904EB71
:103FD000840005EB001080B20023F121FDF72BF9DE
:103FE000641C022CF0D32EE0904FC9E9001200248B
:103FF0000E3FC4EBC400C21904EB840005EB0010B3
:1040000080B20023F121FDF716F9641C022CF0D3D5
:1040100019E0B0FBFBF40BFB1400C9E90012002807
:10402000484610D1814F0024C4EBC400C21904EBF0
:10403000840005EB001080B20023F121FDF7FBF8AE
:10404000641C032CF0D301B03046BDE8F04F0023D0
:104050007AA2F221FDF7EFB82DE9F84304467A4839
:104060007A4D4FF05016D0F8D00301280DD1784A80
:1040700001231746D2211E206E60FDF7DCF80123D4
:104080003A46D2219620FDF7D6F82078012800D0B4
:104090000020FF2708B16F6000E06E60DFF8B48198
:1040A000002305220321D8F86400FDF760F9686851
:1040B00000902C23C02218216720FCF762FD00230A
:1040C0005B4A1A216820FDF7B6F80123AFF27C7233
:1040D0001A21AE20FDF7AFF82078022803D0002087
:1040E00018B16F6002E00120FAE76E60002305223C
:1040F0000321D8F87C00FDF73AF968680090422364
:10410000C0222E216720FCF73CFD0023484A3021C5
:104110006820FDF790F80123AFF2CC723021AE2079
:10412000FDF789F82078032803D0002018B16F60CC
:1041300002E00120FAE76E60002305220321D8F88F
:104140009400FDF714F9686800905823C0224421B8
:104150006720FCF716FD0023354A46216820FDF74D
:104160006AF80123AFF618024621AE20FDF763F886
:10417000FDF757F92078002803D8BDE8F843FDF78C
:104180006FBABDE8F8832DE9F84F0446007801289E
:1041900000D000202D4FFF254FF0501608B17D6054
:1041A00000E07E60DFF8AC80002305220321D8F810
:1041B0006C07FDF7DCF8786800902C23C0221821EA
:1041C0006720FCF7DEFC0023194A1A216820FDF75E
:1041D00032F80123AFF684021A21AE20FDF72BF846
:1041E0002078022803D0002018B17D6002E0012071
:1041F000FAE77E60002305220321D8F88407FDF743
:10420000B6F8786800904223C0222E216720FCF780
:10421000B8FC0023064A30216820FDF70CF8012382
:10422000AFF6D0023021AE2016E00000255C010080
:104230009C5500103800001038003100BDF8C8EB64
:10424000B2E2CAD400000000FC0400101400001008
:104250008D6401000C400010FCF7EDFF207803286E
:1042600003D0002018B17D6002E00120FAE77E60F3
:10427000002305220321D8F89C07FDF778F8786819
:1042800000905823C02244216720FCF77AFC0023C9
:10429000FE4A46216820FCF7CEFF0123AFF64C1200
:1042A0004621AE20FCF7C7FF2078042803D0002069
:1042B00018B17D6002E00120FAE77E60002305224C
:1042C0000321D8F8B407FDF752F8786840F2611A74
:1042D00000902C234FF4E17218215046FCF751FC5A
:1042E0004FF4B17B0023E94A1A215846FCF7A3FF9B
:1042F0000123AFF6A0121A214FF4D470FCF79BFFF4
:104300002078052803D0002018B17D6002E001204C
:10431000FAE77E60002305220321D8F8CC07FDF7D9
:1043200026F87868009042234FF4E1722E2150461F
:10433000FCF727FC0023D54A30215846FCF77BFFC9
:104340000123AFF6F0124FF4D47930214846FCF740
:1043500072FF2078062803D0002018B17D6002E0AB
:104360000120FAE77E60002305220321D8F8E40744
:10437000FCF7FDFF7868009058234FF4E172442168
:104380005046FCF7FEFB0023C04A46215846FCF786
:1043900052FF0123AFF6442246214846FCF74BFF6B
:1043A000FDF73FF82078002804D16078BDE8F84F89
:1043B000FDF7D0BD17E430B40B46B549144600EB09
:1043C00040004218A1B298B230BC0123FCF785BF6F
:1043D0002DE9F84FAF4EB04F4FF0501504467560C1
:1043E000D7F8FC004FF4B97CB0B10023ABA23F2159
:1043F0006046FCF772FF0023A8A23F21C820FCF70B
:104400006CFF2078012800D000204FF0FF0A80B117
:104410005046C6F804A00EE03F226146D7F8880354
:10442000FFF7C9FF3F22C821D7F88803FFF7C3FF72
:10443000E7E72846756000902A2399221821452035
:10444000FCF79FFBD7F88803012300EBC0019448D9
:104450000A1818214620FCF7EEFE2078022804D026
:10446000002020B1C6F804A002E00120F9E7756041
:1044700097F8EC1057F8E80F00230522FCF777FFB8
:10448000706800902A2340F245121821E220FCF7C0
:1044900078FB01237D4A1821E520FCF7CCFEB868A3
:1044A000012300EB40017A4833380A18182140F202
:1044B0002910FCF7C0FED7F8A002182240F23311F1
:1044C000E83FFEF7C1F92078032805D0002028B185
:1044D0005046C6F804A003E00120F8E728467560BE
:1044E00000902A2340F2DD12182140F28F10FCF7D1
:1044F00048FB6C48D7F8FC10012300EB810218211F
:104500004FF4C870FCF797FE2078042805D00020EF
:1045100028B15046C6F804A003E00120F8E7284679
:10452000756000903E2399222C214520FCF729FB41
:10453000D7F8E000DFF8708100EB800101EB0802A2
:1045400000232C214620FCF776FE2078052804D095
:10455000002020B1C6F804A002E00120F9E7756050
:1045600070680090B1463E234FF49C722C21E420E9
:10457000FCF707FBD7F80401012300EB80014A4850
:104580000A182C21E520FCF756FE0626BB462078AB
:10459000B04202D1C9F804A009E0A6F1090004283C
:1045A00003D24248C9F8040001E0C9F80450D9F820
:1045B0000400C6EB06170090B81C83B20E3FB9B2D8
:1045C000E6229420FCF7DDFA06EB46010BEB01181E
:1045D00058F8140C20B318F8101C00230522FCF71F
:1045E000C6FEB9B20123294AA020FCF776FEDBF80B
:1045F000FC0058B958F80C0C012300EB400124488A
:1046000033380A18B9B2D020FCF767FE761C0F2E9B
:10461000BDD310262078B04207D1C9F804A00EE01F
:104620000123B9B2224AA020EEE7A6F11300042824
:1046300003D21E48C9F8040001E0C9F80450D9F8B3
:104640000400C6EB06170090A7F1940083B2A43FC4
:10465000B9B24FF4C3724FF49A70FCF792FA06EBBA
:1046600046000BEB0010A0F58058D8F8240E002867
:104670007ED098F8281E00230522FCF778FEB9B2F8
:104680000023024A4FF4A57014E000009C5500106E
:10469000976B010014000010FC04001025000000BE
:1046A0002C600100505B0100EF64010034346500B0
:1046B000742C0000FCF711FEDBF8FC0058B9D8F8A8
:1046C0002C0E012300EB4001FB480A18B9B24FF44D
:1046D000BD70FCF702FE761C192E9BD320780F28A4
:1046E00065D0C9F80450D9F804000090C846E32307
:1046F000E622D3219420FCF744FAD9469BF8C01255
:1047000000230522DBF8BC02FCF731FE0123EB4A53
:10471000D321A020FCF7E1FDD9F8C402E64E00EB5E
:1047200040018A190123D321D020FCF7D6FD20783F
:1047300019283FD02846C8F804500090E3234FF4CE
:10474000C372D3214FF49A70FCF71BFA99F8D81270
:1047500000230522D9F8D402FCF709FE0023D74A2A
:10476000D3214FF4A570FCF7B8FDD9F8DC0200E0C6
:1047700017E000EB40018A190123D3214FF4BD70EB
:10478000FCF7ABFDFCF74DFE2278CD4868266D2581
:104790006FF07F41062A5FD2DFE802F0102B2B1565
:1047A0002F46B9B20123C74A4FF4A57091E7C9F863
:1047B00004A098E75046C8F804A0BEE76078BDE8BA
:1047C000F84FFDF7C7BBC8E900100024DFF8F882F6
:1047D00072250FE074B104EB840005EB001008EBC8
:1047E000840280B20023F121FCF725FD641C022C19
:1047F000F0D3DFE542463046F4E7C8E90010002474
:10480000B24F0EE06CB104EB8400C21905EB00104E
:1048100080B20023F121FCF70EFD641C022CF1D3C1
:10482000C8E53A463046F4E7C8E9001037460024A8
:10483000A64E0EE06CB104EB8400821905EB00106B
:1048400080B20023F121FCF7F6FC641C022CF1D3AA
:10485000B0E532463846F4E7C8E90010D9F84C1301
:104860004FF4CA74012910D00029C2D1002398A2A4
:10487000F1215D20FCF7DFFC002397A201B0204668
:10488000BDE8F04FF221FCF7D6BC002395A2F12140
:104890005D20FCF7D0FC002394A2EFE72DE9F84F50
:1048A00006460078012800D00020924CFF254FF0EA
:1048B000501708B1656000E06760606800902C23C5
:1048C000C02218215820FCF75CF9DFF82C82DFF8B1
:1048D000FC910123D8F8000000EB800101EB0902F4
:1048E0001A215820FCF7A7FC3078022803D00020BA
:1048F00018B1656002E00120FAE767606068009027
:104900004223C0222E215820FCF73BF9D8F804009E
:10491000012300EB800101EB090230215820FCF754
:104920008AFCFCF77EFD694F3278B63F6449542516
:104930006FF07F404FF0670A4FF06C0B07F1C5092D
:10494000A7F1200807F22F1C122A3FD2DFE802F05D
:10495000090E6E899CEEECEBEAE9E8E7E6E5E4E3B4
:10496000E2B37078BDE8F84FFDF7F4BA7278BAB1E7
:1049700040F2931940F2BD1A012AC4E9000129D07E
:1049800000235E4A4FF482715420FCF754FC00234C
:104990005B4AF2214846FCF74EFC002359A23BE05B
:1049A000C4E900010024584D57465E460FE074B13B
:1049B00004EB840006EB001005EBC40280B2002378
:1049C000F121FCF738FC641C022CF0D3F2E42A46F7
:1049D0003846F4E7494F0024283F07F1180540F214
:1049E00057164FF0620801E0032C1CD004EB840141
:1049F00008EB011007EBC40280B20023F121FCF7A1
:104A00001AFC641C042CEFD300233D4AF2214846D3
:104A1000FCF711FC00233DA201B05046BDE8F04F69
:104A2000F221FCF708BC2A463046E6E7C4E900015B
:104A3000354D0024203557465E460FE074B104EB37
:104A4000840006EB001005EBC40280B20023F121C4
:104A5000FCF7F1FB641C022CF0D3ABE42A46384689
:104A6000F4E7C4E900012A4E002404EB840005EBBE
:104A7000001006EBC40280B20023F121FCF7DBFB3F
:104A8000641C022CF1D395E4C4E900010F4E00240C
:104A90001F3604EB440000EBC400821904EB8400D1
:104AA00005EB001080B20023F121FCF7C4FB641C6D
:104AB000042CEED37EE422E1646B01009C550010CF
:104AC00038003100742C0000505B0100EF640100DD
:104AD000C7E5B3FDD0D00000C7E5B3FDB1EDB8F137
:104AE0000000000043656C205200000043656C4CE0
:104AF0006973740014000010FC04001004600100CD
:104B0000041E0000332F330090690100322F330060
:104B1000BC630100E1E0CAE0B7E0A4E08CE077E02C
:104B200064E04FE03CE029E012E0FFE7C4E9000167
:104B3000002404EB840005EB001009EBC40280B2F2
:104B40000023F121FCF777FB641C022CF1D331E444
:104B5000C4E90001FE4E002404EB440000EBC40055
:104B6000821904EB840005EB001080B20023F121D0
:104B7000FCF761FB641C022CEED31BE4C4E90001CA
:104B8000002404EB840005EB001007EBC40280B2A4
:104B90000023F121FCF74FFB641C022CF1D309E444
:104BA000C4E90001002404EB840005EB001007EBCE
:104BB000C40280B20023F121FCF73DFB641C022CEF
:104BC000F1D316E6C4E90001E14E0024163604EBE9
:104BD000840005EB001006EBC40280B20023F12133
:104BE000FCF729FB641C032CF1D302E6C4E90001A5
:104BF000002404EB840005EB001008EBC40280B233
:104C00000023F121FCF717FB641C042CF1D3F0E521
:104C1000C4E90001CE4E0024D03E04EB840005EB35
:104C2000001006EBC40280B20023F121FCF703FB65
:104C3000641C032CF1D3DCE5C4E90001C44E00245C
:104C4000B83E04EB440000EBC400821904EB84007E
:104C500005EB001080B20023F121FCF7ECFA641C94
:104C6000022CEED3C5E5C4E90001002404EB840066
:104C700005EB001007EBC40280B20023F121FCF722
:104C8000DAFA641C022CF1D3B3E5C4E90001002474
:104C900004EB840005EB001009EBC40280B2002392
:104CA000F121FCF7C8FA641C022CF1D3A1E5C4E998
:104CB00000010024664604EB440000EBC4008219A6
:104CC00004EB840005EB001080B20023F121FCF717
:104CD000B2FA641C022CEED38BE5C4E90001002477
:104CE00004EB840005EB001008EBC40280B2002343
:104CF000F121FCF7A0FA641C042CF1D379E5C4E996
:104D000000010024664604EB440000EBC400821955
:104D100004EB840005EB001080B20023F121FCF7C6
:104D20008AFA641C042CEED363E52DE9F84F04469F
:104D30000078012800D00020864FFF254FF0501644
:104D400008B17D6000E07E60786800902C23C0226E
:104D50001A215E20FBF715FFDFF8FCA1DAF84C03FF
:104D6000012801D018B108E000237CA201E0002353
:104D70007CA21C215F20FCF75EFA2078022803D079
:104D8000002018B17D6002E00120FAE77E607868BB
:104D900000904223C02230215E20FBF7F2FEDFF8B4
:104DA000D081DFF8AC91012398F87D02A9F14B097D
:104DB00000EB800101EB090232215F20FCF73BFA96
:104DC0002078032803D0002018B17D6002E0012084
:104DD000FAE77E60786800905823C02246215E2062
:104DE000FBF7CFFE98F87E02012300EB800101EB78
:104DF000090248215F20FCF71EFA2078042803D01E
:104E0000002018B17D6002E00120FAE77E6078683A
:104E100000906E23C0225C215E20FBF7B2FED146DB
:104E2000DAF84C13DFF84CA100230AEBC1025E2133
:104E30005F20FCF700FA2078052803D0002018B185
:104E40007D6002E00120FAE77E60786800908423AC
:104E5000C02272215E20FBF794FE002346A274213B
:104E60005F20FCF7E8F92078062803D0002018B16D
:104E70007D6002E00120FAE77E60786800909A2366
:104E8000732288215E20FBF77CFEDFF8F48001238B
:104E900002220021D8F81C00FCF769FA0023394AE5
:104EA0008A215F20FCF7C7F9002337A28A217320EB
:104EB0007E60FCF7C0F92078072803D0002018B1E5
:104EC0007D6002E00120FAE77E60786800909A2316
:104ED000912288217C20FBF754FE0123022200212D
:104EE000D8F81800FCF743FA0023264A8A217D20CF
:104EF000FCF7A1F9002324A28A2191207E60FCF70F
:104F00009AF92078082803D0002018B17D6002E0CB
:104F10000120FAE77E60786800909A23B122882108
:104F20009C20FBF72EFE012302220021D8F80C0062
:104F3000FCF71DFA13494FF0000B0A4681F802B046
:104F40005B468A219D20FCF776F900230FA223E01F
:104F50003A65010014000010FC04001053696D4212
:104F600061740000C4A3C4E2B5E7B3D80000000038
:104F7000644A0010E06A0100484F4C440000000001
:104F8000A85500109C5500102D0000004661637468
:104F9000204E6F2E3A000000A02118467E60FCF7DC
:104FA0004AF90023F74AA0215E20FCF744F9207853
:104FB000092803D0002018B17D6002E00120FAE743
:104FC0007E60786800902C234FF4DD721A214FF434
:104FD000AC70FBF7D6FD0023EB4A1C2140F25910C0
:104FE000FCF729F920780A2803D0002018B17D6049
:104FF00002E00120FAE77E607868009042234FF4D7
:10500000DD7230214FF4AC70FBF7BBFD0123DF4AAA
:10501000322140F25910FCF70EF920780B2803D00A
:10502000002018B17D6002E00120FAE77E60786818
:10503000009058234FF4DD7246214FF4AC70FBF71B
:10504000A0FDD24A01232A32482140F25910FCF730
:10505000F2F820780C2803D0002018B17D6002E01F
:105060000120FAE77E60786800906E234FF4DD72CD
:105070005C214FF4AC70FBF784FDC5A1C548D9F89D
:1050800080230BF03BFC0123C3A25E2140F25910A8
:10509000FCF7D1F820780D2803D0002018B17D60EE
:1050A00002E00120FAE77E607868009084234FF4E4
:1050B000DD7272214FF4AC70FBF763FDB34A01233C
:1050C0003B32742140F25910FCF7B5F820780E28D5
:1050D00003D0002018B17D6002E00120FAE77E6075
:1050E000786840F26D1900909A234A4688214FF45F
:1050F000AC70FBF746FD012302220021D8F808001E
:10510000FCF735F90023A34A8A2140F25910FCF735
:1051100092F80023AFF284128A2148467E60FCF7A1
:105120008AF820780F2803D0002018B17D6002E0B3
:105130000120FAE77E60786840F28B1900909A238C
:105140004A4688214FF4BB70FBF71BFD0123022266
:105150000021D8F80400FCF70AF900238D4A8A21BF
:1051600040F27710FCF767F80023AFF2D8128A21DB
:1051700048467E60FCF75FF82078102803D00020B6
:1051800018B17D6002E00120FAE77E607868009047
:105190009A2340F2AB1288214FF4CB70FBF7F1FC5D
:1051A000012302220021D8F80000FCF7E0F8794939
:1051B00000230A4681F802B08A2140F29710FCF7DA
:1051C0003AF8FCF72EF9DFF8C49122787449A9F176
:1051D0003C096C2558266FF07F404FF06708A9F115
:1051E0004904112A25D2DFE802F009240D2A47627A
:1051F0006E8092A4B6E0FAF9F8F7F600BDE8F84F31
:10520000FCF761BFC7E90001002413E094B104EB8F
:10521000440000EBC40000EB090204EB840005EB42
:10522000001080B20023F121FCF705F8641C022C69
:10523000ECD312E40023F1214A466720F4E7C7E9E2
:105240000001002413E094B104EB440000EBC4001F
:1052500000EB090204EB840005EB001080B2002390
:10526000F121FBF7E8FF641C022CECD30BE40023D4
:10527000F1214A466720F4E70024C7E900015546BA
:1052800054260FE074B104EB840006EB001005EB2C
:10529000C40280B20023F121FBF7CDFF641C022C75
:1052A000F0D307E40023F1212A466620F4E7C7E99A
:1052B00000010023AFF2403201B0F121BDE8F04F10
:1052C0006220FBF7B8BFC7E90001002505EB8500A8
:1052D00006EB001004EBC50280B20023F121FBF7BE
:1052E000AAFF6D1C022DF1D331E4C7E900010025AE
:1052F00005EB850006EB001004EBC50280B200232D
:10530000F121FBF798FF6D1C022DF1D31FE4C7E9D3
:105310000001002505EB850006EB001004EBC5023B
:1053200080B20023F121FBF786FF6D1C022DF1D323
:105330000DE4C7E90001002505EB850006EB001030
:1053400004EBC50280B20023F121FBF774FF6D1C52
:10535000022DF1D311E40D4D0024C7E900010E3DEB
:1053600020E0FCB1C4EBC400421904EB840006EB5E
:10537000001080B20023F121FBF75DFF641C022CBA
:10538000EFD30CE4E34C0010216B0100BE6401007C
:10539000253264009C5500104E4F4E450000000021
:1053A000380031002A464046E4E7C7E900010024FE
:1053B000FE4D15E0A4B1022C12D0032C10D0012C0C
:1053C00016D0C4EBC400421904EB84005D2101EB4C
:1053D000001080B20EE064E051E03EE024E011E015
:1053E000C4EBC400421904EB840006EB0010F0E7A4
:1053F000EA1DB2200023F121FBF71DFF641C052CE0
:10540000D8D304E4C7E90001002505EB850006EBCD
:10541000001004EBC50280B20023F121FBF70BFF63
:105420006D1C022DF1D306E4E04E0024C7E9000113
:1054300039360FE074B104EB840008EB001006EB82
:10544000C40280B20023F121FBF7F5FE641C022C9C
:10545000F0D307E432462846F4E7C7E90001002507
:1054600005EB850006EB001004EBC50280B20023BB
:10547000F121FBF7E0FE6D1C022DF1D304E4C7E936
:105480000001002505EB850006EB001004EBC502CA
:1054900080B20023F121FBF7CEFE6D1C022DF1D36B
:1054A00004E4C7E90001002505EB850006EB0010C8
:1054B00004EBC50280B20023F121FBF7BCFE6D1C9A
:1054C000022DF1D308E408B5B94800210090162355
:1054D00096220846FBF755FBBDE80840FBF7A1BF45
:1054E00070B50646FFF7EFFFB24CB1486FF07F454D
:1054F000C4E900500023B04A04211846FBF79BFE84
:105500004FF05010C4E9005070781A25012804D0DB
:10551000022816D0032829D03CE0A84E0024C4EB72
:105520000410821904EB440000EBC40005EB4000BA
:1055300081B200231846FBF77EFE641C072CEED3D5
:1055400028E09E4E0024E136C4EB0410821904EBDF
:10555000440000EBC40005EB400081B20023184674
:10556000FBF769FE641C092CEED313E0934E002474
:105570006936C4EB0410821904EB440000EBC4004C
:1055800005EB400081B200231846FBF754FE641C73
:10559000082CEED3BDE870400220FCF7DBBC2DE9FF
:1055A000F84F05464178DFF80C822A271A204FF081
:1055B000FF094FF05016012904D0022956D00329C3
:1055C00076D011E10024824604EB440000EBC400D5
:1055D00007EB40018BB20AEB4000C8F8046081B2CF
:1055E000AC2250200096FBF7CCFA641C072CEBD3BE
:1055F000D346DFF8CCA100242978601C814201D178
:10560000012000E0002010B1C8F8049001E0C8F8C3
:10561000046004EB44010AEBC1000023D0F8180831
:1056200005220321FBF7A3FED8F80400009004EB49
:10563000440000EBC4002A2101EB40010BEB4007C2
:105640008BB2B9B29C225020FBF79BFAB9B200236F
:105650005C4A5020FBF7EFFDB9B201235AA29C200F
:10566000FBF7E9FD641C072CC6D3BDE00024BA4655
:10567000834604EB440000EBC4000AEB40018BB20C
:105680000BEB4000C8F8046081B24746AC225020C2
:105690000096FBF776FA641C092CEAD3DFF820A108
:1056A0000024B8462978601C814202D1012001E023
:1056B00033E0002010B1C8F8049001E0C8F804609D
:1056C00004EB44010AEBC1000023D0F88009052255
:1056D0000321FBF74CFED8F80400009004EB4400D3
:1056E00000EBC4002A2101EB40010BEB40078BB219
:1056F000B9B29C225020FBF744FAB9B20023314AD8
:105700005020FBF798FDB9B2012330A29C20FBF793
:1057100092FD641C092CC5D366E00024824604EB8C
:10572000440000EBC40007EB40018BB20AEB4000E1
:10573000C8F8046081B2AC2250200096FBF721FA31
:10574000641C082CEBD3DFF878B000242978601CA7
:10575000814201D1012000E0002010B1C8F804907E
:1057600001E0C8F8046004EB44010BEBC100002326
:10577000D0F8C00805221946FBF7F9FDD8F8040057
:10578000009004EB440000EBC4002A2101EB40012F
:105790000AEB40078BB2B9B29C225020FBF7F1F91B
:1057A0000023B9B2074A502012E00000C56401008E
:1057B000F3520300140000105E680100745E0100E3
:1057C0000C4000109C5500105600000041000000E5
:1057D000FBF731FDB9B20123AFF240429C20FBF749
:1057E0002AFD641C082CB1D3FBF71BFE28780A287D
:1057F0001CD2DFE800F0050A0A0A0A0A0A0A0A0AA5
:10580000BDE8F84F0220FCF7A5BB6FF07F41C8F858
:105810000010F949C8F8041001B00023BDE8F04FAA
:10582000F64AF1214FF4CC70FBF705BD01E5F8B560
:1058300004460078012800D00020F14FFF254FF0EA
:10584000501608B17D6000E07E60786800902C23DF
:10585000C02218215C20FBF794F90023E94A1A21A1
:105860005C20FBF7E8FC2078022803D0002018B168
:105870007D6002E00120FAE77E60786800904223B4
:10588000C0222E215C20FBF77CF9DE4A002308327F
:1058900030215C20FBF7CFFC2078032803D00020C8
:1058A00018B17D6002E00120FAE77E607868009020
:1058B0005823C02244215C20FBF763F9D14A00231E
:1058C000103246215C20FBF7B6FC2078042803D078
:1058D000002018B17D6002E00120FAE77E60786860
:1058E00000906E23C0225A215C20FBF74AF9C54A7A
:1058F0005C21002318320846FBF79DFC2078052820
:1059000003D0002018B17D6002E00120FAE77E603C
:10591000786800908423C02270215C20FBF731F965
:10592000B84A0023203272215C20FBF784FCFBF78D
:1059300078FD207860B1607800281DD16FF07F403D
:105940003860AD48786000246727AF4D6C2614E0BE
:10595000BDE8F8400220FCF7FDBA74B104EB840006
:1059600006EB001005EBC40280B20023F121FBF727
:1059700062FC641C022CF0D3F8BD2A463846F4E7DA
:10598000F8B504460078012800D000209C4FFF2580
:105990004FF0501608B17D6000E07E60786800909E
:1059A0002C23C02218215C20FBF7EBF8954A012339
:1059B000403A1A215C20FBF73EFC2078022803D0F5
:1059C000002018B17D6002E00120FAE77E6078686F
:1059D00000904223C0222E215C20FBF7D2F8894A96
:1059E0000123383A30215C20FBF725FC207803287E
:1059F00003D0002018B17D6002E00120FAE77E604C
:105A0000786800905823C02244215C20FBF7B9F845
:105A10007C4A0123303A46215C20FBF70CFC2078BD
:105A2000042803D0002018B17D6002E00120FAE7CD
:105A30007E60786800906E23C0225A215C20FBF7BC
:105A4000A0F8704A5C210123283A0846FBF7F3FBD3
:105A50002078052803D0002018B17D6002E00120E5
:105A6000FAE77E60786800908423C02270215C2071
:105A7000FBF787F8634A0123203A72215C20FBF789
:105A8000DAFB2078062803D0002018B17D6002E000
:105A90000120FAE77E60786800909A23C022862170
:105AA0005C20FBF76EF8574A0023183A88215C20E7
:105AB000FBF7C1FB2078072803D0002018B17D60D8
:105AC00002E00120FAE77E6078680090B023C022EF
:105AD0009C215C20FBF755F84A4A0023103A9E218E
