:020000040000FA
:10000000E863001021F9000029F900002BF9000035
:100010002DF900002FF9000031F900000000000068
:1000200000000000000000000000000033F90000A4
:1000300035F900000000000037F90000D30400008B
:100040003BF90000C9050000F905000009060000A1
:1000500019060000A70C01003BF900003BF9000065
:100060008F0E01003BF900003BF900003BF9000056
:100070003BF900003BF900003BF900003BF90000B0
:100080003BF9000041F700003BF900003BF900009C
:100090003BF900003BF900003BF900003BF9000090
:1000A000C72101003BF90000A9F700003BF900005F
:1000B0003BF900003BF900003BF900003BF9000070
:1000C0003BF900003BF900003BF900003BF9000060
:1000D0003BF900003BF90000010300003BF9000080
:1000E0003BF90000DFF80CD013F07EF90048004720
:1000F00047030000E8630010734840F201210160EB
:1001000041608160C160016141618161C1610162E1
:1001100041628162C162016341638163C1630164C1
:1001200041648164C164016541658165C1650166A1
:1001300041668166C166016741678167C167C0F832
:100140008010C0F88410C0F88810C0F88C10C0F877
:100150009010C0F89410C0F89810C0F89C10C0F827
:10016000A010C0F8A410C0F8A810C0F8AC10C0F8D7
:10017000B010C0F8B410C0F8B810C0F8BC10C0F887
:10018000C010C0F8C410C0F8C810C0F8CC10C0F837
:10019000D010C0F8D410C0F8D810C0F8DC10C0F8E7
:1001A000E41040F8401C40F83C1C40F8381C40F873
:1001B000301C40F8201C40F8101C40F80C1C40F883
:1001C000081C40F8041C70472DE9F0413F4E306890
:1001D00040F40060306041F61F70C6F818013C4CD6
:1001E000012222600027A760FFF786FF39483A49BD
:1001F0000068B0FBF1F5F06BC43E00B16D084FF440
:100200007A78B8FBF5F000F11303B3FBF0F121634A
:100210004FF00F0CC4F834C0A763E263B3FBF0F1F6
:10022000891C2164626400F13E01B1FBF0F3A36418
:10023000B1FBF0F3E364C4F850C0B1FBF0F06065CB
:10024000A265A26240F20330C4F804014FF48D406D
:10025000C4F80001C4F800016421002000F060F936
:1002600040F283102062C821002000F059F940F2CA
:1002700003102062022060620020401C8028FCD312
:1002800040F2E7104543B5FBF8F080B2606283208E
:100290002062124800682762D4F8000140F4002070
:1002A000C4F800010121002000F03AF901210020EA
:1002B00000F036F9D6F8DC0120F01F0040F0110004
:1002C000C6F8DC01BDE8F08180C10240C4C00F4027
:1002D00000C009207802001040420F00004006A034
:1002E000421E12F8013F002BFBD111F8013B02F82E
:1002F000013B002BF9D1704712F020BDFFFFFFFF3B
:1003000010B50122132100200FF0F2FC002819D0B3
:100310006FF07F40401E0028FCD17C487C490122C0
:10032000037823B1002202701320086002E00270FB
:10033000022008604FF4002100200FF004FD7549F1
:100340004020086010BD00200FF0EEFD00244FF4A7
:100350007A71B0FBF1F0401E0026B0F1807F0CD224
:1003600020F07F404FF0E025401E68611F21601E95
:1003700000F0BBF8AE61072028610122D104002003
:100380000FF097FC0121262000F0AFF861494020D2
:10039000803908600FF02FF90FF0ABF810F0DBFB9D
:1003A0005A480670042010F01FFD10F051FF0FF0A6
:1003B000DCF90EF0BEFF0FF01EF90FF06FF8FFF73B
:1003C00003FF002000F0E6F953480021406900F0E7
:1003D00010FA012000F0DEF900200FF0E7F84C4D94
:1003E000132028604FF050160FF079F9FF2803D042
:1003F000641C022C02D004E00024FAE7304600F02E
:10040000B6FA2868801E1228EED2DFE800F0093E16
:1004100038440F171A1D20262C324A235C50565F91
:10042000304600F0A4FA09F080FEDDE7304600F027
:100430009EFA0EF04DFF0BF053FED5E70AF06BF974
:10044000D2E70AF07DFBCFE70AF052FFCCE70BF0D2
:1004500015FCC9E70EF01AF9C6E7304600F087FA36
:100460000CF0DEFAC0E7304600F081FA0CF06DFBCC
:10047000BAE7304600F07BFA0CF001FCB4E73046F6
:1004800000F075FA0CF04EF8AEE7304600F06FFA67
:100490000CF0F9F8A8E7304600F069FA0CF04DF8D6
:1004A000A2E7304600F063FA0DF03AFF9CE73046D1
:1004B00000F05DFA0DF0F1F896E7304600F057FADB
:1004C0000CF0D7FC90E70DF0CCFA8DE70EF084FB32
:1004D0008AE712480168491C016070470F490A68A1
:1004E0000B689B1A8342FBD37047C906090E00288C
:1004F00006DA00F00F0000F1E02080F8141D7047CC
:1005000000F1E02080F80014704700006402001041
:100510006802001084E100E01C00001000000010E0
:10052000F0B5944A0023FF250426012712684FF0F6
:10053000020C4FF47A74002815D0012824D0022828
:1005400032D003280ED18C48C0F804C0C360B2FB7F
:10055000F4F2521E4A438261056046614760416879
:10056000C907FCD1F0BD4FF04020C0F804C0C36003
:10057000B2FBF4F2521E4A43826105604661476055
:100580004168C907FCD1F0BD7C48C0F804C0C36015
:10059000B2FBF4F2521E4A43826105604661476035
:1005A0004168C907FCD1F0BD7548C0F804C0C360FC
:1005B000B2FBF4F2521E4A43826105604661476015
:1005C0004168C907FCD1F0BD4FF04021012008600F
:1005D0006C480168491C01606B4801786B4801292F
:1005E00006D08168491C81604168491C41607047A0
:1005F0000168491C0160F7E7604901200860634811
:100600004168491C416070475D49012008605F48AE
:100610008168491C816070475749012008605B4828
:10062000C168491CC16070470121002808D0012819
:100630000AD002280BD0032801D14F4841607047EF
:100640004FF04020416070474C48416070474C4833
:10065000416070470021002808D001280AD0484A8C
:1006600002280AD0032800D1516070474FF0402083
:1006700041607047414841607047516070470028B1
:100680000BD0012810D0022814D0032804D13A49F5
:10069000486840F00200486070474FF040214868C9
:1006A00040F00200486070473449486840F002005A
:1006B000486070473249486840F00200486070471F
:1006C00070B50024314D324A0323002807D0012899
:1006D0001BD0022827D0032833D0002070BD2C6007
:1006E00052F8C40F40F0020010604FF04020426802
:1006F00042F0020242604EF65F22C26081614361B5
:10070000012000F02CF8012070BD6C6052F8C40F7D
:1007100040F004001060194881614361022000F03C
:100720001EF8012070BDAC6052F8C40F40F4800088
:100730001060134881614361032000F010F801202C
:1007400070BDEC6052F8C40F40F4000010600A481D
:1007500081614361042000F002F8012070BD00F0C7
:100760001F02012191404009800000F1E020C0F803
:10077000001170477C0200100040094000800040DA
:10078000000009402C02001060020010040000105C
:1007900000C00F4008B5F94942F2107200280FD08E
:1007A000886940F0010088610092886940F4006027
:1007B00088610098401E009000980028F5D108BD7F
:1007C000886920F400608861009202E00098401E71
:1007D000009000980028F9D1886920F00100886114
:1007E00008BDE74A002108C808C2491C8029FAD37D
:1007F000704770B50846E34CE34B272243F8A82C1A
:1008000043F8A42CC3F8B821C3F8BC211A665A6671
:100810009A66DA6643F8A02C43F89C2C9A61DA6158
:100820001A625A629A62DA6243F8982C43F8942C5E
:100830009A67DA671A635A639A63DA631A65DA6544
:100840005A659A659A64D14A116C41F002011164AB
:10085000916D41F00A019165CD4B196841F001019C
:100860001960CC490A6822F001020A60C34A0025D7
:100870009561916921F00E019161916941F00A0140
:100880009161916941F020019161916921F08001AC
:100890009161916921F480719161916921F40071F4
:1008A0009161916921F480619161916921F4006104
:1008B0009161B949B94E0968B1FBF6F1C3F8F4107A
:1008C000916841F080619160916821F02001916010
:1008D000916841F400619160916841F480519160A8
:1008E000916821F400519160916821F480419160F8
:1008F0009168AB4B194091609168AA4B1943916084
:100900001560116841F01C511160116841F480219B
:100910001160116841F480711160116841F0740137
:1009200011605560516841F000615160516841F4B7
:1009300000215160516841F480615160516840F27A
:100940000F131943516014615461002801D0FFF75F
:1009500048FF00204FF47F01CA1102C4401C90429E
:10096000FBD342F21070401E0028FCD170BD854AB6
:1009700000214FF4FF3301C2491C9942FBD3704759
:10098000F0B5059EC3F58874C4EB0414E401C2F508
:10099000F07504EB85047B4D2C440025121AC2F53A
:1009A000F077591A08E0002001E040C4401C824260
:1009B000FBD804EB87046D1CA942F4D8F0BD714B41
:1009C000B0F5F07F0ED2B1F5887F0BD2A1F20F11F6
:1009D000C0F5F070A1EB011100EB4110401E03EBDC
:1009E0008000026070472DE9F0470446DDF820A042
:1009F0000D4690469946444502D94046A04684B2E9
:100A00004D4502D94846A94685B2A8EB040000B27C
:100A1000A9EB05010EB250B1A6B1B04236DDC0EB74
:100A200046010FB27100404201EB400926E05246F8
:100A300029462046FFF7C3FF6D1CADB2A945F6D28B
:100A4000BDE8F087524629462046FFF7B8FF641CF0
:100A5000A4B2A045F6D2F3E7524629462046FFF756
:100A6000AEFF641CA4B2002F05DD6D1CADB209EB16
:100A7000070007B202E007EB460007B24445EBD19E
:100A8000524629462046BDE8F04798E7C6EB4001AC
:100A90000FB27100404201EB400811E05246294676
:100AA0002046FFF78CFF6D1CADB2002F05DD641CE6
:100AB000A4B208EB070007B202E007EB460007B25A
:100AC0004D45EBD1524629462046BDE8F04776E732
:100AD0002DE9FF5F8946074611469B46684609F0A7
:100AE000C1F80025EA461AF80580002409EB05063E
:100AF000C4F1070028FA00F0C00706D03819B1B2D7
:100B000080B25A46FFF75BFF05E03819B1B280B2F8
:100B10000E9AFFF754FF641C082CE9D36D1C102DAE
:100B2000E1D3BDE8FF9F2DE9FE4F894607461146F8
:100B30009B46684609F09DF80025EA461AF80580AC
:100B4000002409EB0506C4F1070028FA00F0C007ED
:100B500006D03819B1B280B25A46FFF730FF05E02F
:100B60003819B1B280B20C9AFFF729FF641C082C27
:100B7000E9D36D1C0C2DE1D3BDE8FE8F0080082069
:100B800000820820000001A0B8C0024000800920B7
:100B9000C4C00F40008C08207C0200109C99740097
:100BA000FFFF00FC0000DF012DE9F8430446089F29
:100BB0000D46164699464FF4EC7816F8012B4B4635
:100BC000294620460097FFF783FF444502D20834A8
:100BD000A4B207E0FF2D03D800241035ADB201E028
:100BE0000024002530780028E7D1BDE8F8832DE9FE
:100BF000FF4F82B005460C4617462E46A0464FF0E2
:100C0000000AA6F1140080B23A462146FFF7D7FE4B
:100C1000761CB6B2A8F1140081B23A462846FFF716
:100C2000CEFE08F101081FFA88F80AF1010A1FFA3E
:100C30008AFABAF1280FE4D3A94627460026A5F17F
:100C4000140001902830A4F1140804F1140A009053
:100C5000A9F1140083461FFA88F180B2059AFFF7C4
:100C6000AEFE1FFA8AF11FFA8BF0059AFFF7A7FE76
:100C700009F101091FFA89F9A7F11400834681B22D
:100C80000198059A80B2FFF79AFE00981FFA8BF13F
:100C900080B2059AFFF793FE7F1CBFB2761CB6B2F6
:100CA0000A2ED5D30026A4F1140704F11408A5F1E7
:100CB000140905F1140A05F10A008346B9B280B29D
:100CC000059AFFF77CFE1FFA88F11FFA8BF0059A50
:100CD000FFF775FE6D1CADB204F10A00834681B2C8
:100CE0001FFA89F0059AFFF76AFE1FFA8BF11FFAC7
:100CF0008AF0059AFFF763FE641CA4B2761CB6B2B4
:100D00000A2ED8D306B0BDE8F08F30B502460020D9
:100D10001478FE4B00EB80115D5CA54204D11944B0
:100D2000557849788D4204D0401C80B27728F1D3A1
:100D3000002030BD30B5024600201478F44B00EBA3
:100D4000001113F81150A54205D103EB410155786C
:100D500049788D4204D0401C80B2C828EFD30020CF
:100D600030BD2DE9F84F04468B469246A046002739
:100D70000AFB03F0C11700EB5170DFF89893009065
:100D800025E00A98C65D0025300606D5594620465E
:100D9000D9F80020FFF713FE05E059462046D9F8A0
:100DA0000420FFF70CFE7006060E641CA4B2A4EB30
:100DB0000800504505D144460BF1010B1FFA8BFB8F
:100DC00003E06D1CEDB2082DDED37F1CBFB200988E
:100DD000B7EBE00FD5DBBDE8F88F2DE9F04F044607
:100DE00088462546CA4902EB0210DFF828A301EB2A
:100DF0004009002B0FD0002709EB070090F802B044
:100E000000265FEA0B6034D541462046DAF804201C
:100E1000FFF7D5FD33E04FF0000B09EB0B008778AF
:100E20000026380606D541462046DAF80020FFF7AE
:100E3000C6FD05E041462046DAF80420FFF7BFFD75
:100E40007806070E641CA4B2601B10280BD0761C19
:100E5000F6B2082EE5D30BF1010B0BF0FF0BBBF143
:100E6000200FDAD34FE72C4608F101081FFA88F863
:100E7000F1E741462046DAF80020FFF7A0FD4FEAEF
:100E80004B604FEA106B641CA4B2601B102808D0A2
:100E9000761CF6B2082EB4D37F1CFFB2202FABD342
:100EA00031E72C4608F101081FFA88F8F4E72DE92C
:100EB000F04F044688462546944902EB8210DFF83D
:100EC00054A200EB0109002B0FD0002709EB07000B
:100ED00090F802B000265FEA0B6034D54146204608
:100EE000DAF80420FFF76BFD33E04FF0000B09EB5D
:100EF0000B0087780026380606D541462046DAF8EA
:100F00000020FFF75CFD05E041462046DAF80420AA
:100F1000FFF755FD7806070E641CA4B2601B182865
:100F20000BD0761CF6B2082EE5D30BF1010B0BF0BB
:100F3000FF0BBBF13F0FDAD3E5E62C4608F10108C1
:100F40001FFA88F8F1E741462046DAF80020FFF75B
:100F500036FD4FEA4B604FEA106B641CA4B2601B75
:100F6000182808D0761CF6B2082EB4D37F1CFFB226
:100F70003F2FABD3C7E62C4608F101081FFA88F8CB
:100F8000F4E710B50446084611462246FFF78FFFE6
:100F9000182010BD10B50446084611462246FFF73A
:100FA0001CFF122010BD2DE9F84F06460C461546D1
:100FB0009A4600274FF4F0794FF488782A78002A6F
:100FC0003DD0F01986B2802A15D906F1180048459F
:100FD00005D900261634A4B2444500D90024284679
:100FE000FFF793FE80B2534622463146FFF7C9FF12
:100FF0000746AD1CE2E70D2A15D00A2A1BD006F1E0
:101000000C00484505D900260C34A4B2444500D94B
:101010000024404841680091036821463046FFF7AC
:1010200057FD6D1CCAE71634A4B2444500D900240C
:101030006D1C0027C2E700266D1C0027BEE7CAE62C
:10104000F8B506460F46154600242B78002B21D014
:10105000A3F13002092A01D893B204E02E2B15D057
:101060002D2B15D00C2303EBC300C0EB83102A49B2
:10107000372301EB80000090301980B220223946DE
:10108000FFF76FFE6D1C2034A4B2DEE70A23EAE707
:101090000B23E8E7F8BD2DE9F84306460C46154654
:1010A000994600204FF4F0784FF488772A78002A88
:1010B00046D0304486B2802A14D906F1100040454B
:1010C00005D900261034A4B2BC4200D90024284619
:1010D000FFF730FE80B24B4622463146FFF75AFFFB
:1010E000AD1CE3E70D2A1FD00A2A25D006F108001F
:1010F000404505D900260834A4B2BC4200D90024DA
:101100000448416800912146036807E06C490100EA
:10111000A36701001400001044A801003046FFF747
:10112000D7FC6D1C0A20C1E71034A4B2BC4200D920
:1011300000246D1C0020B9E700266D1C0020B5E7D7
:1011400053E52DE9F84306460C461546994600201E
:101150004FF4F0784FF488772A78002A3DD0304455
:1011600086B2802A14D906F11000404505D9002620
:101170001034A4B2BC4200D900242846FFF7DAFD9F
:1011800080B24B4622463146FFF704FFAD1CE3E731
:101190000D2A16D00A2A1CD006F10800404505D9B0
:1011A00000260834A4B2BC4200D900243548416866
:1011B0000091036821463046FFF7B5FC6D1C0820FE
:1011C000CAE71034A4B2BC4200D900246D1C002030
:1011D000C2E700266D1C0020BEE706E52DE9F041C0
:1011E000062A00D90A2202B90122052900D90521BF
:1011F000914200D911460024234E20273755641C04
:10120000E4B20C2CFAD314460A250DE0B0FBF5FC31
:1012100005FB1C0C06EB04080CF1300C08F801CCA3
:10122000B0FBF5F0641EE4B2002CEFD169B11046BA
:1012300005E0341814F8014C3454401EC0B2491E65
:10124000C9B2F6D22E21315400E0B75473B9002050
:10125000511E09E0335C302B08D133185B782E2BFC
:1012600004D03754401CC0B28842F3DB521CD0B2C9
:10127000002102E03154401CC0B20C28FAD3BDE872
:10128000F081000014000010B45C0010704738B505
:1012900004464FF05015E4234FF4C872D0210320C8
:1012A0000095FFF76DFB002C0ED0012C0CD1FE48F1
:1012B0004560FF21016001B00023BDE83040D0212E
:1012C000FAA20320FFF7E7BE38BD2DE9F84F00244E
:1012D000DFF804844FF04C0940F20F174FF04D0A2D
:1012E0004FF04E0BFD48009004EB4401A00001EBD1
:1012F000041100EB810004EB840509EB051680B2B4
:10130000B2B23B46E421FFF73BFB012000EB0510A6
:10131000E323B2B280B21946CDF80080FFF763FB39
:10132000B2B2B0B23B46E321CDF80080FFF75BFBE1
:101330000AEB0510002682B280B23B46E3210096FC
:10134000FFF751FB0BEB051082B280B23B46E32165
:101350000096FFF748FB4F2000EB051082B280B2E9
:101360003B46E3210096FFF73EFB641C062CB9D3F5
:10137000BDE8F88F10B5FFF7A8FFCB48D74941600B
:101380006FF07F4101600023D5A2F1215420FFF7C7
:1013900082FE0023F121BDE81040D3A2A420FFF774
:1013A0007ABE10B5FFF791FFBF48CC4941606FF09E
:1013B0007F4101600023F121BDE81040CBA2542001
:1013C000FFF769BE10B5FFF780FFB748C34941601A
:1013D0006FF07F4101600023F121BDE81040C4A2FD
:1013E0005420FFF758BE10B5FFF76FFFAE48BB495A
:1013F00041606FF07F4101600023F121BDE81040A2
:10140000BCA25420FFF747BE10B5FFF75EFFA64809
:10141000B24941606FF07F4101600023F121BDE8D6
:101420001040B5A25420FFF736BE10B5FFF74DFFB0
:101430009D48AA4941606FF07F4101600023F1217E
:10144000BDE81040ADA25420FFF725BE10B5FFF750
:101450003CFF9548A14941606FF07F410160002346
:10146000F121BDE81040A6A25420FFF714BE2DE9DB
:10147000F0410446FFF729FF8B49984A4A606FF014
:101480007F420A60A04E4FF4D1757127C4B1002489
:10149000042C32D084B3032C3FD0611D01EB4100FA
:1014A00006EB400204EB840007EB00100023F1215F
:1014B000FFF7F1FD641CE4B2052CE9D3BDE8F0812F
:1014C0000024042C10D004EB440006EB400204EB93
:1014D000840007EB00100023F121FFF7DCFD641C02
:1014E000E4B2052CEDD3E9E7874A284618320023F9
:1014F000F121FFF7D0FDF2E707E0834A28463632B4
:101500000023F121FFF7C7FDD4E77F4A6C201E328C
:101510000023F121FFF7BFFDCCE77B4A4FF4A77012
:1015200030320023F121FFF7B6FDC3E710B5FFF716
:10153000CCFE5D48694941606FF07F410160002346
:1015400072A2F1215420FFF7A6FD0023F121BDE88E
:1015500010406FA2A420FFF79EBD10B5FFF7B5FEA7
:1015600051485E4941606FF07F4101600023F121E5
:10157000BDE8104067A25420FFF78DBD10B5FFF7FE
:10158000A4FE49486FF07F410160544941606248C0
:1015900040F24314D0F84C1301291BD0002933D159
:1015A00000235EA2F2215320FFF775FD00235EA207
:1015B000F221A320FFF76FFD00235EA2F221F320AA
:1015C000FFF769FD20460023BDE810405CA2F22130
:1015D000FFF761BD00235DA2F2215320FFF75BFD01
:1015E00000235DA2F221A320FFF755FD00235CA29A
:1015F000F221F320FFF74FFD20460023BDE8104005
:1016000059A2F221FFF747BD10BD70B5FFF75DFE8F
:1016100025486FF07F410160304941603E4840F20B
:10162000431440F29315D0F84C13012921D000291E
:1016300038D1002339A2F2215320FFF72CFD0023DB
:1016400039A2F221A320FFF726FD002339A2F221BF
:10165000F320FFF720FD002339A2F2212046FFF7F7
:101660001AFD2846BDE87040002342A2F221FFF790
:1016700012BD002335A2F2215320FFF70CFD0023F9
:1016800035A2F221A320FFF706FD002334A2F221A8
:10169000F320FFF700FD002333A2F2212046FFF7DD
:1016A000FAFC6DE074E0000014000010C7EBC8B74E
:1016B000C8CFB1BBB2E2B5E7B3D8D3D0B9FDB3E47C
:1016C000B1A3BBA4B9A6C4DCD4D9BDF8D0D0B4CBE7
:1016D000CFEEB2E2CAD4000068436900380031009E
:1016E0006D736563000000007365630056000000C1
:1016F00041000000530000006D5300006DA6B800CB
:101700005374657073000000F1990100487A00007D
:101710004B487A002A3100001C050010C4DAD7E8D3
:10172000B2E2CAD400000000B3CCBFD8B8BAD4D853
:1017300000000000B3CCBFD8B5E7D4B4000000006F
:10174000C1D0B1EDB2E2CAD400000000492E52204F
:1017500054455354000000004C4F41440000000029
:10176000504F57455200000043415041434954599E
:1017700000000000CFB5CDB3C9E8D6C3000000001B
:101780002846BDE870400023FCA2F221FFF783BC8D
:1017900070BD10B5FFF799FDFA486FF07F41016009
:1017A000F9494160F948D0F84C03012818D00028C5
:1017B00034D10023AFF29C02F2215320FFF76BFCDF
:1017C0000023AFF29C02F221A320FFF764FC002368
:1017D000AFF2A002F221BDE81040F320FFF75BBC9E
:1017E0000023AFF29802F2215320FFF754FC0023AC
:1017F000AFF29C02F221A320FFF74DFC0023AFF2D1
:10180000A002F221F320FFF746FC0023BDE81040C0
:10181000DFA2F22140F24310FFF73DBC10BD10B52E
:10182000FFF753FDD7486FF07F410160D649416013
:10183000D648D0F84C03012816D0002829D100231F
:10184000D5A2F221A320FFF726FC0023D4A2F22187
:10185000F320FFF720FC0023BDE81040D3A2F221C3
:101860004FF4A670FFF717BC0023D2A2F221A320E9
:10187000FFF711FC0023D1A2F221F320FFF70BFCAC
:101880000023BDE81040CFA2F22140F24310FFF741
:1018900002BC10BD10B5FFF718FDBA486FF07F41CC
:1018A0000160B9494160B948D0F84C03012816D00D
:1018B000002829D10023C5A2F221A320FFF7EBFBCA
:1018C0000023C4A2F221F320FFF7E5FB0023BDE8CB
:1018D0001040B6A2F2214FF4A670FFF7DCBB002344
:1018E000BEA2F221A320FFF7D6FB0023B1A2F22172
:1018F000F320FFF7D0FB0023BDE81040B1A2F22196
:1019000040F24310FFF7C7BB10BD2DE9F84F8046EA
:10191000B44F4FF4F079CA234A465C210020009767
:10192000FFF72EF8A8F1050000EB400101EBC00124
:10193000CA2000EB41056FF07F460022ABB2462182
:1019400010460096FFF74FF82822ABB2462110460A
:101950000096FFF748F85022ABB246211046009699
:10196000FFF741F801244FF0500A04EB84000AEB22
:101970000010ABB2024646210096FFF734F8641C13
:10198000E4B2052CF1D30024462508F102080DE04D
:1019900004EB440000EBC40005EB40010B464A4653
:1019A00000200096FFF71FF8641CE4B24445EFD313
:1019B00074484760754840F2431440F29315D0F8DC
:1019C0004C1301292ED0002959D1002386A2492188
:1019D0000320FFF760FB002385A249212B20FFF79E
:1019E0005AFB002384A249215320FFF754FB002314
:1019F00083A24921A320FFF74EFB002382A24921A5
:101A0000F320FFF748FB002382A249212046FFF77D
:101A100042FB01B02846BDE8F04F002380A24921D7
:101A2000FFF739BB002380A249210320FFF733FBD6
:101A300000237EA249212B20FFF72DFB00237DA24E
:101A400049215320FFF727FB00237CA24921A32033
:101A5000FFF721FB00237BA24921F320FFF71BFBAB
:101A600000237AA249212046FFF715FB01B0284642
:101A7000BDE8F04F002377A24921FFF70CBB77E4C4
:101A80002DE9F84F8046574F4FF4F079CA234A4664
:101A90005C2100200097FEF773FFA8F1050000EB22
:101AA000400101EBC001CA2000EB41056FF07F4609
:101AB0000022ABB2462110460096FEF794FF282282
:101AC000ABB2462110460096FEF78DFF5022ABB216
:101AD000462110460096FEF786FF01244FF0500A7B
:101AE00004EBC40000EB04100AEB8000ABB202462A
:101AF00046210096FEF777FF641CE4B2042CEFD376
:101B00000024462508F102080DE004EB440000EB38
:101B1000C40005EB40010B464A4600200096FEF744
:101B200062FF641CE4B24445EFD31648476017488F
:101B300040F21B1440F27F15D0F84C1301291BD042
:101B400000291AD1002328A249210320FFF7A3FA74
:101B5000002327A249212B20FFF79DFA00233FA253
:101B600049215320FFF797FA00233EA24921B720CD
:101B7000FFF791FA002379E086E0B0E05359535320
:101B80004554200014000010380031001C050010DE
:101B9000434F4D5000000000CFC2D2BBB2BD000089
:101BA000B2E2CAD4BDE1B9FB0000000020B7B5BB6A
:101BB000D80000004E4558540000000052455355CF
:101BC0004C5400004241434B00000000C9CFD2BB3F
:101BD000D2B30000CFC2D2BBD2B3000050524556A0
:101BE0000000000034346500D0F2BAC500000000E7
:101BF000CFEEC4BF00000000B2CECAFD310000002D
:101C0000B2CECAFD32000000BDD8D6B9B5E7D1B911
:101C100000000000BDD8D6B9B5E7C1F7000000004C
:101C2000CAB1BCE4000000004E4F00004D4F4445D7
:101C3000000000005041524131000000504152412B
:101C400032000000434F464656000000434F4646D0
:101C50004300000054494D4500000000BDE1B9FBC0
:101C600031000000BDE1B9FB32000000FEA24921B5
:101C70002046FFF710FA01B02846BDE8F04F0023D8
:101C8000FCA24921FFF707BA0023AFF26402492101
:101C90000320FFF700FA0023AFF2700249212B2046
:101CA000FFF7F9F90023AFF2740249215320FFF73F
:101CB000F2F90023AFF27C024921B720FFF7EBF9DC
:101CC0000023EFA249212046FFF7E5F901B028469D
:101CD000BDE8F04F0023ECA24921FFF7DCB9CEE6C6
:101CE00070B50546FFF7F1FAE949EA4CEA4A6FF0A8
:101CF0007F43BDB1012D45D00B604C60D2F84C0341
:101D0000012877D000287DD10023E4A2F2215320BE
:101D1000FFF7C1F9BDE870400023F221E1A2A32042
:101D2000FFF7B9B90B604C60D2F84C03012815D00D
:101D300000286FD10023DDA2F2215320FFF7ABF979
:101D40000023DDA2F221A320FFF7A5F9BDE8704032
:101D50000023F221DBA2FC20FFF79DB90023DBA2C8
:101D6000F2215320FFF797F90023DAA2F221A320F2
:101D7000FFF791F9BDE870400023F221D7A2FC20C3
:101D8000FFF789B90B604C60D2F84C1340F2931402
:101D9000012901D099B124E00023D2A2F2215320DD
:101DA000FFF779F90023D2A2F221A320FFF773F9FC
:101DB0000023D2A2F2212046FFF76DF911E00023A3
:101DC000D0A2F2215320FFF766F90023D0A2F2211E
:101DD000A320FFF760F90023D0A2F2212046FFF7ED
:101DE0005AF9BDE870400023CEA2F22140F2BD10A6
:101DF000FFF751B90023CCA2F2215320FFF74BF992
:101E0000002300E006E0BDE87040F221C8A2A32054
:101E1000FFF741B970BD10B5FFF757FA9C486FF056
:101E20007F4101609B4941609B4CD4F84C030128E1
:101E300001D068B118E00023BFA2E7215420FFF7CA
:101E40002AF90023BEA2FB215420FFF724F90BE05E
:101E50000023BDA2E7215420FFF71DF90023BCA2F7
:101E6000FB215420FFF717F9D4F84C134FF4A2705C
:101E70004FF4CA74012910D000291BD10023AFF2FE
:101E8000B422F121FFF707F90023AFF2B822204670
:101E9000BDE81040F121FFF7FEB80023AEA2F1210A
:101EA000FFF7F9F820460023BDE81040ACA2F1216D
:101EB000FFF7F1B810BD70B50446FFF706FA744895
:101EC0007449754B4FF4A2754FF4CA766FF07F4298
:101ED0005CB3012C29D002604160D3F84C03012887
:101EE0007ED000287DD100239FA2F1215420FFF74E
:101EF000D2F800239EA2E721A420FFF7CCF800230C
:101F00009DA2FB21A420FFF7C6F80023AFF24432C4
:101F1000F1212846FFF7BFF80023AFF248323046E0
:101F2000BDE87040F121FFF7B6B802604160D3F818
:101F30004C0301282FD000287CD100238AA2F12154
:101F40005420FFF7A8F800238DA2E721A420FFF773
:101F5000A2F8002386A2FB21A420FFF79CF800230F
:101F600089A2E721F420FFF796F8002380A2FB2145
:101F7000F420FFF790F80023AFF2B032F1212846A9
:101F8000FFF789F80023AFF2B4323046BDE8704065
:101F9000F121FFF780B800237DA2F1215420FFF743
:101FA0007AF800237CA2E721A420FFF774F800232D
:101FB0007BA2FB21A420FFF76EF800237AA2E72181
:101FC000F420FFF768F8002375A2FB21F420FFF747
:101FD00062F8002360A2F1212846FFF75CF801E0D7
:101FE00008E027E03046BDE8704000235CA2F12104
:101FF000FFF751B8002366A2F1215420FFF74BF8F8
:10200000002367A2E721A420FFF745F8002368A278
:10201000FB21A420FFF73FF800234FA2F12128461F
:10202000FFF739F83046BDE8704000234CA2F1219B
:10203000FFF731B870BD70B50546FFF746F9144992
:10204000144C154A6FF07F4355B1012D09D00B6038
:102050004C60D2F84C03012804D0002803D1ABE037
:10206000BEE0E3E057E141E1BDE1B9FB33202020D0
:1020700000000000BDE1B9FB34202020000000007A
:102080005245533100000000524553320000000019
:1020900014000010380031001C0500102020C8A1D9
:1020A000CFFB20002020C8B7C8CF2000B2E2C1BFBC
:1020B000CFD4CABE00000000B5B5BAC5CFD4CABEE1
:1020C00000000000B5B5BCC6CAFD00004D45415337
:1020D000534554004E6F2E4449535000434F554EC4
:1020E0005420000046494C45205345540000000050
:1020F0005361766544617461000000004D4F5245A4
:1021000000000000CEC4BCFEB9DCC0ED0000000041
:10211000B1A3B4E6CAFDBEDD00000000B8FCB6E025
:1021200000000000322F320043414E43454C200056
:10213000434F4E4649524D00434C4541000000007C
:102140004C49535400000000C7E5B3FD00000000F7
:10215000B1EDB8F1000000004C6173742050000034
:102160004E65787420500000C9BEB3FDD0D0000089
:10217000D7D4B6AF00000000B8B4D6C60000000047
:10218000CFDFD0D400000000B6D4CAFD00000000AC
:1021900044656C526F7700004C494E4500000000CA
:1021A00041544F55000000004C4F472000000000F4
:1021B000434F5059000000000023F8A2F2215320A1
:1021C000FEF769FF0023F8A2F221A320FEF763FFC8
:1021D000BDE870400023F221F6A2F320FEF75BBFBA
:1021E0000B604C60D2F84C03012811D000287DD13F
:1021F0000023AFF24812F2215320FEF74CFF0023D8
:10220000AFF69022BDE87040F221A320FEF743BF55
:102210000023EBA2F2215320FEF73DFFBDE8704002
:102220000023F221E8A2A320FEF735BF0B604C602B
:10223000D2F84C134FF4CA74012937D000297ED14B
:102240000023E3A2E7215420FEF725FF0023AFF28D
:102250004812FB215420FEF71EFF0023DEA2E721D7
:10226000A420FEF718FF0023AFF6F422FB21A420E0
:10227000FEF711FF0023DAA2F121F420FEF70BFF95
:102280000023AFF60C32FB21F420FEF704FF0023FD
:10229000AFF27812E7212046FEF7FDFE2046BDE8AA
:1022A00070400023D0A2FB21FEF7F5BE0023D0A290
:1022B000E7215420FEF7EFFE0023CFA2FB2154209C
:1022C000FEF7E9FE0023CEA2E721A420FEF7E3FEFD
:1022D0000023CDA2FB21A420FEF7DDFE0023CCA22B
:1022E000F121F420FEF7D7FE002300E027E0C6A28C
:1022F000FB21F420FEF7CFFE0023AFF20022E721FE
:102300002046FEF7C8FE2046BDE870400023B6A276
:10231000FB21FEF7C0BE0023BFA2F2215320FEF72F
:10232000BAFE0023BEA2F221A320FEF7B4FEBDE850
:1023300070400023F221BCA2F320FEF7ACBE70BDBA
:10234000BB486FF07F410160BA494160BA48D0F89C
:102350004C03012808D000280CD10023AFF2B4228E
:10236000F2215320FEF797BE0023F22194A25320BE
:10237000FEF791BE704770B5AD486FF07F410160C8
:10238000AC494160AC484FF4837440F29315D0F8E7
:102390004C1301291BD0002933D10023A7A2F2211D
:1023A0005320FEF778FE002382A2F221A320FEF73D
:1023B00072FE0023A4A2F2212046FEF76CFE2846FE
:1023C000BDE870400023A2A2F221FEF764BE002304
:1023D000A2A2F2215320FEF75EFE0023A2A2F22168
:1023E000A320FEF758FE0023A2A2F2212046FEF70A
:1023F00052FE2846BDE870400023A0A2F221FEF75D
:102400004ABE70BD08B5A048002100901623D22214
:102410000846FEF7B5FA08BD08B59C480090CD23E4
:1024200040F2DF125C210020FEF7AAFA08BD08B5D1
:102430009548002100901623A0220846FEF7A0FA36
:10244000FEF743FFBDE80840E6E708B58E480021E7
:1024500000901623A0220846FEF792FAFEF735FFF9
:102460008A480090CD2340F2DF1246210020FEF77B
:1024700087FA08BD2DE9F041FFF7D9FF6C4C6FF0EA
:102480007F452560804860606B4ED6F84C0301287C
:1024900001D038B10DE000237D4A04211846FEF733
:1024A000FAFD06E07A4A0023F23A04211846FEF7C4
:1024B000F2FD25604FF0501060600024754F1A2522
:1024C00007F21D18032C25D2D6F84C03012801D0A1
:1024D00080B146E004EB840007EB400204EB4400CB
:1024E00000EBC40005EB400081B200231846FEF764
:1024F000D2FD36E0C4EB041000EB080204EB44000C
:1025000000EBC40005EB400081B200231846FEF743
:10251000C2FD26E0D6F84C03012801D088B120E0A6
:1025200004EB840007EB4002E01E00EB400101EBEE
:10253000C00005EB400081B20023FA20FEF7ABFD9E
:102540000FE0C4EB041000EB0802E01E00EB4001BA
:1025500001EBC00005EB400081B20023FA20FEF73A
:102560009AFD641C062CADD3BDE8F041FFF706B818
:102570002DE9F047FFF75BFFDFF8B4906FF07F4481
:10258000C9F800404048C9F804002B4ED6F84C0367
:10259000012802D000B18DE085E07DE0B5E7D1B93A
:1025A000D0A3D5FD00000000B5E7C1F7D0A3D5FD4D
:1025B00000000000B5E7D7E8D0A3D5FD000000007B
:1025C0004D4541444953500053595353455400001D
:1025D000CEC4BCFE00000000CFB5CDB300000000AB
:1025E000B9A4BEDF0000000020322F32000000003E
:1025F00046494C45000000004D414E45000000009A
:10260000535953200000000053455420000000009F
:10261000544F4F4C00000000564F4C43616C00007B
:102620004374726C43616C0043757243616C0000CB
:1026300014000010380031001C050010B5E7C8DD9B
:10264000D0A3D5FD00000000CDCBB3F60000000004
:10265000C7E5B3FDD0A3D5FD000000004320436FC4
:1026600072726574000000005220436F72726574CC
:10267000000000004578697400000000436C65208C
:10268000436F727200000000F3520300343465009F
:1026900027970100358801000023FE4A04211846CF
:1026A000FEF7F9FC06E0FB4A0023F23A0421184643
:1026B000FEF7F1FCC9F800404FF05010C9F80400D3
:1026C0000024F54F1A2507F13C08032C25D2D6F833
:1026D0004C03012801D080B146E004EB840007EBF5
:1026E000400204EB440000EBC40005EB400081B263
:1026F00000231846FEF7CFFC36E0C4EB041000EBD5
:10270000080204EB440000EBC40005EB400081B27A
:1027100000231846FEF7BFFC26E0D6F84C0301283C
:1027200001D088B120E004EB840007EB4002E01EFA
:1027300000EB400101EBC00005EB400081B200233B
:10274000FA20FEF7A8FC0FE0C4EB041000EB08022F
:10275000E01E00EB400101EBC00005EB400081B240
:102760000023FA20FEF797FC641C062CADD3CB485F
:10277000C9F804000023CAA2BA214FF4DD70FEF7A5
:102780008AFCBDE8F047FEF7F9BE2DE9F041FFF7FE
:102790004EFEC44F6FF07F443C60C3487860C34E28
:1027A000D6F84C03012801D040B10EE0B94A00230D
:1027B000163204211846FEF76EFC06E0B54A0023E7
:1027C000DC3A04211846FEF766FC3C604FF05010DE
:1027D000786000241A25032C27D2D6F84C03012850
:1027E00001D090B121E0AC4904EB8400963101EBBB
:1027F000400204EB440000EBC40005EB400081B252
:1028000000231846FEF747FC0FE0A349C4EB041071
:10281000D231421804EB440000EBC40005EB400049
:1028200081B200231846FEF736FC641C032CD2D379
:102830009A48786000239AA2BA214FF4DD70FEF71F
:102840002AFCBDE8F041FEF799BE2DE9F041FFF703
:10285000FCFD944D6FF07F442C6093486860934E6C
:10286000D6F84C03012801D040B10EE0894A00237C
:102870002C3204211846FEF70EFC06E0854A0023A0
:10288000C63A04211846FEF706FC2C604FF05010A3
:1028900068600024864F1A25A7F15A08032C24D219
:1028A000D6F84C03012801D078B144E0C4EB041001
:1028B000C21904EB440000EBC40005EB400081B2F8
:1028C00000231846FEF7E7FB35E0C4EB041000EBED
:1028D000080204EB440000EBC40005EB400081B2A9
:1028E00000231846FEF7D7FB25E0D6F84C03012855
:1028F00001D080B11FE0C4EB0410C219E01E00EB50
:10290000400101EBC00005EB400081B20023FA203A
:10291000FEF7C1FB0FE0C4EB041000EB0802E01E61
:1029200000EB400101EBC00005EB400081B2002349
:10293000FA20FEF7B0FB641C062CAFD3BDE8F041D3
:10294000FEF727BF2DE9F84F574C00211623A02290
:1029500008460094FEF714F8524F6FF07F49C7F80D
:1029600000907C60DFF84481D8F84C03012801D046
:1029700040B10EE0474A0023423204211846FEF7D8
:102980008AFB06E0434A0023B03A04211846FEF7CA
:1029900082FB0024464E1A254FF0501A5A36C7F8CB
:1029A0000090C7F804A0D8F84C03012801D080B1EA
:1029B0001DE04049C4EB0410421804EB440000EB56
:1029C000C40005EB400081B200231846FEF763FB0C
:1029D0000DE0C4EB0410821904EB440000EBC400CA
:1029E00005EB400081B200231846FEF754FB641C3F
:1029F000082CD4D3002404F10800C0EB0010821985
:102A000004EB440000EBC40005EB400081B200235E
:102A1000E820FEF740FB641C042CECD3BDE8F84F23
:102A2000FEF7F3BD08B51D480090BE2340F2DF124B
:102A3000A0210020FDF7A4FF08BD08B51A48002119
:102A400000901623A0220846FDF79AFFFEF73DFCF2
:102A5000BDE80840E6E738B50446124D4FF0501087
:102A600068601548012300EB8402C8211420FEF79A
:102A700012FB114801235C3000EB8402C8214FF4A3
:102A80008C70FEF708FB05486860372328220B4846
:102A90007A2115E03D970100AC89010034346500CE
:102AA0006D41480014000010F35203001C05001093
:102AB000328B0100408C0100CF8F010049BB010027
:102AC00000905020FEF74DF9F94800903723282256
:102AD0007A217820FEF745F9F6480090372328221E
:102AE0007A218C20FEF73DF938BD2DE9F041FFF742
:102AF000A4FFF14C6FF07F452560F0486060F04E18
:102B0000D6F84C03012801D038B10DE00023ED4A7E
:102B100004211846FEF7BFFA06E0EA4A0023F23A1B
:102B200004211846FEF7B7FA25604FF05010606098
:102B30000024E54F1A25A7F13008032C21D2D6F83E
:102B40004C03012801D070B13EE004EB440000EBDF
:102B5000C40005EB400081B2002307EBC402184615
:102B6000FEF799FA30E004EB440000EBC40005EBFB
:102B7000400081B2002308EBC4021846FEF78BFA2E
:102B800022E0D6F84C03012801D078B11CE0E01E09
:102B900000EB400101EBC00005EB400081B207EB08
:102BA000C4020023FA20FEF776FA0DE0E01E00EBE7
:102BB000400101EBC00005EB400081B208EBC4020C
:102BC0000023FA20FEF767FA641C062CB5D396F8AA
:102BD0008803FFF740FFBDE8F0410020FFF780B811
:102BE00038B5BA4C40F2DF15A0232A465621002002
:102BF0000094FDF7C5FEE3232A46C121002000947E
:102C0000FDF7BEFE38BD08B5AC4800210090162384
:102C1000B2220846FDF7B4FEFEF757FBBDE80840B8
:102C2000DEE70B461146AA4A89B2105C183200EB67
:102C30004000024498B20023FEF72DBA2DE9F05F60
:102C4000FFF7E1FF9C4C6FF07F4525609B4860607B
:102C50009B4FD7F84C03012801D040B10EE0994AB0
:102C60000023163204211846FEF715FA06E0954AAD
:102C70000023DC3A04211846FEF70DFA8E48056061
:102C80004FF0501545600024924E4FF0BE094FF4AE
:102C9000B47AA6F115084FF6FF7B012C07D0022C61
:102CA0001AD0D7F84C0301282CD0B8B343E0D7F89A
:102CB0004C03012801D038B13DE0F21D4846002305
:102CC0001821FEF7E8F936E008F10702484600232C
:102CD0001821FEF7E0F92EE0D7F84C03012801D0C7
:102CE00040B128E07B4A50460E3200231821FEF7FF
:102CF000D2F920E0774A5046D21F00231821FEF770
:102D0000CAF918E0C4EBC400821904EB84000BEA92
:102D1000401000231821FEF7BEF90CE0FFE7C4EBDA
:102D2000C40000EB080204EB84000BEA401000230F
:102D30001821FEF7B0F9641C032CAED3E837012349
:102D4000D7F8A80200EB400101EBC000624942182D
:102D500018213C20FEF79FF93979002306223868B4
:102D6000FEF73CFA01235D4A1821FA20FEF793F999
:102D7000B868574900EB40001B394218012318215D
:102D80004FF4A070FEF787F9D7F8A002E83F1822A9
:102D90004FF4A571FFF745FF002351A22C211846DF
:102DA000FEF7CFF900234FA22C217820FEF7C9F9B6
:102DB00000234EA22C21FA20FEF7C3F900234DA2D6
:102DC0002C2140F29D10FEF7BCF90624DFF8FC80B0
:102DD000394EA4F10800052802D3A01F082802D903
:102DE000C6F8048000E07560A01F814600EB40003B
:102DF00007EB0011D1F80C0178B191F81011012303
:102E00000622FEF7EBF9C9EB09103A3081B2012333
:102E1000324A7820FEF795F908E0C9EB09103A30FC
:102E200081B2012335A27820FEF78BF9641C0F2CA8
:102E3000CFD3C6F80480D7F8D40260B197F8D8127F
:102E400001230622FEF7CAF90123244AC421FA20ED
:102E5000FEF777F905E0012328A2C421FA20FEF746
:102E600070F91024A4F11200052802D3801C082850
:102E700002D9C6F8048000E07560A4F11000814614
:102E800000EB400007EB0011D1F8240178B191F874
:102E9000281101230622FEF7A1F9C9EB09103A30E7
:102EA00081B201230D4AFA20FEF74BF934E029E004
:102EB0008CCD01009FCE010014000010F3520300DE
:102EC0001C0500103D970100799401003434650021
:102ED000489A010044980100A3900100B45C0010DE
:102EE00042494E004C4F57205B465D0048494748D9
:102EF0005B465D00434F554E540000002D2D2D2D97
:102F00002D2D0000C9EB09103A3081B20123AFF238
:102F10001402FA20FEF715F9641C192CA2D3C6F886
:102F20000480D7F8D40270B197F8C01201230622AA
:102F3000D7F8BC02FEF752F90123F94AC4217820E0
:102F4000FEF7FFF806E00123AFF25002C42178201B
:102F5000FEF7F7F80124DFF8CC93E01E052802D233
:102F6000C6F8048000E07560601E00EBC00000EB56
:102F70000902C4EB04102B3081B200230820FEF7B5
:102F8000E0F8641C0A2CE8D3C6F80480E649D7F8B8
:102F90008803002301EB8002C4211846FEF7D1F814
:102FA0000023E2A2D4211846FEF7CBF80023E1A2C9
:102FB000D421F820FEF7C5F8BDE8F05F0020FEF749
:102FC0008FBE08B5DD480090A02340F2DF12AF218C
:102FD0000020FDF7D5FC08BD10B5FFF713FAFEF78A
:102FE00074F9BDE81040ECE770B5FFF7F5FFD44C7D
:102FF0006FF07F452560D34860600023D24A0421EA
:103000001846FEF748F825604FF050106060CF4832
:10301000D0F84C03012801D098B124E00023CCA2C1
:103020001A211846FEF737F80023CBA230212820BA
:10303000FEF731F80023CBA230218C20FEF72BF8CD
:1030400011E00023C9A21A211846FEF724F8002334
:10305000C8A230212820FEF71EF80023C8A2302184
:103060008C20FEF718F80023C7A23021F020FEF7CD
:1030700012F80023C6A230214FF4AA70FEF70BF815
:103080000023C5A230214FF4DC70FEF704F8BDE840
:1030900070400020FEF724BE08B5A84800909A238F
:1030A00040F2DF125A210020FDF76AFC08BD08B586
:1030B000A448002100901623A8220846FDF760FCD2
:1030C000FEF703F9BDE80840E6E72DE9F05FFFF7FA
:1030D000EEFF9B4D6FF07F442C609A486860DFF8EC
:1030E0006CB2DBF84C03012801D040B10EE0964AE7
:1030F0000023163204211846FDF7CDFF06E0924A60
:103100000023DC3A04211846FDF7C5FF2C604FF080
:1031100050166E600024DFF88492884F4FF01A0832
:10312000A9F1480ADBF84C03012801D078B35DE02F
:10313000032C15D2E01E022801D26F6000E06E6001
:1031400004EB840009EB400204EB440000EBC400F4
:1031500008EB400081B200231846FDF79CFF45E0D4
:10316000A01F022801D26F6000E06E6004EB8400B3
:1031700009EB4002E01E00EB400101EBC00008EB50
:10318000400081B20023FA20FDF785FF2EE0FFE723
:10319000032C15D2E01E022801D26F6000E06E60A1
:1031A00004EB44000AEB800204EB440000EBC40093
:1031B00008EB400081B200231846FDF76CFF15E0D4
:1031C000A01F022801D26F6000E06E6004EB440093
:1031D0000AEB8002E01E00EB400101EBC00008EBAF
:1031E000400081B20023FA20FDF755FF641C062C35
:1031F00098D3BDE8F05F0020FEF71DBF2DE9F8432E
:1032000006464F4C4FF050176760654D65490123E6
:10321000286800EBC00042181A214920FDF73BFF47
:10322000A968012301EB410000EBC1003E49783160
:10323000421830214920FDF72EFFE968012301EBF8
:10324000410000EBC1005849421846214920FDF7D2
:1032500022FFE96B40F2431801EB410000EBC10093
:1032600051490023313142181A214046FDF713FF1E
:10327000296CA5F5627501EB410000EBC1004A49DC
:103280000123AE31421830214046FDF704FF30786B
:10329000012804D0002020B1FF20606002E001205E
:1032A000F9E767606068009058234FF4C4724421C6
:1032B0004FF4A170FDF764FBD5F804113A4D01EB12
:1032C000410000EBC100E735421901234621404689
:1032D000FDF7E1FEFDF7F9FF3078012804D0BDE8E5
:1032E000F8430020FEF7FCBC6FF07F4020602F48C1
:1032F000606000249CB104EB440000EBC400421960
:1033000004EB84006D2101EB001080B20023F12159
:10331000FDF7C1FE641C022CECD3BDE8F88347E046
:10332000B45C0010E48701002B9001004155583A2D
:10333000000000004F55543A00000000343465008E
:1033400014000010F3520300699701001C050010DF
:103350004D657468203A0000467265715B487A5D7D
:10336000000000004C65766C5B565D00B7BDCABDC1
:10337000203A0000C6B5C2CA5B487A5D0000000072
:10338000B5E7C6BD5B565D0043705B465D0000005F
:10339000445B205D00000000434D5000F1940100AB
:1033A000A4080010F78E0100669201003800310079
:1033B0002A4668200023F121FDF76DFEAAE7F8B543
:1033C0000646FF4C4FF0501060603078012826D040
:1033D000002109B1FF2060606068009028234FF44D
:1033E000E672182140F2A310FDF7CAFAF548F64D2F
:1033F0000123D0F8181301EB410000EBC100421982
:1034000018214FF4D270FDF746FEFDF75EFF3078CD
:10341000012806D0BDE8F8400020FEF761BC01217C
:10342000D7E76FF07F402060E8486060002494B1E7
:1034300004EB440000EBC400421904EB84006D214E
:1034400001EB001080B20023F121FDF724FE641C83
:10345000022CECD3F8BD2A4668200023F121FDF7A9
:103460001AFEF4E72DE9F05F0124DFF86493D44EEF
:10347000DFF850834FF4AD7B4FF0501A3325E71E31
:10348000042F02D2C6F8049001E0C6F804A098F810
:103490000D0400EB800004EB4000401E00EB8000B8
:1034A00008EB8001D1F8BC05421C41D091F8C01551
:1034B00001230522FDF792FE05EB04110023C54A06
:1034C000F620FDF73EFE98F80D0400EB800004EBBB
:1034D0004000401E00EB800008EB800101F58051A8
:1034E000D1F82406421C2BD091F82816012305227E
:1034F000FDF774FE05EB04110023B64A5846FDF7AC
:1035000020FE98F80D0400EB800004EB40004044DE
:1035100000F5005090F88306FF2819D008B305EB9A
:1035200004110023ACA24FF4DF70FDF70AFE20E087
:1035300005EB04110023A9A2F620FDF702FEC2E765
:1035400005EB04110023A5A25846FDF7FAFDD8E7C4
:1035500005EB04110023A3A24FF4DF70FDF7F1FD8A
:1035600007E005EB041100239FA24FF4DF70FDF785
:10357000E8FD042F02D2C6F8049001E0C6F804A0CA
:1035800098F80D0400EB800004EB4000404490F8F4
:103590000D041E2807D905EB041100238FA2262055
:1035A000FDF7CFFD0BE000EB400101EBC0008F49C0
:1035B0000023421805EB04112620FDF7C2FD98F800
:1035C0000D0400EB800004EB4000404490F8DF0461
:1035D000022807D905EB0411002380A29220FDF7F1
:1035E000B0FD0CE000EB400101EBC0007649002388
:1035F000E739421805EB04119220FDF7A2FD98F877
:103600000D04012300EB800004EB400003220021A5
:10361000FDF7E4FD05EB041100236E4A0820FDF7D9
:1036200090FD641CE4B20B2CFFF429AFBDE8F09FC1
:103630002DE9F84F0446207802280DD002D9A07851
:10364000FEF739FC2078DFF878A14FF0FF094FF042
:103650005018012803D004E0FEF7DDFBF2E7A07864
:10366000D8B1CAF80480DAF8040000902A235E2258
:103670001A213620FDF784F9DFF848B15C490023B0
:10368000DBF8400300EBC00042181A213620FDF79A
:1036900002FD2078022803D005E0CAF80490E2E792
:1036A000A07800287DD0CAF80480DAF804000090E1
:1036B00042231E2232210020FDF762F900234DA291
:1036C00032211846FDF7E7FC03262078B04202D1EC
:1036D000A078022866D0CAF80480DAF804000090C6
:1036E000B01E432101EB0017332101EB0015BBB2E3
:1036F000A9B24FF49972FA20FDF742F9E07800EB95
:10370000800006EB4000C01E00EB80000BEB800148
:10371000D1F8BC05421C6FD091F8C01501230522D9
:10372000FDF75CFDA9B200232A4AFA20FDF709FD46
:103730002078B04202D1A07803287DD0CAF8048056
:10374000DAF804000090BBB2A9B24FF4C1724FF492
:10375000A570FDF715F9E07800EB800006EB40005E
:10376000C01E00EB80000BEB800101F58051D1F809
:103770002406421C78D091F8281601230522FDF773
:103780002DFDA9B20023134A4FF4A570FDF7D9FC13
:103790002078B04202D1A078042874D0CAF80480FE
:1037A00001E062E064E0DAF804000090BBB2A9B284
:1037B00040F2DF124FF4D270FDF7E2F8E0781CE03F
:1037C000140000101C0500104D930100380031005A
:1037D00034346500B45C0010500000002D2D2D2DF8
:1037E000000000002D00000046000000A390010032
:1037F000F78E01004E6F2E003DE000EB800006EBDF
:103800004000584400F5005090F88106FF284BD046
:10381000A9B20023AFF240024FF4D270FDF791FC41
:103820002078B04201D1A07870B3CAF80480DAF8E9
:103830000400BBB2A9B200E027E000907E2228205D
:10384000FDF79EF8E07800EB800006EB400058445E
:1038500090F80B04302833D9A9B20023AFF28402C8
:103860002820FDF76EFC36E012E0CAF804901CE751
:10387000CAF8049031E7A9B20023AFF2A002FA20FF
:10388000FDF75FFC54E70CE017E0CAF8049057E737
:10389000A9B20023AFF2BC024FF4A570FDF751FCB2
:1038A00076E7CAF804907BE7A9B20023AFF2D4020E
:1038B0004FF4D270FDF745FCB2E7CAF80490B6E7C2
:1038C00000EB400101EBC000FE4900234218A9B201
:1038D0002820FDF736FC2078B04202D1A0780128DC
:1038E0001CD0CAF80480DAF804000090BBB2A9B278
:1038F000C4227E20FDF744F8E07800EB800006EB60
:103900004000584490F8DD0402280AD9A9B20023E7
:10391000AFF238127E20FDF714FC0DE0CAF80490D7
:10392000E1E700EB400101EBC000E749002342184A
:10393000A9B27E20FDF705FCCAF80480E0780123D7
:1039400000EB800006EB4000801E03220021FDF703
:1039500045FCA9B20023DD4A0820FDF7F2FB761CE6
:10396000F6B20D2EFFF4B1AEBDE8F88F2DE9F843A5
:103970000446D74F4FF050157D602078012822D0A3
:1039800000204FF0FF0808B1C7F804807868009065
:103990002A2358221A213020FCF7F2FFCD48CA4EC4
:1039A000012390F80C04FD3600EB800082191A21E7
:1039B0003020FDF770FB2078022806D0002030B1BF
:1039C000C7F8048004E00120DBE70120F7E77D6011
:1039D0007868009040231E2230210820FCF7D0FF99
:1039E0000123AFF2F01230210820FDF754FBFDF760
:1039F0006CFC2078B84A54256FF07F41012806D02E
:103A0000022815D06078BDE8F843FEF769B939603F
:103A10007A60002404EB8400821905EB001080B268
:103A20000023F121FDF737FB641C022CF2D374E470
:103A300039607A600024A94EC4EBC4008219E01CEE
:103A400000EB800005EB001080B20023F121FDF7B0
:103A500022FB641C022CEFD35FE42DE9F8430446FB
:103A60009C489B4F4FF05015D0F8D00301280ED141
:103A70007D609A4A0123153A1646D2211E20FDF791
:103A80000AFB01233246D2219620FDF704FB207861
:103A9000012804D00020FF2618B17E6002E001203A
:103AA000F9E77D60DFF83882002305220321D8F88A
:103AB0000400FDF793FB786800902C23C0221821A6
:103AC0006720FCF75DFF0023804A1A216820FDF77C
:103AD000E2FA012383A21A21AC20FDF7DCFA207858
:103AE000022803D0002018B17E6002E00120FAE72E
:103AF0007D60002305220321D8F81C00FDF76EFB32
:103B0000786800904223C0222E216720FCF738FFFE
:103B100000236E4A30216820FDF7BDFA012371A20F
:103B20003021AC20FDF7B7FA2078032803D000201D
:103B300018B17E6002E00120FAE77D6000230522D3
:103B40000321D8F83400FDF749FB7868009058232A
:103B5000C02244216720FCF713FF00235B4A462163
:103B60006820FDF798FA01235FA24621AC20FDF7FB
:103B700092FA2078042803D0002018B17E6002E079
:103B80000120FAE77D60002303221946D8F84C0093
:103B9000FDF724FB786800902C2340F2C312182113
:103BA00040F27110FCF7ECFE0023484A1A214FF452
:103BB000B970FDF770FA01234CA21A214FF4D670A8
:103BC000FDF769FA2078052803D0002018B17E603F
:103BD00002E00120FAE77D602078062803D000206B
:103BE00018B17E6002E00120FAE77D60FDF76DFB11
:103BF0002078002803D8BDE8F843FDF7BFBC16E7DE
:103C00002DE9F84F04463348314F4FF05016D0F8A5
:103C1000D00301280ED17E60304A0123153A1546A3
:103C2000D2211E20FDF737FA01232A46D221962001
:103C3000FDF731FA2078012806D000204FF0FF0868
:103C400020B1C7F8048002E00120F7E77E607868C1
:103C500000902C23C02218216720FCF791FEDFF88A
:103C60008090234D002399F8F0001A2105EBC00243
:103C70006820FDF710FA2078022804D0002020B137
:103C8000C7F8048002E00120F9E77E6000230522E6
:103C90000321D9F8C400FDF7A1FA78680090422307
:103CA000C0222E216720FCF76BFE0023074A30213B
:103CB0006820FDF7F0F901230AA23021AC20FDF7BE
:103CC000EAF917E0A390010066920100B45C0010CD
:103CD000140000101C050010380031006D93010025
:103CE0002C40001041000000560000006D730000E1
:103CF000858801002078042804D0002020B1C7F86E
:103D0000048002E00120F9E77E6000230522032100
:103D1000D9F8AC00FDF762FA786840F2C31A40F2B5
:103D2000711B00902C23524618215846FCF728FEA0
:103D30000023FE4A1A214FF4B970FDF7ACF90123B4
:103D4000AFF25C021A214FF4D670FDF7A4F9207887
:103D5000052804D0002020B1C7F8048002E001202B
:103D6000F9E77E60002305220321D9F8DC00FDF786
:103D700035FA78680090422352462E215846FCF7C7
:103D8000FFFD0023E94A30214FF4B970FDF783F9B4
:103D90000123AFF2AC0230214FF4D670FDF77BF96E
:103DA000FDF793FA207802281BD2DFE800F0010526
:103DB000BDE8F84FFDF7E2BB6FF07F403860DC48AC
:103DC00078600024582604EB840006EB001005EB15
:103DD000C40280B20023F121FDF75DF9641C022CBE
:103DE000F1D3C1E52DE9F84F0546D2484FF005095A
:103DF0006A78D0F8A001D04CB0FBF9F1491D91428E
:103E000002D91E20A07007E0B0FBF9F109FB1100F8
:103E100000EB8000401DA070A078401F90FBF9F0DF
:103E2000C0B2FDF72DFE0027C44EDFF814834FF01B
:103E30005F0A19E0C6F8048068780023401F00EB91
:103E400080003844401C02221946FDF7C7F907EBF1
:103E5000470000EBC7000AEB400081B20123B34AE0
:103E60000320FDF718F97F1CA078401F90FBF9F0A4
:103E7000B842DFD80524B04F4FF0FF0B4237A7F10F
:103E80000C08DFF8C0A27AE1B4FBF9F0D6F804C060
:103E900037F81000401E83B2B4FBF9F009FB104064
:103EA000401C38F81000401E82B2B4FBF9F0401EEE
:103EB00037F81000401C81B2B4FBF9F009FB104048
:103EC00038F81000CDF800C0401C80B2FCF758FD57
:103ED000B4FBF9F009FB1040C0B1B4FBF9F009FBE9
:103EE000104001284AD0B4FBF9F009FB1040022829
:103EF0007DD0B4FBF9F009FB1040032878D0B4FB67
:103F0000F9F009FB1040042873D037E1611FB1FBC1
:103F1000F9F26878401F00EB8000104400EB40008D
:103F20000AEBC000D0F8240A012824D04FF47F40C7
:103F30003060B1FBF9F168780023401F00EB80008E
:103F400001447C480844804990F8B601C0EBC000A9
:103F50004218B4FBF9F0401E37F81000C01C81B2C3
:103F6000B4FBF9F009FB104038F81000C01C80B217
:103F7000FDF791F802E1C6F800B0DAE7601FB0FB88
:103F8000F9F26978491F01EB8101114401EB41010C
:103F90000AEBC101D1F8241A01292BD04FF47F413B
:103FA0003160B0FBF9F168780023401F00EB80001E
:103FB000084400EB40000AEBC0000422D0F884045F
:103FC0001946FDF70BF9B4FBF9F0401E002337F852
:103FD0001000564AC01C81B2B4FBF9F009FB104036
:103FE00038F81000C01C80B2FDF755F8C6E004E0B8
:103FF0003FE07AE0C6F800B0D3E7601FB0FBF9F20B
:104000006978491F01EB8101114401EB41010AEB81
:10401000C101D1F8241A012928D04FF47F41316021
:10402000B0FBF9F168780023401F00EB80000844E2
:1040300000EB40000AEBC0000522D0F8EC0503219C
:10404000FDF7CCF8B4FBF9F0401E002337F8100060
:10405000364AC01C81B2B4FBF9F009FB104038F8B5
:104060001000C01C80B2FDF716F887E0C6F800B05B
:10407000D6E7601FB0FBF9F26978491F01EB8101B7
:10408000114401EB41010AEBC101D1F8241A0129C5
:1040900028D04FF47F413160B0FBF9F168780023FC
:1040A000401F00EB8000084400EB40000AEBC0001A
:1040B0000522D0F854070321FDF790F8B4FBF9F07E
:1040C000401E002337F81000184AC01C81B2B4FB10
:1040D000F9F009FB104038F81000C01C80B2FCF762
:1040E000DAFF4BE0C6F800B0D6E7601FB0FBF9F28C
:1040F0006978491F01EB8101114401EB41010AEB91
:10410000C101D1F8241A01293FD04FF47F41316019
:10411000B0FBF9F16878401F00EB8000084400EB29
:1041200040000AEBC000D0F8BC080FE0B45C0010FF
:10413000380031002C40001038000010140000102E
:1041400034346500704F0010B1880100002306224E
:104150001946FDF743F8B4FBF9F0401E37F810009C
:10416000C01C81B2B4FBF9F009FB104038F8100014
:10417000C01C80B20023FE4AFCF78DFF641CFD4882
:1041800080788442FFF480AE2BE6C6F800B0BFE72B
:104190002DE9F84F0546287801280AD00020DFF8DD
:1041A000D8834FF050144FF0FF0B20B1C8F804B083
:1041B00003E00120F3E7C8F80440DFF8C0930023D0
:1041C00003221946D9F8A001FDF708F8D8F8040031
:1041D00000902C23C92218216720FCF7D1FB002373
:1041E000E34A1A216820FCF756FF2878022804D0F9
:1041F000002020B1C8F804B003E00120F9E7C8F8B6
:104200000440D8F8040000904223C0222E216720E9
:10421000FCF7B6FB99F8B4010023C0EBC001D84805
:104220000A1830216820FCF736FF2878032804D0CC
:10423000002020B1C8F804B003E00120F9E7C8F875
:104240000440D8F8040040F2711400902C234FF47D
:10425000DD7218212046FCF793FB99F8B501002385
:10426000C0EBC001C6480E300A181A212046FCF7E0
:1042700012FFD9F8A0110520B1FBF0F26B78521CA7
:10428000BC4C9A4202D92320A07008E0B1FBF0F2A6
:1042900000FB121101EB410100EB4100A070A0787E
:1042A0004FF0060A401F90FBFAF0C0B2FDF72DFB5D
:1042B00000265F271AE0B348C8F804006878002396
:1042C000401E00EB80003044401C02221946FCF7DF
:1042D00085FF06EB460000EBC60007EB400081B20D
:1042E0000123A34A0320FCF7D6FE761CA078401FCA
:1042F00090FBFAF0B042DED8687804287AD2052420
:104300009C4E4236A6F11A07B3E12878A04201D1AB
:10431000012000E0002010B1C8F804B002E0994884
:10432000C8F80400B4FBFAF00AFB1040052848D096
:10433000B4FBFAF0D8F804C036F81000401E83B27F
:10434000B4FBFAF00AFB1040801C37F81000401E46
:1043500082B2B4FBFAF0401E36F81000401C81B265
:10436000B4FBFAF00AFB1040401C37F81000CDF8FF
:1043700000C0401C80B2FCF703FBB4FBFAF00AFB60
:104380001040052838D0B4FBFAF00AFB104090B377
:10439000B4FBFAF00AFB104001287DD0B4FBFAF020
:1043A0000AFB1040022878D0B4FBFAF00AFB104058
:1043B000032873D0B4FBFAF00AFB104004286ED037
:1043C00056E1B4FBFAF0401C36F81000401E83B2F0
:1043D000B4FBFAF036F81000401C81B2D8F80400A3
:1043E00000907888401E82B23888401C80B2FCF76A
:1043F000C7FAC2E742E11CE0601FB0FBFAF168783F
:104400000023401E00EB8000084448445C4990F8BB
:10441000B6011C31C0EBC0004218B4FBFAF036F80C
:104420001000C01C81B23888C01C80B2FCF733FE7B
:104430001EE1B4FBFAF168780023401E00EB800017
:104440000844401E00EB400009EBC0000522D0F8F4
:10445000CC010321FCF7C2FEB4FBFAF0401E00239E
:1044600036F81000424AC01C81B27888C01C80B265
:10447000FCF711FEB4FBFAF16878401E00EB8000F7
:10448000084448443E4990F8B5017731C0EBC0007C
:104490004218B4FBFAF003E00EE04BE088E0B8E02D
:1044A000401E002336F81000C01C81B278883F30CF
:1044B00080B2FCF7F0FDDBE0B4FBFAF16878002392
:1044C000401E00EB80000844401E00EB400009EB5A
:1044D000C0000522D0F834030321FCF77FFEB4FBB3
:1044E000FAF0401E002336F81000214AC01C81B2A9
:1044F000B888C01C80B2FCF7CEFDB4FBFAF1687836
:104500000023401E00EB8000084448441C4990F8FA
:10451000B5019A31C0EBC0004218B4FBFAF0401E5E
:1045200036F81000C01C81B2B8883F3080B2FCF76A
:10453000B2FD9DE0B4FBFAF168780023401E00EB69
:1045400080000844401E00EB400009EBC00005223B
:10455000D0F89C040321FCF741FEB4FBFAF0401EA6
:1045600036F81000C01C81B2F888C01C80B20BE085
:10457000B45C001038000010140000102C40001033
:1045800095880100343465000023FE4AFCF783FD62
:10459000B4FBFAF0401E36F81000C01C81B2F88857
:1045A0003F3080B20023AFF6C002FCF774FD5FE03D
:1045B000B4FBFAF168780023401E00EB8000084449
:1045C000401E00EB400009EBC0000522D0F80406B5
:1045D0000321FCF703FEB4FBFAF0401E002336F87B
:1045E0001000E84AC01C81B23889C01C80B2FCF7B8
:1045F00052FDB4FBFAF0401E36F81000C01C81B228
:1046000038893F3080B20023AFF62812FCF743FD13
:104610002EE0B4FBFAF168780023401E00EB800026
:104620000844401E00EB400009EBC0000322D0F814
:104630006C071946FCF7D2FDB4FBFAF0401E0023CC
:1046400036F81000CF4AC01C81B27889C01C80B2F5
:10465000FCF721FDB4FBFAF0401E002336F81000F1
:10466000C9A2C01C81B278893F3080B2FCF713FD2B
:10467000641CC64880788442FFF447AEFCF725FEF0
:104680002878C34A58256FF07F414FF4CA76052831
:1046900043D230B1012837D0022809D0032833D1C2
:1046A0001CE0C8F80010C8F80420FCF767FF2BE0F6
:1046B000C8F80010C8F804200024B64FC4EBC400AA
:1046C000C21904EB840005EB001080B20023F12135
:1046D000FCF7E1FC641C022CF0D315E0C8F80010D4
:1046E000C8F804200024AB4F0E37C4EBC400C21935
:1046F00004EB840005EB001080B20023F121FCF7ED
:10470000CAFC641C022CF0D301B03046BDE8F04F67
:104710000023A1A2F221FCF7BEBC401F90FBFAF3DC
:104720000AFB130060B1C8F80010C8F8042001B0FB
:104730003046BDE8F04F002397A2F221FCF7ABBC56
:10474000C8F80010C8F804200024964F397811B139
:1047500001290FD01CE08F49C4EBC4003F3142183F
:1047600004EB840005EB001080B20023F121FCF77C
:1047700092FC0DE08749C4EBC4005B31421804EBA6
:10478000840005EB001080B20023F121FCF783FCCC
:10479000641C042CDAD301B03046BDE8F04F00238E
:1047A0007DA2F221FCF777BC2DE9F84F04467E4F3D
:1047B0006FF07F4AC7F800A02078012806D00020BB
:1047C000FF254FF0501618B17D6002E00120F7E799
:1047D0007E60DFF8D881002305220321D8F8EC0899
:1047E000FCF7FCFC786800902C23D022182177205D
:1047F000FCF7C6F80023634A1A217820FCF74BFC2B
:104800000123AFF61C321A21BC20FCF744FC2078AF
:10481000022803D0002018B17D6002E00120FAE7F1
:104820007E60002305220321D8F8D408FCF7D6FCCB
:10483000786800904223D0222E217720FCF7A0F840
:104840000023504A30217820FCF725FC0123AFF6E5
:1048500068323021BC20FCF71EFC2078032803D0EE
:10486000002018B17D6002E00120FAE77E6000239D
:1048700005220321D8F84C09FCF7B0FC78680090B9
:104880005823D02244217720FCF77AF800233D4AB0
:1048900046217820FCF7FFFB0123AFF6B832462112
:1048A000BC20FCF7F8FB2078042803D0002018B1C6
:1048B0007D6002E00120FAE77E60002305220321EB
:1048C000D8F83409FCF78AFC786800906E23D0226F
:1048D0005A217720FCF754F800232A4A5C217720DC
:1048E000FCF7D9FB0123AFF604425C21BB20FCF7A7
:1048F000D2FB2078052803D0002018B17D6002E0AB
:104900000120FAE77E60002304221946D8F8AC099A
:10491000FCF764FC786800908423E0227021772003
:10492000FCF72EF80023174A72217720FCF7B3FB1F
:1049300000231F4A7221A920FCF7ADFB207806282E
:1049400003D0002018B17D6002E00120FAE77E600C
:10495000002304221946D8F89409FCF73FFC786834
:1049600000909A23E02286217720FCF709F80023A3
:10497000044A88217720FCF78EFB002388210C4A0B
:10498000A92017E0B45C00105300000038000010AC
:104990003800310095880100BDF8C8EBB2E2CAD4F6
:1049A0000000000026020010140000102C4000102F
:1049B000FC160000FCF76FFB2078072803D00020CE
:1049C00018B17D6002E00120FAE77E600023052235
:1049D0000321D8F8DC09FCF701FC78680090B023CB
:1049E000D0229C217720FBF7CBFF0023FE4A9E219B
:1049F0007720FCF750FB0123AFF618529E21BB2015
:104A0000FCF749FB2078082803D0002018B17D600E
:104A100002E00120FAE77E60002305220321D8F896
:104A2000C409FCF7DBFB78680090C623D022B221D2
:104A30007720FBF7A5FF0023EB4AB4217720FCF792
:104A40002AFB0123AFF66452B421BB20FCF723FB01
:104A50002078092803D0002018B17D6002E00120F1
:104A6000FAE77E60002305220321D8F81C09FCF731
:104A7000B5FB786840F2611900902C234FF4E57281
:104A80001A214846FBF77CFF0023D74A1A214846E3
:104A9000FCF701FB0123AFF6B0521A2140F2A71038
:104AA000FCF7F9FA20780A2803D0002018B17D60BD
:104AB00002E00120FAE77E60002305220321D8F8F6
:104AC0000409FCF78BFB7868009042234FF4E572F1
:104AD00030214846FBF754FF0023C34A30214846A3
:104AE000FCF7D9FA0123AFF6006240F2A71B302190
:104AF0005846FCF7D0FA20780B2803D0002018B1D4
:104B00007D6002E00120FAE77E6000230522032198
:104B1000D8F87C09FCF762FB7868009058234FF4C2
:104B2000E57246214846FBF72BFF0023AE4A46219B
:104B30004846FCF7B0FA0123AFF6586246215846C2
:104B4000FCF7A9FA20780C2803D0002018B17D606A
:104B500002E00120FAE77E60002305220321D8F855
:104B60006409FCF73BFB786800906E234FF4E57214
:104B70005C214846FBF704FF00239B4A5C21484622
:104B8000FCF789FA0123AFF6A4625C215846FCF7D2
:104B900082FAFCF79AFB2078052809D2002807D171
:104BA000C7F800A091487860BDE8F84FFCF72DBD2C
:104BB000BDE8F88F2DE9F84304468D488D4D4FF040
:104BC0005016D0F8D00301280DD16E608A4A012317
:104BD0001746D2211E20FCF75EFA01233A46D22165
:104BE0009620FCF758FA2078012804D00020FF27EF
:104BF00018B16F6002E00120F9E76E60DFF8FC8118
:104C0000002305220321D8F86400FCF7E7FA68685E
:104C100000902C23C02218216720FBF7B1FE00234F
:104C2000714A1A216820FCF736FA0123AFF6487260
:104C30001A21AC20FCF72FFA2078022803D000209C
:104C400018B16F6002E00120FAE76E6000230522D0
:104C50000321D8F87C00FCF7C1FA68680090422371
:104C6000C0222E216720FBF78BFE00235E4A3021F5
:104C70006820FCF710FA0123AFF698723021AC20BF
:104C8000FCF709FA2078032803D0002018B16F60E0
:104C900002E00120FAE76E60002305220321D8F824
:104CA0009400FCF79BFA686800905823C0224421C6
:104CB0006720FBF765FE00234B4A46216820FCF77E
:104CC000EAF90123AFF6E4724621AC20FCF7E3F9E0
:104CD000FCF7FBFA2078002803D8BDE8F843FCF77E
:104CE0004DBCBDE8F88310B50446FCF7EEFA207819
:104CF000002804D16078BDE81040FDF79CB910BDD4
:104D00000B4611463E4A00EB4000024498B289B27D
:104D10000123FCF716BA2DE9F84F0446DFF8D4A0BA
:104D20004FF05017CAF80470DFF8C4B04FF4B975EB
:104D3000DBF8FC00002815D0002332A23F212846D2
:104D4000FCF7FFF900232FA23F21C820FCF7F9F957
:104D50002078012813D000204FF0FF0988B1CAF84D
:104D6000049010E03F222946DBF88803FFF7C8FFD4
:104D70003F22C821DBF88803FFF7C2FFE8E70120E4
:104D8000EAE7CAF80470DAF8040000902A239922AE
:104D900018214520FBF7F4FDDBF888031A4900EBE6
:104DA000C0004218012318214620FCF774F920782E
:104DB000022804D0002020B1CAF8049003E00120AA
:104DC000F9E7CAF804709BF8EC1000230522DBF821
:104DD000E800FCF703FADAF804002A23182100900F
:104DE00040F24512E22011E0B45C001038003100BE
:104DF0001C05001014000010589301002C400010F6
:104E0000609A010025000000F78E0100FBF7B8FD55
:104E10000123FE4A1821E520FCF73DF9DBF8F000FC
:104E2000012300EB4001FA480A18182140F229102A
:104E3000FCF731F9182240F23311DBF88803FDF753
:104E4000F0FE2078032804D0002020B1CAF8049096
:104E500003E00120F9E7CAF80470DAF804000090D2
:104E60002A2340F2DD12182140F28F10FBF788FD53
:104E7000E848DBF8FC10012300EB810218214FF415
:104E8000C870FCF708F92078042804D0002020B16D
:104E9000CAF8049003E00120F9E7CAF80470DAF8D0
:104EA000040000903E2399222C214520FBF768FD49
:104EB000DBF8E000D84D00EB8000421900232C21E4
:104EC0004620FCF7E8F82078052804D0002020B11F
:104ED000CAF8049003E00120F9E7CAF80470DAF890
:104EE000040000903E234FF49C722C21E420FBF739
:104EF00047FDDBF80401012300EB8001C6480A18D6
:104F00002C21E520FCF7C7F806252078A84202D11D
:104F1000CAF8049009E0A5F10900042803D2BF48AB
:104F2000CAF8040001E0CAF80470DAF80400A5F138
:104F30000608C8EB0816009006F15C0083B24C36F8
:104F4000B1B2E6229420FBF71BFD08EB48000BEB07
:104F50000018D8F80C01D0B198F8101100230522E0
:104F6000FCF73CF9B1B20123A84AA020FCF7E9F80C
:104F7000DBF8FC0088B9D8F81401012300EB4001EC
:104F8000A3480A18B1B2D020FCF7DBF805E0B1B2B3
:104F90000123A34AA020FCF7D4F86D1C0F2DB4D335
:104FA00010252078A84202D1CAF8049009E0A5F1A2
:104FB0001300042803D29948CAF8040001E0CAF893
:104FC0000470DAF804000090A5F110008046C0EBF0
:104FD000001606F15C0083B24C36B1B24FF4C372D6
:104FE0004FF49A70FBF7CCFC08EB48000BEB001871
:104FF000D8F82401E0B198F8281100230522FCF725
:10500000EDF8B1B20023814A4FF4A570FCF799F88E
:10501000DBF8FC0098B9D8F82C01012300EB400123
:105020007B480A18B1B24FF4BD70FCF78AF806E06D
:10503000B1B201237A4A4FF4A570FCF782F86D1CD7
:10504000192DAED320780F285CD0CAF80470DAF896
:1050500004000090E323E622D3219420FBF790FC88
:105060009BF8C01200230522DBF8BC02FCF7B6F85F
:105070000123664AD321A020FCF763F8DBF8C402C1
:10508000634D00EB400042190123D321D020FCF7EF
:1050900058F82078192838D0CAF80470DAF80400D3
:1050A0000090E3234FF4C372D3214FF49A70FBF7BF
:1050B00067FC9BF8D81200230522DBF8D402FCF72A
:1050C0008DF80023514AD3214FF4A570FCF739F82D
:1050D000DBF8DC02012300EB40004219D3214FF43E
:1050E000BD70FCF72EF8FCF7F0F822784D496825E2
:1050F0006D266FF07F40062A65D2DFE802F00924B2
:10510000240E2C48CAF80490A1E7CAF80490C5E719
:105110006078BDE8F84FFCF78EBFCAF80000CAF807
:10512000041000243B4E722774B104EB840007EB9B
:10513000001006EB840280B20023F121FBF7ABFFE5
:10514000641C022CF0D333E5324628460023F121BB
:10515000FBF7A1FFF4E7CAF80000CAF80410002426
:105160002D4F6CB104EB8400C21906EB001080B225
:105170000023F121FBF78FFF641C022CF1D317E50C
:105180003A4628460023F121FBF785FFF4E7CAF8E9
:105190000000CAF8041000241F4F6CB104EB840017
:1051A000C21906EB001080B20023F121FBF773FF58
:1051B000641C022CF1D3FBE43A4628460023F1217B
:1051C000FBF769FFF4E7CAF80000CAF80410DBF83F
:1051D0004C134FF4CA74012910D00029B3D1002315
:1051E00011A2F1215D20FBF756FF01B02046BDE87A
:1051F000F04F00230EA2F221FBF74DBF00230FA2B8
:10520000F1215D20FBF747FF00231BE0B45C001099
:105210002D9A0100DC870100BA9301003434650047
:10522000FC2E000038003100C7E5B3FDD0D00000EF
:10523000C7E5B3FDB1EDB8F10000000043656C2097
:105240005200000001B02046BDE8F04FF5A2F22167
:10525000FBF721BF2DE9F84F06463078012807D02B
:105260000020F24CFF274FF0501818B1676003E0A0
:105270000120F6E7C4F80480606800902C23C02267
:1052800018215820FBF77CFBE94DDFF8A893012398
:1052900028681A2100EB800000EB09025820FBF778
:1052A000FAFE3078022803D0002018B1676003E0CE
:1052B0000120FAE7C4F80480606800904223C0220D
:1052C0002E215820FBF75CFB6868012300EB80006F
:1052D00000EB090230215820FBF7DDFEFBF7F5FF5C
:1052E000D44F3378B63FD44A54256FF07F414FF006
:1052F00067084FF06C0B07F1C50AA7F1200907F208
:105300002F10122B42D2DFE803F0090E7A96A9C0C3
:10531000D2F4F2F1F0EFEEEDECEBEAE97078BDE8F3
:10532000F84FFCF788BE7078E8B140F2931540F270
:10533000BD16012832D0216062600023BF4A4FF4BD
:1053400082715420FBF7A7FE0023BD4AF2212846B4
:10535000FBF7A1FE01B03046BDE8F04F0023B9A233
:10536000F221FBF798BE216062600024B64D74B153
:1053700004EB84000BEB001005EBC40280B20023A9
:10538000F121FBF788FE641C022CF0D310E42A46BE
:1053900040460023F121FBF77EFEF4E721606260C6
:1053A0000024A64F40F25718283F07F1180A4FF083
:1053B0006209032C1CD004EB840009EB001007EBFE
:1053C000C40280B20023F121FBF765FE641C042CAB
:1053D000EFD300239A4AF2212846FBF75CFE01B086
:1053E0003046BDE8F04F002398A2F221FBF753BEF0
:1053F000524640460023F121FBF74DFEE6E72160CF
:1054000062600024904D203574B104EB84000BEBF6
:10541000001005EBC40280B20023F121FBF73BFE34
:10542000641C022CF0D38EE62A4640460023F1216C
:10543000FBF731FEF4E7216062600024844E04EB48
:10544000840005EB001006EBC40280B20023F121BA
:10545000FBF721FE641C022CF1D374E6216062602C
:105460000024744E1F3604EB440000EBC400821984
:1054700004EB840005EB001080B20023F121FBF760
:105480000AFE641C042CEED35DE6216062600024F9
:1054900004EB840005EB00100AEBC40280B2002389
:1054A000F121FBF7F8FD641C022CF1D34BE62160DF
:1054B000626000245F4E4B3604EB440000EBC400F6
:1054C000821904EB840005EB001080B20023F12167
:1054D000FBF7E1FD641C022CEED334E6E2E0CFE002
:1054E000B8E08DE07AE062E04DE03AE025E012E0DD
:1054F000FFE721606260002404EB840005EB0010EC
:1055000007EBC40280B20023F121FBF7C4FD641C49
:10551000022CF1D317E621606260002404EB8400C2
:1055200005EB001007EBC40280B20023F121FBF76A
:10553000B2FD641C022CF1D305E6216062600024F8
:105540003C4E613604EB840005EB001006EBC40210
:1055500080B20023F121FBF79EFD641C032CF1D3E4
:10556000F1E521606260002404EB840005EB00108B
:1055700009EBC40280B20023F121FBF78CFD641C0F
:10558000042CF1D3DFE5216062600024294E853EC2
:1055900004EB840005EB001006EBC40280B200238C
:1055A000F121FBF778FD641C032CF1D3CBE52160DE
:1055B000626000241F4E6D3E04EB440000EBC4000B
:1055C000821904EB840005EB001080B20023F12166
:1055D000FBF761FD641C022CEED3B4E52160626030
:1055E000002404EB840005EB001007EBC40280B23A
:1055F0000023F121FBF74FFD641C022CF1D3A2E53F
:1056000021606260002404EB840005EB00100AEBCB
:10561000C40280B20023F121FBF73DFD641C022C83
:10562000F1D390E543656C4C69737400140000106D
:105630001C050010BA93010038003100CF8E010024
:10564000FC200000332F330059980100322F330023
:1056500087920100216062600024074604EB440049
:1056600000EBC400C21904EB840005EB001080B20B
:105670000023F121FBF70FFD641C022CEED362E541
:1056800021606260002404EB840005EB001009EB4C
:10569000C40280B20023F121FBF7FDFC641C042C42
:1056A000F1D350E5216062600024074604EB44001A
:1056B00000EBC400C21904EB840005EB001080B2BB
:1056C0000023F121FBF7E7FC641C042CEED33AE540
:1056D0002DE9F84F04462078012807D00020F94F23
:1056E000FF254FF0501618B17D6002E00120F6E76B
:1056F0007E60786800902C23C0221A215E20FBF780
:105700003FF9DFF8C4A3DFF8C483DAF84C030128BB
:1057100001D090B11BE098F8A80C012806D0002316
:10572000EBA21C215F20FBF7B6FC10E00023EAA2ED
:105730001C215F20FBF7AFFC09E098F8A80C0128BA
:105740000CD00023E2A21C215F20FBF7A4FC2078F0
:1057500002280AD0002050B17D6009E00023DEA2BB
:105760001C215F20FBF797FCF1E70120F3E77E6047
:10577000786800904223C02230215E20FBF700F9B8
:1057800098F8A90CDFF8588300EB800000EB0802C2
:10579000012332215F20FBF77EFC2078032803D011
:1057A000002018B17D6002E00120FAE77E60786891
:1057B00000905823C02246215E20FBF7E1F8C9483B
:1057C0000123482190F87E0200EB800000EB0802E4
:1057D0005F20FBF760FC2078042803D0002018B17C
:1057E0007D6002E00120FAE77E60786800906E2319
:1057F000C0225C215E20FBF7C3F8DFF8EC92DAF8F8
:105800004C03002309EBC0025E215F20FBF743FC41
:105810002078052803D0002018B17D6002E0012027
:10582000FAE77E60786800908423C02272215E20AF
:10583000FBF7A6F80023ADA274215F20FBF72BFC39
:105840002078062803D0002018B17D6002E00120F6
:10585000FAE77E60786800909A23732288215E20A0
:10586000FBF78EF8DFF88C82012302220021D8F8A2
:105870001C00FBF7B3FC00239F4A8A215F20FBF743
:105880000AFC7E6000239DA28A217320FBF703FCA3
:105890002078072803D0002018B17D6002E00120A5
:1058A000FAE77E60786800909A23912288217C2014
:1058B000FBF766F8012302220021D8F81800FBF755
:1058C0008DFC00238C4A8A217D20FBF7E4FB7E605F
:1058D00000238AA28A219120FBF7DDFB207808288B
:1058E00003D0002018B17D6002E00120FAE77E605D
:1058F000786800909A23B12288219C20FBF740F819
:10590000012302220021D8F80C00FBF767FC7A483B
:105910004FF0000B80F802B0024600238A219D2040
:10592000FBF7B9FB7E60002375A2A0211846FBF7A8
:10593000B2FB0023754AA0215E20FBF7ACFB207868
:10594000092803D0002018B17D6002E00120FAE7A9
:105950007E60786800902C234FF4DD721A214FF49A
:10596000AC70FBF70DF8604A002341321C2140F275
:105970005910FBF790FB20780A2803D0002018B1BB
:105980007D6002E00120FAE77E60786800904223A3
:105990004FF4DD7230214FF4AC70FAF7F1FF504A4A
:1059A0000123313A322140F25910FBF774FB207881
:1059B0000B2803D0002018B17D6002E00120FAE737
:1059C0007E607868009058234FF4DD7246214FF4D2
:1059D000AC70FAF7D5FF424A0123D21F482140F2AA
:1059E0005910FBF758FB20780C2803D0002018B181
:1059F0007D6002E00120FAE77E60786800906E2307
:105A00004FF4DD725C214FF4AC70FAF7B9FF40A19E
:105A10003948DAF880230DF075FD01233DA25E219F
:105A200040F25910FBF737FB20780D2803D00020F7
:105A300018B17D6002E00120FAE77E60786800908E
:105A400084234FF4DD7272214FF4AC70FAF798FFA3
:105A5000234A01230A32742140F25910FBF71BFB41
:105A600020780E2803D0002018B17D6002E00120CC
:105A7000FAE77E60786840F26D1A00909A235246E9
:105A800088214FF4AC70FAF77BFF0123022200213A
:105A9000D8F80800FBF7A2FB0023174A8A2140F23E
:105AA0005910FBF7F8FA7E60002317A28A215046AE
:105AB000FBF7F1FA20780F2830D0002008B17D6084
:105AC0002FE02DE0140000101C0500102C400010E9
:105AD000353533302B0000004A4B353533302B0041
