:020000040000FA
:10000000785A0010B9090100C1090100C3090100B3
:10001000C5090100C7090100C9090100000000006D
:10002000000000000000000000000000CB090100FB
:10003000CD09010000000000CF090100D304000039
:10004000D3090100C9050000F905000009060000F8
:10005000190600003F1D0100D3090100D30901006A
:10006000271F0100D3090100D3090100D3090100B2
:10007000D3090100D3090100D3090100D30901000C
:10008000D3090100D9070100D3090100D3090100F8
:10009000D3090100D3090100D3090100D3090100EC
:1000A0005F320100D309010041080100D3090100BA
:1000B000D3090100D3090100D3090100D3090100CC
:1000C000D3090100D3090100D3090100D3090100BC
:1000D000D3090100D309010001030000D309010085
:1000E000D3090100DFF80CD014F03AFA00480047B9
:1000F00047030000785A0010734840F20121016064
:1001000041608160C160016141618161C1610162E1
:1001100041628162C162016341638163C1630164C1
:1001200041648164C164016541658165C1650166A1
:1001300041668166C166016741678167C167C0F832
:100140008010C0F88410C0F88810C0F88C10C0F877
:100150009010C0F89410C0F89810C0F89C10C0F827
:10016000A010C0F8A410C0F8A810C0F8AC10C0F8D7
:10017000B010C0F8B410C0F8B810C0F8BC10C0F887
:10018000C010C0F8C410C0F8C810C0F8CC10C0F837
:10019000D010C0F8D410C0F8D810C0F8DC10C0F8E7
:1001A000E41040F8401C40F83C1C40F8381C40F873
:1001B000301C40F8201C40F8101C40F80C1C40F883
:1001C000081C40F8041C70472DE9F0413F4E306890
:1001D00040F40060306041F61F70C6F818013C4CD6
:1001E000012222600027A760FFF786FF39483A49BD
:1001F0000068B0FBF1F5F06BC43E00B16D084FF440
:100200007A78B8FBF5F000F11303B3FBF0F121634A
:100210004FF00F0CC4F834C0A763E263B3FBF0F1F6
:10022000891C2164626400F13E01B1FBF0F3A36418
:10023000B1FBF0F3E364C4F850C0B1FBF0F06065CB
:10024000A265A26240F20330C4F804014FF48D406D
:10025000C4F80001C4F800016421002000F060F936
:1002600040F283102062C821002000F059F940F2CA
:1002700003102062022060620020401C8028FCD312
:1002800040F2E7104543B5FBF8F080B2606283208E
:100290002062124800682762D4F8000140F4002070
:1002A000C4F800010121002000F03AF901210020EA
:1002B00000F036F9D6F8DC0120F01F0040F0110004
:1002C000C6F8DC01BDE8F08180C10240C4C00F4027
:1002D00000C009207802001040420F00004006A034
:1002E000421E12F8013F002BFBD111F8013B02F82E
:1002F000013B002BF9D1704713F06CBDFFFFFFFFEE
:1003000010B501221321002010F03EFD002819D065
:100310006FF07F40401E0028FCD17C487C490122C0
:10032000037823B1002202701320086002E00270FB
:10033000022008604FF40021002010F050FD7549A4
:100340004020086010BD002010F03AFE00244FF459
:100350007A71B0FBF1F0401E0026B0F1807F0CD224
:1003600020F07F404FF0E025401E68611F21601E95
:1003700000F0BBF8AE61072028610122D104002003
:1003800010F0E3FC0121262000F0AFF86149402085
:100390008039086010F07CF910F0F8F811F027FCB3
:1003A0005A480670042011F06BFD11F09DFF10F00B
:1003B00028FA10F00AF810F06BF910F0BCF8FFF70B
:1003C00003FF002000F0E6F953480021406900F0E7
:1003D00010FA012000F0DEF9002010F034F94C4D45
:1003E000132028604FF0501610F0C6F9FF2803D0F4
:1003F000641C022C02D004E00024FAE7304600F02E
:10040000B6FA2868801E1228EED2DFE800F0093E16
:1004100038440F171A1D20262C324A235C50565F91
:10042000304600F0A4FA0AF094FBDDE7304600F015
:100430009EFA0FF099FF0CF0EDFDD5E70AF07FFE74
:10044000D2E70BF095F8CFE70BF0B4FCCCE70CF05B
:1004500059FBC9E70FF064F9C6E7304600F087FAA8
:100460000DF020FBC0E7304600F081FA0DF0CCFB28
:10047000BAE7304600F07BFA0DF060FCB4E7304696
:1004800000F075FA0DF08EF8AEE7304600F06FFA26
:100490000DF04AF9A8E7304600F069FA0DF08DF842
:1004A000A2E7304600F063FA0EF084FF9CE7304686
:1004B00000F05DFA0EF03DF996E7304600F057FA8D
:1004C0000DF021FD90E70EF013FB8DE70FF0D0FB50
:1004D0008AE712480168491C016070470F490A68A1
:1004E0000B689B1A8342FBD37047C906090E00288C
:1004F00006DA00F00F0000F1E02080F8141D7047CC
:1005000000F1E02080F80014704700006402001041
:100510006802001084E100E01C00001000000010E0
:10052000F0B5944A0023FF250426012712684FF0F6
:10053000020C4FF47A74002815D0012824D0022828
:1005400032D003280ED18C48C0F804C0C360B2FB7F
:10055000F4F2521E4A438261056046614760416879
:10056000C907FCD1F0BD4FF04020C0F804C0C36003
:10057000B2FBF4F2521E4A43826105604661476055
:100580004168C907FCD1F0BD7C48C0F804C0C36015
:10059000B2FBF4F2521E4A43826105604661476035
:1005A0004168C907FCD1F0BD7548C0F804C0C360FC
:1005B000B2FBF4F2521E4A43826105604661476015
:1005C0004168C907FCD1F0BD4FF04021012008600F
:1005D0006C480168491C01606B4801786B4801292F
:1005E00006D08168491C81604168491C41607047A0
:1005F0000168491C0160F7E7604901200860634811
:100600004168491C416070475D49012008605F48AE
:100610008168491C816070475749012008605B4828
:10062000C168491CC16070470121002808D0012819
:100630000AD002280BD0032801D14F4841607047EF
:100640004FF04020416070474C48416070474C4833
:10065000416070470021002808D001280AD0484A8C
:1006600002280AD0032800D1516070474FF0402083
:1006700041607047414841607047516070470028B1
:100680000BD0012810D0022814D0032804D13A49F5
:10069000486840F00200486070474FF040214868C9
:1006A00040F00200486070473449486840F002005A
:1006B000486070473249486840F00200486070471F
:1006C00070B50024314D324A0323002807D0012899
:1006D0001BD0022827D0032833D0002070BD2C6007
:1006E00052F8C40F40F0020010604FF04020426802
:1006F00042F0020242604EF65F22C26081614361B5
:10070000012000F02CF8012070BD6C6052F8C40F7D
:1007100040F004001060194881614361022000F03C
:100720001EF8012070BDAC6052F8C40F40F4800088
:100730001060134881614361032000F010F801202C
:1007400070BDEC6052F8C40F40F4000010600A481D
:1007500081614361042000F002F8012070BD00F0C7
:100760001F02012191404009800000F1E020C0F803
:10077000001170477C0200100040094000800040DA
:10078000000009402C02001060020010040000105C
:1007900000C00F4008B5F94942F2107200280FD08E
:1007A000886940F0010088610092886940F4006027
:1007B00088610098401E009000980028F5D108BD7F
:1007C000886920F400608861009202E00098401E71
:1007D000009000980028F9D1886920F00100886114
:1007E00008BDE74A002108C808C2491C8029FAD37D
:1007F000704770B50846E34CE34B272243F8A82C1A
:1008000043F8A42CC3F8B821C3F8BC211A665A6671
:100810009A66DA6643F8A02C43F89C2C9A61DA6158
:100820001A625A629A62DA6243F8982C43F8942C5E
:100830009A67DA671A635A639A63DA631A65DA6544
:100840005A659A659A64D14A116C41F002011164AB
:10085000916D41F00A019165CD4B196841F001019C
:100860001960CC490A6822F001020A60C34A0025D7
:100870009561916921F00E019161916941F00A0140
:100880009161916941F020019161916921F08001AC
:100890009161916921F480719161916921F40071F4
:1008A0009161916921F480619161916921F4006104
:1008B0009161B949B94E0968B1FBF6F1C3F8F4107A
:1008C000916841F080619160916821F02001916010
:1008D000916841F400619160916841F480519160A8
:1008E000916821F400519160916821F480419160F8
:1008F0009168AB4B194091609168AA4B1943916084
:100900001560116841F01C511160116841F480219B
:100910001160116841F480711160116841F0740137
:1009200011605560516841F000615160516841F4B7
:1009300000215160516841F480615160516840F27A
:100940000F131943516014615461002801D0FFF75F
:1009500048FF00204FF47F01CA1102C4401C90429E
:10096000FBD342F21070401E0028FCD170BD854AB6
:1009700000214FF4FF3301C2491C9942FBD3704759
:10098000F0B5059EC3F58874C4EB0414E401C2F508
:10099000F07504EB85047B4D2C440025121AC2F53A
:1009A000F077591A08E0002001E040C4401C824260
:1009B000FBD804EB87046D1CA942F4D8F0BD714B41
:1009C000B0F5F07F0ED2B1F5887F0BD2A1F20F11F6
:1009D000C0F5F070A1EB011100EB4110401E03EBDC
:1009E0008000026070472DE9F0470446DDF820A042
:1009F0000D4690469946444502D94046A04684B2E9
:100A00004D4502D94846A94685B2A8EB040000B27C
:100A1000A9EB05010EB250B1A6B1B04236DDC0EB74
:100A200046010FB27100404201EB400926E05246F8
:100A300029462046FFF7C3FF6D1CADB2A945F6D28B
:100A4000BDE8F087524629462046FFF7B8FF641CF0
:100A5000A4B2A045F6D2F3E7524629462046FFF756
:100A6000AEFF641CA4B2002F05DD6D1CADB209EB16
:100A7000070007B202E007EB460007B24445EBD19E
:100A8000524629462046BDE8F04798E7C6EB4001AC
:100A90000FB27100404201EB400811E05246294676
:100AA0002046FFF78CFF6D1CADB2002F05DD641CE6
:100AB000A4B208EB070007B202E007EB460007B25A
:100AC0004D45EBD1524629462046BDE8F04776E732
:100AD0002DE9FF5F8946074611469B46684609F0A7
:100AE000D7FD0025EA461AF80580002409EB050623
:100AF000C4F1070028FA00F0C00706D03819B1B2D7
:100B000080B25A46FFF75BFF05E03819B1B280B2F8
:100B10000E9AFFF754FF641C082CE9D36D1C102DAE
:100B2000E1D3BDE8FF9F2DE9FE4F894607461146F8
:100B30009B46684609F0B3FD0025EA461AF8058091
:100B4000002409EB0506C4F1070028FA00F0C007ED
:100B500006D03819B1B280B25A46FFF730FF05E02F
:100B60003819B1B280B20C9AFFF729FF641C082C27
:100B7000E9D36D1C0C2DE1D3BDE8FE8F0080082069
:100B800000820820000001A0B8C0024000800920B7
:100B9000C4C00F40008C08207C0200109C99740097
:100BA000FFFF00FC0000DF012DE9F8430446089F29
:100BB0000D46164699464FF4EC7816F8012B4B4635
:100BC000294620460097FFF783FF444502D20834A8
:100BD000A4B207E0FF2D03D800241035ADB201E028
:100BE0000024002530780028E7D1BDE8F8832DE9FE
:100BF000FF4F82B005460C4617462E46A0464FF0E2
:100C0000000AA6F1140080B23A462146FFF7D7FE4B
:100C1000761CB6B2A8F1140081B23A462846FFF716
:100C2000CEFE08F101081FFA88F80AF1010A1FFA3E
:100C30008AFABAF1280FE4D3A94627460026A5F17F
:100C4000140001902830A4F1140804F1140A009053
:100C5000A9F1140083461FFA88F180B2059AFFF7C4
:100C6000AEFE1FFA8AF11FFA8BF0059AFFF7A7FE76
:100C700009F101091FFA89F9A7F11400834681B22D
:100C80000198059A80B2FFF79AFE00981FFA8BF13F
:100C900080B2059AFFF793FE7F1CBFB2761CB6B2F6
:100CA0000A2ED5D30026A4F1140704F11408A5F1E7
:100CB000140905F1140A05F10A008346B9B280B29D
:100CC000059AFFF77CFE1FFA88F11FFA8BF0059A50
:100CD000FFF775FE6D1CADB204F10A00834681B2C8
:100CE0001FFA89F0059AFFF76AFE1FFA8BF11FFAC7
:100CF0008AF0059AFFF763FE641CA4B2761CB6B2B4
:100D00000A2ED8D306B0BDE8F08F30B502460020D9
:100D10001478FE4B00EB80115D5CA54204D11944B0
:100D2000557849788D4204D0401C80B27728F1D3A1
:100D3000002030BD30B5024600201478F44B00EBA3
:100D4000001113F81150A54205D103EB410155786C
:100D500049788D4204D0401C80B2D228EFD30020C5
:100D600030BD2DE9F84F04468B469246A046002739
:100D70000AFB03F0C11700EB5170DFF89893009065
:100D800025E00A98C65D0025300606D5594620465E
:100D9000D9F80020FFF713FE05E059462046D9F8A0
:100DA0000420FFF70CFE7006060E641CA4B2A4EB30
:100DB0000800504505D144460BF1010B1FFA8BFB8F
:100DC00003E06D1CEDB2082DDED37F1CBFB200988E
:100DD000B7EBE00FD5DBBDE8F88F2DE9F04F044607
:100DE00088462546CA4902EB0210DFF828A301EB2A
:100DF0004009002B0FD0002709EB070090F802B044
:100E000000265FEA0B6034D541462046DAF804201C
:100E1000FFF7D5FD33E04FF0000B09EB0B008778AF
:100E20000026380606D541462046DAF80020FFF7AE
:100E3000C6FD05E041462046DAF80420FFF7BFFD75
:100E40007806070E641CA4B2601B10280BD0761C19
:100E5000F6B2082EE5D30BF1010B0BF0FF0BBBF143
:100E6000200FDAD34FE72C4608F101081FFA88F863
:100E7000F1E741462046DAF80020FFF7A0FD4FEAEF
:100E80004B604FEA106B641CA4B2601B102808D0A2
:100E9000761CF6B2082EB4D37F1CFFB2202FABD342
:100EA00031E72C4608F101081FFA88F8F4E72DE92C
:100EB000F04F044688462546944902EB8210DFF83D
:100EC00054A200EB0109002B0FD0002709EB07000B
:100ED00090F802B000265FEA0B6034D54146204608
:100EE000DAF80420FFF76BFD33E04FF0000B09EB5D
:100EF0000B0087780026380606D541462046DAF8EA
:100F00000020FFF75CFD05E041462046DAF80420AA
:100F1000FFF755FD7806070E641CA4B2601B182865
:100F20000BD0761CF6B2082EE5D30BF1010B0BF0BB
:100F3000FF0BBBF13F0FDAD3E5E62C4608F10108C1
:100F40001FFA88F8F1E741462046DAF80020FFF75B
:100F500036FD4FEA4B604FEA106B641CA4B2601B75
:100F6000182808D0761CF6B2082EB4D37F1CFFB226
:100F70003F2FABD3C7E62C4608F101081FFA88F8CB
:100F8000F4E710B50446084611462246FFF78FFFE6
:100F9000182010BD10B50446084611462246FFF73A
:100FA0001CFF122010BD2DE9F84F06460C461546D1
:100FB0009A4600274FF4F0794FF488782A78002A6F
:100FC0003DD0F01986B2802A15D906F1180048459F
:100FD00005D900261634A4B2444500D90024284679
:100FE000FFF793FE80B2534622463146FFF7C9FF12
:100FF0000746AD1CE2E70D2A15D00A2A1BD006F1E0
:101000000C00484505D900260C34A4B2444500D94B
:101010000024404841680091036821463046FFF7AC
:1010200057FD6D1CCAE71634A4B2444500D900240C
:101030006D1C0027C2E700266D1C0027BEE7CAE62C
:10104000F8B506460F46154600242B78002B21D014
:10105000A3F13002092A01D893B204E02E2B15D057
:101060002D2B15D00C2303EBC300C0EB83102A49B2
:10107000372301EB80000090301980B220223946DE
:10108000FFF76FFE6D1C2034A4B2DEE70A23EAE707
:101090000B23E8E7F8BD2DE9F84306460C46154654
:1010A000994600204FF4F0784FF488772A78002A88
:1010B00046D0304486B2802A14D906F1100040454B
:1010C00005D900261034A4B2BC4200D90024284619
:1010D000FFF730FE80B24B4622463146FFF75AFFFB
:1010E000AD1CE3E70D2A1FD00A2A25D006F108001F
:1010F000404505D900260834A4B2BC4200D90024DA
:101100000448416800912146036807E01C5F010024
:10111000537D01001400001084BF01003046FFF72A
:10112000D7FC6D1C0A20C1E71034A4B2BC4200D920
:1011300000246D1C0020B9E700266D1C0020B5E7D7
:1011400053E52DE9F84306460C461546994600201E
:101150004FF4F0784FF488772A78002A3DD0304455
:1011600086B2802A14D906F11000404505D9002620
:101170001034A4B2BC4200D900242846FFF7DAFD9F
:1011800080B24B4622463146FFF704FFAD1CE3E731
:101190000D2A16D00A2A1CD006F10800404505D9B0
:1011A00000260834A4B2BC4200D900243548416866
:1011B0000091036821463046FFF7B5FC6D1C0820FE
:1011C000CAE71034A4B2BC4200D900246D1C002030
:1011D000C2E700266D1C0020BEE706E52DE9F041C0
:1011E000062A00D90A2202B90122052900D90521BF
:1011F000914200D911460024234E20273755641C04
:10120000E4B20C2CFAD314460A250DE0B0FBF5FC31
:1012100005FB1C0C06EB04080CF1300C08F801CCA3
:10122000B0FBF5F0641EE4B2002CEFD169B11046BA
:1012300005E0341814F8014C3454401EC0B2491E65
:10124000C9B2F6D22E21315400E0B75473B9002050
:10125000511E09E0335C302B08D133185B782E2BFC
:1012600004D03754401CC0B28842F3DB521CD0B2C9
:10127000002102E03154401CC0B20C28FAD3BDE872
:10128000F08100001400001044530010704738B57E
:1012900004464FF05015E4234FF4C872D0210320C8
:1012A0000095FFF76DFB002C0ED0012C0CD1FE48F1
:1012B0004560FF21016001B00023BDE83040D0212E
:1012C000FAA20320FFF7E7BE38BD2DE9F84F00244E
:1012D000DFF804844FF04C0940F20F174FF04D0A2D
:1012E0004FF04E0BFD48009004EB4401A00001EBD1
:1012F000041100EB810004EB840509EB051680B2B4
:10130000B2B23B46E421FFF73BFB012000EB0510A6
:10131000E323B2B280B21946CDF80080FFF763FB39
:10132000B2B2B0B23B46E321CDF80080FFF75BFBE1
:101330000AEB0510002682B280B23B46E3210096FC
:10134000FFF751FB0BEB051082B280B23B46E32165
:101350000096FFF748FB4F2000EB051082B280B2E9
:101360003B46E3210096FFF73EFB641C062CB9D3F5
:10137000BDE8F88F10B5FFF7A8FFCB48D74941600B
:101380006FF07F4101600023D5A2F1215420FFF7C7
:1013900082FE0023F121BDE81040D3A2A420FFF774
:1013A0007ABE10B5FFF791FFBF48CC4941606FF09E
:1013B0007F4101600023F121BDE81040CBA2542001
:1013C000FFF769BE10B5FFF780FFB748C34941601A
:1013D0006FF07F4101600023F121BDE81040C4A2FD
:1013E0005420FFF758BE10B5FFF76FFFAE48BB495A
:1013F00041606FF07F4101600023F121BDE81040A2
:10140000BCA25420FFF747BE10B5FFF75EFFA64809
:10141000B24941606FF07F4101600023F121BDE8D6
:101420001040B5A25420FFF736BE10B5FFF74DFFB0
:101430009D48AA4941606FF07F4101600023F1217E
:10144000BDE81040ADA25420FFF725BE10B5FFF750
:101450003CFF9548A14941606FF07F410160002346
:10146000F121BDE81040A6A25420FFF714BE10B52C
:10147000FFF72BFF8C48994941606FF07F41016075
:101480000023F121BDE810409EA25420FFF703BEC7
:1014900010B5FFF71AFF8448904941606FF07F4113
:1014A0000160002393A2F1215420FFF7F4FD0023F3
:1014B000F121BDE8104095A2A420FFF7ECBD2DE975
:1014C000F0410446FFF701FF7749844A4A606FF014
:1014D0007F420A608E4E4FF4D1757127C4B100244B
:1014E000042C32D084B3032C3FD0611D01EB4100AA
:1014F00006EB400204EB840007EB00100023F1210F
:10150000FFF7C9FD641CE4B2052CE9D3BDE8F08106
:101510000024042C10D004EB440006EB400204EB42
:10152000840007EB00100023F121FFF7B4FD641CD9
:10153000E4B2052CEDD3E9E7754A284618320023BA
:10154000F121FFF7A8FDF2E707E0714A284636329D
:101550000023F121FFF79FFDD4E76D4A6C201E3276
:101560000023F121FFF797FDCCE7694A4FF4A770FC
:1015700030320023F121FFF78EFDC3E710B5FFF7EE
:10158000A4FE4948554941606FF07F410160002346
:1015900060A2F1215420FFF77EFD0023F121BDE878
:1015A00010405DA2A420FFF776BD10B5FFF78DFEB9
:1015B0003D484A4941606FF07F4101600023F121BD
:1015C000BDE8104055A25420FFF765BD10B5FFF7E8
:1015D0007CFE35486FF07F410160404941605048D2
:1015E00040F24314D0F8D01201291BD0002933D186
:1015F00000234CA2F2215320FFF74DFD00234CA203
:10160000F221A320FFF747FD00234CA2F221F32093
:10161000FFF741FD20460023BDE810404AA2F22119
:10162000FFF739BD00234BA2F2215320FFF733FD12
:1016300000234BA2F221A320FFF72DFD00234AA295
:10164000F221F320FFF727FD20460023BDE81040DC
:1016500047A2F221FFF71FBD10BD70B5FFF735FEA1
:1016600011486FF07F4101601C4941602C4840F2F5
:10167000431440F29315D0F8D01201297ED00029EE
:101680007DD1002327A2F2215320FFF704FD002380
:1016900027A2F221A320FFF7FEFC002327A2F221BC
:1016A000F320FFF7F8FC6BE014000010C7EBC8B79D
:1016B000C8CFB1BBB2E2B5E7B3D8D3D0B9FDB3E47C
:1016C000B1A3BBA4B9A6C4DCD4D9BDF8D0D0B4CBE7
:1016D000CFEEB2E2CAD4000068436900380031009E
:1016E0006D736563000000007365630056000000C1
:1016F00041000000730000006D7300006DA6B8008B
:101700006BA6B80053746570730000006D696E00BD
:1017100031B10100487A00004B487A002A310000BC
:101720001C050010C4DAD7E8B2E2CAD400000000F9
:10173000B3CCBFD8B8BAD4D800000000B3CCBFD85F
:10174000B5E7D4B400000000C1D0B1EDB2E2CAD414
:1017500000000000492E5220544553540000000060
:101760004C4F414400000000504F574552000000CC
:101770004341504143495459000000000FE032E01A
:101780000023AFF23C02F2212046FFF784FC2846FA
:10179000BDE870400023FDA2F221FFF77CBC0023CE
:1017A000AFF25002F2215320FFF775FC0023AFF295
:1017B0005002F221A320FFF76EFC0023AFF2580283
:1017C000F221F320FFF767FC0023AFF25C02F22165
:1017D0002046FFF760FC2846BDE870400023EEA2DB
:1017E000F221FFF758BC70BD10B5FFF76EFDEC4855
:1017F0006FF07F410160EB494160EB48D0F8D002C7
:10180000012818D0002834D10023AFF2E802F221D9
:101810005320FFF740FC0023AFF2EC02F221A3209B
:10182000FFF739FC0023AFF2EC02F221BDE81040D3
:10183000F320FFF730BC0023AFF2E802F22153207F
:10184000FFF729FC0023AFF2E802F221A320FFF703
:1018500022FC0023AFF2F002F221F320FFF71BFC81
:101860000023BDE81040D1A2F22140F24310FFF75F
:1018700012BC10BD10B5FFF728FDC9486FF07F41BD
:101880000160C8494160C848D0F8D002012816D08C
:10189000002829D10023C7A2F221A320FFF7FBFBD8
:1018A0000023C6A2F221F320FFF7F5FB0023BDE8D9
:1018B0001040C5A2F2214FF4A670FFF7ECBB002345
:1018C000C3A2F221A320FFF7E6FB0023C2A2F2216C
:1018D000F320FFF7E0FB0023BDE81040C0A2F22197
:1018E00040F24310FFF7D7BB10BD10B5FFF7EDFC7A
:1018F000AB486FF07F410160AA494160AA48D0F827
:10190000D002012816D0002829D10023B6A2F22146
:10191000A320FFF7C0FB0023B5A2F221F320FFF7BD
:10192000BAFB0023BDE81040A7A2F2214FF4A67035
:10193000FFF7B1BB0023B0A2F221A320FFF7ABFB5E
:101940000023A3A2F221F320FFF7A5FB0023BDE8AB
:101950001040A3A2F22140F24310FFF79CBB10BD40
:101960002DE9F84F8046A64F4FF4F079CA234A4636
:101970005C2100200097FFF703F8A8F1050000EBB9
:10198000400101EBC001CA2000EB41056FF07F462A
:101990000022ABB2462110460096FFF724F8282219
:1019A000ABB2462110460096FFF71DF85022ABB2AD
:1019B000462110460096FFF716F801244FF0500A12
:1019C00004EB84000AEB0010ABB2024646210096FD
:1019D000FFF709F8641CE4B2052CF1D30024462576
:1019E00008F102080DE004EB440000EBC40005EB35
:1019F00040010B464A4600200096FEF7F4FF641CA7
:101A0000E4B24445EFD366484760674840F2431468
:101A100040F29315D0F8D01201292ED0002959D1C7
:101A2000002378A249210320FFF735FB002377A28A
:101A300049212B20FFF72FFB002376A249215320B9
:101A4000FFF729FB002375A24921A320FFF723FB01
:101A5000002374A24921F320FFF71DFB002374A289
:101A600049212046FFF717FB01B02846BDE8F04F9B
:101A7000002372A24921FFF70EBB002371A2492166
:101A80000320FFF708FB00236FA249212B20FFF75B
:101A900002FB00236EA249215320FFF7FCFA00232A
:101AA0006DA24921A320FFF7F6FA00236CA2492179
:101AB000F320FFF7F0FA00236BA249212046FFF73D
:101AC000EAFA01B02846BDE8F04F002368A2492198
:101AD000FFF7E1BA4CE42DE9F84F8046484F4FF448
:101AE000F079CA234A465C2100200097FEF748FFA0
:101AF000A8F1050000EB400101EBC001CA2000EB9A
:101B000041056FF07F460022ABB246211046009699
:101B1000FEF769FF2822ABB2462110460096FEF779
:101B200062FF5022ABB2462110460096FEF75BFFE3
:101B300001244FF0500A04EBC40000EB04100AEB40
:101B40008000ABB2024646210096FEF74CFF641CB3
:101B5000E4B2042CEFD30024462508F102080DE07E
:101B600004EB440000EBC40005EB40010B464A4681
:101B700000200096FEF737FF641CE4B24445EFD323
:101B800007484760084840F21B1475E0CFB5CDB355
:101B9000C9E8D6C3000000005359535345542000F0
:101BA00014000010380031001C050010434F4D5048
:101BB00000000000CFC2D2BBB2BD0000B2E2CAD466
:101BC000BDE1B9FB0000000020B7B5BBD8000000A4
:101BD0004E45585400000000524553554C540000E7
:101BE0004241434B00000000C9CFD2BBD2B300003A
:101BF000CFC2D2BBD2B30000505245560000000005
:101C000034346500D0F2BAC500000000CFEEC4BF86
:101C100000000000B2CECAFD31000000B2CECAFD05
:101C200032000000BDD8D6B9B5E7D1B90000000038
:101C3000BDD8D6B9B5E7C1F700000000CAB1BCE411
:101C4000000000004E4F00004D4F444500000000D2
:101C500050415241310000005041524132000000D9
:101C6000434F464656000000434F4646430000009F
:101C700054494D4500000000D0F8D01240F27F15C5
:101C800001292AD0002953D10023AFF2880249212B
:101C90000320FFF700FA0023AFF2900249212B2026
:101CA000FFF7F9F90023F8A249215320FFF7F3F9D0
:101CB0000023F7A24921B720FFF7EDF90023F6A290
:101CC00049212046FFF7E7F901B02846BDE8F04F6B
:101CD0000023F4A24921FFF7DEB90023AFF29C02F2
:101CE00049210320FFF7D7F90023AFF2A4024921CD
:101CF0002B20FFF7D0F90023AFF2AC02492153208B
:101D0000FFF7C9F90023AFF2B0024921B720FFF76E
:101D1000C2F90023E6A249212046FFF7BCF901B031
:101D20002846BDE8F04F0023E3A24921FFF7B3B9ED
:101D3000D0E670B50546FFF7C8FAE149E14CE24A42
:101D40006FF07F43BDB1012D45D00B604C60D2F8E0
:101D5000D002012877D000287DD10023DBA2F22118
:101D60005320FFF798F9BDE870400023F221D9A273
:101D7000A320FFF790B90B604C60D2F8D002012885
:101D800015D000286FD10023D4A2F2215320FFF7F1
:101D900082F90023D4A2F221A320FFF77CF9BDE849
:101DA00070400023F221D3A2FC20FFF774B9002376
:101DB000D2A2F2215320FFF76EF90023D1A2F22123
:101DC000A320FFF768F9BDE870400023F221CFA2FD
:101DD000FC20FFF760B90B604C60D2F8D01240F2E3
:101DE0009314012901D099B124E00023C9A2F22162
:101DF0005320FFF750F90023C9A2F221A320FFF7D7
:101E00004AF90023C9A2F2212046FFF744F911E064
:101E10000023C8A2F2215320FFF73DF90023C8A2F6
:101E2000F221A320FFF737F90023C8A2F2212046B0
:101E3000FFF731F9BDE870400023C6A2F22140F25D
:101E4000BD10FFF728B90023C3A2F2215320FFF7EA
:101E500022F9002300E006E0BDE87040F221C0A2B4
:101E6000A320FFF718B970BD10B5FFF72EFA9448FC
:101E70006FF07F41016093494160934CD4F8D002E8
:101E8000012801D068B118E00023B7A2E72154204F
:101E9000FFF701F90023B6A2FB215420FFF7FBF85E
:101EA0000BE00023B4A2E7215420FFF7F4F800234D
:101EB000B3A2FB215420FFF7EEF8D4F8D0124FF470
:101EC000A2704FF4CA74012910D000291BD100233D
:101ED000AFF2EC22F121FFF7DEF80023AFF2F0229F
:101EE0002046BDE81040F121FFF7D5B80023A6A297
:101EF000F121FFF7D0F820460023BDE81040A4A24E
:101F0000F121FFF7C8B810BD70B50446FFF7DDF941
:101F10006B486C496C4B4FF4A2754FF4CA766FF066
:101F20007F425CB3012C29D002604160D3F8D0021B
:101F300001287CD000287BD1002397A2F1215420D6
:101F4000FFF7A9F8002396A2E721A420FFF7A3F842
:101F5000002395A2FB21A420FFF79DF80023AFF2F8
:101F60007832F1212846FFF796F80023AFF280324D
:101F70003046BDE87040F121FFF78DB80260416046
:101F8000D3F8D00201282FD000287CD1002382A2D0
:101F9000F1215420FFF77FF8002385A2E721A42038
:101FA000FFF779F800237EA2FB21A420FFF773F846
:101FB000002381A2E721F420FFF76DF8002378A227
:101FC000FB21F420FFF767F80023AFF2E432F121A0
:101FD0002846FFF760F80023AFF2EC323046BDE848
:101FE0007040F121FFF757B8002375A2F12154206A
:101FF000FFF751F8002374A2E721A420FFF74BF864
:10200000002373A2FB21A420FFF745F8002372A24E
:10201000E721F420FFF73FF800236DA2FB21F42015
:10202000FFF739F8002358A2F121284601E00AE021
:1020300029E0FFF730F83046BDE87040002354A295
:10204000F121FFF728B800235DA2F1215420FFF70A
:1020500022F800235EA2E721A420FFF71CF800234A
:102060005FA2FB21A420FFF716F8002346A2F1216E
:102070002846FFF710F83046BDE87040002344A220
:10208000F121FFF708B870BDBDE1B9FB31000000D8
:10209000BDE1B9FB32000000BDE1B9FB33202020D7
:1020A00000000000BDE1B9FB34202020000000004A
:1020B00052455331000000005245533200000000E9
:1020C00014000010380031001C0500102020C8A1A9
:1020D000CFFB20002020C8B7C8CF2000B2E2C1BF8C
:1020E000CFD4CABE00000000B5B5BAC5CFD4CABEB1
:1020F00000000000B5B5BCC6CAFD00004D45415307
:10210000534554004E6F2E4449535000434F554E93
:102110005420000046494C4520534554000000001F
:102120005361766544617461000000004D4F524573
:1021300000000000CEC4BCFEB9DCC0ED0000000011
:10214000B1A3B4E6CAFDBEDD00000000B8FCB6E0F5
:1021500000000000322F320043414E43454C200026
:10216000434F4E4649524D00434C4541000000004C
:102170004C49535400000000C7E5B3FD00000000C7
:10218000B1EDB8F1000000004C6173742050000004
:102190004E65787420500000C9BEB3FDD0D0000059
:1021A000D7D4B6AF00000000B8B4D6C60000000017
:1021B000CFDFD0D400000000B6D4CAFD000000007C
:1021C00044656C526F7700004C494E45000000009A
:1021D00041544F55000000004C4F472000000000C4
:1021E000434F50590000000070B50546FFF76DF8E9
:1021F000FE49FF4CFF4A6FF07F43EDB1012D41D006
:102200000B604C60D2F8D00201287DD000287CD130
:102210000023F9A2F2215320FEF73DFF0023F9A28B
:10222000F221A320FEF737FFBDE870400023F22122
:10223000F7A2F320FEF72FBF0B604C60D2F8D0025C
:10224000012811D0002860D10023AFF27012F221D2
:102250005320FEF720FF0023AFF2D062BDE87040AC
:10226000F221A320FEF717BF0023ECA2F221532096
:10227000FEF711FFBDE870400023F221E9A2A32080
:10228000FEF709BF0B604C60D2F8D0124FF4CA744D
:10229000012937D000297FD10023E4A2E72154206F
:1022A000FEF7F9FE0023AFF27012FB215420FEF777
:1022B000F2FE0023DFA2E721A420FEF7ECFE0023BC
:1022C000AFF23472FB21A420FEF7E5FE0023DBA26F
:1022D000F121F420FEF7DFFE0023AFF24C72FB2168
:1022E000F420FEF7D8FE0023AFF2A012E72120462B
:1022F000FEF7D1FE2046BDE870400023D1A2FB21AD
:10230000FEF7C9BE002301E032E045E0CFA2E7219D
:102310005420FEF7C0FE0023CEA2FB215420FEF77E
:10232000BAFE0023CDA2E721A420FEF7B4FE0023CD
:10233000CCA2FB21A420FEF7AEFE0023CBA2F1210C
:10234000F420FEF7A8FE0023C6A2FB21F420FEF72E
:10235000A2FE0023AFF22C22E7212046FEF79BFECF
:102360002046BDE870400023B6A2FB21FEF793BED5
:102370000023C0A2F2215320FEF78DFE0023BFA24E
:10238000F221A320FEF787FEBDE870400023F22172
:10239000BCA2F320FEF77FBE75E694486FF07F4144
:1023A0000160934941609348D0F8D002012808D0D9
:1023B00000280CD10023AFF2DC22F2215320FEF7DB
:1023C0006ABE0023F22195A25320FEF764BE704737
:1023D00070B586486FF07F4101608549416085484E
:1023E0004FF4837440F29315D0F8D01201291BD01A
:1023F000002933D10023A5A2F2215320FEF74BFE82
:10240000002383A2F221A320FEF745FE0023A2A20F
:10241000F2212046FEF73FFE2846BDE8704000232B
:102420009FA2F221FEF737BE0023A0A2F221532083
:10243000FEF731FE0023A0A2F221A320FEF72BFE1F
:102440000023A0A2F2212046FEF725FE2846BDE883
:10245000704000239DA2F221FEF71DBE13E608B5D1
:102460009D48002100901623D2220846FEF788FAE4
:1024700008BD08B599480090CD2340F2DF125C21D9
:102480000020FEF77DFA08BD08B5934800210090B2
:102490001623A0220846FEF773FAFEF716FFBDE8E2
:1024A0000840E6E708B58C48002100901623A022DA
:1024B0000846FEF765FAFEF708FF88480090CD232E
:1024C00040F2DF1246210020FEF75AFA08BD2DE93E
:1024D000F041FFF7D9FF454C6FF07F4525607E48FE
:1024E0006060444ED6F8D002012801D038B10DE02A
:1024F00000237B4A04211846FEF7CDFD06E0784A0A
:102500000023F23A04211846FEF7C5FD25604FF07E
:10251000501060600024734F1A2507F59278032C41
:1025200025D2D6F8D002012801D080B146E004EBD4
:10253000840007EB400204EB440000EBC40005EB11
:10254000400081B200231846FEF7A5FD36E0C4EB3B
:10255000041000EB080204EB440000EBC40005EBA0
:10256000400081B200231846FEF795FD26E0D6F81C
:10257000D002012801D088B120E004EB840007EBF1
:102580004002E01E00EB400101EBC00005EB400003
:1025900081B20023FA20FEF77EFD0FE0C4EB0410A9
:1025A00000EB0802E01E00EB400101EBC00005EB70
:1025B000400081B20023FA20FEF76DFD641C042C5C
:1025C000ADD3BDE8F041FFF701B82DE9F047FFF7C3
:1025D0005BFFDFF818906FF07F44C9F800403E4879
:1025E000C9F80400034ED6F8D0027DE014000010B4
:1025F000380031001C050010B5E7D1B9D0A3D5FDD6
:1026000000000000B5E7C1F7D0A3D5FD0000000031
:10261000B5E7D7E8D0A3D5FD000000004D45414403
:10262000495350005359535345540000CEC4BCFE87
:1026300000000000CFB5CDB300000000B9A4BEDF9C
:102640000000000020322F320000000046494C45B7
:10265000000000004D414E4500000000535953203A
:10266000000000005345542000000000544F4F4C20
:1026700000000000564F4C43616C00004374726CC4
:1026800043616C0043757243616C0000B5E7C8DDBF
:10269000D0A3D5FD00000000CDCBB3F600000000B4
:1026A000C7E5B3FDD0A3D5FD000000004320436F74
:1026B00072726574000000005220436F727265747C
:1026C000000000004578697400000000436C65203C
:1026D000436F727200000000F3520300343465004F
:1026E00077AE0100399F0100012801D038B10DE01B
:1026F0000023FC4A04211846FEF7CDFC06E0F94A07
:102700000023F23A04211846FEF7C5FCC9F8004040
:102710004FF05010C9F804000024F34F1A2507F1B8
:102720003C08032C25D2D6F8D002012801D080B174
:1027300046E004EB840007EB400204EB440000EBAE
:10274000C40005EB400081B200231846FEF7A3FC4D
:1027500036E0C4EB041000EB080204EB440000EB8D
:10276000C40005EB400081B200231846FEF793FC3D
:1027700026E0D6F8D002012801D088B120E004EB91
:10278000840007EB4002E01E00EB400101EBC000BB
:1027900005EB400081B20023FA20FEF77CFC0FE03D
:1027A000C4EB041000EB0802E01E00EB400101EB5B
:1027B000C00005EB400081B20023FA20FEF76BFC5D
:1027C000641C062CADD3C948C9F804000023C8A274
:1027D000BA214FF4DD70FEF75EFCBDE8F047FEF76E
:1027E000F5BE2DE9F041FFF74FFEC24F6FF07F4479
:1027F0003C60C1487860C14ED6F8D002012801D0B3
:1028000040B10EE0B74A0023163204211846FEF705
:1028100042FC06E0B34A0023DC3A04211846FEF7E6
:102820003AFC3C604FF05010786000241A25032CCD
:1028300027D2D6F8D002012801D090B121E0AA49D0
:1028400004EB8400963101EB400204EB440000EB02
:10285000C40005EB400081B200231846FEF71BFCC4
:102860000FE0A149C4EB0410D231421804EB44003C
:1028700000EBC40005EB400081B200231846FEF7D0
:102880000AFC641C032CD2D398487860002398A2D9
:10289000BA214FF4DD70FEF7FEFBBDE8F041FEF714
:1028A00095BE2DE9F041FFF7FDFD924D6FF07F449D
:1028B0002C6091486860914ED6F8D002012801D072
:1028C00040B10EE0874A00232C3204211846FEF75F
:1028D000E2FB06E0834A0023C63A04211846FEF7CD
:1028E000DAFB2C604FF0501068600024844F1A25EA
:1028F000A7F13C08022C24D2D6F8D002012801D03E
:1029000078B144E0C4EB0410C21904EB440000EBBE
:10291000C40005EB400081B200231846FEF7BBFB64
:1029200035E0C4EB041000EB080204EB440000EBBC
:10293000C40005EB400081B200231846FEF7ABFB54
:1029400025E0D6F8D002012801D080B11FE0C4EB09
:102950000410C219A01E00EB400101EBC00005EB02
:10296000400081B20023FA20FEF795FB0FE0C4EB94
:10297000041000EB0802A01E00EB400101EBC000B8
:1029800005EB400081B20023FA20FEF784FB641CB3
:10299000022CAFD3BDE8F041FEF726BF2DE9F84F7A
:1029A000554C00211623A02208460094FDF7E8FFAD
:1029B000DFF840916FF07F4AC9F800A0C9F80440E1
:1029C0004E4ED6F8D002012801D040B10EE0454A63
:1029D0000023423204211846FEF75DFB06E0414A1F
:1029E0000023B03A04211846FEF755FB0024454F5A
:1029F0004FF0501B1A25A7F58778C9F800A0C9F831
:102A000004B0D6F8D002012801D078B11DE0C4EBA3
:102A10000410C21904EB440000EBC40005EB4000B5
:102A200081B200231846FEF736FB0EE0C4EB04101B
:102A300000EB080204EB440000EBC40005EB40008F
:102A400081B200231846FEF726FB641C092CD4D360
:102A50000024D6F8D002012801D088B121E004F189
:102A60000900C0EB0010C21904EB440000EBC400E5
:102A700005EB400081B20023E820FEF70CFB10E0DC
:102A800004F10900C0EB001000EB080204EB440065
:102A900000EBC40005EB400081B20023E820FEF704
:102AA000FAFA641C092CD4D3BDE8F84FFEF7D5BD63
:102AB00008B50E480090BE2340F2DF12A02100208E
:102AC000FDF75EFF08BD08B50B48002100901623F6
:102AD000A0220846FDF754FFFEF7F7FBBDE80840CB
:102AE000E6E700008DAE010099A0010034346500D6
:102AF0006D41480014000010F35203001C05001043
:102B000001A201004BA3010038B50446FC4D4FF073
:102B100050106860FB48012300EB8402C821142098
:102B2000FEF7B9FAF74801235C3000EB8402C821B4
:102B30004FF48C70FEF7AFFAF3486860F3480090EA
:102B4000372328227A215020FEF70BF9F048009015
:102B5000372328227A217820FEF703F9ED480090E8
:102B6000372328227A218C20FEF7FBF838BD2DE987
:102B7000F041FFF7A8FFE24C6FF07F452560E64883
:102B80006060E64ED6F8D002012801D038B10DE0E1
:102B90000023E34A04211846FEF77DFA06E0E04AE6
:102BA0000023F23A04211846FEF775FA25604FF02B
:102BB000501060600024DB4F1A25A7F13008032C69
:102BC00021D2D6F8D002012801D070B13EE004EB4A
:102BD000440000EBC40005EB400081B2002307EB8A
:102BE000C4021846FEF757FA30E004EB440000EB4D
:102BF000C40005EB400081B2002308EBC402184674
:102C0000FEF749FA22E0D6F8D002012801D078B1C7
:102C10001CE0E01E00EB400101EBC00005EB4000B2
:102C200081B207EBC4020023FA20FEF734FA0DE06C
:102C3000E01E00EB400101EBC00005EB400081B25B
:102C400008EBC4020023FA20FEF725FA641C062CC8
:102C5000B5D396F80C03FFF757FFBDE8F04100200D
:102C6000FFF767B838B5A84C40F2DF15A0232A4615
:102C7000562100200094FDF783FEE3232A46C1215C
:102C800000200094FDF77CFE38BD08B5A248002165
:102C900000901623B2220846FDF772FEFEF715FBE0
:102CA000BDE80840DEE70B4611469F4A89B2105C3A
:102CB000183200EB4000024498B20023FEF7EBB953
:102CC0002DE9F05FFFF7E1FF8D4C6FF07F45256048
:102CD00091486060914FD7F8D002012801D040B1EF
:102CE0000EE08F4A0023163204211846FEF7D3F96E
:102CF00006E08B4A0023DC3A04211846FEF7CBF9A4
:102D00007F4805604FF0501545600024874E4FF016
:102D1000BE094FF4B47AA6F115084FF6FF7B012CDB
:102D200007D0022C1AD0D7F8D00201282CD0B8B383
:102D300043E0D7F8D002012801D038B13DE0F21DC0
:102D4000484600231821FEF7A6F936E008F10702ED
:102D5000484600231821FEF79EF92EE0D7F8D0024E
:102D6000012801D040B128E0704A50460E320023BD
:102D70001821FEF790F920E06C4A5046D21F00233C
:102D80001821FEF788F918E0C4EBC400821904EB9F
:102D900084000BEA401000231821FEF77CF90CE0B8
:102DA000FFE7C4EBC40000EB080204EB84000BEA6D
:102DB000401000231821FEF76EF9641C032CAED3DB
:102DC000C8370123D7F84C0200EB400101EBC000EB
:102DD0004C49D431421818213C20FEF75CF939796E
:102DE000002306223868FEF7F9F90123504A18211A
:102DF000FA20FEF750F9B8684B4900EB40001B3948
:102E00004218012318214FF4A070FEF744F9D7F8B7
:102E10004402C83F18224FF4A571FFF744FF002376
:102E200044A22C211846FEF78CF9002342A22C2143
:102E30007820FEF786F9002341A22C21FA20FEF724
:102E400080F9002340A22C2140F29D10FEF779F971
:102E50000624DFF8B4802A4EA4F10800052802D326
:102E6000A01F082802D9C6F8048000E07560A01FE2
:102E7000814600EB800007EBC001D1F8E80078B193
:102E800091F8EC1001230622FEF7A8F9C9EB09100E
:102E90003A3081B20123264A7820FEF752F908E041
:102EA000C9EB09103A3081B2012329A27820FEF73C
:102EB00048F9641C0F2CCFD3C6F80480D7F86402FD
:102EC00060B197F8681201230622FEF787F9012303
:102ED000174AC421FA20FEF734F905E001231CA2A9
:102EE000C421FA20FEF72DF91024A4F112000528C0
:102EF00002D3801C08282FD9C6F804802DE00000DA
:102F00001400001034A701003434650089D2010098
:102F1000CCE40100DFE50100F35203001C050010C2
:102F20008DAE0100C9AB010088B1010094AF010072
:102F30004453001042494E004C4F57205B465D0001
:102F4000484947485B465D00434F554E54000000DA
:102F50002D2D2D2D2D2D00007560A4F11000814622
:102F600000EB800007EBC001D1F8FC0078B191F8CC
:102F7000001101230622FEF731F9C9EB09103A309E
:102F800081B20123FE4AFA20FEF7DBF809E0C9EB23
:102F900009103A3081B20123AFF24C02FA20FEF759
:102FA000D0F8641C192CA0D3C6F80480D7F86402AA
:102FB00070B197F8541201230622D7F85002FEF799
:102FC0000DF90123EE4AC4217820FEF7BAF806E095
:102FD0000123AFF28402C4217820FEF7B2F8012465
:102FE000DFF8A093E01E052802D2C6F8048000E0B6
:102FF0007560601E00EBC00000EB0902C4EB04101A
:103000002B3081B200230820FEF79BF8641C0A2CA9
:10301000E8D3C6F80480DC49D7F80C03002301EBA1
:103020008002C4211846FEF78CF80023D7A2D421D1
:103030001846FEF786F80023D6A2D421F820FEF722
:1030400080F8BDE8F05F0020FEF773BE08B5D348F6
:103050000090A02340F2DF12AF210020FDF790FC8A
:1030600008BD10B5FFF7FBF9FEF72FF9BDE81040DA
:10307000ECE770B5FFF7F5FFC94C6FF07F452560B1
:10308000C84860600023C84A04211846FEF703F8C8
:1030900025604FF050106060C448D0F8D00201287D
:1030A00001D098B124E00023C1A21A211846FDF7EF
:1030B000F2FF0023C0A230212820FDF7ECFF0023FF
:1030C000C0A230218C20FDF7E6FF11E00023BFA253
:1030D0001A211846FDF7DFFF0023BEA23021282069
:1030E000FDF7D9FF0023BEA230218C20FDF7D3FFCE
:1030F0000023BDA23021F020FDF7CDFF0023BCA2AC
:1031000030214FF4AA70FDF7C6FF0023BAA2302188
:103110004FF4DC70FDF7BFFFBDE870400020FEF704
:1031200008BE08B59D4800909A2340F2DF125A214C
:103130000020FDF725FC08BD08B59A480021009045
:103140001623A8220846FDF71BFCFEF7BEF8BDE8D3
:103150000840E6E72DE9F05FFFF7EEFF904D6FF0D6
:103160007F442C608F486860DFF840B2DBF8D00203
:10317000012801D040B10EE08B4A00231632042111
:103180001846FDF788FF06E0874A0023DC3A042151
:103190001846FDF780FF2C604FF050166E6000243B
:1031A000DFF858927D4F4FF01A08A9F1480ADBF872
:1031B000D002012801D078B35DE0032C15D2E01EC7
:1031C000022801D26F6000E06E6004EB840009EB1E
:1031D000400204EB440000EBC40008EB400081B265
:1031E00000231846FDF757FF45E0A01F022801D233
:1031F0006F6000E06E6004EB840009EB4002E01EAB
:1032000000EB400101EBC00008EB400081B200235D
:10321000FA20FDF740FF2EE0FFE7032C15D2E01E59
:10322000022801D26F6000E06E6004EB44000AEBFC
:10323000800204EB440000EBC40008EB400081B2C4
:1032400000231846FDF727FF15E0A01F022801D232
:103250006F6000E06E6004EB44000AEB8002E01E49
:1032600000EB400101EBC00008EB400081B20023FD
:10327000FA20FDF710FF641C062C98D3BDE8F05F20
:103280000020FEF7B1BF2DE9F8430646444C4FF04D
:10329000501767605A4D5B490123286800EBC00056
:1032A00042181A214920FDF7F6FEA968012301EB17
:1032B000410000EBC10034497831421830214920E7
:1032C000FDF7E9FEE968012301EB410000EBC100D5
:1032D0004D49421846214920FDF7DDFEA96B40F219
:1032E000431801EB410000EBC10047490023313195
:1032F00042181A214046FDF7CEFEE96BA5F543754D
:1033000001EB410000EBC1003F490123AE314218FF
:1033100030214046FDF7BFFE3078012804D0002060
:1033200020B1FF20606002E00120F9E7676060687B
:10333000009058234FF4C47244214FF4A170FDF75C
:103340001FFBD5F8E010304D01EB410000EBC10050
:10335000E7354219012346214046FDF79CFEFDF763
:10336000B4FF3078012804D0BDE8F8430020FEF710
:10337000E0BC6FF07F40206024486060002447E09C
:1033800044530010E89E010090A701004155583AAF
:10339000000000004F55543A00000000343465002E
:1033A00014000010F3520300B9AE01001C05001018
:1033B0004D657468203A0000467265715B487A5D1D
:1033C000000000004C65766C5B565D00B7BDCABD61
:1033D000203A0000C6B5C2CA5B487A5D0000000012
:1033E000B5E7C6BD5B565D0043705B465D000000FF
:1033F000445B205D00000000434D500041AC0100E3
:10340000280800105CA60100CBA90100380031009B
:103410009CB104EB440000EBC400421904EB8400AF
:103420006D2101EB001080B20023F121FDF733FE86
:10343000641C022CA3D3BDE8F8832A46682000232D
:10344000F121FDF728FEF3E7F8B50646FF4C4FF0F3
:10345000501060603078012826D0002109B1FF208B
:1034600060606068009028234FF4E672182140F2F3
:10347000A310FDF785FAF648F64D0123D0F89C120B
:1034800001EB410000EBC100421918214FF4D2704A
:10349000FDF701FEFDF719FF3078012806D0BDE8E1
:1034A000F8400020FEF745BC0121D7E76FF07F40D0
:1034B0002060E9486060002494B104EB440000EB14
:1034C000C400421904EB84006D2101EB001080B2AE
:1034D0000023F121FDF7DFFD641C022CECD3F8BDC5
:1034E0002A4668200023F121FDF7D5FDF4E72DE9F8
:1034F000F05F0124DFF86493D44EDFF854834FF477
:10350000AD7B4FF0501A3325E71E042F02D2C6F8C8
:10351000049001E0C6F804A098F8850300EB800051
:1035200004EB4000401E00EB800008EB8001D1F866
:103530003405421C41D091F8381501230522FDF7CE
:103540004DFE05EB04110023C54AF620FDF7F9FDF9
:1035500098F8850300EB800004EB4000401E00EB70
:10356000800008EB800101F58051D1F89C05421CD8
:103570002BD091F8A01501230522FDF72FFE05EBB6
:1035800004110023B64A5846FDF7DBFD98F8850381
:1035900000EB800004EB4000404400F5005090F840
:1035A000FB05FF2819D008B305EB04110023ADA2D9
:1035B0004FF4DF70FDF7C5FD20E005EB041100239B
:1035C000A9A2F620FDF7BDFDC2E705EB041100231B
:1035D000A5A25846FDF7B5FDD8E705EB0411002379
:1035E000A3A24FF4DF70FDF7ACFD07E005EB04117B
:1035F0000023A0A24FF4DF70FDF7A3FD042F02D239
:10360000C6F8049001E0C6F804A098F8850300EB22
:10361000800004EB4000404490F885031E2807D941
:1036200005EB0411002390A22620FDF78AFD0BE094
:1036300000EB400101EBC0008F490023421805EB6D
:1036400004112620FDF77DFD98F8850300EB80002E
:1036500004EB4000404490F85704022807D905EBDA
:103660000411002380A29220FDF76BFD0CE000EB1B
:10367000400101EBC00077490023E739421805EB10
:1036800004119220FDF75DFD98F88503012300EBFE
:10369000800004EB400003220021FDF79FFD05EBB5
:1036A000041100236E4A0820FDF74BFD641CE4B2B0
:1036B0000B2CFFF429AFBDE8F09F2DE9F84F04462D
:1036C000207802280DD002D9A078FEF71DFC2078C2
:1036D000DFF878A14FF0FF094FF05018012803D010
:1036E00004E0FEF7C1FBF2E7A078D8B1CAF8048085
:1036F000DAF8040000902A235E221A213620FDF712
:103700003FF9DFF84CB15D490023DBF8C40200EB60
:10371000C00042181A213620FDF7BDFC207802288F
:1037200003D005E0CAF80490E2E7A07800287DD035
:10373000CAF80480DAF80400009042231E223221E5
:103740000020FDF71DF900234DA232211846FDF798
:10375000A2FC03262078B04202D1A078022866D0CD
:10376000CAF80480DAF804000090B01E432101EB8F
:103770000017332101EB0015BBB2A9B24FF49972C7
:10378000FA20FDF7FDF8E07800EB800006EB400042
:10379000C01E00EB80000BEB8001D1F83405421C09
:1037A00053D091F8381501230522FDF717FDA9B272
:1037B00000232B4AFA20FDF7C4FC2078B04202D146
:1037C000A07803287ED0CAF80480DAF804000090BC
:1037D000BBB2A9B24FF4C1724FF4A570FDF7D0F897
:1037E000E07800EB800006EB4000C01E00EB80009C
:1037F0000BEB800101F58051D1F89C05421C78D07B
:1038000091F8A01501230522FDF7E8FCA9B20023D9
:10381000134A4FF4A570FDF794FC2078B04202D112
:10382000A078042874D0CAF8048001E062E064E063
:10383000DAF804000090BBB2A9B240F2DF124FF4F4
:10384000D270FDF79DF8E0781CE059E014000010FC
:103850001C050010B2AA01003800310034346500A4
:1038600044530010500000002D2D2D2D00000000AD
:103870002D0000004600000008A801005CA6010021
:103880004E6F2E0000EB800006EB4000584400F520
:10389000005090F8F905FF284BD0A9B20023AFF2F1
:1038A0003C024FF4D270FDF74CFC2078B04201D1BD
:1038B000A07870B3CAF80480DAF80400BBB2A9B2E9
:1038C0007E2200E026E000902820FDF759F8E078FD
:1038D00000EB800006EB4000584490F8830330284A
:1038E00033D9A9B20023AFF280022820FDF729FCCA
:1038F00036E012E0CAF804901CE7CAF8049031E7F9
:10390000A9B20023AFF2A002FA20FDF71AFC54E797
:103910000CE017E0CAF8049057E7A9B20023AFF211
:10392000B8024FF4A570FDF70CFC76E7CAF80490D6
:103930007BE7A9B20023AFF2D0024FF4D270FDF7BB
:1039400000FCB2E7CAF80490B6E700EB400101EBD7
:10395000C000FE4900234218A9B22820FDF7F1FB60
:103960002078B04202D1A07801281CD0CAF8048087
:10397000DAF804000090BBB2A9B2C4227E20FCF7A2
:10398000FFFFE07800EB800006EB4000584490F821
:10399000550402280AD9A9B20023AFF234127E20BE
:1039A000FDF7CFFB0DE0CAF80490E1E700EB400122
:1039B00001EBC000E64900234218A9B27E20FDF7C2
:1039C000C0FBCAF80480E078012300EB800006EB1E
:1039D0004000801E03220021FDF700FCA9B2002355
:1039E000DC4A0820FDF7ADFB761CF6B20D2EFFF485
:1039F000B1AEBDE8F88F2DE9F8430446D64F4FF03D
:103A000050157D602078012822D000204FF0FF085B
:103A100008B1C7F80480786800902A2358221A2138
:103A20003020FCF7ADFFCD48C94E012390F8840348
:103A3000FD3600EB800082191A213020FDF72BFBA8
:103A40002078022806D0002030B1C7F8048004E0B6
:103A50000120DBE70120F7E77D60786800904023D4
:103A60001E2230210820FCF78BFF0123AFF2F01259
:103A700030210820FDF70FFBFDF727FC2078B84A1E
:103A800054256FF07F41012806D0022815D06078B8
:103A9000BDE8F843FEF74DB939607A60002404EBC5
:103AA0008400821905EB001080B20023F121FDF79C
:103AB000F2FA641C022CF2D3BDE439607A6000246F
:103AC000A84EC4EBC4008219E01C00EB800005EB9B
:103AD000001080B20023F121FDF7DDFA641C022CF6
:103AE000EFD3A8E42DE9F84304469C489A4F4FF0E1
:103AF0005015D0F8500301280ED17D60994A01235A
:103B0000153A1646D2211E20FDF7C5FA012332468A
:103B1000D2219620FDF7BFFA2078012804D000209A
:103B2000FF2618B17E6002E00120F9E77D60DFF832
:103B30003882002305220321D8F80400FDF74EFB4C
:103B4000786800902C23C02218216720FCF718FF0A
:103B50000023804A1A216820FDF79DFA012383A2E1
:103B60001A21AC20FDF797FA2078022803D0002014
:103B700018B17E6002E00120FAE77D600023052293
:103B80000321D8F81800FDF729FB7868009042233C
:103B9000C0222E216720FCF7F3FE00236D4A30215E
:103BA0006820FDF778FA012370A23021AC20FDF7E0
:103BB00072FA2078032803D0002018B17E6002E05A
:103BC0000120FAE77D60002305220321D8F82C00AC
:103BD000FDF704FB786800905823C0224421672039
:103BE000FCF7CEFE00235B4A46216820FDF753FA1E
:103BF00001235FA24621AC20FDF74DFA207804286E
:103C000003D0002018B17E6002E00120FAE77D6059
:103C1000002303221946D8F84000FDF7DFFA786840
:103C200000902C2340F2C312182140F27110FCF7CF
:103C3000A7FE0023474A1A214FF4B970FDF72BFA6B
:103C400001234CA21A214FF4D670FDF724FA2078F4
:103C5000052803D0002018B17E6002E00120FAE7B9
:103C60007D602078062803D0002018B17E6002E035
:103C70000120FAE77D60FDF728FB2078002803D8B3
:103C8000BDE8F843FDF7A2BC16E72DE9F84F04465E
:103C90003248314F4FF05016D0F8500301280ED162
:103CA0007E60304A0123153A1546D2211E20FDF7C9
:103CB000F2F901232A46D2219620FDF7ECF920786B
:103CC000012806D000204FF0FF0820B1C7F804807B
:103CD00002E00120F7E77E60786800902C23C02284
:103CE00018216720FCF74CFEDFF87C90224D002362
:103CF00099F8C8001A2105EBC0026820FDF7CBF93E
:103D00002078022804D0002020B1C7F8048002E007
:103D10000120F9E77E60002305220321D9F8A400E1
:103D2000FDF75CFA786800904223C0222E216720BC
:103D3000FCF726FE0023074A30216820FDF7ABF987
:103D40000123302109A2AC2018E0000008A80100DE
:103D5000CBA9010044530010140000101C050010F2
:103D600038003100D2AA01005C3C00104100000084
:103D7000560000006D730000899F0100FDF78BF96C
:103D80002078042804D0002020B1C7F8048002E085
:103D90000120F9E77E60002305220321D9F8900075
:103DA000FDF71CFA786840F2C31A40F2711B0090CC
:103DB0002C23524618215846FCF7E2FD0023FE4A08
:103DC0001A214FF4B970FDF766F90123AFF26002D2
:103DD0001A214FF4D670FDF75EF92078052804D03B
:103DE000002020B1C7F8048002E00120F9E77E60DE
:103DF000002305220321D9F8B800FDF7EFF9786810
:103E00000090422352462E215846FCF7B9FD00236C
:103E1000E94A30214FF4B970FDF73DF90123AFF2C3
:103E2000B00230214FF4D670FDF735F9FDF74DFAA9
:103E3000207802281BD2DFE800F00105BDE8F84F2A
:103E4000FDF7C4BB6FF07F403860DC487860002429
:103E5000582604EB840006EB001005EBC40280B288
:103E60000023F121FDF717F9641C022CF1D3C0E502
:103E70002DE9F84F0546DFF848B34FF0050A6A7898
:103E8000DBF85C01CF4CB0FBFAF1491D914202D93D
:103E90001E20A07007E0B0FBFAF10AFB110000EB56
:103EA0008000401DA070A078401F90FBFAF0C0B2C7
:103EB000FDF711FE0027C44EDFF810834FF05F09B5
:103EC00019E0C6F8048068780023401F00EB8000EA
:103ED0003844401C02221946FDF780F907EB4700E1
:103EE00000EBC70009EB400081B20123B24A032076
:103EF000FDF7D1F87F1CA078401F90FBFAF0B84284
:103F0000DFD80524AF4FDFF8C8924237A7F10C087D
:103F10002BE2B4FBFAF0D6F804C037F81000401ECC
:103F200083B2B4FBFAF00AFB1040401C38F81000D2
:103F3000401E82B2B4FBFAF0401E37F81000401C5D
:103F400081B2B4FBFAF00AFB104038F81000CDF84B
:103F500000C0401C80B2FCF713FDB4FBFAF00AFB72
:103F60001040C0B1B4FBFAF00AFB104001284ED05B
:103F7000B4FBFAF00AFB104002287DD0B4FBFAF043
:103F80000AFB1040032878D0B4FBFAF00AFB10407B
:103F9000042873D0E8E19BF8D508012812D1601FEE
:103FA000B0FBFAF16878401F00EB8000084400EB9A
:103FB000800009EB8000D0F88808012824D04FF455
:103FC0007F403060601FB0FBFAF168780023401F2B
:103FD00000EB8000084458447E4990F86E01C0EB25
:103FE000C0004218B4FBFAF0401E37F81000C01CA5
:103FF00081B2B4FBFAF00AFB104038F81000C01C84
:1040000080B2FDF748F8AFE1FF203060DAE79BF8B7
:10401000D508012812D1601FB0FBFAF16878401F63
:1040200000EB8000084400EB800009EB8000D0F832
:104030008808012835D04FF47F403060601FB0FB06
:10404000FAF26978491F01EB81010A445A4492F857
:104050006E21052A28D0B0FBFAF0084400EB80005E
:1040600009EB80000023D0F8D80305220321FDF7D7
:10407000B5F8B4FBFAF002E058E0F7E037E1401E93
:10408000002337F810004C4AC01C81B2B4FBFAF090
:104090000AFB104038F81000C01C80B2FCF7FBFF90
:1040A00062E1FF203060C9E7B0FBFAF20A4402EB9C
:1040B000820209EB8202D2F8D823B2F57A7F13D9B3
:1040C000B4FBFAF0401E002337F8100042A2C01CD7
:1040D00081B2B4FBFAF00AFB104038F81000C01CA3
:1040E00080B2FCF7D8FF3FE1B0FBFAF0084400EBE8
:1040F000800009EB80000023D0F8D80304220121BE
:10410000FDF76CF8B4FBFAF0401E002337F81000FE
:10411000294AC01C81B2B4FBFAF00AFB104038F8FF
:104120001000C01C80B2FCF7B6FF1DE19BF8D5085B
:10413000012812D1601FB0FBFAF16878401F00EB34
:104140008000084400EB800009EB8000D0F888086C
:10415000012845D04FF47F403060601FB0FBFAF279
:104160006978491F01EB81010A445A4492F86E2193
:10417000052A38D0B0FBFAF0084400EB800009EBC8
:1041800080000023D0F8040505220321FDF726F85E
:10419000B4FBFAF0401E002337F81000064AC01C9A
:1041A00081B2B4FBFAF00AFB104038F81000C01CD2
:1041B00080B2FCF770FFD7E04453001038003100A4
:1041C0005C3C00103800001014000010343465000E
:1041D00048450010A79F01002D2D2D2D2D0000001A
:1041E000FF203060B9E7B0FBFAF20A4402EB82022A
:1041F00009EB8202D2F80425B2F57A7F14D9B4FB18
:10420000FAF0401E37F81000C01C81B2B4FBFAF07F
:104210000AFB104038F81000C01C80B20023AFF237
:104220004802FCF738FF9FE0B0FBFAF0084400EBCF
:10423000800009EB80000023D0F80405042201214E
:10424000FCF7CCFFB4FBFAF0401E37F81000C01C9E
:1042500081B2B4FBFAF00AFB104038F81000C01C21
:1042600080B20023FE4AFCF716FF7DE09BF8D508DC
:10427000012812D1601FB0FBFAF16878401F00EBF3
:104280008000084400EB800009EB8000D0F888082B
:10429000012829D04FF47F403060601FB0FBFAF155
:1042A00068780023401F00EB8000084400EB80008A
:1042B00009EB80000422D0F830061946FCF78EFF87
:1042C000B4FBFAF0401E002337F81000E44AC01C8B
:1042D00081B2B4FBFAF00AFB104038F81000C01CA1
:1042E00080B2FCF7D8FE3FE0FF203060D5E79BF8B6
:1042F000D508012812D1601FB0FBFAF16878401F81
:1043000000EB8000084400EB800009EB8000D0F84F
:10431000880801282FD04FF47F403060601FB0FB29
:10432000FAF168780023401F00EB8000084400EB9E
:10433000800009EB80000622D0F85C071946FCF7E4
:104340004DFFB4FBFAF0401E002337F81000C44ABA
:10435000C01C81B2B4FBFAF00AFB104038F8100020
:10436000C01C80B2FCF797FE641CBE488078844273
:10437000FFF4CFAD7BE5FF203060CFE72DE9F84FAC
:1043800005462878012809D00020DFF8DC824FF0AC
:10439000501428B1FF20C8F8040003E00120F4E71E
:1043A000C8F80440DFF8C492002303221946D9F864
:1043B0005C01FCF713FFD8F8040000902C23C922FD
:1043C00018216720FCF7DCFA0023A54A1A2168208F
:1043D000FCF761FE2878022805D0002028B1FF20D4
:1043E000C8F8040003E00120F8E7C8F80440D8F852
:1043F000040000904223C0222E216720FCF7C0FA5F
:1044000099F86C010023C0EBC00199480A183021CB
:104410006820FCF740FED9F85C110520B1FBF0F2F2
:104420006B78521C8F4C9A4202D92320A07008E06E
:10443000B1FBF0F200FB121101EB410100EB410076
:10444000A070A0784FF0060A401F90FBFAF0C0B2AF
:10445000FDF786FA0026DFF81CB25F2719E0C8F8DE
:1044600004B068780023401E00EB80003044401CFC
:1044700002221946FCF7B2FE06EB460000EBC6002E
:1044800007EB400081B20123754A0320FCF703FECD
:10449000761CA078401F90FBFAF0B042DFD8687815
:1044A00004287AD205246F4E4236A6F11A07B2E1EB
:1044B0002878A04201D1012000E0002018B1FF209F
:1044C000C8F8040001E0C8F804B0B4FBFAF00AFB35
:1044D0001040052848D0B4FBFAF0D8F804C036F8EC
:1044E0001000401E83B2B4FBFAF00AFB1040801C9F
:1044F00037F81000401E82B2B4FBFAF0401E36F8C6
:104500001000401C81B2B4FBFAF00AFB1040401CC2
:1045100037F81000CDF800C0401C80B2FCF730FA2C
:10452000B4FBFAF00AFB1040052838D0B4FBFAF0CF
:104530000AFB104090B3B4FBFAF00AFB10400128CC
:104540007ED0B4FBFAF00AFB1040022879D0B4FB0D
:10455000FAF00AFB1040032874D0B4FBFAF00AFB0F
:10456000104004286FD055E1B4FBFAF0401C36F837
:104570001000401E83B2B4FBFAF036F81000401C65
:1045800081B2D8F8040000907888401E82B2388842
:10459000401C80B2FCF7F4F9C2E741E11CE0601F67
:1045A000B0FBFAF168780023401E00EB800008445D
:1045B00048442F4990F86E010E31C0EBC0004218FC
:1045C000B4FBFAF036F81000C01C81B23888C01C69
:1045D00080B2FCF760FD1DE1B4FBFAF168780023BE
:1045E000401E00EB80000844401E00EB800009EBF9
:1045F00080000522D0F884010321FCF7EFFDB4FB15
:10460000FAF0401E002336F81000154AC01C81B293
:104610007888C01C80B2FCF73EFDB4FBFAF16878E4
:10462000401E00EB800008444844114990F86D0199
:104630007031C0EBC0004218B4FBFAF0401E03E03A
:104640001AE056E086E0B6E036F810000023C01C01
:1046500081B278883F3080B2FCF71DFDDAE00000BF
:104660004453001038000010140000105C3C00108F
:10467000999F010034346500B4FBFAF16878002397
:10468000401E00EB80000844401E00EB800009EB58
:1046900080000522D0F8B0020321FCF79FFDB4FB97
:1046A000FAF0401E36F81000C01C81B2B888C01C59
:1046B00080B20023FE4AFCF7EEFCB4FBFAF1687806
:1046C0000023401E00EB800008444844F94990F85C
:1046D0006D01C0EBC0004218B4FBFAF0401E36F882
:1046E0001000C01C81B2B8883F3080B2FCF7D3FC08
:1046F00090E0B4FBFAF168780023401E00EB8000E4
:104700000844401E00EB800009EB80000522D0F831
:10471000DC030321FCF762FDB4FBFAF0401E00232A
:1047200036F81000E24AC01C81B2F888C01C80B282
:10473000FCF7B1FCB4FBFAF0401E36F81000C01CC8
:1047400081B2F8883F3080B20023AFF6DC12FCF76C
:10475000A2FC5FE0B4FBFAF168780023401E00EB96
:1047600080000844401E00EB800009EB8000052219
:10477000D0F808050321FCF731FDB4FBFAF0401E28
:10478000002336F81000CA4AC01C81B23889C01C08
:1047900080B2FCF780FCB4FBFAF0401E36F8100043
:1047A000C01C81B238893F3080B20023AFF644226A
:1047B000FCF771FC2EE0B4FBFAF168780023401E90
:1047C00000EB80000844401E00EB800009EB8000F5
:1047D0000322D0F834061946FCF700FDB4FBFAF0CA
:1047E000401E002336F81000B14AC01C81B27889FF
:1047F000C01C80B2FCF74FFCB4FBFAF0401E002353
:1048000036F81000ACA2C01C81B278893F3080B26B
:10481000FCF741FC641CA94880788442FFF448AE50
:10482000FCF753FD2878A64A58256FF07F414FF4D6
:10483000CA7605282BD220B101281FD002281DD10D
:1048400006E0C8F80010C8F80420FCF7BFFE15E029
:10485000C8F80010C8F804200024964F9A3FC4EB13
:10486000C400C21904EB840005EB001080B20023E1
:10487000F121FCF710FC641C022CF0D301B030468F
:10488000BDE8F04F00238FA2F221FCF704BC401FCB
:1048900090FBFAF30AFB130060B1C8F80010C8F8E7
:1048A000042001B03046BDE8F04F002385A2F2217C
:1048B000FCF7F1BBC8F80010C8F804200024844FAE
:1048C000397811B101290FD01CE07A49C4EBC4003A
:1048D0006239421804EB840005EB001080B200231B
:1048E000F121FCF7D8FB0DE07249C4EBC400463956
:1048F000421804EB840005EB001080B20023F12184
:10490000FCF7C9FB641C042CDAD301B03046BDE8C7
:10491000F04F00236BA2F221FCF7BDBB2DE9F84F4D
:1049200004466C4F6FF07F4AC7F800A0207801283A
:1049300006D00020FF254FF0501618B17D6002E030
:104940000120F7E77E60DFF8908100230522032134
:10495000D8F87407FCF742FC786800902C23D0222A
:1049600018217820FCF70CF80023514A1A217820EE
:10497000FCF791FB0123AFF608421A21BC20FCF79B
:104980008AFB2078022803D0002018B17D6002E065
:104990000120FAE77E60002305220321D8F8600792
:1049A000FCF71CFC786800904223D0222E2178204E
:1049B000FBF7E6FF00233E4A30217820FCF76BFB33
:1049C0000123AFF654423021BC20FCF764FB207871
:1049D000032803D0002018B17D6002E00120FAE72F
:1049E0007E60002305220321D8F8C407FCF7F6FBFC
:1049F000786800905823D02244217820FBF7C0FF2C
:104A000000232B4A46217820FCF745FB0123AFF613
:104A1000A4424621BC20FCF73EFB2078042803D0AA
:104A2000002018B17D6002E00120FAE77E600023DB
:104A300005220321D8F8B007FCF7D0FB7868009076
:104A40006E23D0225A217820FBF79AFF0023184AC0
:104A50005C217820FCF71FFB0123AFF6F0425C21BC
:104A6000BC20FCF718FB2078052803D0002018B1E3
:104A70007D6002E00120FAE77E60002304221946EF
:104A8000D8F81408FCF7AAFB786800908423E02289
:104A900070217820FBF774FF0023054A72217820EB
:104AA000FCF7F9FA002372210C4AAA2018E0000052
:104AB0004453001033A001005300000038000010E0
:104AC00038003100BDF8C8EBB2E2CAD400000000E3
:104AD00025020010140000105C3C0010FC160000C1
:104AE000FCF7D9FA2078062803D0002018B17D60A1
:104AF00002E00120FAE77E60002304221946D8F87C
:104B00000008FCF76BFB786800909A23E02286216E
:104B10007820FBF735FF0023F94A88217820FCF73D
:104B2000BAFA0023F74A8821AA20FCF7B4FA2078C1
:104B3000072803D0002018B17D6002E00120FAE7C9
:104B40007E60002305220321D8F83C08FCF746FBD1
:104B500078680090B023D0229C217820FBF710FFCA
:104B60000023E74A9E217820FCF795FA0123AFF64F
:104B700004629E21BC20FCF78EFA2078082803D01E
:104B8000002018B17D6002E00120FAE77E6000237A
:104B900005220321D8F82808FCF720FB786800904C
:104BA000C623D022B2217820FBF7EAFE0023D44AA4
:104BB000B4217820FCF76FFA0123AFF65062B421DC
:104BC000BC20FCF768FA2078092803D0002018B12F
:104BD0007D6002E00120FAE77E600023042219468E
:104BE000D8F8C408FCF7FAFA78680090DC23D022E1
:104BF000C8217820FBF7C4FE0023C14ACA217820CF
:104C0000FCF749FA0123AFF69462CA21BC20FCF7F5
:104C100042FA20780A2803D0002018B17D6002E013
:104C20000120FAE77E60002305220321D8F89C07C3
:104C3000FCF7D4FA78684FF4E57B4FF4B179009033
:104C40002C235A461A214846FBF79AFE0023AC4A09
:104C50001A214846FCF71FFA0123AFF6EC621A212D
:104C60004FF4D470FCF717FA20780B2803D00020FB
:104C700018B17D6002E00120FAE77E600023052282
:104C80000321D8F88807FCF7A9FA78680090422336
:104C90005A4630214846FBF773FE0023984A3021DC
:104CA0004846FCF7F8F90123AFF63C7230214FF487
:104CB000D470FCF7F0F920780C2803D0002018B14C
:104CC0007D6002E00120FAE77E60002305220321D7
:104CD000D8F8EC07FCF782FA7868009058235A4617
:104CE00046214846FBF74CFE0023854A46214846AC
:104CF000FCF7D1F90123AFF68C7246214FF4D47042
:104D0000FCF7C9F920780D2803D0002018B17D6088
:104D100002E00120FAE77E60002305220321D8F893
:104D2000D807FCF75BFA786800906E235A465C213E
:104D30004846FBF725FE0023714A5C214846FCF7F4
:104D4000AAF90123AFF6DC725C214FF4D470FCF7B2
:104D5000A2F920780E2803D0002018B17D6002E06F
:104D60000120FAE77E60002304220121D8F87408AC
:104D7000FCF734FA7868009084235A46702140F298
:104D80006110FBF7FDFD00235D4A72214846FCF7E8
:104D900082F95C4A0023121D72214FF4CA70FCF79D
:104DA0007AF920780F2803D0002018B17D6002E046
:104DB0000120FAE77E60002304220121D8F8600870
:104DC000FCF70CFA786800909A235A4686214846E8
:104DD000FBF7D6FD00234A4A88214846FCF75BF9D9
:104DE000484A0023121D88214FF4CA70FCF753F97A
:104DF0002078102803D0002018B17D6002E0012047
:104E0000FAE77E60002304220121D8F89C08FCF711
:104E1000E5F978680090B0234FF4E5729C2148468C
:104E2000FBF7AEFD0023364A9E214846FCF733F9D6
:104E3000344A4FF4CA7B0023121D9E215846FCF7CA
:104E40002AF92078112803D0002018B17D6002E0F3
:104E50000120FAE77E60002304220121D8F88808A7
:104E6000FCF7BCF978680090C6234FF4E572B221D4
:104E70004846FBF785FD0023214AB4214846FCF74C
:104E80000AF9204A0023121DB4215846FCF703F901
:104E90002078122803D0002018B17D6002E00120A4
:104EA000FAE77E60002304221946D8F8B008FCF720
:104EB00095F978680090DC234FF4E572C8214846E4
:104EC000FBF75EFD00230E4ACA214846FCF7E3F8D3
:104ED00000230DA2CA215846FCF7DDF8FCF7F5F9CE
:104EE0002078052809D2002807D1C7F800A0074874
:104EF0007860BDE8F84FFCF7B0BBBDE8F88F000064
:104F000044530010FC1600006D730000380031009F
:104F10002DE9F8430446F848F84D4FF05016D0F804
:104F2000500301280DD16E60F54A01231746D221A6
:104F30001E20FCF7B0F801233A46D2219620FCF758
:104F4000AAF82078012804D00020FF2718B16F604C
:104F500002E00120F9E76E60DFF8A8830023052254
:104F60000321D8F85400FCF739F9686800902C2325
:104F7000C02218216720FBF703FD0023E24A1A2113
:104F80006820FCF788F80123E0A21A21AC20FCF786
:104F900082F82078022803D0002018B16F6002E068
:104FA0000120FAE76E60002305220321D8F868008B
:104FB000FCF714F9686800904223C0222E21672074
:104FC000FBF7DEFC0023D04A30216820FCF763F8B1
:104FD0000123CFA23021AC20FCF75DF82078032814
:104FE00003D0002018B16F6002E00120FAE76E6084
:104FF000002305220321D8F87C00FCF7EFF868684D
:1050000000905823C02244216720FBF7B9FC0023FD
:10501000BD4A46216820FCF73EF80123BCA2462188
:10502000AC20FCF738F8FCF750F92078002803D8BA
:10503000BDE8F843FCF7CABABDE8F88310B50446EA
:10504000FCF743F92078002804D16078BDE81040CF
:10505000FDF7CAB810BD0B461146AE4A00EB400042
:10506000024498B289B20123FCF76BB82DE9F84FDE
:105070000446DFF888A24FF05017CAF80470DFF832
:1050800078B24FF4B975DBF8D800002815D00023AA
:10509000A1A23F212846FCF754F800239EA23F21FD
:1050A000C820FCF74EF82078012813D000204FF0DC
:1050B000FF0988B1CAF8049010E03F222946DBF8C6
:1050C0000C03FFF7C8FF3F22C821DBF80C03FFF7F2
:1050D000C2FFE8E70120EAE7CAF80470DAF8040042
:1050E00000902A23992218214520FBF749FCDBF880
:1050F0000C038A4900EBC000421801231821462006
:10510000FBF7C9FF2078022804D0002020B1CAF89C
:10511000049003E00120F9E7CAF804709BF8CC1072
:1051200000230522DBF8C800FCF758F8DAF8040081
:1051300000902A2340F245121821E220FBF720FCC0
:105140000123714A1821E520FBF7A5FFDBF8D00009
:10515000012300EB40016F4833380A18182140F250
:105160002910FBF798FF182240F23311DBF80C03EB
:10517000FDF799FD2078032804D0002020B1CAF85B
:10518000049003E00120F9E7CAF80470DAF804009B
:1051900000902A2340F2DD12182140F28F10FBF715
:1051A000EFFB5F48DBF8D810012300EB81021821E8
:1051B0004FF4C870FBF76FFF2078042804D000205C
:1051C00020B1CAF8049003E00120F9E7CAF804709E
:1051D000DAF8040000903E2399222C214520FBF7A9
:1051E000CFFBDBF8C000464D00EB80004D35421987
:1051F00000232C214620FBF74EFF2078052804D001
:10520000002020B1CAF8049003E00120F9E7CAF8B1
:105210000470DAF8040000903E234FF49C722C21B5
:10522000E420FBF7ADFBDBF8E000012300EB80019D
:1052300033484D300A182C21E520FBF72CFF0625BA
:105240002078A84202D1CAF8049009E0A5F109002B
:10525000042803D23348CAF8040001E0CAF80470F5
:10526000DAF80400A5F10608C8EB0816009006F16C
:105270005C0083B24C36B1B2E6229420FBF780FB8F
:1052800008EB88000BEBC008D8F8E800D8B198F814
:10529000EC1000230522FBF7A1FFB1B201231A4A4B
:1052A000A020FBF74EFFDBF8D80090B9D8F8F0004B
:1052B000012300EB4001174833380A18B1B2D0205F
:1052C000FBF73FFF05E0B1B20123174AA020FBF72F
:1052D00038FF6D1C0F2DB3D310252078A84202D1C2
:1052E000CAF8049024E0A5F1130004281ED20D484A
:1052F000CAF804001CE000001C0500101400001097
:10530000BDAA01005C3C0010445300105600000090
:1053100041000000A0B10100250000005CA60100D2
:10532000E09E010034346500502F0000CAF804707C
:10533000DAF804000090A5F110008046C0EB0016DA
:1053400006F15C0083B24C36B1B24FF4C3724FF435
:105350009A70FBF715FB08EB88000BEBC008D8F838
:10536000FC00E0B198F8001100230522FBF736FF9E
:10537000B1B20023F94A4FF4A570FBF7E2FEDBF867
:10538000D80098B9D8F80401012300EB4001F44893
:105390000A18B1B24FF4BD70FBF7D3FE06E0B1B20C
:1053A0000123F04A4FF4A570FBF7CBFE6D1C192DBD
:1053B00093D320780F285CD0CAF80470DAF8040080
:1053C0000090E323E622D3219420FBF7D9FA9BF83F
:1053D000541200230522DBF85002FBF7FFFE0123E5
:1053E000DE4AD321A020FBF7ACFEDBF85802DC4DEF
:1053F00000EB400042190123D321D020FBF7A1FE8E
:105400002078192838D0CAF80470DAF8040000901F
:10541000E3234FF4C372D3214FF49A70FBF7B0FA31
:105420009BF8681200230522DBF86402FBF7D6FE26
:105430000023CA4AD3214FF4A570FBF782FEDBF8A4
:105440006C02012300EB40004219D3214FF4BD70E0
:10545000FBF777FEFBF739FF2278C34968256D26F5
:105460006FF07F40062A65D2DFE802F00924240E9F
:105470002C48CAF80490A1E7CAF80490C5E7607800
:10548000BDE8F84FFCF7B0BECAF80000CAF8041037
:105490000024B64E722774B104EB840007EB0010B1
:1054A00006EB840280B20023F121FBF7F4FD641CBB
:1054B000022CF0D321E5324628460023F121FBF7E8
:1054C000EAFDF4E7CAF80000CAF804100024A84F67
:1054D0006CB104EB8400C21906EB001080B200230B
:1054E000F121FBF7D8FD641C022CF1D305E53A4607
:1054F00028460023F121FBF7CEFDF4E7CAF80000AF
:10550000CAF8041000249A4F6CB104EB8400C2194D
:1055100006EB001080B20023F121FBF7BCFD641CF8
:10552000022CF1D3E9E43A4628460023F121FBF7A7
:10553000B2FDF4E7CAF80000CAF80410DBF8D01294
:105540004FF4CA74012910D00029B3D1002389A2D5
:10555000F1215D20FBF79FFD01B02046BDE8F04F33
:10556000002386A2F221FBF796BD002386A2F1213B
:105570005D20FBF790FD01B02046BDE8F04F002311
:1055800083A2F221FBF787BD2DE9F84F064630785C
:10559000012807D00020804CFF274FF0501818B189
:1055A000676003E00120F6E7C4F8048060680090BB
:1055B0002C23C02218215820FBF7E2F9774DDFF8A1
:1055C000B091012328681A2100EB800000EB09024A
:1055D0005820FBF760FD3078022803D0002018B176
:1055E000676003E00120FAE7C4F804806068009077
:1055F0004223C0222E215820FBF7C2F968680123FC
:1056000000EB800000EB090230215820FBF743FD3E
:10561000FBF75BFE564F3378A13F534A54256FF09A
:105620007F414FF067084FF06C0B07F1B00AA7F10C
:10563000200907F58D70122B42D2DFE803F0090E26
:105640007AC3D6F9F7F6F5F4F3F2F1F0EFEEEDECFC
:105650007078BDE8F84FFCF7C7BD7078E8B140F24C
:10566000931540F2BD16012832D0216062600023FC
:105670004B4A4FF482715420FBF70DFD0023494A39
:10568000F2212846FBF707FD01B03046BDE8F04F98
:10569000002345A2F221FBF7FEBC216062600024DA
:1056A000424D74B104EB84000BEB001005EBC40217
:1056B00080B20023F121FBF7EEFC641C022CF0D336
:1056C0001BE42A4640460023F121FBF7E4FCF4E703
:1056D000216062600024324F40F25718283F07F1E2
:1056E000180A4FF06209032C1CD004EB840009EB6C
:1056F000001007EBC40280B20023F121FBF7CBFCC2
:10570000641C042CEFD30023264AF2212846FBF721
:10571000C2FC01B03046BDE8F04F002324A2F221C4
:10572000FBF7B9BC524640460023F121FBF7B3FC1E
:10573000E6E72160626000241C4D2035D4B304EB01
:1057400084000BEB001005EBC40280B20023F121B2
:10575000FBF7A1FC641C022CF0D3ABE64453001011
:105760006DB10100502F000038003100E09E0100B3
:105770000AAB0100C7E5B3FDD0D00000C7E5B3FD1B
:10578000B1EDB8F10000000043656C20520000004C
:1057900043656C4C69737400140000101C05001004
:1057A00034A601002C210000332F3300A9AF0100E3
:1057B000322F3300FFE72A4640460023F121FBF752
:1057C0006AFCC7E7216062600024FE4E04EB84009F
:1057D00005EB001006EBC40280B20023F121FBF7B9
:1057E0005AFC641C022CF1D364E621606260002440
:1057F000F54E04EB440000EBC400821904EB840076
:1058000005EB001080B20023F121FBF744FC641C7F
:10581000042CEED34EE6F5E0E2E0CBE0B8E0A5E004
:105820008DE078E065E050E03DE02AE012E0FFE73F
:1058300021606260002404EB840005EB00100AEB99
:10584000C40280B20023F121FBF725FC641C022C6A
:10585000F1D32FE6216062600024DB4E2C3604EB8E
:10586000440000EBC400821904EB840005EB001037
:1058700080B20023F121FBF70EFC641C022CEED356
:1058800018E621606260002404EB840005EB001040
:1058900007EBC40280B20023F121FBF7FCFB641C80
:1058A000022CF1D306E621606260002404EB840040
:1058B00005EB001007EBC40280B20023F121FBF7D7
:1058C000EAFB641C022CF1D3F4E521606260002441
:1058D000BD4E423604EB840005EB001006EBC4021B
:1058E00080B20023F121FBF7D6FB641C032CF1D31B
:1058F000E0E521606260002404EB840005EB001009
:1059000009EBC40280B20023F121FBF7C4FB641C45
:10591000042CF1D3CEE5216062600024AA4E8F3EB4
:1059200004EB840005EB001006EBC40280B20023F8
:10593000F121FBF7B0FB641C032CF1D3BAE5216025
:1059400062600024A04E773E04EB440000EBC400EC
:10595000821904EB840005EB001080B20023F121D2
:10596000FBF799FB641C022CEED3A3E52160626077
:10597000002404EB840005EB001007EBC40280B2A6
:105980000023F121FBF787FB641C022CF1D391E586
:1059900021606260002404EB840005EB00100AEB38
:1059A000C40280B20023F121FBF775FB641C022CBA
:1059B000F1D37FE5216062600024074604EB4400D8
:1059C00000EBC400C21904EB840005EB001080B2A8
:1059D0000023F121FBF75FFB641C022CEED369E589
:1059E00021606260002404EB840005EB001009EBE9
:1059F000C40280B20023F121FBF74DFB641C042C90
:105A0000F1D357E5216062600024074604EB4400AF
:105A100000EBC400C21904EB840005EB001080B257
:105A20000023F121FBF737FB641C042CEED341E586
:105A30002DE9F84F04462078012807D00020634F55
:105A4000FF254FF0501618B17D6002E00120F6E707
:105A50007E60786800902C23C0221A215E20FAF71D
:105A60008FFFDFF86C91DFF86C81D9F8D002012844
:105A700001D090B11BE098F84C08012806D0002313
:105A800055A21C215F20FBF706FB10E0002354A267
:105A90001C215F20FBF7FFFA09E098F84C08012869
:105AA0000CD000234CA21C215F20FBF7F4FA2078D5
:105AB00002280AD0002050B17D6009E0002348A2EE
:105AC0001C215F20FBF7E7FAF1E70120F3E77E6096
:105AD000786800904223C02230215E20FAF750FF00
