:020000040000FA
:1000000090500010E1010000E9010000EB01000048
:10001000ED010000EF010000F10100000000000010
:10002000000000000000000000000000F3010000DC
:10003000F501000000000000F7010000C707000004
:10004000FB010000FD080000390900004B09000019
:100050005D0900002D090100FB010000FB0100000B
:10006000D70B0100FB010000FB010000FB010000B9
:10007000FB010000FB010000FB010000FB01000090
:10008000FB01000079010000FB010000FB01000002
:10009000FB010000FB010000FB010000FB01000070
:1000A0000D250100FB01000005EF0000FB01000031
:1000B000FB010000FB010000FB010000FB01000050
:1000C000FB010000FB010000FB010000FB01000040
:1000D000FB010000FB010000A9050000FB0100007E
:1000E000FB010000DFF80CD013F0C8FB004800470C
:1000F000050600009050001070B505460C46A4F1AE
:1001000020000B4A02EB00111022284600F0ABF849
:1001100070BDA1F1200202EB4202064B03EB82020A
:100120001368036053684360926882607047000000
:10013000749F010064A501000D4843F6103102E0F0
:1001400000220270401C0A1EA1F1010399B2F7D1EE
:1001500008484FF45C5102E0FF220270401C0A1E66
:10016000A1F1010399B2F7D1014B83F80C24704738
:100170001C0500102809001010B5012115480EF0CB
:1001800017FC50B1144913480EF004FB0120134929
:10019000087001210F480EF013FC10BD10B50D487A
:1001A0000EF046F90B480EF05CF9012109480EF0FB
:1001B00061F90122002107480EF068F911200121A0
:1001C00081404209920002F1E022C2F8001100BF12
:1001D00010BD0000004002408C4800102E020010AC
:1001E0000648804706480047FEE7FEE7FEE7FEE7D1
:1001F000FEE7FEE7FEE7FEE7FEE7FEE799F3000015
:10020000E50000002DE9F05F0546002092469B4680
:1002100088460646814640241BE02846414647461C
:10022000224613F046FA53465A46C01A914110D35B
:1002300011461846224613F02DFA2D1A67EB0108D5
:100240004F4622460120002113F024FA17EB000943
:100250004E41201EA4F10104DFDC484631462A4607
:100260004346BDE8F09F10B5431A934209D2831864
:10027000881803E010F8011D03F8011D521EF9D281
:1002800010BD40EA01039B0703D009E008C9121F13
:1002900008C0042AFAD203E011F8013B00F8013B40
:1002A000521EF9D210BDD2B201E000F8012B491E56
:1002B000FBD270470022F6E710B513460A46044603
:1002C0001946FFF7F0FF204610BD421E12F8013F0D
:1002D000002BFBD111F8013B02F8013B002BF9D1B7
:1002E0007047421C10F8011B0029FBD1801A70478F
:1002F00096230022114613F007BA7047FFFFFFFF55
:1003000040F20120974908609749C1F88401954956
:1003100008310860091D0860091D0860091D086092
:10032000091D0860091D0860091D0860091D086095
:10033000091D0860091D0860091D0860091D086085
:10034000091D0860091D0860091D0860091D086075
:10035000091D0860091D0860091D0860091D086065
:10036000091D0860091D0860091D0860091D086055
:10037000091D0860091D0860091D0860091D086045
:10038000091D0860091D0860091D0860091D086035
:10039000091D0860091D0860091D0860091D086025
:1003A000091D0860091D0860091D0860091D086015
:1003B000091D0860091D0860091D0860091D086005
:1003C000091D0860091D0860091D0860091D0860F5
:1003D000091D0860091D0860091D0860091D0860E5
:1003E000091D0860091D08605E49E43108605D4927
:1003F00040390860091D0860091D086059493039F5
:100400000860584920390860564910390860091DAC
:100410000860091D08605449C1F87C0170472DE946
:10042000F04100BF00BF5148006840F400604F49F0
:10043000C439C1F8C40041F61F704D49086001205D
:100440004C49086000208860FFF75AFF4A4800685E
:100450004A49B0FBF1F74548C438D0F8000100B173
:100460007F084FF47A70B0FBF7F404F11300B0FB8F
:10047000F4F0404908630F2048630020886301209E
:10048000C86304F11300B0FBF4F0801C0864012081
:10049000486404F13E00B0FBF4F0886404F13E00CF
:1004A000B0FBF4F0C8640F20086504F13E00B0FB17
:1004B000F4F0486501208865886240F203303049D5
:1004C00008604FF48D402B49C1F800012C49091FE9
:1004D00008606421002000F093F940F28310254960
:1004E0000862C821002000F08BF940F20310214976
:1004F000086202204862002600E0761C802EFCD3B1
:1005000041F68465A5F1100085B22D1105FB07F0B9
:100510004FF47A71B0FBF1F085B216484562832042
:10052000144908621748D0F8008000200862144877
:10053000001F006840F40020C1F8000101210020E4
:1005400000F05EF90121002000F05AF90848006827
:1005500020F01F0848F011000449C439C1F8DC013B
:10056000BDE8F08180C1024000C00240C4C00F401D
:10057000DCC10F4000C009207402001040420F008F
:1005800004C10920004006A010B5002807DACA06F9
:10059000140E944A00F00F031B1FD45403E0CA0644
:1005A000130E914A135410BD10B5012213210020DF
:1005B0000FF018F828B36FF07F4400E0641E002CA1
:1005C000FCD18A48007830B1002088490870122098
:1005D0008749086005E001208449087002208449A9
:1005E00008604FF4002100200FF027F8262000F0CB
:1005F0001F02012191407F4A430942F8231000BFA6
:1006000000BF10BD00200FF092F9074600264FF4FE
:100610007A70B7FBF0F0451EB5F1807F00D311E092
:1006200025F07F40401E4FF0E02148611F214FF030
:10063000FF30FFF7A9FF00204FF0E021886107207D
:10064000086100BF0122D10400200EF0ADFF01219E
:100650002620FFF799FF262000F01F02012191407C
:100660004209920002F1E022C2F8001100BF0EF030
:1006700089FB0EF0FEFA10F0DFF800205B490870ED
:10068000042010F043FA0EF0ABFC10F0BBFDFFF7B6
:1006900085FD0EF00FFA0EF075FB0EF0C0FAFFF7B5
:1006A000BEFE002000F03EFA53494869002100F0E8
:1006B00072FA012000F036FA00200EF03CFB122006
:1006C0004B4908607EE00EF0E3FB0446FF2C01D1AD
:1006D000002600E0761C022E03D14FF0501000F0EF
:1006E0005FFB43480068801E112869D2DFE800F0F4
:1006F000093C354310191C1F20272E4A655F5158AD
:1007000062004FF0501000F04BFB08F07CFF58E007
:100710004FF0501000F044FB0EF09AF90AF08AF8FE
:100720004FE009F004FD4CE009F0C1FE49E048E06B
:100730004FF0501000F034FB0AF082FF41E04FF020
:10074000501000F02DFB0BF05DF83AE04FF0501028
:1007500000F026FB0BF018F933E04FF0501000F0DA
:100760001FFB0AF042FB2CE04FF0501000F018FB8A
:100770000AF00BFD25E04FF0501000F011FB0AF0DD
:100780007AFB1EE04FF0501000F00AFB0CF0A7FFC0
:1007900017E04FF0501000F003FB0BF00BFF10E0E0
:1007A0004FF0501000F0FCFA0BF011FA09E00CF0D9
:1007B000C0F906E00DF0B6FB03E00DF058F800E0DC
:1007C00000BF00BF7FE70D480068401C0B49086070
:1007D00070470A4A116800BF084A1268521A8242DA
:1007E000FAD3704718ED00E000E400E04C0200107E
:1007F0005802001080E100E03000001000000010FE
:10080000F8B902224FF040235A600022DA60BA4A57
:1008100012684FF47A73B2FBF3F2521E4A434FF060
:1008200040239A61FF221A6004225A6101225A6011
:1008300000BF4FF04022526802F00102002AF8D1B6
:100840005BE001281CD10222AC4B5A600022DA6026
:10085000A94A12684FF47A73B2FBF3F2521E4A436C
:10086000A64B9A61FF221A6004225A6101225A6043
:1008700000BFA24A526802F00102002AF9D13CE00E
:1008800002281CD102229E4B5A600022DA609A4A4A
:1008900012684FF47A73B2FBF3F2521E4A43984B3C
:1008A0009A61FF221A6004225A6101225A6000BF35
:1008B000934A526802F00102002AF9D11DE0032890
:1008C0001BD102228F4B5A600022DA608A4A1268DA
:1008D0004FF47A73B2FBF3F2521E4A43894B9A618A
:1008E000FF221A6004225A6101225A6000BF854A21
:1008F000526802F00102002AF9D1704701204FF03E
:100900004021086080480068401C7F4908607F489B
:100910000078012805D17E480068401C7C490860A9
:1009200004E07C480068401C7A4908607A48006806
:10093000401C79490860704701207049086076487A
:100940000068401C74490860704701206C490860C9
:1009500070480068401C6F49086070470120694971
:1009600008606E480068401C6C490860704720B9F8
:1009700001214FF04022516010E0012803D10121F4
:100980005E4A51600AE0022803D101215C4A5160AD
:1009900004E0032802D101215A4A5160704720B96E
:1009A00000214FF04022516010E0012803D10021C6
:1009B000524A51600AE0022803D10021504A516096
:1009C00004E0032802D100214D4A516070470146DE
:1009D00031B94FF04022506840F00200506016E0FC
:1009E000012905D1454A506840F0020050600EE0F0
:1009F000022905D1424A506840F00200506006E0EA
:100A0000032904D13F4A506840F00200506070470B
:100A100070B505460C46F5B900203D4908604048D0
:100A2000006840F002003E49C439C1F8C4004FF0EC
:100A30004020406840F002004FF0402148604EF6F0
:100A40005F20C8600846846103204861012000F0EF
:100A500048F8012070BD012D14D100202E490860F6
:100A60002F48006840F004002D49C439C1F8C40083
:100A700022488461032021494861022000F031F8B6
:100A80000120E7E7022D13D1002022490860244805
:100A9000006840F480002249C439C1F8C4001848F5
:100AA000846103201649486100F01BF80120D1E75A
:100AB000032D14D10020194908601948006840F43A
:100AC00000001749C439C1F8C4000E4884610320EE
:100AD0000C494861042000F004F80120BAE7002026
:100AE000B8E700F01F02012191404209920002F193
:100AF000E022C2F800117047780200100080004028
:100B00000000094000400940F80100102F020010C9
:100B100018000010200000101C000010240000101D
:100B2000C4C00F4008B5B0B1F949896941F001016D
:100B3000F74A916142F21071009108E0F449896925
:100B400041F40061F24A91610099491E00910099B7
:100B50000029F3D115E0EE49896921F40061EC4ADE
:100B6000916142F21071009102E00099491E0091DA
:100B700000990029F9D1E649896921F00101E44A87
:100B8000916108BDE34A002102E008C808C2491C7F
:100B90008029FAD370472DE9704381460D46DFF86E
:100BA000788300BF2720DD4908614861DC4908607F
:100BB000DA49C1F87402DB490860091D0860091DA3
:100BC0000860091D0860D5498861C861D549483960
:100BD0000860091D0860091D0860091D0860091DDD
:100BE0000860091D0860CD4908624862CD49183186
:100BF0000860091D0860CB4930390860091D08608C
:100C0000091D0860091D0860C64910390860C549FA
:100C1000091F0860C3490C390860091D0860BF49F5
:100C2000C1F80001C048006C40F00200BE490864F1
:100C30000846806D40F00A008865BC48D0F8C400C2
:100C400040F00100B949C1F8C400B948006820F07B
:100C50000100B74908600020AD49886108468069F5
:100C600020F00E0088610846806940F00A00886123
:100C70000846806940F0200088610846806920F0BD
:100C8000800088610846806920F480708861084689
:100C9000806920F4007088610846806920F48060D3
:100CA00088610846806920F400608861A148006876
:100CB000A149B0FBF1F09D49C1F8B80194488068A2
:100CC00040F08060924988600846806820F02000EB
:100CD00088600846806840F4006088600846806844
:100CE00040F4805088600846806820F40050886096
:100CF0000846806820F480408860084680688F49F4
:100D0000084083498860084680688D4908438049C7
:100D10008860002008600846006840F01C500860A9
:100D20000846006840F4802008600846006840F4E7
:100D3000807008600846006840F074000860002079
:100D400048600846406840F00060486008464068D7
:100D500040F4002048600846406840F480604860E5
:100D60000846406840F20F11084369494860404610
:100D70000861486115B12846FFF704FF664E00245C
:100D800003E04FF47F0001C6641CB4F5FF3FF8D3C5
:100D900042F2107400E0641E002CFCD1BDE87083A8
:100DA0005D4A002101E001C2491CB1F5FF3FFAD3C1
:100DB00070472DE9F0410C46069FC3F5887CCCEBCB
:100DC0000C1CDFF8548108EBCC1CC2F5F0780CEB5E
:100DD000880100260EE0002501E080C16D1CA2EB19
:100DE000000CAC45F9D8A2EB000CCCF5F07C01EB83
:100DF0008C01761CA3EB040CB445ECD8BDE8F08163
:100E000070B5454BB0F5F07F02DAB1F5887F00DBB5
:100E100070BDC0F5F0756D1EC1F58876761EC6EB07
:100E2000061605EB461403EB84031A6000BFEFE7D8
:100E30002DE9F04F04460D4691469A46DDF824B060
:100E40004C4503DD0FFA89F7A146BCB2554503DDD9
:100E50000FFA8AF7AA46BDB2A9EB04000FFA80F890
:100E6000AAEB050006B2B8F1000F0BD100BF5A463D
:100E700029462046FFF7C4FF681C85B2AA45F6DA6A
:100E8000BDE8F08F56B900BF5A4629462046FFF705
:100E9000B7FF601C84B2A145F6DAF1E7B04521DD69
:100EA000C8EB460007B215E05A4629462046FFF730
:100EB000A7FF601C84B2002F08DD681C85B270009B
:100EC000022101FB1800384407B203E0022000FBB6
:100ED000067007B24C45E7D15A4629462046FFF72F
:100EE0008FFF3AE0C6EB480007B22FE05A4629468A
:100EF0002046FFF785FF681C85B2002F22DD601CAD
:100F000084B27000022101FB1800384407B21DE0D2
:100F10000080082000820820000001A000C00240DC
:100F200070C2024018C102400080092000C00F407A
:100F3000008C0820780200109C997400FFFF00FCD0
:100F40000000DF01022000FB067007B25545CDD13D
:100F50005A4629462046FFF753FF00BF90E72DE988
:100F6000FF5F06460F4690469946DDF838B0414689
:100F70006846FFF7C1F800241DE01DF804A0002515
:100F800016E0C5F107004AFA00F000F0010038B1A0
:100F90003A1991B2721990B24A46FFF731FF06E052
:100FA0003A1991B2721990B25A46FFF729FF6D1C97
:100FB000082DE6D3641C102CDFD3BDE8FF9F2DE97C
:100FC000FE4F06460F4690469946DDF830B0414642
:100FD0006846FFF79EF800241DE01DF804A00025D8
:100FE00016E0C5F107004AFA00F000F0010038B140
:100FF0003A1991B2721990B24A46FFF701FF06E022
:101000003A1991B2721990B25A46FFF7F9FE6D1C67
:10101000082DE6D3641C0C2CDFD3BDE8FE8F2DE930
:10102000F84305460E4614469846DDF8209000BF6A
:1010300014F8017B43463A4631462846CDF80090E5
:10104000FFF78DFFB5F5EC7F03DA05F1080085B2F7
:1010500008E0FF2E04DC002506F1100086B201E056
:101060000025002620780028E2D1BDE8F8832DE98C
:10107000FF4F074688469B463C464546BA4646468D
:101080004FF0000915E0A4F1140188B22946029A34
:10109000FFF7B6FE601C84B2A6F1140081B2504680
:1010A000029AFFF7ADFE701C86B209F101001FFA2B
:1010B00080F9B9F1280FE6DB3C464546BA4646467C
:1010C0004FF000092BE0A5F1140291B2A4F1140233
:1010D00090B25A46FFF794FE05F1140291B2A4F1C2
:1010E000140290B25A46FFF78BFE601C84B2A6F140
:1010F000140291B2AAF1140290B25A46FFF780FE90
:10110000A6F1140291B20AF1140290B25A46FFF706
:1011100077FE701C86B209F101001FFA80F9B9F15F
:101120000A0FD0DB3C464546BA4646464FF000091A
:101130002BE0A5F1140291B204F10A0290B25A46D2
:10114000FFF75EFE05F1140291B204F10A0290B2BB
:101150005A46FFF755FE601C84B206F10A0291B2AE
:10116000AAF1140290B25A46FFF74AFE06F10A02AB
:1011700091B20AF1140290B25A46FFF741FE701C78
:1011800086B209F101001FFA80F9B9F10A0FD0DB2C
:10119000BDE8FF8F10B50246002112E001EB81107F
:1011A000F74B185C1378984209D1507801EB811302
:1011B000F34C23445B78984201D1084610BD481C8B
:1011C00081B27729EAD30020F8E710B50246002162
:1011D00014E001EB0110EB4B13F810001378984268
:1011E0000AD1507801EB0113E64C04EB43035B7822
:1011F000984201D1084610BD481C81B2B629E8D3F7
:101200000020F8E72DE9F04F04460F4615469846B2
:10121000A3464FF0000900262DE0099810F806902B
:101220004FF0000A21E009F0800030B1D64839467D
:1012300002682046FFF7E4FD05E0D34839464268DE
:101240002046FFF7DDFD4FEA49604FEA1069601C58
:1012500084B2A4EB0B00A84203D15C46781C87B291
:1012600006E00AF1010000F0FF0ABAF1080FDADB2C
:1012700000BF701C86B205FB08F0C11700EB51716E
:10128000B6EBE10FC9DBBDE8F08F2DE9F04F054665
:10129000894692469B46A8460026BBF1000F32D1F4
:1012A00000242DE00AEB0A10B64901EB4000801C37
:1012B000065D00271FE006F0800030B1B2484946C5
:1012C00002682846FFF79CFD05E0AF4849464268A2
:1012D0002846FFF795FD7006060E681C85B2A5EB43
:1012E0000800102805D1454609F101001FFA80F9D0
:1012F00003E0781CC7B2082FDDDB00BF601CC4B25E
:10130000202CCFDB31E000242DE00AEB0A109D49B0
:1013100001EB4000801C065D00271FE006F0800006
:1013200030B19948494642682846FFF769FD05E013
:101330009548494602682846FFF762FD7006060E8A
:10134000681C85B2A5EB0800102805D1454609F1B7
:1013500001001FFA80F903E0781CC7B2082FDDDB1B
:1013600000BF601CC4B2202CCFDBBDE8F08F2DE99C
:10137000F04F0546894692469B46A8460026BBF19B
:10138000000F31D100242CE00AEB8A107C4908447C
:10139000801C065D00271FE006F0800030B17A480F
:1013A000494602682846FFF72BFD05E07648494686
:1013B00042682846FFF724FD7006060E681C85B2B9
:1013C000A5EB0800182805D1454609F101001FFAD0
:1013D00080F903E0781CC7B2082FDDDB00BF601C7A
:1013E000C4B23F2CD0DB30E000242CE00AEB8A10A2
:1013F00063490844801C065D00271FE006F080005A
:1014000030B16148494642682846FFF7F9FC05E0DB
:101410005D48494602682846FFF7F2FC7006060E52
:10142000681C85B2A5EB0800182805D1454609F1CE
:1014300001001FFA80F903E0781CC7B2082FDDDB3A
:1014400000BF601CC4B23F2CD0DBBDE8F08FF0B50C
:1014500004460D4616461F463B4622463146284660
:10146000FFF785FF1820F0BDF0B504460D4616467F
:101470001F463B46224631462846FFF706FF12200C
:10148000F0BD2DE9F84306460D4614461F464FF0C1
:101490000008C14652E0207800B950E006EB090090
:1014A00086B2207880281ADD06F11800B0F5F07FAA
:1014B00007DD002605F1160085B2B5F5887F00DD51
:1014C00000252046FFF766FE1FFA80F83B462A46B5
:1014D00031464046FFF7BBFF8146A41C2DE0207833
:1014E0000D280AD105F1160085B2B5F5887F00DD1B
:1014F0000025641C4FF0000920E020780A2804D160
:101500000026641C4FF0000918E006F10C00B0F54D
:10151000F07F07DD002605F10C0085B2B5F5887F68
:1015200000DD0025184840680090174822782946B9
:1015300003683046FFF713FD641C00BFABE700BF34
:10154000BDE8F8832DE9F8470546884614464FF074
:10155000000A002634E0207800B932E020783028F4
:1015600007DB2078392804DC207830381FFA80F92E
:101570000EE020782E2809D14FF00A0908E000007B
:10158000004E0100376C0100280000104FF00B09DD
:101590004FEA4917F81707EB5070C01000EBC00175
:1015A000C1EB80109D490844A919009088B23723E7
:1015B00020224146FFF726FE641C06F1200086B279
:1015C000C9E700BFBDE8F8872DE9F84306460D4698
:1015D00014461F464FF00008C14654E0207800B979
:1015E00052E006EB090086B2207880281ADD06F169
:1015F0001000B0F5F07F07DD002605F1100085B280
:10160000B5F5887F00DD00252046FFF7DEFD1FFAD7
:1016100080F83B462A4631464046FFF725FF814683
:10162000A41C2FE020780D280AD105F1100085B206
:10163000B5F5887F00DD0025641C4FF0000922E02D
:1016400020780A2804D10026641C4FF000091AE013
:1016500006F10800B0F5F07F07DD002605F108006F
:1016600085B2B5F5887F00DD00256D4840680090A3
:101670006B482278294603683046FFF770FC641CEB
:101680004FF00A0900BFA9E700BFBDE8F8832DE9C4
:10169000F84306460D4614461F464FF00008C14663
:1016A00054E0207800B952E006EB090086B22078B9
:1016B00080281ADD06F11000B0F5F07F07DD002666
:1016C00005F1100085B2B5F5887F00DD00252046C4
:1016D000FFF77BFD1FFA80F83B462A46314640461D
:1016E000FFF7C2FE8146A41C2FE020780D280AD106
:1016F00005F1100085B2B5F5887F00DD0025641C7A
:101700004FF0000922E020780A2804D10026641C4A
:101710004FF000091AE006F10800B0F5F07F07DD90
:10172000002605F1080085B2B5F5887F00DD0025AB
:101730003B48406800903A48227829460368304682
:10174000FFF73DFC641C4FF0080900BFA9E700BF8C
:10175000BDE8F883F0B504461D46062A00DD0A22DE
:1017600002B90122052900DD0521914200DD114663
:10177000002004E020262B4F3E54461CF0B20C28DB
:10178000F8D310460FE00A26B4FBF6F706FB17461F
:101790003036471EDFF88CC00CF807600A26B4FB11
:1017A000F6F4461EF0B20028EDDC89B11346084677
:1017B00005E05E1E1B4FBE5DFE545E1EF3B2061EAC
:1017C000A0F10107F8B2F4D12E26164FFE5402E024
:1017D0002026144FBE54A5B900200EE0114E365CF1
:1017E000302E07D10F4F461CBE5D2E2E02D0202674
:1017F0003E5400E004E0461CF0B2561E8642EDDC8A
:1018000000BF561CF2B2104604E00026054F3E54BD
:10181000461CF0B20C28F8D3F0BD000008AC010063
:10182000280000108048001038B5002474E0F74804
:10183000A10004EB440303EB041301EB83010090CC
:1018400088B204EB84014C2303EB01118AB240F20D
:101850000F13E421FFF7ADFAED4804EB84014C23AC
:1018600003EB01118AB204EB84010901491C0090C9
:1018700088B2E3231946FFF7DBFAE54804EB84015D
:101880004C2303EB01118AB204EB840103EB011139
:10189000009088B240F20F13E321FFF7C9FA00204D
:1018A00004EB84014C2303EB0111491C8AB204EBC5
:1018B000840103EB0111491C009088B240F20F1320
:1018C000E321FFF7B5FA002004EB84014C2303EB7E
:1018D0000111891C8AB204EB840103EB0111891CFC
:1018E000009088B240F20F13E321FFF7A1FA002025
:1018F00004EB84014C2303EB0111C91C8AB204EBF5
:10190000840103EB0111C91C009088B240F20F134F
:10191000E321FFF78DFA641C062C88D338BD10B57F
:10192000FFF782FFB948BB4948606FF07F4008600D
:101930000023B9A2F1215420FFF746FE0023B8A2EC
:10194000F121A420FFF740FE10BD10B5FFF76CFF9A
:10195000AE48B04948606FF07F4008600023B1A2F4
:10196000F1215420FFF730FE10BD10B5FFF75CFFEA
:10197000A648A84948606FF07F4008600023AAA2EB
:10198000F1215420FFF720FE10BD10B5FFF74CFFEA
:101990009E48A04948606FF07F4008600023A3A2E2
:1019A000F1215420FFF710FE10BD70B50546FFF77A
:1019B0003BFF9648974948606FF07F4008604DBBF9
:1019C000002424E0042C10D104EB4401984B03EBD9
:1019D000410204EB8401542303EB01110E3188B260
:1019E0000023F121FFF7F0FD0FE004EB4401904BE1
:1019F00003EB410204EB8401542303EB01111D317D
:101A000088B20023F121FFF7DFFD601CC4B2052C72
:101A1000D8DB51E000244DE0042C11D1611D01EB15
:101A20004101834B03EB410204EB8401542303EB9C
:101A300001110E3188B20023F121FFF7C5FD37E017
:101A40008CB9611D01EB4101794B03EB410204EBC1
:101A50008401542303EB0111183188B20023F121D2
:101A6000FFF7B2FD24E0032C11D1611D01EB410110
:101A70006F4B03EB410204EB8401542303EB011190
:101A80000A3188B20023F121FFF79EFD10E0611DAD
:101A900001EB4101664B03EB410204EB840154234B
:101AA00003EB01111D3188B20023F121FFF78CFDFA
:101AB000601CC4B2052CAFDB70BD10B5FFF7B4FEDF
:101AC0005248544948606FF07F400860002359A293
:101AD000F1215420FFF778FD002357A2F121A42023
:101AE000FFF772FD10BD10B5FFF79EFE474849494C
:101AF00048606FF07F400860002350A2F12154201D
:101B0000FFF762FD10BD10B5FFF78EFE6FF07F404E
:101B1000404908603D4848604948D0F84C030128D6
:101B200019D1002347A2F2215320FFF74DFD0023D6
:101B300047A2F221A320FFF747FD002346A2F2218E
:101B4000F320FFF741FD002345A2F22140F24310AC
:101B5000FFF73AFD1CE03A48D0F84C03C0B9002327
:101B600042A2F2215320FFF72FFD002342A2F221CF
:101B7000A320FFF729FD002342A2F221F320FFF763
:101B800023FD002342A2F22140F24310FFF71CFD87
:101B900010BD10B50446FFF747FE002C35D16FF09D
:101BA0007F401C490860194848602548D0F84C031C
:101BB000012812D1002339A2F2215320FFF704FD9E
:101BC000002338A2F221A320FFF7FEFC002337A256
:101BD000F221FC20FFF7F8FCE4E01948D0F84C03B0
:101BE0000028F9D1002333A2F2215320FFF7ECFCA7
:101BF000002333A2F221A320FFF7E6FC002333A247
:101C0000F221FC20FFF7E0FCCCE063E0380031007B
:101C100068436900280000106D73656300000000D0
:101C20007365630056000000410000006D73000002
:101C3000879D0100487A00004B487A002A31000055
:101C40001C050010492E522054455354000000003A
:101C50004C4F414400000000504F574552000000D7
:101C6000434150414349545900000000C4DAD7E8C9
:101C7000B2E2CAD400000000B3CCBFD8B8BAD4D8FE
:101C800000000000B3CCBFD8B5E7D4B4000000001A
:101C9000C8DDC1BFB2E2CAD4000000004D454153C7
:101CA000534554004E6F2E4449535000434F554EF8
:101CB00054200000B2E2C1BFCFD4CABE0000000071
:101CC000B5B5BAC5CFD4CABE00000000B5B5BCC614
:101CD000CAFD0000012C3DD16FF07F40FE49086035
:101CE000FE484860FE48D0F84C03012813D1002379
:101CF000FCA2F2215320FFF767FC0023FCA2F22193
:101D0000A320FFF761FC0023FCA2F22140F2931014
:101D1000FFF75AFC16E0F248D0F84C0390B90023C4
:101D2000F8A2F2215320FFF74FFC0023F8A2F22182
:101D3000A320FFF749FC0023F8A2F22140F2931000
:101D4000FFF742FC0023F7A2F22140F2BD10FFF79B
:101D50003BFC27E06FF07F40DF490860DF484860C8
:101D6000DF48D0F84C0301280CD10023EEA2F22169
:101D70005320FFF729FC0023EDA2F221A320FFF757
:101D800023FC0FE0D648D0F84C0358B90023EAA250
:101D9000F2215320FFF718FC0023E9A2F221A3202F
:101DA000FFF712FC10BD10B5FFF73EFD6FF07F404E
:101DB000C9490860C9484860C948D0F84C0301289F
:101DC0000CD10023E0A2E7215420FFF7FDFB002304
:101DD000DFA2FB215420FFF7F7FB0FE0C048D0F84B
:101DE0004C0358B90023DCA2E7215420FFF7ECFB99
:101DF0000023DBA2FB215420FFF7E6FBB848D0F814
:101E00004C0301280ED10023D7A2F1214FF4A27078
:101E1000FFF7DAFB0023D6A2F1214FF4CA70FFF7D7
:101E2000D3FB11E0AE48D0F84C0368B90023D2A22E
:101E3000F1214FF4A270FFF7C7FB0023D0A2F121DC
:101E40004FF4CA70FFF7C0FB10BD10B50446FFF792
:101E5000EBFC0CB1012C69D16FF07F409E4908600A
:101E60009E4848609E48D0F84C0301282CD100239E
:101E7000C5A2F1215420FFF7A7FB0023C4A2E7214C
:101E8000A420FFF7A1FB0023C3A2FB21A420FFF79E
:101E90009BFB0023C2A2E721F420FFF795FB002360
:101EA000BDA2FB21F420FFF78FFB0023AEA2F1219E
:101EB0004FF4A270FFF788FB0023ADA2F1214FF48D
:101EC000CA70FFF781FB81E08548D0F84C030028F9
:101ED0007CD10023B4A2F1215420FFF775FB00232D
:101EE000B3A2E721A420FFF76FFB0023B2A2FB21DE
:101EF000A420FFF769FB0023B1A2E721F420FFF73C
:101F000063FB0023ACA2FB21F420FFF75DFB002361
:101F100099A2F1214FF4A270FFF756FB002398A27B
:101F2000F1214FF4CA70FFF74FFB4FE06FF07F4095
:101F300069490860694848606948D0F84C0301283D
:101F400020D1002390A2F1215420FFF73DFB002374
:101F500091A2E721A420FFF737FB00239AA2FB21DF
:101F6000A420FFF731FB00237FA2F1214FF4A270E0
:101F7000FFF72AFB00237EA2F1214FF4CA70FFF77E
:101F800023FB23E05648D0F84C03F8B9002386A27F
:101F9000F1215420FFF718FB002387A2E721A4209A
:101FA000FFF712FB00238AA2FB21A420FFF70CFB02
:101FB000002371A2F1214FF4A270FFF705FB00236B
:101FC0006FA2F1214FF4CA70FFF7FEFA10BD10B5F1
:101FD0000446FFF729FC002C2AD16FF07F403E49D0
:101FE00008603E4848603E48D0F84C0301280CD1B8
:101FF000002379A2F2215320FFF7E6FA002378A20A
:10200000F221A320FFF7E0FA6FE13548D0F84C0346
:102010000028F9D10023AFF26432F2215320FFF7F8
:10202000D3FA002370A2F221A320FFF7CDFA5CE1DE
:10203000012C4FD16FF07F40274908602748486046
:102040002748D0F84C03012832D1002369A2E721A8
:102050005420FFF7B9FA002368A2FB215420FFF7B0
:10206000B3FA002367A2E721A420FFF7ADFA00230B
:1020700066A2FB21A420FFF7A7FA002365A2F121A5
:10208000F420FFF7A1FA002360A2FB21F420FFF760
:102090009BFA002319A2E7214FF4CA70FFF794FAC4
:1020A00000235EA2FB214FF4CA70FFF78DFA1CE1FA
:1020B0000B48D0F84C030028A6D1002359A2E721F1
:1020C0005420FFF781FA00230FA2FB215420FFF7D1
:1020D0007BFAABE0D5E000002800001038003100AA
:1020E0001C05001046494C45205345540000000093
:1020F0005361766544617461000000004D4F5245A4
:1021000000000000CEC4BCFEB9DCC0ED0000000041
:10211000B1A3B4E6CAFDBEDD00000000B8FCB6E025
:1021200000000000322F320043414E43454C200056
:10213000434F4E4649524D002020C8A1CFFB2000FE
:102140002020C8B7C8CF2000434C45410000000004
:102150004C49535400000000C7E5B3FD00000000E7
:10216000B1EDB8F1000000004C6173742050000024
:102170004E65787420500000C9CFD2BBD2B30000A6
:10218000CFC2D2BBD2B3000044656C526F7700005F
:102190004C494E450000000041544F5500000000DE
:1021A0004C4F472000000000C9BEB3FDD0D0000056
:1021B000CFDFD0D400000000D7D4B6AF00000000BD
:1021C000B6D4CAFD00000000434F50590000000083
:1021D000B8B4D6C6000000004D45414449535000F4
:1021E0005359535345540000CFB5CDB3C9E8D6C3B6
:1021F0000000000046494C45000000004D414E459E
:1022000000000000535953200000000053455420A3
:1022100000000000544F4F4C0000000020322F32CD
:1022200000000000CEC4BCFE000000000023F7A2A6
:10223000E721A420FFF7C8F90023AFF25002FB21E9
:10224000A420FFF7C1F90023F2A2F121F420FFF747
:10225000BBF90023AFF26C02FB21F420FFF7B4F9C5
:102260000023AFF24812E7214FF4CA70FFF7ACF930
:102270000023AFF25802FB214FF4CA70FFF7A4F914
:1022800033E06FF07F40E5490860E5484860E54885
:10229000D0F84C03012812D10023E3A2F2215320ED
:1022A000FFF792F90023E2A2F221A320FFF78CF9B5
:1022B0000023E1A2F221F320FFF786F915E0D948C7
:1022C000D0F84C0388B90023DDA2F2215320FFF798
:1022D0007BF90023DDA2F221A320FFF775F900238B
:1022E000DDA2F221F320FFF76FF910BD10B56FF0FA
:1022F0007F40CA490860CA484860CA48D0F84C03C1
:1023000001280DD10023AFF23012F2215320FFF744
:102310005BF90023D3A2F221A320FFF755F910E0C7
:10232000C048D0F84C0360B90023AFF27862F221C4
:102330005320FFF749F90023CCA2F221A320FFF795
:1023400043F910BD10B56FF07F40B4490860B44840
:102350004860B448D0F84C0301281AD10023C6A223
:10236000F2215320FFF730F90023C6A2F221A32067
:10237000FFF72AF90023C6A2F2214FF48370FFF77A
:1023800023F90023C4A2F22140F29310FFF71CF9B5
:102390001DE0A448D0F84C03C8B90023C1A2F22123
:1023A0005320FFF711F90023C1A2F221A320FFF768
:1023B0000BF90023C1A2F2214FF48370FFF704F957
:1023C0000023C0A2F22140F29310FFF7FDF810BDE8
:1023D00008B5BF481623D222002100900846FEF718
:1023E000E8FC08BD08B5BB48CD2340F2DF125C21F4
:1023F00000900020FEF7DDFC08BD08B5B4481623A8
:10240000A022002100900846FEF7D3FCFFF70CFA4B
:10241000FFF7E8FF08BD10B5FFF7EFFF6FF07F4053
:102420007E490860AA4848607E48D0F84C030128DD
:1024300006D10023A84A04211846FFF7C5F809E091
:102440007848D0F84C0328B90023A44A0421184640
:10245000FFF7BAF86FF07F40704908604FF05010F6
:10246000486000245BE0032C2BD26E48D0F84C036C
:10247000012811D104EB8400994B03EB400204EBDB
:10248000440000EBC4001A2303EB400081B2002398
:102490001846FFF799F841E06248D0F84C0338BB82
:1024A000C4EB04108F4BC21804EB440000EBC400D3
:1024B0001A2303EB400081B200231846FFF784F88B
:1024C0002CE05848D0F84C03012812D104EB8400CA
:1024D000834B03EB4002E01E00EB400303EBC00024
:1024E0001A2303EB400081B20023FA20FFF76CF8B7
:1024F00014E04C48D0F84C0380B9C4EB0410794B7D
:10250000C218E01E00EB400303EBC0001A2303EBEC
:10251000400081B20023FA20FFF756F8641C062C15
:10252000A1D3FFF7F0FA10BD10B5FFF766FF6FF00B
:102530007F403A490860664848603A48D0F84C0302
:10254000012807D10023644A163204211846FFF7F8
:102550003BF80AE03348D0F84C0330B900235F4A17
:10256000163204211846FFF72FF86FF07F402B49F1
:1025700008604FF0501048600024CFE0032C2BD2AD
:102580002848D0F84C03012811D104EB8400564BA5
:1025900003EB400204EB440000EBC4001A2303EBFE
:1025A000400081B200231846FFF70EF8B5E01D4841
:1025B000D0F84C0338BBC4EB04104C4BC21804EBEE
:1025C000440000EBC4001A2303EB400081B2002357
:1025D0001846FEF7F9FFA0E01248D0F84C03012896
:1025E00012D104EB8400404B03EB4002E01E00EBF1
:1025F000400303EBC0001A2303EB400081B2002329
:10260000FA20FEF7E1FF88E072E00000CFB5CDB31D
:1026100000000000B9A4BEDF000000002800001088
:10262000380031001C050010564F4C43616C00000F
:102630004374726C43616C0043757243616C0000BB
:10264000B5E7D1B9D0A3D5FD00000000BFD8D6C6EC
:10265000D0A3D5FD00000000B5E7C1F7D0A3D5FD9C
:10266000000000004D65617353657400B2E2C1BFA4
:10267000C9E8D6C3000000004320436F727265743E
:10268000000000005220436F727265740000000069
:102690004578697400000000436C6520436F7272D6
:1026A00000000000B5E7C8DDD0A3D5FD00000000A4
:1026B000B5E7D7E8D0A3D5FD00000000CDCBB3F639
:1026C00000000000C7E5B3FDD0A3D5FD0000000069
:1026D000F352030034346500759A010083990100B8
:1026E000558A0100A58A0100FF8A01003B8B010089
:1026F000FE48D0F84C0380B9C4EB0410FC4BC21860
:10270000E01E00EB400303EBC0001A2303EB400084
:1027100081B20023FA20FEF757FF641C062CFFF459
:102720002DAFFFF7F0F910BD10B5FFF766FE6FF0A3
:102730007F40F0490860F0484860EC48D0F84C030E
:10274000012806D10023ED4A04211846FEF73CFF7C
:1027500009E0E648D0F84C0328B90023E84A0421F0
:102760001846FEF731FF6FF07F40E24908604FF0F6
:102770005010486000245BE0032C2BD2DB48D0F8DB
:102780004C03012811D104EB8400DE4B03EB400223
:1027900004EB440000EBC4001A2303EB400081B2B9
:1027A00000231846FEF710FF41E0D048D0F84C0354
:1027B00038BBC4EB0410D44BC21804EB440000EB4C
:1027C000C4001A2303EB400081B200231846FEF731
:1027D000FBFE2CE0C548D0F84C03012812D104EBD5
:1027E0008400C84B03EB4002E01E00EB400303EB08
:1027F000C0001A2303EB400081B20023FA20FEF749
:10280000E3FE14E0B948D0F84C0380B9C4EB0410DF
:10281000BD4BC218E01E00EB400303EBC0001A23BF
:1028200003EB400081B20023FA20FEF7CDFE641CCA
:10283000062CA1D3FFF767F910BD08B5B348BE2336
:1028400040F2DF12A02100900020FEF7B2FA08BD8E
:1028500008B5A9481623A022002100900846FEF7DB
:10286000A8FAFEF7E1FFFFF7E8FF08BD38B5044618
:102870004FF050109F494860A54800EB84020123A7
:10288000C8211420FEF7A0FEA24800EB8402012319
:10289000C8214FF48C70FEF797FE9C48954948601C
:1028A0009D48372328227A2100905020FEF7AAFC69
:1028B0009A48372328227A2100907820FEF7A2FC3C
:1028C0009748372328227A2100908C20FEF79AFC23
:1028D00038BD10B5FFF7BCFF6FF07F408549086039
:1028E000854848608148D0F84C03012806D1002370
:1028F000824A04211846FEF767FE09E07B48D0F8BB
:102900004C0328B900237E4A04211846FEF75CFEDA
:102910006FF07F40774908604FF050104860002406
:1029200055E0032C28D27148D0F84C0301280FD170
:102930007C4800EBC40204EB440000EBC4001A2303
:1029400003EB400081B200231846FEF73DFE3DE058
:102950006648D0F84C0320BB734800EBC40204EB7C
:10296000440000EBC4001A2303EB400081B20023B3
:102970001846FEF729FE29E05C48D0F84C030128F0
:1029800010D1684800EBC402E01E00EB400303EBEB
:10299000C0001A2303EB400081B20023FA20FEF7A7
:1029A00013FE13E05148D0F84C0378B95E4800EBB1
:1029B000C402E01E00EB400303EBC0001A2303EB4C
:1029C000400081B20023FA20FEF7FEFD641C062CB5
:1029D000A7D3464991F88803FFF748FF0020FFF787
:1029E000D8F810BD08B54948A02340F2DF1256219F
:1029F00000900020FEF7DDF94448E32340F2DF12A7
:102A0000C12100900020FEF7D4F908BD08B53A486E
:102A10001623B222002100900846FEF7CAF9FEF7FD
:102A200003FFFFF7DFFF08BD2DE9F04104460D4627
:102A300016463E4B1B5D03EB43033D4FDA19B1B223
:102A4000A8B20023FEF7C0FDBDE8F08110B5FFF786
:102A5000DDFF6FF07F402749086027484860234822
:102A6000D0F84C03012807D10023244A1632042150
:102A70001846FEF7A9FD0AE01C48D0F84C0330B90F
:102A800000231F4A163204211846FEF79DFD6FF001
:102A90007F40184908604FF0501048600024A2E0C1
:102AA000012C50D11148D0F84C0301280ED1C4EBB1
:102AB000C401204BCA1804EB84011E2303EB41110F
:102AC00088B200231821FEF77FFD8BE00748D0F87D
:102AD0004C03002836D1C4EBC401174BCA1804EBD1
:102AE00084011E2303EB411188B227E01C0500106E
:102AF0003B8B010028000010F35203008B9A010069
:102B000099990100958B0100D18B01003434650047
:102B1000C98F0100259001002DBE010070D0010079
:102B200083D10100AB9701007B970100DE9D01007E
:102B3000F69D01007C9B0100679B0100002318218A
:102B4000FEF742FD4EE0022C26D1FD48D0F84C03A2
:102B500001280ED1C4EBC401FA4BCA1804EB84015E
:102B6000282303EB411188B200231821FEF72CFD26
:102B700038E0F348D0F84C0308BBC4EBC401F24B77
:102B8000CA1804EB8401282303EB411188B2002307
:102B90001821FEF719FD25E0E948D0F84C0301287B
:102BA0000ED1C4EBC401E74BCA1804EB84014FF605
:102BB000FF7303EA411000231821FEF705FD11E021
:102BC000DF48D0F84C0368B9C4EBC401DE4BCA1827
:102BD00004EB84014FF6FF7303EA41100023182130
:102BE000FEF7F2FC641C032CFFF45AAFD448D0F873
:102BF000900300EB400101EBC000D44942180123CF
:102C000018213C20FEF7E0FCCD4A92F8EC1000239E
:102C1000D2F8E8000622FEF79DFD0123CC4A1821D8
:102C2000FA20FEF7D1FCC648D0F8F00000EB4000D7
:102C3000C8494218012318214FF4A070FEF7C4FCC4
:102C4000BF491822D1F888034FF4A571FFF7ECFEB5
:102C50000023C1A22C211846FEF719FD0023BFA2B4
:102C60002C217820FEF713FD0023BEA22C21FA2090
:102C7000FEF70DFD0023BDA22C2140F29D10FEF7B2
:102C800006FD06243FE0A01F012801D9072802D332
:102C9000A01F082803D9B748B749486003E04FF0A0
:102CA0005010B5494860A01F00EB4001B34800EB4D
:102CB00001104068E0B1A21F02EB4203AF4A02EBF1
:102CC0000312117AA21F02EB4203AC4A02EB031279
:102CD000012350680622FEF73DFDA01FC0EB001047
:102CE0003A3081B201239A4A7820FEF7D0FC09E0FD
:102CF000A01FC0EB00103A3081B20123A0A27820BF
:102D0000FEF7C5FC641C0F2CBDD39A489A49486055
:102D10008B48D0F8D40278B1894A92F8D8120123AE
:102D2000D2F8D4020622FEF715FD0123884AC421F9
:102D3000FA20FEF7ACFC05E0012391A2C421FA20A1
:102D4000FEF7A5FC102447E0A4F11000012801D9EA
:102D5000072803D3A4F11000082803D98548864921
:102D6000486003E04FF0501083494860A4F1100020
:102D700000EB4001814800EB0110C06900B3A4F1F1
:102D8000100202EB42037D4A02EB031292F820107C
:102D9000A4F1100202EB4203784A02EB0312012372
:102DA000D0690622FEF7D6FCA4F11000C0EB00109B
:102DB0003A3081B20123664AFA20FEF768FC0AE045
:102DC000A4F11000C0EB00103A3081B201236CA2D4
:102DD000FA20FEF75CFC641C192CB5D365486649E3
:102DE00048605748D0F8D40278B1554A92F8C012DA
:102DF0000123D2F8BC020622FEF7ACFC0123544AA0
:102E0000C4217820FEF743FC05E001235CA2C42125
:102E10007820FEF73CFC012419E0022C05D9082C8F
:102E200003D254485449486003E04FF050105249CF
:102E30004860601E00EBC000534BC218C4EB041086
:102E40002B3081B200230820FEF721FC641C0A2CE1
:102E5000E3D34848484948603948D0F888034B498B
:102E600001EB80020023C4211846FEF710FC00236A
:102E700047A2D4211846FEF70AFC002346A2D4211B
:102E8000F820FEF704FC0020FEF783FE10BD08B515
:102E90003848A02340F2DF12AF2100900020FDF758
:102EA00088FF08BD10B5FFF793FAFEF7BDFCFFF7EA
:102EB000EEFF10BD10B5FFF7F5FF6FF07F402E4914
:102EC0000860374848600023364A04211846FEF758
:102ED0007BFB6FF07F40284908604FF0501048603E
:102EE0001748D0F84C03012812D100232EA21A2132
:102EF0001846FEF769FB00232DA230212820FEF79B
:102F000063FB00232DA230218C20FEF75DFB15E032
:102F10000B48D0F84C0388B900232AA21A2118467E
:102F2000FEF752FB002329A230212820FEF74CFB9C
:102F3000002329A230218C20FEF746FB00234FE01E
:102F40001C0500107C9B0100679B0100389101006B
:102F500080480010C39D010042494E004C4F57204D
:102F60005B465D00484947485B465D00434F554E10
:102F700054000000343465002800001024060010BE
:102F80002D2D2D2D2D2D0000048A010025900100EE
:102F90004155583A000000004F55543A00000000D7
:102FA000F3520300B79A01004D657468203A00009F
:102FB000467265715B487A5D000000004C65766C76
:102FC0005B565D00B7BDCABD203A0000C6B5C2CA97
:102FD0005B487A5D00000000B5E7C6BD5B565D004A
:102FE000FEA23021F020FEF7EFFA0023FDA23021EF
:102FF0004FF4AA70FEF7E8FA0023FCA230214FF448
:10300000DC70FEF7E1FA0020FEF7C3FD10BD08B545
:10301000F7489A2340F2DF125A2100900020FDF772
:10302000C8FE08BD08B5F3481623A8220021009069
:103030000846FDF7BEFEFEF7F7FBFFF7E8FF08BD09
:1030400010B5002439E0052C19DA032C01D0042C2A
:1030500003D1E748E849486003E04FF05010E649E3
:10306000486004EB440000EBC4001A2202EB40006D
:10307000411C0023E1A24820FEF7A6FA1BE0082C21
:1030800001D0092C03D1DA48DB49486003E04FF056
:103090005010D9494860601F00EB400202EBC000AD
:1030A0001A2202EB4000401C81B20023D3A24FF44D
:1030B000A170FEF789FA601CC4B20A2CC3DB10BDF4
:1030C00010B5FFF7AFFF6FF07F40CB490860C948EC
:1030D0004860CB48D0F84C03012806D10023C94AE8
:1030E00004211846FEF770FA09E0C548D0F84C03F1
:1030F00028B90023C44A04211846FEF765FA6FF088
:103100007F40BD4908604FF05010486000247AE0CD
:10311000BB48D0F84C03012838D1032C1AD2022C1A
:1031200005D9052C03D2B248B349486003E04FF0FB
:103130005010B149486004EB8400B44B03EB4002EB
:10314000162304FB03F01A3081B200231846FEF761
:103150003BFA57E0E01E022805D9052803D2A4480F
:10316000A549486003E04FF05010A349486004EBC4
:103170008400A64B03EB4002E01E162358431A308E
:1031800081B20023FA20FEF71FFA3BE09C48D0F8FA
:103190004C03B8BB032C1AD2022C05D9052C03D240
:1031A00093489549486003E04FF0501092494860B9
:1031B00004EB4400964B03EB8002162304FB03F060
:1031C0001A3081B200231846FEF7FEF91AE0E01E1D
:1031D000022805D9052803D285488749486003E0BD
:1031E0004FF050108449486004EB4400884B03EBD7
:1031F0008002E01E162358431A3081B20023FA20C1
:10320000FEF7E2F9641C062C82D30020FEF7DFFEF5
:1032100010BDF8B505464FF0501077494860784822
:10322000D0F8880300EBC0007A49421801231A2124
:103230004920FEF7C9F97248D0F8900300EB40012D
:1032400001EBC00074494218012330214920FEF7E8
:10325000BBF96B48D0F8940300EB400101EBC000D0
:103260006E494218012346214920FEF7ADF9644812
:10327000D0F8C40300EB400101EBC00068494218DC
:1032800000231A2140F24310FEF79EF95C48D0F863
:10329000C80300EB400101EBC00062494218012362
:1032A000302140F24310FEF78FF92878012800D131
:1032B00000E0002006461EB1FF204F49486003E0B1
:1032C0004FF050104C4948604B48406858234FF429
:1032D000C472442100904FF4A170FDF76AFD484884
:1032E000D0F8040100EB400101EBC0004E49421848
:1032F0000123462140F24310FEF766F9FEF794FAE7
:10330000287801282FD16FF07F403B49086047485B
:103310004860002424E08CB904EB440101EBC401B3
:10332000414BCA1804EB8401542303EB01111431FF
:1033300088B20023F121FEF747F910E004EB4401C5
:1033400001EBC401384BCA1804EB8401542303EB8E
:103350000111193188B20023F121FEF735F9641CFF
:10336000022CD8D302E00020FEF713FCF8BDF8B51C
:1033700005464FF05010204948602878012800D1B8
:1033800000E0002006461EB1FF201B49486003E014
:103390004FF05010184948601748406828234FF4F0
:1033A000E6721821009040F2A310FDF702FD1448C8
:1033B000D0F8180300EB400101EBC0001A49421895
:1033C000012318214FF4D270FEF7FEF8FEF72CFA15
:1033D000287801285AD16FF07F4029E043705B467E
:1033E0005D000000445B205D00000000434D500084
:1033F00034346500F3520300280000103A00000046
:103400001C050010CD9A0100DB99010023980100F2
:10341000DB970100F18E0100389101004D9301000E
:103420007E930100069401003F94010038003100B2
:10343000FE490860FE484860002424E08CB904EB93
:10344000440101EBC401FB4BCA1804EB8401542373
:1034500003EB0111143188B20023F121FEF7B4F817
:1034600010E004EB440101EBC401F24BCA1804EB79
:103470008401542303EB0111193188B20023F12197
:10348000FEF7A2F8641C022CD8D302E00020FEF75D
:1034900080FBF8BD70B5054601243FE1022C05DD37
:1034A000072C03DAE448E149486003E04FF050108C
:1034B000DE494860601EE14991F80D1401EB81017D
:1034C00000EB410000EB8001DD4800EB81008068EB
:1034D000401C40B9332000EB04110023D9A2F62090
:1034E000FEF7D5F827E0621ED44B93F80D3403EBBA
:1034F000830302EB430202EB8203D14A02EB830215
:10350000117B621ECD4B93F80D3403EB830302EB6A
:10351000430202EB8203CA4A02EB83020123906852
:103520000522FEF717F9332000EB04110023C74AE8
:10353000F620FEF7ACF8601EC04991F80D1401EBBF
:10354000810100EB410000EB8001C14800EB8100EC
:103550008068401C48B9332000EB04110023B9A255
:103560004FF4AD70FEF793F828E0621EB34B93F86A
:103570000D3403EB830302EB430202EB8203B44AF4
:1035800002EB8302117B621EAC4B93F80D3403EB0C
:10359000830302EB430202EB8203AD4A02EB830298
:1035A000012390680522FEF7D5F8332000EB0411C3
:1035B0000023A64A4FF4AD70FEF769F8601E9F49DC
:1035C00091F80D1401EB810100EB4101A148405C31
:1035D000FF2809D1332000EB041100239EA24FF4F1
:1035E000DF70FEF754F81DE0601E944991F80D1449
:1035F00001EB810100EB41019648405C48B133206A
:1036000000EB0411002395A24FF4DF70FEF73FF8A2
:1036100008E0332000EB0411002391A24FF4DF7087
:10362000FEF735F8022C05DD072C03DA82487F49C6
:10363000486003E04FF050107C494860601E7F49AD
:1036400091F80D1401EB810100EB41018548405CCC
:103650001E2808DD332000EB0411002379A2262068
:10366000FEF715F816E0601E744B93F80D3403EB6B
:10367000830300EB43037B48C05C00EB400303EB98
:10368000C000794BC218332000EB04110023262020
:10369000FDF7FDFF601E694991F80D1401EB8101F2
:1036A00000EB41016F48D230405C022808DD332036
:1036B00000EB0411002363A29220FDF7E8FF17E05E
:1036C000601E5E4B93F80D3403EB830300EB430362
:1036D0006448D230C05C00EB400303EBC000634B96
:1036E000C218332000EB041100239220FDF7CFFF16
:1036F000524991F80D1401EB810104EB41000123C3
:1037000003220021FEF726F8332000EB04110023EA
:103710004E4A0820FDF7BBFF601CC4B20B2CFFF61D
:10372000BDAE70BDF8B505462878022802D1FEF777
:103730003AFB05E02878022802DDA878FEF785FB31
:103740002878012805D1A87818B9FF2037494860A2
:1037500003E04FF0501035494860344840682A2350
:103760005E221A2100903620FDF723FB3348D0F863
:10377000400300EBC0003E49421800231A213620C6
:10378000FDF722FF2878022805D1A87818B9FF2074
:103790002649486003E04FF0501024494860234810
:1037A000406842231E22322100900020FDF701FBD9
:1037B000002330A232211846FDF706FF0324E2E180
:1037C0002878A04206D1A878022803D1FF20174903
:1037D000486003E04FF050101449486013484068B7
:1037E0000090A01E332202EB0010103083B2A01E06
:1037F00002EB001081B24FF49972FA20FDF7D9FA6A
:10380000E01EE97801EB810100EB410000EB800153
:103810000B4800EB81008068401C68BBA01E33226F
:1038200002EB001081B2002306A226E0280000105F
:10383000380031003F940100343465001C0500104D
:10384000D00A00102D2D2D2D000000008048001002
:10385000381B0010A02B00102D00000050000000AD
:10386000460000002A090010389101004D93010024
:10387000F18E01004E6F2E0003E0FA20FDF707FFE6
:1038800025E0E21EEB7803EB830302EB430202EB3D
:103890008203F94A02EB8302117BE21EEB7803EB11
:1038A000830302EB430202EB8203F34A02EB83023F
:1038B000012390680522FDF74DFFA01E332202EB85
:1038C000001081B20023ED4AFA20FDF7E0FE2878CF
:1038D000A04206D1A878032803D1FF20E849486018
:1038E00003E04FF05010E6494860E548406800901A
:1038F000A01E332202EB0010103083B2A01E02EB98
:10390000001081B24FF4C1724FF4A570FDF751FA67
:10391000E01EE97801EB810100EB410000EB800142
:10392000D84800EB81008068401C60B9A01E33229B
:1039300002EB001081B20023AFF2F8024FF4A57041
:10394000FDF7A5FE26E0E21EEB7803EB830302EB16
:10395000430202EB8203CB4A02EB8302117BE21E9D
:10396000EB7803EB830302EB430202EB8203C54ACD
:1039700002EB8302012390680522FDF7EBFEA01EF7
:10398000332202EB001081B20023BC4A4FF4A57031
:10399000FDF77DFE2878A04206D1A878042803D13F
:1039A000FF20B749486003E04FF05010B449486029
:1039B000B34840680090A01E332202EB0010103084
:1039C00083B2A01E02EB001081B240F2DF124FF46E
:1039D000D270FDF7EEF9E01EE97801EB810100EB12
:1039E0004101A948405CFF280CD1A01E332202EB04
:1039F000001081B20023AFF2B4124FF4D270FDF781
:103A000046FE0BE0A01E332202EB001081B2002321
:103A1000AFF2B8124FF4D270FDF739FE2878A04209
:103A200005D1A87818B9FF209549486003E04FF008
:103A3000501093494860924840680090A01E33227D
:103A400002EB0010103083B2A01E02EB001081B216
:103A50007E222820FDF7ADF9E01EE97801EB810117
:103A600000EB41018948405C30280BDDA01E332269
:103A700002EB001081B20023AFF238222820FDF7BC
:103A800006FE16E0E01EEB7803EB830300EB430336
:103A90007E48C05C00EB400303EBC0007C4BC218C7
:103AA000A01E332303EB001081B200232820FDF772
:103AB000EEFD2878A04206D1A878012803D1FF2086
:103AC0006F49486003E04FF050106D4948606C4802
:103AD00040680090A01E332202EB0010103083B229
:103AE000A01E02EB001081B2C4227E20FDF761F916
:103AF000E01EE97801EB810100EB41016348D2301F
:103B0000405C02280BDDA01E332202EB001081B2C4
:103B10000023AFF2D0227E20FDF7B9FD17E0E01EB2
:103B2000EB7803EB830300EB43035848D230C05CCF
:103B300000EB400303EBC000564BC218A01E33231A
:103B400003EB001081B200237E20FDF7A0FD4FF0B3
:103B500050104B4948604860E97801EB810104EB63
:103B60004101881E012303220021FDF7F3FDA01E61
:103B7000332202EB001081B20023404A0820FDF7F7
:103B800086FD601CC4B20D2CFFF61AAEF8BDF8B568
:103B900005464FF050103A4948602878012800D176
:103BA00000E0002006461EB1FF203549486003E0D2
:103BB0004FF0501032494860314840682A2358225B
:103BC0001A2100903020FDF7F4F8334890F80C04E7
:103BD00000EB80003149421801231A213020FDF703
:103BE000F3FC2878022801D1012000E000200646DD
:103BF0001EB1FF202249486003E04FF050102049D9
:103C000048601F48406840231E2230210090082051
:103C1000FDF7CFF80123AFF2A43230210820FDF7E1
:103C2000D3FCFDF701FE2878012819D16FF07F4001
:103C3000134908601A48486000240EE004EB840130
:103C4000164BCA1804EB8401542303EB011188B20C
:103C50000023F121FDF7B8FC641C022CEED337E001
:103C60002878022831D16FF07F40054908600C4860
:103C70004860002426E00000D00A001080480010B0
:103C800028000010381B0010A02B00102A0900107B
:103C9000389101004D9301001C050010559401005E
:103CA00038003100C4EBC401FE4BCA18E11C01EB23
:103CB0008101542303EB011188B20023F121FDF7A8
:103CC00083FC641C022CEDD302E06878FDF761FFF1
:103CD000F8BDF8B50546F448D0F8D00301280FD157
:103CE0004FF05010F14948600123F14AD2211E20C3
:103CF000FDF76AFC0123EE4AD2219620FDF764FC11
:103D00002878012800D100E0002006461EB1FF20DF
:103D1000E649486003E04FF05010E4494860E54947
:103D20000023052248680321FDF714FDDF484068A1
:103D30002C23C022182100906720FDF73AF80023B9
:103D4000DD4A1A216820FDF73FFC0123DBA21A217E
:103D5000AE20FDF739FC2878022801D1012000E0CF
:103D6000002006461EB1FF20D049486003E04FF016
:103D70005010CE494860CF4900230522C86903216D
:103D8000FDF7E8FCC94840684223C0222E2100907C
:103D90006720FDF70EF80023C74A30216820FDF7A1
:103DA00013FC0123C5A23021AE20FDF70DFC2878BD
:103DB000032801D1012000E0002006461EB1FF20AB
:103DC000BA49486003E04FF05010B8494860B9491B
:103DD00000230522486B0321FDF7BCFCB348406873
:103DE0005823C022442100906720FCF7E2FF002303
:103DF000B14A46216820FDF7E7FB0123B0A2462126
:103E0000AE20FDF7E1FB2878042801D1012000E075
:103E1000002006461EB1FF20A449486003E04FF091
:103E20005010A2494860A34900230322C86C1946D8
:103E3000FDF790FC9D4840682C2340F2C3121821E6
:103E4000009040F27110FCF7B4FF00239A4A1A2147
:103E50004FF4B970FDF7B8FB01239AA21A214FF471
:103E6000D770FDF7B1FB2878052801D1012000E0CB
:103E7000002006461EB1FF208C49486003E04FF049
:103E800050108A4948608B4991F8401201EB410279
:103E90008D4901EBC2010023052248680321FDF78B
:103EA00059FC8248406842234FF4E1722E21009071
:103EB00040F27110FCF77DFF00237F4A30214FF460
:103EC000B970FDF781FB01237DA230214FF4DC7036
:103ED000FDF77AFB2878062801D1012000E00020B8
:103EE00006461EB1FF207149486003E04FF05010B4
:103EF0006E4948606F4900230322D1F82C0219460D
:103F0000FDF728FC69484068582340F2C312442159
:103F1000009040F27110FCF74CFF0023664A4621E6
:103F20004FF4B970FDF750FB012366A246214FF410
:103F3000D770FDF749FBFDF777FC287806287DD27E
:103F4000DFE800F003062E2F308DFDF7DCFD88E062
:103F50006FF07F40554908605C484860554890F8CC
:103F6000940300EB40005A4901EB40020023F12189
:103F70005820FDF729FB01240FE0611E554B03EB90
:103F8000410204EB8401542303EB0111091D88B2A3
:103F90000023F121FDF718FB641C032CEDD360E036
:103FA0005FE05EE06FF07F4040490860474848604E
:103FB000687838BB00241BE0697801EB410121449B
:103FC00001EB4102404901EBC20100230522486890
:103FD0000321FDF7BFFB04EB8401542202EB011126
:103FE000091D88B20023344AF121FDF7EDFA641C63
:103FF000032CE1D3002338A2F1214FF4A470FDF784
:10400000E3FA2BE06878012828D100241DE06978C4
:1040100001EB4101214401EB41022B4901EBC201BB
:104020000023052248680321FDF794FB04EB84017B
:10403000542202EB0111091D88B200E010E00023B8
:104040001D4AF121FDF7C0FA641C032CDFD30023C5
:1040500023A2F1214FF4A470FDF7B6FA01E000E0CD
:1040600000BF00BFF8BD38B504462078012800D154
:1040700000E0002005461DB1FF200C49486003E028
:104080004FF05010094948600A4900230522D1F831
:104090009C010321FDF75EFB044840682C23C022ED
:1040A000182121E05F9401001C0500102800001079
:1040B0004A9401002C40001080480010410000008C
:1040C000560000006D730000C4410010380031003C
:1040D0005F980100779801004E4558540000000099
:1040E000505245560000000000906720FCF761FE2A
:1040F0000023F94A1A216820FDF766FA0123AFF27E
:1041000040021A21AE20FDF75FFA2078022801D183
:10411000012000E0002005461DB1FF20EF49486066
:1041200003E04FF05010ED494860ED4900230522AF
:10413000D1F8B4010321FDF70DFBE84840684223A4
:10414000C0222E2100906720FCF733FE0023E24AB4
:1041500030216820FDF738FA0123AFF29C023021AC
:10416000AE20FDF731FA2078032801D1012000E0CC
:10417000002005461DB1FF20D849486003E04FF0FC
:104180005010D6494860D64900230522D1F8CC0109
:104190000321FDF7DFFAD14840685823C0224421AB
:1041A00000906720FCF705FE0023CB4A46216820DB
:1041B000FDF70AFA0123AFF2F8024621AE20FDF71F
:1041C00003FA2078042801D1012000E000200546F0
:1041D0001DB1FF20C149486003E04FF05010BF49B6
:1041E0004860BF4900230522D1F8E4010321FDF70F
:1041F000B1FABA4840682C234FF4E17218210090BC
:1042000040F26110FCF7D5FD0023B34A1A214FF4A8
:10421000B170FDF7D9F90123AFF25C121A214FF406
:10422000D470FDF7D1F92078052801D1012000E0F4
:10423000002005461DB1FF20A849486003E04FF06B
:104240005010A6494860A64900230522D1F8FC0178
:104250000321FDF77FFAA148406842234FF4E17241
:104260002E21009040F26110FCF7A3FD00239A4A32
:1042700030214FF4B170FDF7A7F90123AFF2C0125E
:1042800030214FF4D470FDF79FF92078062801D132
:10429000012000E0002005461DB1FF208F49486045
:1042A00003E04FF050108D4948608D4900230522EE
:1042B000D1F814020321FDF74DFA884840685823CD
:1042C0004FF4E1724421009040F26110FCF771FD5F
:1042D0000023814A46214FF4B170FDF775F901239F
:1042E000AFF2242246214FF4D470FDF76DF9FDF7AB
:1042F0009BFA207818B96078FDF769FE00BF00BF0F
:1043000038BD2DE9F04104460D46164604EB440342
:10431000744FDA19B1B2A8B20123FDF7B8F9BDE8BC
:10432000F081F8B505464FF050106C4948606E4872
:10433000D0F8FC0078B96C493F22D1F888034FF4DB
:10434000B971FFF7DEFF68493F22D1F88803C82121
:10435000FFF7D7FF0CE0002364A23F214FF4B970B0
:10436000FDF795F9002361A23F21C820FDF78FF9E1
:104370002878012800D100E0002006461EB1FF2069
:104380005649486003E04FF0501054494860534884
:1043900040682A239922182100904520FCF709FD46
:1043A0005148D0F8880300EBC0005149421801235E
:1043B00018214620FDF708F92878022801D10120AC
:1043C00000E0002006461EB1FF204449486003E09B
:1043D0004FF0501041494860434A92F8EC100023D6
:1043E000D2F8E8000522FDF7B5F93C4840682A23D9
:1043F00040F2451218210090E220FCF7DAFC01237C
:10440000354A1821E520FDF7DFF83748D0F8F000ED
:1044100000EB4000374942180123182140F22910CF
:10442000FDF7D2F830491822D1F8880340F2331151
:10443000FEF7FAFA2878032801D1012000E00020D5
:1044400006461EB1FF202549486003E04FF050109A
:1044500022494860214840682A2340F2DD12182191
:10446000009040F28F10FCF7A4FC1F48D0F8FC002D
:10447000214901EB8002012318214FF4C870FDF798
:10448000A3F82878042801D1012000E00020064686
:104490001EB1FF201149486003E04FF050100F4952
:1044A00048600E4840683E2399222C210090452008
:1044B000FCF77FFC0C48D0F8E00000EB80000F49CF
:1044C000421800232C214620FDF77EF82878052885
:1044D00016D1012015E000008048001028000010CF
:1044E0002C400010F69D01001C0500102500000066
:1044F000F18E0100C39D0100359C0100AC940100C8
:10450000002006461EB1FF20F949486003E04FF045
:104510005010F7494860F64840683E234FF49C72BB
:104520002C210090E420FCF744FCF248D0F8040170
:1045300000EB8000F049421801232C21E520FDF713
:1045400043F806246DE02878A04203D1FF20E84913
:1045500048600CE0A01F022805D9072803D2E748CD
:10456000E349486003E04FF05010E1494860E048FB
:1045700040680090A01FC0EB00105C3083B2A01F09
:10458000C0EB00104C3081B2E6229420FCF711FC05
:10459000A01F00EB4001DA4800EB01104068A0B317
:1045A000A21F02EB4203D64A02EB0312117AA21FAA
:1045B00002EB4203D24A02EB0312002350680522A9
:1045C000FDF7C8F8A01FC0EB00104C3081B20123EA
:1045D000CC4AA020FDF75BF8C648D0F8FC00F8B93B
:1045E000A01F00EB4003C64800EB0310C06800EBBF
:1045F0004000C54BC218A01FC0EB00104C3081B268
:104600000123D020FDF743F80AE0FFE7A01FC0EB2D
:1046100000104C3081B20123BC4AA020FDF737F8CE
:10462000641C0F2C8FD310247DE02878A04203D186
:10463000FF20AF4948600DE0A4F11000022805D921
:10464000072803D2AD48AA49486003E04FF0501054
:10465000A7494860A64840680090A4F11000C0EB4C
:1046600000105C3083B2A4F11000C0EB00104C309D
:1046700081B24FF4C3724FF49A70FCF79AFBA4F125
:10468000100000EB40019E4800EB0110C069E0B350
:10469000A4F1100202EB4203994A02EB031292F8D2
:1046A0002010A4F1100202EB4203954A02EB031220
:1046B0000023D0690522FDF74DF8A4F11000C0EBEE
:1046C00000104C3081B200238E4A4FF4A570FCF7E5
:1046D000DEFF8848D0F8FC0020BBA4F1100000EBFE
:1046E0004003874800EB0310406A00EB4000864B14
:1046F000C218A4F11000C0EB00104C3081B20123AD
:104700004FF4BD70FCF7C3FF0CE0FFE7A4F110000D
:10471000C0EB00104C3081B201237C4A4FF4A570ED
:10472000FCF7B5FF641C192CFFF47FAF28780F2825
:1047300003D1FF206E49486003E04FF050106C49F0
:1047400048606B484068E323E622D3210090942020
:10475000FCF72FFB674A92F8C0120023D2F8BC0284
:104760000522FCF7F7FF0123664AD321A020FCF7BE
:104770008EFF6048D0F8C40200EB40006249421846
:104780000123D321D020FCF782FF2878192803D1F8
:10479000FF205749486003E04FF0501054494860EB
:1047A00053484068E3234FF4C372D32100904FF481
:1047B0009A70FCF7FEFA4F4A92F8D8120023D2F80A
:1047C000D4020522FCF7C6FF00234E4AD3214FF442
:1047D000A570FCF75CFF4748D0F8DC0200EB400016
:1047E000494942180123D3214FF4BD70FCF74FFF14
:1047F000FDF71AF82878062879D2DFE800F00307D9
:104800000809335F6878FDF7E2FBC3E0C2E0C1E06E
:104810006FF07F40364908603D48486000241EE044
:1048200074B93C4901EB840204EB8401542303EB8B
:104830000111143188B20023F121FCF7C5FE0DE00F
:10484000344901EB840204EB8401542303EB01118E
:104850001E3188B20023F121FCF7B6FE641C022C45
:10486000DED397E06FF07F40214908602848486018
:10487000002420E07CB904EB84011F4BCA1804EB30
:104880008401542303EB0111143188B20023F12178
:10489000FCF79AFE0EE004EB8401174BCA1804EBF8
:1048A0008401542303EB0111193188B20023F12153
:1048B000FCF78AFE641C022CDCD36BE06FF07F40B7
:1048C0000B49086012484860002435E024BB04EB23
:1048D0008401094BCA1804EB8401542303EB011132
:1048E000143188B20023F121FCF76EFE23E026E0AC
:1048F000280000101C050010AC9401003434650041
:104900002406001080480010C39D0100802F000085
:1049100038003100359C010004EB8401FB4BCA18C0
:1049200004EB8401542303EB0111193188B20023F5
:10493000F121FCF749FE641C022CC7D32AE06FF07A
:104940007F40F3490860F3484860F348D0F84C03CF
:1049500001280DD10023F1A2F1215D20FCF734FEE6
:104960000023F0A2F2214FF4CA70FCF72DFE10E0F4
:10497000E948D0F84C0360B90023ECA2F1215D2096
:10498000FCF722FE0023EBA2F2214FF4CA70FCF7E1
:104990001BFE00BF00BFF8BDF8B50546287801280A
:1049A00000D100E0002006461EB1FF20D849486033
:1049B00003E04FF05010D6494860D54840682C239A
:1049C000C022182100905820FCF7F3F9D248006863
:1049D00000EB8000CD49421801231A215820FCF732
:1049E000F3FD2878022801D1012000E000200646CE
:1049F0001EB1FF20C649486003E04FF05010C44983
:104A00004860C34840684223C0222E2100905820AD
:104A1000FCF7CFF9C048406800EB8000BB49421862
:104A2000012330215820FCF7CFFDFCF7FDFE28784C
:104A3000152878D2DFE800F00B0F94BED7EEEDEC2E
:104A4000EBEAE9E8E7E6E5E4E3E2E1E0DF006878E5
:104A5000FDF7BDFA7AE2687848BB6FF07F40AC4959
:104A60000860AC48486000241EE074B9B44901EB0A
:104A7000C40204EB8401542303EB0111133188B207
:104A80000023F121FCF7A0FD0DE0AD4901EBC402CC
:104A900004EB8401542303EB0111183188B2002385
:104AA000F121FCF791FD641C022CDED357E06878FD
:104AB000012839D16FF07F409549086095484860DA
:104AC00000241FE0032C0ED19E4901EBC40204EB2D
:104AD0008401542303EB0111133188B20023F12127
:104AE000FCF772FD0DE0974901EBC40204EB840171
:104AF000542303EB01110E3188B20023F121FCF79E
:104B000063FD641C042CDDD300238F4AF22140F2A4
:104B10009310FCF759FD00238CA2F22140F2BD1046
:104B2000FCF752FD1BE010E26FF07F40784908600F
:104B3000784848600023864A4FF482715420FCF77D
:104B400043FD0023804AF22140F29310FCF73CFD24
:104B5000002380A2F22140F2BD10FCF735FDF5E103
:104B60006FF07F406A4908606A48486000241EE090
:104B700074B9794901EBC40204EB8401542303EBBB
:104B80000111133188B20023F121FCF71DFD0DE066
:104B9000714901EBC40204EB8401542303EB0111BE
:104BA000183188B20023F121FCF70EFD641C022CA1
:104BB000DED3CBE16FF07F4055490860554848602F
:104BC00000240DE0654901EBC40204EB8401542389
:104BD00003EB011188B20023F121FCF7F5FC641C02
:104BE000022CEFD3B2E16FF07F4049490860494899
:104BF0004860002420E0A7E1A5E1A3E186E16CE1A3
:104C00004FE135E11BE1FEE0E4E0CAE0B0E064E042
:104C10004AE02DE013E004EB440101EBC401504BEA
:104C2000CA1804EB8401542303EB011188B200235A
:104C3000F121FCF7C9FC641C042CECD386E16FF075
:104C40007F40334908603348486000240DE04549FF
:104C500001EBC40204EB8401542303EB011188B27D
:104C60000023F121FCF7B0FC641C022CEFD36DE1B2
:104C70006FF07F402649086026484860002410E015
:104C800004EB440101EBC401374BCA1804EB840167
:104C9000542303EB011188B20023F121FCF794FCAB
:104CA000641C022CECD351E16FF07F40184908607E
:104CB0001848486000240DE02C4901EBC40204EBC5
:104CC0008401542303EB011188B20023F121FCF786
:104CD0007BFC641C022CEFD338E16FF07F400C4961
:104CE00008600C48486000240DE0204901EBC40234
:104CF00004EB8401542303EB011188B20023F1215A
:104D0000FCF762FC641C022CEFD31FE1AC940100A1
:104D100028000010380031001C05001043656C208D
:104D20005200000043656C4C69737400C7E5B3FD25
:104D3000D0D00000C7E5B3FDB1EDB8F10000000030
:104D4000AB9B0100618D0100FC200000322F33007D
:104D5000898D0100332F3300DB9B01006E9301002E
:104D6000F1940100BB94010063950100F6930100EA
:104D70006FF07F40FE490860FE48486000240DE067
:104D8000FD4901EBC40204EB8401542303EB011140
:104D900088B20023F121FCF717FC641C032CEFD32D
:104DA000D4E06FF07F40F2490860F2484860002488
:104DB0000DE0F24901EBC40204EB8401542303EB40
:104DC000011188B20023F121FCF7FEFB641C042CC6
:104DD000EFD3BBE06FF07F40E5490860E5484860ED
:104DE00000240DE0E64901EBC40204EB84015423E6
:104DF00003EB011188B20023F121FCF7E5FB641CF1
:104E0000032CEFD3A2E06FF07F40D9490860D94866
:104E10004860002410E004EB440101EBC401D94BCD
:104E2000CA1804EB8401542303EB011188B2002358
:104E3000F121FCF7C9FB641C022CECD386E06FF077
:104E40007F40CB490860CB48486000240DE0CE4944
:104E500001EBC40204EB8401542303EB011188B27B
:104E60000023F121FCF7B0FB641C022CEFD36DE0B2
:104E70006FF07F40BE490860BE48486000240DE0E6
:104E8000C24901EBC40204EB8401542303EB01117A
:104E900088B20023F121FCF797FB641C022CEFD3AE
:104EA00054E06FF07F40B2490860B2484860002487
:104EB00010E004EB440101EBC401B54BCA1804EB4C
:104EC0008401542303EB011188B20023F121FCF784
:104ED0007BFB641C022CECD338E06FF07F40A449CC
:104EE0000860A448486000240DE0A44901EBC40216
:104EF00004EB8401542303EB011188B20023F12158
:104F0000FCF762FB641C042CEFD31FE06FF07F40C2
:104F10009749086097484860002410E004EB44017A
:104F200001EBC4019A4BCA1804EB8401542303EB30
:104F3000011188B20023F121FCF746FB641C042C0C
:104F4000ECD303E002E001E000E000BF00BFF8BDE9
:104F5000F8B505462878012800D100E00020064673
:104F60001EB1FF208249486003E04FF05010804995
:104F700048607F4840682C23C0221A2100905E20A0
:104F8000FBF717FF8348D0F84C03012806D1002314
:104F900081A21C215F20FCF717FB09E07D48D0F8B7
:104FA0004C0328B900237EA21C215F20FCF70CFBD8
:104FB0002878022801D1012000E0002006461EB119
:104FC000FF206B49486003E04FF05010684948608B
:104FD000674840684223C022302100905E20FBF7E2
:104FE000E8FE724890F87D0200EB8000704942189C
:104FF000012332215F20FCF7E7FA2878032801D14A
:10500000012000E0002006461EB1FF2058494860FC
:1050100003E04FF050105649486055484068582307
:10502000C022462100905E20FBF7C3FE5F4890F847
:105030007E0200EB80005E494218012348215F2078
:10504000FCF7C2FA2878042801D1012000E00020F2
:1050500006461EB1FF204649486003E04FF050105D
:1050600043494860424840686E23C0225C2100905A
:105070005E20FBF79EFE4748D0F84C034D4901EBFC
:10508000C00200235E215F20FCF79EFA28780528E5
:1050900001D1012000E0002006461EB1FF20344966
:1050A000486003E04FF05010314948603048406894
:1050B0008423C022722100905E20FBF77AFE002339
:1050C0003DA274215F20FCF77FFA2878062801D1E1
:1050D000012000E0002006461EB1FF202449486060
:1050E00003E04FF0501022494860214840689A235D
:1050F0007322882100905E20FBF75BFE304901237C
:105100000222C8690021FCF725FB00232D4A8A21D1
:105110005F20FCF759FA4FF0501015494860002302
:1051200029A28A217320FCF74FFA2878072801D199
:10513000012000E0002006461EB1FF200C49486017
:1051400003E04FF050100A494860094840689A232C
:105150009122882100907C20FBF72BFE1849012327
:10516000022288690021FCF7F5FA0023154A2DE098
:105170002800001038003100BA950100CB930100DF
:10518000279401003F940100F6930100BB940100B5
:10519000419601001C05001053696D4261740000C6
:1051A000C4A3C4E2B5E7B3D800000000C4430010B4
:1051B000AC9401003F9D0100484F4C4400000000AA
:1051C0008C480010804800102D0000008A217D20AE
:1051D000FCF7FAF94FF05010F84948600023AFF29D
:1051E00018028A219120FCF7EFF92878082801D1CC
:1051F000012000E0002006461EB1FF20EF49486074
:1052000003E04FF05010ED494860EC4840689A23A5
:10521000B122882100909C20FBF7CBFDE8490123B7
:105220000222C8680021FCF795FA0020E549887041
:1052300000230A468A219D20FCF7C6F94FF0501042
:10524000DE4948600023E0A2A0211846FCF7BCF923
:105250000023E04AA0215E20FCF7B6F9287809284F
:1052600001D1012000E0002006461EB1FF20D349F5
:10527000486003E04FF05010D0494860CF48406884
:105280002C234FF4DD721A2100904FF4AC70FBF721
:1052900090FD0023D04A1C2140F25910FCF794F9EC
:1052A00028780A2801D1012000E0002006461EB11E
:1052B000FF20C249486003E04FF05010BF494860EA
:1052C000BE48406842234FF4DD72302100904FF415
:1052D000AC70FBF76EFD0123C04A322140F2591039
:1052E000FCF772F928780B2801D1012000E000209A
:1052F00006461EB1FF20B149486003E04FF0501050
:10530000AE494860AD48406858234FF4DD724621ED
:1053100000904FF4AC70FBF74CFD0123B04A4821DC
:1053200040F25910FCF750F928780C2801D10120DF
:1053300000E0002006461EB1FF20A049486003E0BF
:105340004FF050109D4948609C4840686E234FF4D0
:10535000DD725C2100904FF4AC70FBF72AFDA14890
:10536000A1A1D0F8802397480EF016FB01239FA23D
:105370005E2140F25910FCF727F928780D2801D159
:10538000012000E0002006461EB1FF208B49486046
:1053900003E04FF0501089494860884840688423F2
:1053A0004FF4DD72722100904FF4AC70FBF701FDF9
:1053B0000123904A742140F25910FCF705F928782E
:1053C0000E2801D1012000E0002006461EB1FF207A
:1053D0007A49486003E04FF05010784948607748B8
:1053E00040689A2340F26D12882100904FF4AC700F
:1053F000FBF7DFFC72490123022288680021FCF7D9
:10540000A9F900236F4A8A2140F25910FCF7DCF811
:105410004FF050106949486000236DA28A2140F284
:105420006D10FCF7D1F828780F2801D1012000E099
:10543000002006461EB1FF206049486003E04FF09F
:1054400050105E4948605D4840689A2340F28B12D4
:10545000882100904FF4BB70FBF7ABFC5849012347
:10546000022248680021FCF775F90023554A8A2179
:1054700040F27710FCF7A8F84FF050104F49486001
:10548000002353A28A2140F28B10FCF79DF8287864
:10549000102801D1012000E0002006461EB1FF20A7
:1054A0004649486003E04FF0501044494860434883
:1054B00040689A2340F2AB12882100904FF4CB70E1
:1054C000FBF777FC3E490123022208680021FCF724
:1054D00041F900203B49887000230A468A2140F2A6
:1054E0009710FCF771F8FCF79FF92878162864D21A
:1054F000DFE800F00B0E0F3986A9B7D1F7F5F4F30A
:10550000F2F1F0EFEE6363EDECEBFCF7EFFE20E27F
:105510001FE26FF07F402949086037484860002447
:105520001EE05CB904EB440000EBC40033494218B0
:105530000023F1216720FCF747F810E004EB440159
:1055400001EBC4012D4BCA1804EB8401542303EB77
:105550000111183188B20023F121FCF735F8641CE1
:10556000022CDED3F5E16FF07F4014490860224839
:10557000486000241EE05CB904EB440000EBC4006A
:105580001E4942180023F1216720FCF71DF810E0A6
:1055900004EB440101EBC401184BCA1804EB84016D
:1055A000542303EB0111183188B20023F121FCF7D9
:1055B0000BF8641C022CDED3CBE1C9E128000010FB
:1055C0008C4800108048001046616374204E6F2E96
:1055D0003A00000043460010809D01007B940100CA
:1055E000A59401001C050010253264004E4F4E4565
:1055F00000000000B6940100380031003F94010023
:105600006FF07F40FE490860FE484860002417E0C4
:1056100044B9FD4800EBC4020023F1216620FBF7EA
:10562000D3FF0CE0F84901EBC40204EB84015423DE
:1056300003EB011188B20023F121FBF7C5FF641CC5
:10564000022CE5D385E16FF07F40ED490860ED481D
:1056500048600023AFF2A042F1216220FBF7B4FFC3
:1056600077E16FF07F40E6490860E6484860002433
:105670000EE0E64901EBC40204EB8401542303EB82
:105680000111091D88B20023F121FBF79DFF641C65
:10569000022CEED35DE16FF07F40D9490860D94814
:1056A000486000240EE0D94901EBC40204EB8401F8
:1056B000542303EB0111091D88B20023F121FBF7EC
:1056C00083FF641C022CEED343E140E13EE13CE168
:1056D00021E106E1EBE0C0E0A5E062E035E01AE0A0
:1056E000FFE76FF07F40C6490860C6484860002465
:1056F0000EE0C64901EBC40204EB8401542303EB22
:105700000111091D88B20023F121FBF75DFF641C24
:10571000022CEED31DE16FF07F40B9490860B94813
:10572000486000240EE0B94901EBC40204EB840197
:10573000542303EB0111091D88B20023F121FBF76B
:1057400043FF641C022CEED303E16FF07F40AC49B1
:105750000860AC484860002420E07CB9C4EBC40178
:10576000AB4BCA1804EB8401542303EB0111133132
:1057700088B20023F121FBF727FF0EE0C4EBC40140
:10578000A34BCA1804EB8401542303EB0111091D38
:1057900088B20023F121FBF717FF641C022CDCD335
:1057A000D7E06FF07F409649086096484860002433
:1057B00036E01CB1022C01D0032C0FD1C4EBC40184
:1057C000944BCA1804EB8401542303EB0111091D07
:1057D00088B20023F121FBF7F7FE20E0012C0FD166
:1057E000C4EBC4018B4BCA1804EB8401542303EBB4
:1057F00001110E3188B20023F121FBF7E5FE0EE026
:10580000C4EBC401834BCA1804EB8401542303EB9B
:105810000111093188B20023F121FBF7D5FE641C88
:10582000052CC6D395E06FF07F4075490860754838
:10583000486000240EE0754901EBC40204EB8401CA
:10584000542303EB0111091D88B20023F121FBF75A
:10585000BBFE641C022CEED37BE06FF07F406849F6
:1058600008606848486000241EE074B96A4901EB8A
:10587000C40204EB8401542303EB0111183188B2F4
:105880000023F121FBF7A0FE0DE0634901EBC40208
:1058900004EB8401542303EB0111133188B200237C
:1058A000F121FBF791FE641C022CDED351E06FF076
:1058B0007F40534908605348486000240EE0534934
:1058C00001EBC40204EB8401542303EB0111091D15
:1058D00088B20023F121FBF777FE641C022CEED383
:1058E00037E06FF07F404649086046484860002432
:1058F0000EE0464901EBC40204EB8401542303EBA0
:105900000111091D88B20023F121FBF75DFE641C23
:10591000022CEED31DE06FF07F4039490860394812
:10592000486000240EE0394901EBC40204EB840115
:10593000542303EB0111091D88B20023F121FBF769
:1059400043FE641C022CEED303E002E001E000E021
:1059500000BF00BFF8BD08B53048162396220021CD
:1059600000900846FBF725FAFBF75EFF08BD70B50F
:105970000546FFF7F0FF6FF07F4021490860274898
:1059800048600023264A04211846FBF71DFE6FF0ED
:105990007F401B4908604FF050104860687801282C
:1059A00015D1002410E0C4EB04101E4BC21804EB08
:1059B000440000EBC4001A2303EB400081B2002333
:1059C0001846FBF701FE641C062CECD346E0687811
:1059D00002282BD1002410E0C4EB0410124BC21893
:1059E00004EB440000EBC4001A2303EB400081B237
:1059F00000231846FBF7E8FD641C062CECD32DE0D1
:105A000028000010380031003F9D0100F69301008E
:105A10006D94010082940100BB940100F3520300D5
:105A20005F9A01002B8C0100DF8C0100687803284D
:105A300014D1002410E0C4EB0410FE4BC21804EB98
:105A4000440000EBC4001A2303EB400081B20023A2
:105A50001846FBF7B9FD641C062CECD30220FCF7BA
:105A6000B6FA70BDF8B505466878012873D10024F0
:105A70001BE04FF05010F049486008464068009025
:105A800004EB440000EBC4001A2202EB400010308B
:105A900083B204EB440000EBC40002EB400081B28F
:105AA000AC225020FBF785F9641C062CE1D30024BE
:105AB0004DE02978601C814201D1012000E00020E6
:105AC00006461EB1FF20DC49486003E04FF050104D
:105AD000D949486004EB4402D84901EBC2010023D4
