:020000040001F9
:10800000785A0010218B0200298B02002B8B020072
:108010002D8B02002F8B0200318B0200000000002C
:10802000000000000000000000000000338B020090
:10803000358B020000000000378B0200A98402008B
:108040003B8B0200C3850100F3850100038601001C
:10805000138601006F9C02003B8B02003B8B0200E9
:10806000079E02003B8B02003B8B02003B8B020011
:108070003B8B02003B8B02003B8B02003B8B0200E0
:108080003B8B0200398902003B8B02003B8B0200D4
:108090003B8B02003B8B02003B8B02003B8B0200C0
:1080A0004FB002003B8B0200A18902003B8B020013
:1080B0003B8B02003B8B02003B8B02003B8B0200A0
:1080C0003B8B02003B8B02003B8B02003B8B020090
:1080D0003B8B02003B8B0200218301003B8B0200A3
:1080E0003B8B0200DFF80CD014F014F90048004775
:1080F00065830100785A0010834840F20121C0F8DE
:108100008011C0F88411C0F88811C0F88C11C0F833
:108110009011C0F89411C0F89811C0F89C11C0F8E3
:10812000A011C0F8A411C0F8A811C0F8AC11C0F893
:10813000B011C0F8B411C0F8B811C0F8BC11C0F843
:10814000C011C0F8C411C0F8C811C0F8CC11C0F8F3
:10815000D011C0F8D411C0F8D811C0F8DC11C0F8A3
:10816000E011C0F8E411C0F8E811C0F8EC11C0F853
:10817000F011C0F8F411C0F8F811C0F8FC11C0F803
:108180000012C0F80412C0F80812C0F80C12C0F8AF
:108190001012C0F81412C0F81812C0F81C12C0F85F
:1081A0002012C0F82412C0F82812C0F82C12C0F80F
:1081B0003012C0F83412C0F83812C0F83C12C0F8BF
:1081C0004012C0F84412C0F84812C0F84C12C0F86F
:1081D0005012C0F85412C0F85812C0F85C12C0F81F
:1081E0006412C0F84011C0F84411C0F84811C0F83A
:1081F0005011C0F86011C0F87011C0F87411C0F8C7
:108200007811C0F87C1170472DE9F041DFF8FC804F
:10821000434653F8C40F40F40060186041F61F70E5
:10822000C3F818013A4C012222600026A660FFF72D
:1082300063FF384838490068B0FBF1F5D86B00B1EE
:108240006D084FF47A77B7FBF5F101F11300B0FB3D
:10825000F1F323630F236363A663E263B0FBF1F0E2
:10826000801C2064626401F13E00B0FBF1FCC4F8A4
:1082700048C0B0FBF1FCC4F84CC02365B0FBF1F082
:108280006065A265A26240F20330C4F804014FF4B5
:108290008D40C4F80001C4F800016421002000F002
:1082A0003DF940F283102062C821002000F036F929
:1082B00040F20310206202206062401C8028FCD340
:1082C00040F2E7104543B5FBF7F080B260628320CF
:1082D0002062124800682662D4F8000140F40020B1
:1082E000C4F800010121002000F018F9012100204C
:1082F00000F014F9D8F8DC1121F01F0141F0110150
:10830000C8F8DC11BDE8F08100C0024000C00F4099
:1083100000C009207C02001040420F00004006A06F
:1083200010B501221321002010F079FD002818D08B
:108330007448401EFDD17448744902781AB1002275
:108340000270132002E001220270022008604FF444
:108350000021002010F082FDBDE81040262000F032
:10836000B5B810BD002010F060FE694905464FF415
:10837000C030002408601D2000F09DF862B64FF464
:108380007A70B5FBF0F00026401EB0F1807F0CD271
:1083900020F07F404FF0E025401E68611F216817E4
:1083A00000F09FF8AE61072028610122D50429461C
:1083B000002010F018FD0121262000F092F8262060
:1083C00000F079F810F01DFA10F09AF911F0A8FBFE
:1083D0004D480670042011F0C1FC11F0CBFE10F0E6
:1083E000C1FA10F00EFA10F060F9FFF70DFF00204F
:1083F00000F0B2F947480021406900F0D6F90120A9
:1084000000F0AAF9002010F0D8F9262000F05EF85C
:1084100010F037F92946002010F020FD3B4D1320C5
:108420004FF05016C5F8000010F05BFAFF2803D09B
:10843000641C022C02D004E0002402E0304600F06C
:1084400085FA2868801E1228EED2DFE800F00A09BB
:10845000090910181B1E2109090909242709092ADD
:10846000E2E7002000F072FA0BF0FEF8DCE730469D
:1084700000F06CFA10F039F80DF0EEF9D4E70BF0DB
:10848000B1FBD1E70BF07AFDCEE70CF03EF9CBE77C
:108490000CF086FFC8E70FF079FAC5E70EF077FD1C
:1084A000C2E70FF0C9FCBFE71B4A116813685B1AEB
:1084B0008342FBD3704700F01F0201219140400925
:1084C000800000F1E020C0F80011704700F01F02AA
:1084D000012191404009800000F1E020C0F88011A6
:1084E0007047C906090E002806DA00F00F0000F1F7
:1084F000E02080F8141D704700F1E02080F800149F
:1085000070470000FDFFFF006002001064020010D1
:1085100008ED00E01800001070020010F0B5864A67
:108520000023FF25042612684FF0020C4FF47A74E2
:108530000127A8B1012824D0022832D003280ED167
:108540007E48C0F804C0C360B2FBF4F2521E4A4336
:1085500082610560466147604168C907FCD1F0BD92
:108560004FF04020C0F804C0C360B2FBF4F2521ECA
:108570004A4382610560466147604168C907FCD192
:10858000F0BD6F48C0F804C0C360B2FBF4F2521EE5
:108590004A4382610560466147604168C907FCD172
:1085A000F0BD6848C0F804C0C360B2FBF4F2521ECC
:1085B0004A4382610560466147604168C907FCD152
:1085C000F0BD4FF04021012008605F480168491C60
:1085D00001605E4801785E48012906D08168491C27
:1085E00081604168491C416070470168491C016015
:1085F000F7E753490120086055484168491C41602C
:10860000704750490120086051488168491C8160C9
:1086100070474A49012008604D48C168491CC16043
:108620007047012138B1012808D0022809D0032859
:1086300006D1424803E04FF0402000E0404841604E
:1086400070474048FBE7002140B1012809D03D4A6E
:10865000022801D0032800D1516070474FF040201C
:1086600000E037484160704738B101280CD002283B
:108670000CD0032807D1314809E04FF04021486869
:1086800040F00200486070472D4800E02D484168E6
:1086900041F002014160704770B500242C4D2D4A15
:1086A000032338B1012818D0022821D003282AD06A
:1086B000002070BD2C6052F8C40F40F00200106022
:1086C0004FF04020426842F0020242604EF65F22C4
:1086D000C2608161436101201FE06C6052F8C40FE9
:1086E00040F004001060164881614361022014E0EC
:1086F000AC6052F8C40F40F48000106011488161F2
:108700004361032009E0EC6052F8C40F40F400001C
:1087100010600A4881614361042000F002F80120E2
:1087200070BD00F01F02012191404009800000F15E
:10873000E020C0F80011704780020010004009409E
:108740000080004000000940280200105C02001078
:108750000000001000C00F40FC4908B500288869DF
:1087600042F210720CD040F00100886100928869DA
:1087700040F4006088610098401E0090F7D108BD69
:1087800020F40060886110460092401E0090FCD1E9
:10879000886920F00100886108BDED4A002108C801
:1087A000491C08C28029FAD3704770B5EA4BE94CDE
:1087B0004FF0270208001A615A61C3F87022C3F80B
:1087C0007422C3F81821C3F81C21C3F82021C3F870
:1087D00024219A61DA61C3F8D020C3F8D420C3F809
:1087E000D820C3F8DC20C3F8E020C3F8E4201A62E4
:1087F0005A62C3F83021C3F83421C3F8E820C3F823
:10880000EC20C3F8F020C3F8F420C3F80821C3F823
:108810001421C3F80C21C3F81021C3F80021CF4A5A
:10882000116C41F002011164916D41F00A019165F2
:10883000CB4951F8C42F42F001020A60C94A1368BB
:1088400023F001031360C14A4FF00003936195695F
:1088500025F00E059561956945F00A0595619569C4
:1088600045F020059561956925F08005956195692C
:1088700025F480759561956925F400759561956974
:1088800025F480659561956925F400659561B64D7F
:10889000B64E2D68B5FBF6F5C1F8F450916841F07D
:1088A00080619160916821F020019160916841F4AC
:1088B00000619160916841F480519160916821F468
:1088C00000519160916821F4804191609168A84DB8
:1088D00001EA050191609168A64D41EA05019160A8
:1088E0001360116841F01C511160116841F480213E
:1088F0001160116841F480711160116841F07401D8
:1089000011605360516841F000615160516841F459
:1089100000215160516841F480615160516840F21A
:108920000F1341EA030151601461546101D0FFF754
:1089300034FF00204FF47F01CA1102C4401C904252
:10894000FBD342F20E70401EFDD170BD814A002162
:108950004FF4FF3301C2491C9942FBD37047F0B575
:10896000C3F58874C4EB0414C2F5F075E40104EB9C
:108970008504784D121A2C440025C2F5F076591A58
:10898000059F08E0002001E080C4401C8242FBD823
:1089900004EB86046D1CA942F4D8F0BD6D4BB0F514
:1089A000F07F0DD2B1F5887F0AD2A1F20F11C0F588
:1089B000F070A1EB011100EB4110401E43F82020A4
:1089C00070472DE9F0431746DDF81C901E460D4612
:1089D0000446B84201D9274694B2B54201D90E46A1
:1089E0009DB2381B711B00B20FFA81FC68B1BCF15B
:1089F000000F15D0604531DDC0EB4C010EB24FEADF
:108A00004C01404201EB400825E04A4629462046F9
:108A1000FFF7C4FF6D1CADB2AE42F6D2BDE8F083E5
:108A20004A4629462046FFF7B9FF641CA4B2A74274
:108A3000F6D2F3E74A4629462046FFF7AFFF641C0B
:108A4000A4B2002E04DD6D1CADB208EB060001E0FF
:108A500006EB4C0006B2BC42ECD11BE0CCEB400173
:108A60000FB24FEA4C01404201EB400810E04A4689
:108A700029462046FFF792FF6D1CADB2002F04DDA2
:108A8000641CA4B208EB070001E007EB4C0007B23E
:108A9000B542ECD14A4629462046BDE8F0437DE781
:108AA0002DE9FF5F884606469A4611466846DDF87E
:108AB00038B00AF07FFB00254FEA0D09002419F8B1
:108AC00005C008EB050700BFC4F107002CFA00F051
:108AD000C00706EB0400B9B280B201D0524600E0F4
:108AE0005A46FFF75BFF641C082CEDD36D1C102D5C
:108AF000E4D3BDE8FF9F2DE9FE4F884606469A461F
:108B000011466846DDF830B00AF05CFB0025E94606
:108B1000002419F805C008EB050700BFC4F10700E1
:108B20002CFA00F0C00706EB0400B9B280B201D005
:108B3000524600E05A46FFF731FF641C082CEDD383
:108B40006D1C0C2DE4D3BDE8FE8F000000800820D2
:108B500000820820000001A000C00240008009201F
:108B600000C00F40008C0820800200109C99740007
:108B7000FFFF00FC0000DF012DE9F8439946DDF816
:108B8000207016460D4604464FF4EC7816F8012B7B
:108B90004B46294620460097FFF782FF444502D204
:108BA0000834A4B207E0FF2D4FF0000402D81035BE
:108BB000ADB200E0002530780028E7D1BDE8F883A9
:108BC0002DE9FF4F81B090460C46054606460F46FC
:108BD0004FF0000CA6F1140080B242462146FFF788
:108BE000DDFEA7F11400761C81B2B6B242462846DB
:108BF000FFF7D4FE7F1C0CF1010C1FFA8CFCBFB2F6
:108C0000BCF1280FE6D3A4F114002E4627464FF0FE
:108C1000000C04F1140AA5F1140B05F114090090DD
:108C20000098A6F1140881B21FFA88F0049AFFF7A1
:108C3000B5FE1FFA8AF11FFA88F0049AFFF7AEFE1C
:108C4000761CA7F11408B6B21FFA88F11FFA8BF050
:108C5000049AFFF7A3FE1FFA88F11FFA89F0049A1D
:108C6000FFF79CFE7F1C0CF1010C1FFA8CFCBFB2BD
:108C7000BCF10A0FD4D30026A4F1140A04F114099C
:108C8000A5F1140805F1140705F10A0C1FFA8AF181
:108C90001FFA8CF0049AFFF781FE1FFA89F11FFA80
:108CA0008CF0049AFFF77AFE6D1C04F10A0CADB249
:108CB0001FFA8CF11FFA88F0049AFFF76FFE1FFA73
:108CC0008CF1B8B2049AFFF769FE641C761CB6B248
:108CD000A4B20A2ED8D305B0BDE8F08F30B5024655
:108CE000F8491378002000BF00EB80140D5D9D4211
:108CF00004D10C4455786478A54204D0401C80B25D
:108D00007728F1D3002030BD30B50246EE49137804
:108D1000002000BF00EB001411F814509D4205D153
:108D200001EB440455786478A54204D0401C80B21D
:108D3000D228EFD3002030BD2DE9F04F0446844601
:108D40008B46002502FB03F0C1179046DFF87CA399
:108D500000EB517921E009980026475D380602D5DD
:108D6000DAF8002001E0DAF8042059462046FFF73F
:108D700015FE641C7806A4B2070EA4EB0C01414555
:108D800005D10BF1010064461FFA80FB03E0761C5D
:108D9000F6B2082EE2D36D1CADB2B5EBE90FDADB0B
:108DA0009AE72DE9F047894604460546C64902EB95
:108DB0000210DFF818A301EB40084FF0000653BB88
:108DC00008EB06005FF0000790F802C05FEA0C6055
:108DD00002D5DAF8002001E0DAF8042049462046FE
:108DE000FFF7DCFD4FEA4C60641C4FEA106CA4B244
:108DF000601B102809D07F1CFFB2082FE6D3761C19
:108E0000F6B2202EDCD3BDE8F08709F101002C4634
:108E10001FFA80F9F3E708EB0600002790F802C07C
:108E20005FEA0C6002D5DAF8042001E0DAF80020ED
:108E300049462046FFF7B2FD4FEA4C60641C4FEAFA
:108E4000106CA4B2601B102808D07F1CFFB2082F42
:108E5000E6D3761CF6B2202EDDD3D4E709F101006B
:108E60002C461FFA80F9F4E72DE9F04789460446BD
:108E70000546944902EB8210DFF850A200EB01088E
:108E80004FF0000653BB00BF08EB06005FF0000781
:108E900090F802C05FEA0C6002D5DAF8002001E029
:108EA000DAF8042049462046FFF778FD4FEA4C6087
:108EB000641C4FEA106CA4B2601B182808D07F1CF9
:108EC000FFB2082FE6D3761CF6B23F2EDCD39AE72A
:108ED00009F101002C461FFA80F9F4E708EB0600BF
:108EE0005FF0000790F802C05FEA0C6002D5DAF884
:108EF000042001E0DAF8002049462046FFF74EFD45
:108F00004FEA4C60641C4FEA106CA4B2601B182836
:108F100008D07F1CFFB2082FE6D3761CF6B23F2E96
:108F2000DCD370E709F101002C461FFA80F9F4E761
:108F300030B514460D46024621462846FFF794FFF9
:108F4000182030BD30B514460D460246214628464D
:108F5000FFF727FF122030BD2DE9F84F9A4615463E
:108F60000C46064600274FF4F0784FF488792A78AB
:108F7000002A3AD0F01986B2802A15D906F11800D5
:108F8000404505D916340026A4B24C4500D900242A
:108F90002846FFF7A3FE80B2534622463146FFF72C
:108FA000C7FF0746AD1CE2E70D2A15D00A2A1AD0E2
:108FB00006F10C00404505D90C340026A4B24C45FE
:108FC00000D9002441484168009103682146304699
:108FD000FFF766FD6D1CCAE71634A4B24C4500D9F4
:108FE00000240027F6E70026FBE7BDE8F88FF8B578
:108FF00015460F46064600242878002821D0A0F107
:109000003001092901D888B204E02E2815D02D2876
:1090100015D00C2000EBC001C1EB80102C49372388
:1090200001EB80000090301980B220223946FFF712
:1090300083FE2034A4B26D1CDEE70A20EAE70B2091
:10904000E8E7F8BD2DE9F8430646994615460C4673
:1090500000204FF4F0774FF488782A78002A42D025
:10906000304486B2802A14D906F11000B84205D9DE
:1090700010340026A4B2444500D900242846FFF746
:1090800043FE80B24B4622463146FFF75BFFAD1CE4
:10909000E3E70D2A1ED00A2A23D006F10800B842C1
:1090A00005D908340026A4B2444500D90024074855
:1090B00041680091036821463046FFF7F1FC0A2021
:1090C0006D1CCAE7D4DC02000BFB0200100000108C
:1090D0003C3D03001034A4B2444500D900240020D4
:1090E000EEE70026FBE769E52DE9F84306469946D9
:1090F00015460C4600204FF4F0774FF488782A7814
:10910000002A3AD0304486B2802A14D906F11000E1
:10911000B84205D910340026A4B2444500D9002431
:109120002846FFF7F1FD80B24B4622463146FFF755
:1091300009FFAD1CE3E70D2A16D00A2A1BD006F161
:109140000800B84205D908340026A4B2444500D925
:109150000024334841680091036821463046FFF7F8
:10916000CAFC08206D1CCAE71034A4B2444500D9DB
:1091700000240020F6E70026FBE71FE5F0B5062AED
:1091800001D90A2201E002B90122052900D90521ED
:10919000914200D911460025224C202666556D1CAF
:1091A000EDB20C2DFAD315460A270DE0B0FBF7FC03
:1091B00007FB1C0CB0FBF7F004EB050E0CF1300CB8
:1091C0006D1E0EF801CCEDB2002DEFD169B1104645
:1091D00005E0251815F8015C2554401EC0B2491E53
:1091E000C9B2F6D22E21215400E0A65473B9002052
:1091F000511E09E0235C302B08D123185B782E2BFD
:1092000004D02654401CC0B28842F3DB521CD0B2BA
:10921000002102E02154401CC0B20C28FAD3F0BD5A
:1092200010000010485300102DE9F04FCDB0DFF8CA
:109230009C8600F1290904460D461FFA89F20B4667
:10924000CDF80080FFF7BDFB681ECDF8008083B22B
:10925000239004F12B0082B210902398661E81B2F5
:10926000B0B2FFF7AEFBA81E83B20C9004F12D0044
:1092700082B22E900C98CDF8008081B2B0B2FFF788
:10928000A0FBE81E83B2249004F12E0082B2359038
:109290002498CDF8008081B22046FFF792FB281F6A
:1092A00083B2159004F1300082B233901598CDF856
:1092B000008081B2A01C80B2FFF783FB681F83B2DD
:1092C000259004F1310082B222902598243681B293
:1092D000CDF80080B0B2FFF774FBA81F83B204F191
:1092E000320781B22690BAB2CDF80080B0B2FFF753
:1092F00068FBE81F83B281B22090BAB2CDF800803B
:10930000B0B2FFF75EFBA5F10800BAB283B281B23A
:10931000771C2790CDF80080B8B2FFF752FBA5F17B
:109320000900CDF8008083B2103681B20F90B2B23E
:10933000B8B2FFF746FBA5F10A0083B281B204F18F
:10934000250A1390B2B2CDF800801FFA8AF0FFF719
:1093500038FBA5F10B0083B281B20E90B2B2CDF80A
:1093600000801FFA8AF0FFF72CFBA5F10C0083B2F6
:1093700081B22B90B2B2CDF800801FFA8AF0FFF7CD
:1093800020FBA5F10D00771CCDF8008083B281B2DF
:109390000D3E2890BAB2B0B2FFF713FBA5F10E0054
:1093A00083B281B22990BAB2CDF800801FFA8AF058
:1093B000FFF707FBA5F10F0083B281B21290BAB29A
:1093C000CDF80080B0B2FFF7FCFAA5F1100083B22F
:1093D00081B21690BAB2CDF80080B0B2FFF7F1FAC0
:1093E000A5F1110083B27F1C81B21B90BAB2CDF8F7
:1093F0000080B0B2FFF7E5FA40460090A5F11200F8
:1094000083B281B2761C0690BAB2B0B2FFF7D9FA35
:1094100040460090A5F1130083B281B20590BAB224
:10942000B0B2FFF7CEFA40460090A5F1140083B227
:109430007F1C81B20990BAB2B0B2FFF7C2FA4046BF
:109440000090A5F1150083B281B2761C1E90BAB2CD
:10945000B0B2FFF7B6FA4046A5F1160B00901FFA1E
:109460008BF3BAB21FFA8BF1B0B2FFF7AAFA4046FB
:109470000090A5F1170083B281B20A90BAB2B0B2DF
:10948000FFF79FFA40460090A5F1180083B281B221
:109490002A90BAB2B0B2FFF794FA4046A5F1190A81
:1094A00000901FFA8AF3BAB21FFA8AF11FFA89F004
:1094B000FFF787FA4046A5F11A080F3600901FFA09
:1094C00088F3B2B21FFA88F11FFA89F0FFF779FA30
:1094D000FE480090A5F11B0083B281B22F90B2B27A
:1094E0001FFA89F0FFF76DFAF8480090A5F11C000B
:1094F00083B2761C81B204F12A090890B2B21FFA35
:1095000089F0FFF75EFAF148A5F11D070090BBB2A4
:10951000B2B2B9B21FFA89F0FFF753FAEB480090E4
:10952000781E83B281B23290B2B21FFA89F0FFF78F
:1095300048FAE6480090B81E83B21F90701C82B2B1
:1095400018901F9881B21FFA89F0FFF73AFADF48A6
:109550000090F81E83B21990189882B2199881B2BF
:109560001FFA89F0FFF72DFAD8480090A5F12109DC
:1095700010981FFA89F3B2B21FFA89F180B2FFF78F
:1095800020FAD2480090781F83B21A90189882B2BD
:109590001A9881B2109880B2FFF713FACB48009066
:1095A000B81F83B21D90189882B21D9881B204F141
:1095B0002C00109080B2FFF704FAC448009004F128
:1095C0003A0082B23490FE1F1098B3B2B1B280B2AA
:1095D000FFF7F7F9BD480090701E83B211903498E0
:1095E00082B2119881B2109880B2FFF7EAF9B748B9
:1095F0000090B01E83B2219004F13B0082B23690FD
:10960000219881B2109880B2FFF7DBF9AF48009043
:10961000F01E83B21C90369882B21C9881B21098CA
:1096200080B2FFF7CEF9A9480090301F83B21090A6
:10963000369882B2109881B22E9880B2FFF7C1F9A5
:10964000A2480090701F83B22C90369882B22C985A
:1096500081B22E9880B2FFF7B4F99C480090B01FF9
:1096600083B22D9004F13C0082B237902D9881B2E4
:109670002E9880B2FFF7A5F9944800903799F01F13
:109680008AB283B281B22E9880B2FFF79AF98F48DE
:109690000090A5F12C0083B22E90379882B22E98BC
:1096A00081B2359880B2FFF78CF988480090A5F117
:1096B0002D0083B23090379882B2309881B23598BD
:1096C00080B2FFF77EF981480090A5F12E0083B2A9
:1096D000319004F13D0082B23B90319881B23598CF
:1096E00080B2FFF76EF979480090A5F12F0083B2A0
:1096F00038903B9882B2389881B204F12F003590AF
:1097000080B2FFF75EF971480090A5F1300083B296
:1097100039903B9882B2399881B2359880B2FFF780
:1097200050F96A48009004F13E0082B23E90A5F1E3
:10973000310135988BB289B280B2FFF742F96348A4
:109740000090A5F1320083B23A903E9882B23A98E6
:1097500081B2359880B2FFF734F95C480090A5F1EA
:10976000330083B240903B9882B2409881B23598E2
:1097700080B2FFF726F955480090A5F1340083B276
:109780003C903E9882B23C9881B2339880B2FFF709
:1097900018F94E4800903E99A5F135008AB283B27F
:1097A00081B2339880B2FFF70CF948480090A5F1D8
:1097B000360083B233903E9882B2339881B22298B9
:1097C00080B2FFF7FEF841480090A5F1370083B260
:1097D0003D9004F13F0082B241903D9881B22298C1
:1097E00080B2FFF7EEF839480090409883B204F158
:1097F000540082B23590339881B204F148003F9012
:1098000080B2FFF7ACF8314800903C9883B204F185
:10981000530082B222903C9881B204F14700339009
:1098200080B2FFF7CEF829480090389883B222988A
:1098300082B2409881B2339880B2FFF790F8234803
:1098400000902E9883B204F1520082B24090389872
:1098500081B204F1460080B2FFF781F81B48009006
:10986000109883B204F1510082B2109881B204F1D1
:109870004400429080B2FFF7A4F8144800901C986E
:1098800083B2409882B21C9881B204F145004090A6
:1098900080B2FFF796F80D480090219883B204F14A
:1098A000500082B24490219881B2429880B2FFF772
:1098B00088F806480090119883B204F14F0082B2F4
:1098C0004390119881B2429880B201E0F3520300B4
:1098D000FFF777F8FE48009044981FFA89F382B2A8
:1098E00004F143004290B1B280B2FFF738F8F84873
:1098F000009004F14E0082B2449042981FFA89F31E
:109900001FFA89F180B2FFF75CF8F14800904398A4
:10991000BBB282B2199881B204F14200439080B286
:10992000FFF71DF8EA48009004F14D0082B2429022
:109930004398BBB2B9B280B2FFF743F8E448009055
:1099400044981FFA88F382B2089881B204F141006A
:10995000449080B2FFF703F8DD48009004F14C001A
:1099600082B2439044981FFA88F31FFA88F180B2BC
:10997000FFF727F8D648009042981FFA8BF382B27F
:1099800004F140001FFA8AF180B2FEF7E8FFD048E8
:10999000009043981FFA8BF382B241981FFA8BF123
:1099A00080B2FFF70EF8CA480090059883B243983A
:1099B00082B21E9881B2419880B2FEF7D0FFC448AF
:1099C00000901B9883B204F14B0082B2059881B2DB
:1099D000419880B2FEF7C3FFBD4800901B9883B248
:1099E00004F14A0082B241901B9881B23E9880B245
:1099F000FEF7E7FFB6480090299883B2419882B2FB
:109A0000169881B23E9880B2FEF7A9FFB048009048
:109A10000E9883B2419882B2299881B23B9880B265
:109A2000FEF79DFFAA4800900E9883B23F9882B23D
:109A30000E9881B23B9880B2FEF7C3FFA448009015
:109A4000209883B204F1490082B2139881B237980A
:109A500080B2FEF784FF9E480090259883B23F981D
:109A600082B2209881B2369880B2FEF778FF98488B
:109A70000090249883B2339882B2259881B23498AA
:109A800080B2FEF76CFF92480090249883B233981E
:109A900082B2249881B2349880B2FEF792FF8C484B
:109AA000009033982B4682B20C9881B2349880B2E1
:109AB000FEF755FF8648009040982B4682B23498B6
:109AC000194680B2FEF77DFF81480090109883B25E
:109AD00004F16E0082B23E90109881B204F15800F9
:109AE00080B2FEF76EFF7A4800901C9883B204F1B2
:109AF0006F0082B23B901C9881B204F15500369001
:109B000080B2FEF75EFF72480090219883B204F1A4
:109B1000710082B23390219881B2359880B2FEF7FD
:109B200050FF6B480090119883B204F1720082B22A
:109B30003490119881B2229880B2FEF742FF6448B7
:109B400000903698B3B282B22298B1B280B2FEF7DA
:109B500038FF5F48009004F1730082B235900B38F3
:109B60003690B3B2B1B280B2FEF72BFF58480090E6
:109B70001D9883B2229882B21D9881B2229880B239
:109B8000FEF71FFF524800901D9883B2359882B2AD
:109B90001D9881B2369880B2FEF713FF4C480090B2
:109BA0001F9883B204F1740082B237901A9881B280
:109BB000369880B2FEF7D3FE45480090089883B2ED
:109BC000379882B21F9881B204F16700369080B254
:109BD000FEF7C5FE3E480090089883B2349882B2E2
:109BE000089881B204F16600229080B2FEF7E9FE87
:109BF000374800902F9883B2349882B22F9881B260
:109C0000369880B2FEF7DDFE3148009034981FFA96
:109C100088F382B222981FFA88F180B2FEF7D1FE53
:109C20002B4800900A981FFA8AF183B2349882B2C6
:109C300004F16500229080B2FEF791FE2448009066
:109C40001E9883B2339882B20A9881B2229880B269
:109C5000FEF785FE1E480090069883B2339882B2C4
:109C60001E9881B204F1640080B2FEF778FE1848B5
:109C70000090129883B204F1700082B23690069878
:109C800081B204F16300229080B2FEF768FE1048B2
:109C90000090129883B23E9882B2129881B22298B4
:109CA00080B2FEF78EFE0A4800900E9883B23B9871
:109CB00082B2299881B204F162003B9080B2FEF733
:109CC0004EFE034800900E9883B204F16D0001E04F
:109CD000F352030082B222900E9881B23B9880B278
:109CE000FEF76FFEFE480090139883B2229882B26E
:109CF000139881B204F161003B9080B2FEF761FEDF
:109D0000F7480090259883B2229882B20F9881B2CA
:109D10003B9880B2FEF723FEF14800900C9883B286
:109D200004F16C0082B20F90259881B204F16000BA
:109D300080B2FEF714FEEA480090681C83B20F98C8
:109D400082B20C9881B204F15F0080B2FEF707FE88
:109D5000E348009004F18A0082B22290A5F1380114
:109D60000B388BB23E9089B280B2FEF72AFEDC48F7
:109D700000903C9883B204F18B0082B23B903D98F6
:109D800081B204F17E003D9080B2FEF7E8FDD44838
:109D900000903A9883B2229882B23C9881B23D9862
:109DA00080B2FEF7DCFDCE480090399883B204F112
:109DB000890082B249903A9881B204F17D003A90CC
:109DC00080B2FEF7CCFDC6480090399883B204F10A
:109DD000880082B24690399881B204F17C000F90DD
:109DE00080B2FEF7EEFDBE480090389883B204F1D1
:109DF000870082B24590389881B20F9880B2FEF702
:109E0000E0FDB7480090319883B2469882B231980D
:109E100081B20F9880B2FEF7D4FDB148009030981F
:109E200083B2459882B2309881B20F9880B2FEF723
:109E3000C8FDAB4800902D9883B2469882B22E9808
:109E400081B204F17B00399080B2FEF788FDA4480E
:109E500000901C9883B2459882B22D9881B23998AF
:109E600080B2FEF77CFD9E4800902C9883B204F1EE
:109E7000A40082B22D902C9881B204F19900389000
:109E800080B2FEF79EFD96480090109883B204F1D0
:109E9000A30082B22E90109881B204F197004390F3
:109EA00080B2FEF78EFD8E4800901C9883B204F1BC
:109EB000860082B248901C9881B204F17A000F901B
:109EC00080B2FEF77EFD864800901C9883B204F1B4
:109ED000A10082B230901C9881B204F196004790A4
:109EE00080B2FEF76EFD7E4800904898B3B282B211
:109EF000219881B20F9880B2FEF731FD784800902A
:109F0000219883B204F1A00082B23190219881B2ED
:109F100004F194004C9080B2FEF753FD704800901D
:109F2000119883B204F19E0082B2119881B204F1BB
:109F3000930080B2FEF745FD6948009048981FFAEB
:109F400089F382B204F179004490B1B280B2FEF795
:109F500006FD6348009004F19D0082B20B38B3B255
:109F6000B1B280B2FEF72DFD5D4800901D9883B21E
:109F700004F19B0082B241901D9881B204F19100DE
:109F80003C9080B2FEF71DFD554800901A9883B2B0
:109F900004F19A0082B23F901A9881B204F18F00C6
:109FA000409080B2FEF70DFD4D48009004F1840012
:109FB00082B24A900C380F901FFA89F31FFA89F188
:109FC00080B2FEF7FEFC4648009038981FFA89F3ED
:109FD00082B204F18D0042901FFA89F180B2FEF73F
:109FE000F0FC3F480090199883B24A9882B21998C1
:109FF00081B2449880B2FEF7E4FC39480090199889
:10A0000083B2439882B2199881B204F18C004490D3
:10A0100080B2FEF7D6FC324800901F9883B24A986F
:10A0200082B21F9881B20F9880B2FEF7CAFC2C480A
:10A0300000901F9883B2479882B21F9881B22298ED
:10A0400080B2FEF7BEFC26480090329883B204F13D
:10A05000830082B24B90329881B20F9880B2FEF7A3
:10A06000B0FC1F480090329883B204F1950082B290
:10A070000390329881B2499880B2FEF7A2FC18484A
:10A0800000904B98BBB282B204F177003290B9B223
:10A0900080B2FEF796FC124800900398BBB282B2E1
:10A0A0004598B9B280B2FEF78CFC0D480090089834
:10A0B00083B204F1820082B2089881B2329880B2F1
:10A0C000FEF77FFC06480090089883B2039882B29E
:10A0D000089881B2489880B2FEF773FC004801E00E
:10A0E000F352030000902F9883B2039882B22F9806
:10A0F00081B2329880B2FEF764FCFE4800904C9822
:10A100001FFA88F382B204F1760032901FFA88F1C8
:10A1100080B2FEF756FCF748009003981FFA8AF3C6
:10A1200082B232981FFA8AF180B2FEF74AFCF148F7
:10A1300000902A9883B2039882B22A9881B232980A
:10A1400080B2FEF73EFCEB4800900A9883B2039879
:10A1500082B20A9881B204F175002F9080B2FEF7A6
:10A1600030FCE448009046981FFA8BF382B2329894
:10A170001FFA8BF180B2FEF724FCDE4800900398B2
:10A180001FFA8BF382B222981FFA8BF180B2FEF78E
:10A1900018FCD84800901E9883B2459882B21E9849
:10A1A00081B22F9880B2FEF70CFCD24800901E9826
:10A1B00083B2039882B21E9881B2229880B2FEF7D1
:10A1C00000FCCC480090099883B2489882B2099864
:10A1D00081B22F9880B2FEF7F4FBC6480090099830
:10A1E00083B2479882B2099881B2229880B2FEF772
:10A1F000E8FBC0480090059883B24A9882B205985F
:10A2000081B2379880B2FEF7DCFBBA48009005981F
:10A2100083B2479882B2059881B2229880B2FEF745
:10A22000D0FBB4480090069883B24B9882B206984F
:10A2300081B2379880B2FEF7C4FBAE480090069812
:10A2400083B2439882B2069881B2229880B2FEF718
:10A25000B8FBA84800901B9883B204F1810082B239
:10A260001B9881B2379880B2FEF7ABFBA1480090F3
:10A270001B9883B2439882B21B9881B2229880B215
:10A28000FEF79FFB9B480090169883B204F1800074
:10A2900082B20F90169881B2379880B2FEF791FB88
:10A2A00094480090169883B2439882B2169881B26F
:10A2B000229880B2FEF785FB8E4800902B9883B2DF
:10A2C0000F9882B2129881B2359880B2FEF747FBA0
:10A2D000884800902B9883B23D9882B22B9881B227
:10A2E000359880B2FEF76DFB82480090279883B2C4
:10A2F0003E9882B20E9881B2349880B2FEF72FFB5E
:10A300007C480090279883B23A9882B2279881B20D
:10A31000349880B2FEF755FB76480090159883B2CA
:10A320003D9882B2209881B2339880B2FEF717FB35
:10A3300070480090159883B23A9882B2159881B20D
:10A34000369880B2FEF73DFB6A4800903A982B465B
:10A3500082B2249881B2369880B2FEF700FB65483D
:10A36000009039982B4682B23698194680B2FEF793
:10A3700028FB604800902B9883B204F1980082B2C9
:10A38000129881B23B9880B2FEF7E9FA59480090E2
:10A39000139883B2389882B22B9881B23B9880B2DE
:10A3A000FEF7DDFA53480090209883B2389882B2C5
:10A3B000139881B2449880B2FEF7D1FA4D480090CC
:10A3C000159883B23F9882B2209881B2449880B2A7
:10A3D000FEF7C5FA474800900C9883B2419882B2C4
:10A3E000159881B2449880B2FEF7B9FA41480090BE
:10A3F0000C9883B23F9882B20C9881B2429880B296
:10A40000FEF7DFFA3B480090239883B23F9882B270
:10A41000239881B2409880B2FEF7D3FA3548009075
:10A420003F982B4682B23C98194680B2FEF7C9FA93
:10A43000304800902C9883B204F1CF0082B22B9068
:10A440002C9881B204F1AD00229080B2FEF7B9FAE7
:10A4500028480090109883B204F1D10082B22C9069
:10A46000109881B204F1AB000F9080B2FEF7A9FA08
:10A47000204800901C9883B22C9882B21C9881B21C
:10A4800004F1A90080B2FEF79CFA1A4800902198C6
:10A4900083B204F1D20082B21090219881B204F10B
:10A4A000A80080B2FEF78DFA12480090119883B28E
:10A4B00004F1B30082B2119881B204F1A70080B216
:10A4C000FEF77FFA0B480090119804F1C60583B29D
:10A4D000109882B2119881B2A8B2FEF772FA0548BC
:10A4E000009004F1B20082B22F900C38B3B2B1B236
:10A4F000329001E0F352030080B2FEF762FAFE48A8
:10A50000009004F1D30082B221900C380E90B3B2C7
:10A51000B1B280B2FEF755FAF74800901D9804F1E9
:10A52000B10683B281B23298B2B280B2FEF749FA74
:10A53000F14800901D9883B2219882B21D9881B293
:10A54000A8B2FEF73EFAEC4800901A98B2B283B275
:10A5500081B204F1A500189080B2FEF732FAE64805
:10A5600000901A9883B2219882B21A9881B2A8B248
:10A57000FEF727FAE048009018981FFA89F3B2B264
:10A580001FFA89F180B2FEF71CFADB4800901098A0
:10A590001FFA89F382B21FFA89F1A8B2FEF711FA05
:10A5A000D54800901998B2B283B281B2189880B29F
:10A5B000FEF707FAD0480090199883B2109882B23B
:10A5C000199881B2A8B2FEF7FCF9CB4800902F98F9
:10A5D000BBB282B21F9881B22D9880B2FEF7BFF94C
:10A5E000C54800902198BBB282B21F9881B2681E04
:10A5F0000D9080B2FEF7B3F9BF480090701E82B292
:10A600002D98BBB2B9B280B2FEF7DBF9BA48009020
:10A610002C98BBB282B20D98B9B280B2FEF7D1F9D4
:10A62000B548009008981FFA88F381B22E98B2B20C
:10A6300080B2FEF794F9B048009010981FFA88F3A2
:10A6400082B2089881B2A81E089080B2FEF787F9FE
:10A65000A94800902E98B61E1FFA88F3B2B21FFACE
:10A6600088F180B2FEF7ADF9A348009008980A354A
:10A670001FFA88F3AAB21FFA88F180B2FEF7A1F997
:10A680009D4804F1A20900901FFA8AF3B2B21FFAA2
:10A690008AF11FFA89F0FEF794F99748009008981C
:10A6A0001FFA8AF3AAB21FFA8AF180B2FEF789F97B
:10A6B0009148771E00901FFA8AF3BAB21FFA8AF106
:10A6C0001FFA89F0FEF77DF98B48009004F1C30072
:10A6D0000B901FFA8AF3AAB21FFA8AF180B2FEF732
:10A6E00070F9854800902A98B2B283B281B21FFAFD
:10A6F00089F0FEF766F92A987F4D83B22B98009572
:10A7000082B22A9881B20B9880B2FEF75AF900956E
:10A710000A98BAB283B281B21FFA89F0FEF751F9F2
:10A7200000950A9883B22B9882B20A9881B20B984E
:10A7300080B2FEF746F930981FFA8BF3BAB21FFACF
:10A740008BF1009580B2FEF73CF92B98133682B25C
:10A750001FFA8BF300951FFA8BF1B0B2FEF731F9B7
:10A7600000951E98BAB283B281B2309880B2FEF7DB
:10A7700028F900951E9883B22B9882B21E9881B258
:10A78000B0B2FEF71EF90998009583B2229882B202
:10A79000099881B2309880B2FEF713F909982037F2
:10A7A00083B281B20095BAB2B0B2FEF70AF9009551
:10A7B000059883B2229882B2059881B2319880B20E
:10A7C000FEF7FFF800950598BAB283B281B2B0B235
:10A7D000FEF7F7F80698009583B2229882B20698A1
:10A7E00081B2319880B2FEF7ECF8069804F1C10A04
:10A7F00083B281B20095BAB21FFA8AF0FEF7E1F88F
:10A800001B98163E83B281B231980095B2B280B2E5
:10A81000FEF7D7F81B98009583B281B2BAB21FFA3F
:10A820008AF0FEF7CEF8169804F19F0883B281B241
:10A830000095B2B21FFA88F0FEF7C3F8169800959B
:10A8400083B281B2BAB21FFA8AF0FEF7BAF8129850
:10A85000009583B281B23198B2B280B2FEF7B1F8FE
:10A8600012987F1E83B281B20095BAB21FFA8AF0A5
:10A87000FEF7A7F81398009583B22998B2B281B277
:10A880001FFA88F0FEF76BF8299804F1C00A83B22A
:10A8900081B20095BAB21FFA8AF0FEF792F81398C7
:10A8A000009583B22898BAB281B21FFA8AF0FEF7F7
:10A8B00056F82098009583B20F9882B2139881B20F
:10A8C0001FFA88F0FEF74BF82798009583B2781EA0
:10A8D00082B2139881B204F1BF0080B2FEF73FF854
:10A8E0002798009583B2F81E82B2279881B204F1AE
:10A8F000BE0080B202E00000F3520300FEF761F8F0
:10A900002098009583B281B2B2B21FFA88F0FEF7A8
:10A9100058F820981D3683B281B204F1BC0000952E
:10A92000B2B280B2FEF74DF82698009583B281B29C
:10A93000B2B21FFA88F0FEF744F82598C83483B203
:10A9400081B231980095A2B280B2FEF73AF815981C
:10A95000009583B20E9882B2159881B2309880B279
:10A96000FEF72FF82498009583B20D9882B22498B0
:10A9700081B21FFA89F0FEF724F80C98009583B293
:10A98000089882B20C9881B22E9880B2FEF719F81E
:10A990000095239883B20B9882B2239881B22D98A8
:10A9A00080B2FEF70EF84DB0BDE8F08F38B5054621
:10A9B0004FF05014E4234FF4C872D02103200094C8
:10A9C000FDF7CDFF002D0ED0012D0CD1FD48FF214C
:10A9D0000023C0E9001401B0D021BDE83040FAA244
:10A9E0000320FEF72FBB38BD2DE9F84F0024A24607
:10A9F0004FF04C0940F20F18FE4F4FF04E0BFE483F
:10AA0000009004EB4401A00001EB041100EB810075
:10AA100004EB840509EB051680B2B2B24346E4218B
:10AA2000FDF79DFF012000EB0510E323B2B280B2D9
:10AA300019460097FDF7C5FFB2B2B0B24346E32115
:10AA40000097FDF7BEFF4D2000EB051082B2564681
:10AA500080B24346E321CDF800A0FDF7B2FF0BEB37
:10AA6000051082B280B24346E3210096FDF7A9FFAC
:10AA70004F2000EB051082B280B24346E3210096DE
:10AA8000FDF79FFF641C062CB9D3BDE8F88F10B505
:10AA9000FFF7AAFFCB48D849002341606FF07F4100
:10AAA0000160D6A2F1215420FEF7CCFA0023F12157
:10AAB000BDE81040D3A2A420FEF7C4BA10B5FFF73A
:10AAC00093FFC048CC49002341606FF07F41016093
:10AAD000F121BDE81040CCA25420FEF7B3BA10B566
:10AAE000FFF782FFB748C449002341606FF07F4100
:10AAF0000160F121BDE81040C4A25420FEF7A2BAC3
:10AB000010B5FFF771FFAF48BB49002341606FF0FC
:10AB10007F410160F121BDE81040BDA25420FEF745
:10AB200091BA10B5FFF760FFA648B3490023416012
:10AB30006FF07F410160F121BDE81040B5A25420C3
:10AB4000FEF780BA10B5FFF74FFF9E48AA490023D1
:10AB500041606FF07F410160F121BDE81040AEA27D
:10AB60005420FEF76FBA10B5FFF73EFF9548A24993
:10AB7000002341606FF07F410160F121BDE810408A
:10AB8000A6A25420FEF75EBA10B5FFF72DFF8D4840
:10AB90009949002341606FF07F410160F121BDE8D8
:10ABA00010409FA25420FEF74DBA10B5FFF71CFFCE
:10ABB00084489149002341606FF07F41016094A275
:10ABC000F1215420FEF73EFA0023F121BDE81040A8
:10ABD00095A2A420FEF736BA2DE9F0470446FFF708
:10ABE00003FF78488449914E41606FF07F41002C0B
:10ABF00006F118054FF4D1794FF0710A01604FF05A
:10AC0000000404D037461E364FF06C082EE04F4645
:10AC1000D04601E0042C11D004EB440006EB4002C6
:10AC200004EB840108EB01100023F121FEF70AFA7E
:10AC3000641CE4B2052CEDD3BDE8F0872A46384603
:10AC4000F2E7042C0ED08CB1032C14D004EB44009A
:10AC500007EB400204EB84010AEB01100023F12111
:10AC60001E320EE005F11E02484601E03246404623
:10AC70000023F12105E06D4A4FF4A7703032002324
:10AC8000F121FEF7DFF9641CE4B2052CD9D3D3E738
:10AC900010B5FFF7A9FE4B485749002341606FF0FC
:10ACA0007F41016062A2F1215420FEF7CBF900231D
:10ACB000F121BDE810405FA2A420FEF7C3B910B592
:10ACC000FFF792FE3F484C49002341606FF07F41FF
:10ACD0000160F121BDE8104057A25420FEF7B2B93F
:10ACE00010B5FFF781FE37486FF07F4140F2431403
:10ACF0000160414941605148D0F8D01201291BD070
:10AD000000292ED100234EA2F2215320FEF79AF9FA
:10AD100000234EA2F221A320FEF794F900234EA2B5
:10AD2000F221F320FEF78EF900234EA22046BDE863
:10AD30001040F221FEF786B900234DA2F2215320E4
:10AD4000FEF780F900234DA2F221A320FEF77AF945
:10AD500000234CA2F221F320FEF774F900234BA24A
:10AD6000E4E710BD70B5FFF73FFE16486FF07F4176
:10AD700040F24314016020494160304840F293158D
:10AD8000D0F8D01201291BD000291AD100232CA2FF
:10AD9000F2215320FEF756F900232CA2F221A32022
:10ADA000FEF750F900232CA2F221F320FEF74AF916
:10ADB00000232CA2F2212046FEF744F900236BE089
:10ADC00071E08FE010000010C7EBC8B7C8CFB1BB6F
:10ADD000B2E2B5E7B3D8D3D0B9FDB3E4B1A3BBA415
:10ADE000B9A6C4DCD4D9BDF8D0D0B4CBCFEEB2E292
:10ADF000CAD4000068436900380031006D73656390
:10AE00000000000073656300560000004100000070
:10AE1000730000006D7300006DA6B8006BA6B8004B
:10AE200053746570730000006D696E00E92E0300B5
:10AE3000487A00004B487A002A31000020050010B3
:10AE4000C4DAD7E8B2E2CAD400000000B3CCBFD85D
:10AE5000B8BAD4D800000000B3CCBFD8B5E7D4B49A
:10AE600000000000C1D0B1EDB2E2CAD40000000081
:10AE7000492E522054455354000000004C4F414489
:10AE800000000000504F5745520000004341504120
:10AE90004349545900000000FEA22846BDE8704016
:10AEA000F221FEF7CFB80023AFF23C02F22153208B
:10AEB000FEF7C8F80023AFF23C02F221A320FEF710
:10AEC000C1F80023AFF24402F221F320FEF7BAF8F2
:10AED0000023AFF24802F2212046FEF7B3F8002328
:10AEE000EFA2DAE770BD10B5FFF77EFDEE486FF018
:10AEF0007F410160ED494160ED48D0F8D002012862
:10AF000018D0002831D10023AFF2CC02F221532017
:10AF1000FEF798F80023AFF2CC02F221A320FEF74F
:10AF200091F80023AFF2D002F221F320BDE81040E7
:10AF3000FEF788B80023AFF2C802F2215320FEF7D3
:10AF400081F80023AFF2CC02F221A320FEF77AF8B9
:10AF50000023AFF2D002F221F320FEF773F80023B2
:10AF6000D4A2F22140F24310E0E710BD10B5FFF784
:10AF70003BFDCD486FF07F410160CC494160CC483A
:10AF8000D0F8D002012816D0002826D10023CBA269
:10AF9000F221A320FEF756F80023CAA2F221F320E3
:10AFA000FEF750F80023CAA2F2214FF4A670BDE8C4
:10AFB0001040FEF747B80023C7A2F221A320FEF7F6
:10AFC00041F80023C6A2F221F320FEF73BF800234C
:10AFD000C5A2F22140F24310E9E710BD10B5FFF71A
:10AFE00003FDB1486FF07F410160B0494160B04856
:10AFF000D0F8D002012816D0002826D10023BCA208
:10B00000F221A320FEF71EF80023BBA2F221F320B9
:10B01000FEF718F80023AEA2F2214FF4A670BDE8A7
:10B020001040FEF70FB80023B5A2F221A320FEF7CF
:10B0300009F80023A8A2F221F320FEF703F8002369
:10B04000A9A2F22140F24310E9E710BD2DE9F84F23
:10B050000646DFF8B4924FF4F07ACA2352465C21D8
:10B060000020CDF80090FDF77AFC06EB460000EBDF
:10B07000C6015C2000EB41056FF07F4400222B46A7
:10B08000462110460094FDF79CFC28222B464621C1
:10B0900010460094FDF795FC50222B4646211046A1
:10B0A0000094FDF78EFC01274FF0500807EB870155
:10B0B00008EB01122B46104646210094FDF781FC57
:10B0C0007F1CFFB2052FF1D300254627B61C0DE0EB
:10B0D00005EB450000EBC50007EB4003194652465F
:10B0E00000200094FDF76DFC6D1CEDB2B542EFD36E
:10B0F0006D496F4840F24314C1F80490D0F8D01263
:10B1000040F2931501292ED0002953D100237FA2AC
:10B1100049210320FDF796FF00237EA249212B2021
:10B12000FDF790FF00237DA249215320FDF78AFF00
:10B1300000237CA24921A320FDF784FF00237BA2EA
:10B140004921F320FDF77EFF00237BA24921204601
:10B15000FDF778FF00237BA201B02846BDE8F04F41
:10B160004921FDF76FBF002378A249210320FDF795
:10B1700069FF002376A249212B20FDF763FF0023FE
:10B1800075A249215320FDF75DFF002374A24921D8
:10B19000A320FDF757FF002373A24921F320FDF7F9
:10B1A00051FF002372A249212046FDF74BFF0023E7
:10B1B00071A2D1E769E42DE9F84F0646DFF848911E
:10B1C0004FF4F07ACA2352465C210020CDF800905B
:10B1D000FDF7C5FB06EB460000EBC6015C2000EB6B
:10B1E00041056FF07F4400222B4646211046009413
:10B1F000FDF7E7FB28222B46462110460094FDF779
:10B20000E0FB50222B46462110460094FDF7D9FB67
:10B2100001274FF0500807EBC70000EB071108EBC0
:10B2200081022B46104646210094FDF7CAFB7F1C85
:10B23000FFB2042FEFD300254627B61C0EE000BF57
:10B2400005EB450000EBC50007EB400319465246ED
:10B2500000200094FDF7B5FB6D1CEDB2B542EFD3B5
:10B260001149134840F21B14C1F80490D0F8D012D1
:10B2700040F27F1501290BD000290AD1002323A217
:10B2800049210320FDF7DEFE002322A2492177E0B9
:10B2900094E0B8E0CFB5CDB3C9E8D6C30000000054
:10B2A000535953534554200010000010380031000A
:10B2B00020050010434F4D5000000000CFC2D2BB0C
:10B2C000B2BD0000B2E2CAD4BDE1B9FB000000008B
:10B2D00020B7B5BBD80000004E4558540000000010
:10B2E000524553554C5400004241434B000000006E
:10B2F000C9CFD2BBD2B30000CFC2D2BBD2B3000001
:10B30000505245560000000034346500D0F2BAC5F2
:10B3100000000000CFEEC4BF00000000B2CECAFDA6
:10B3200031000000B2CECAFD32000000BDD8D6B94F
:10B33000B5E7D1B900000000BDD8D6B9B5E7C1F76F
:10B3400000000000CAB1BCE4000000004E4F000045
:10B350004D4F444500000000504152413100000073
:10B360005041524132000000434F46465600000013
:10B37000434F46464300000054494D45000000003D
:10B380002B20FDF75FFE0023FEA249215320FDF78D
:10B3900059FE0023FDA24921B720FDF753FE0023EB
:10B3A000FCA249212046FDF74DFE0023FCA201B07E
:10B3B0002846BDE8F04F4921FDF744BE0023AFF217
:10B3C000740249210320FDF73DFE0023AFF2800205
:10B3D00049212B20FDF736FE0023AFF284024921DC
:10B3E0005320FDF72FFE0023AFF28C024921B72036
:10B3F000FDF728FE0023EDA249212046FDF722FE9D
:10B400000023ECA2D3E7D5E610B50446FFF7ECFA2B
:10B41000EA49EB48EB4A6FF07F43BCB1C1E9003029
:10B42000012C3BD0D2F8D002012866D000286DD183
:10B430000023E5A2F2215320FDF704FE0023E4A23D
:10B44000F221A320BDE81040FDF7FCBDC1E90030AA
:10B45000D2F8D002012812D0002857D10023DEA252
:10B46000F2215320FDF7EEFD0023DEA2F221A320FE
:10B47000FDF7E8FD0023DEA2F221FC20E2E7002335
:10B48000DDA2F2215320FDF7DDFD0023DCA2F22135
:10B49000A320FDF7D7FD0023DBA2EDE7D2F8D01201
:10B4A00040F29314012901D079B120E00023D8A201
:10B4B000F2215320FDF7C6FD0023D8A2F221A320DC
:10B4C000FDF7C0FD0023D8A20DE00023D8A2F22191
:10B4D0005320FDF7B7FD0023D8A2F221A320FDF7EA
:10B4E000B1FD0023D8A2F2212046FDF7ABFD0023D9
:10B4F000D7A2F22140F2BD10A4E70023D5A2F22189
:10B500005320FDF79FFD0023D4A299E710BD10B58D
:10B51000FFF76AFAA9486FF07F41AA4C0160A84979
:10B520004160D4F8D002012826D0002835D100236C
:10B53000CCA2E7215420FDF785FD0023CBA2FB21FF
:10B540005420FDF77FFDD4F8D0124FF4A2704FF4D1
:10B55000CA74012919D000291FD10023AFF270222B
:10B56000F121FDF76FFD0023AFF274222046BDE804
:10B570001040F121FDF766BD0023BEA2E721542053
:10B58000FDF760FD0023BDA2D9E70023BDA2F12194
:10B59000FDF758FD0023BDA2E8E710BD70B50446D5
:10B5A000FFF722FA8548864A86494FF4A2754FF480
:10B5B000CA766FF07F435CB3012C29D0C0E900321A
:10B5C000D1F8D002012865D000287DD10023B1A296
:10B5D000F1215420FDF736FD0023B0A2E721A4207D
:10B5E000FDF730FD0023AFA2FB21A420FDF72AFDCB
:10B5F0000023AFF20432F1212846FDF723FD00239A
:10B60000AFF20C323046BDE87040F121FDF71ABDB3
:10B61000C0E90032D1F8D00201281ED0002856D14E
:10B6200000239CA2F1215420FDF70CFD00239FA2D2
:10B63000E721A420FDF706FD002398A2FB21A4200A
:10B64000FDF700FD00239BA2E721F420FDF7FAFCA3
:10B650000023FB2191A2F420C8E7002397A2F12147
:10B660005420FDF7EFFC002396A2E721A420FDF76C
:10B67000E9FC002395A2FB21A420FDF7E3FC0023B5
:10B6800094A2E721F420FDF7DDFC0023FB218FA22B
:10B69000F4200FE0002389A2F1215420FDF7D2FC11
:10B6A00000238AA2E721A420FDF7CCFC00238BA273
:10B6B000FB21A420FDF7C6FC002372A2F12128463D
:10B6C000FDF7C0FC002300E001E070A29AE770BD26
:10B6D00010B50446FFF788F938493948394A6FF000
:10B6E0007F43ECB1C1E90030D2F8D002012C34D054
:10B6F000012843D0002842D100237AA2F22153200E
:10B70000FDF7A0FC00237AA2F221A320FDF79AFC0A
:10B7100000237AA2F221F320BDE81040FDF792BC8D
:10B72000C1E90030D2F8D00201280DD0002826D17E
:10B73000002329A2F2215320FDF784FC0023AFF25D
:10B74000AC42F221A320E7E700236FA2F2215320AD
:10B75000FDF778FC00236EA2F3E74FF4CA740128CA
:10B760000ED000280BD100236BA2E7215420FDF757
:10B7700069FC0023FB212FA25420D1E020E12EE11F
:10B78000F6E00000BDE1B9FB31000000BDE1B9FB0E
:10B7900032000000BDE1B9FB332020200000000092
:10B7A000BDE1B9FB34202020000000005245533198
:10B7B000000000005245533200000000100000104D
:10B7C00038003100200500102020C8A1CFFB200048
:10B7D0002020C8B7C8CF2000B2E2C1BFCFD4CABEB4
:10B7E00000000000B5B5BAC5CFD4CABE0000000045
:10B7F000B5B5BCC6CAFD00004D4541535345540084
:10B800004E6F2E4449535000434F554E5420000074
:10B8100046494C452053455400000000536176656D
:10B8200044617461000000004D4F5245000000006B
:10B83000CEC4BCFEB9DCC0ED00000000B1A3B4E68C
:10B84000CAFDBEDD00000000B8FCB6E0000000004C
:10B85000322F320043414E43454C2000434F4E4669
:10B8600049524D00C7E5B3FD00000000B1EDB8F14D
:10B8700000000000434C4541000000004C49535477
:10B88000000000004C617374205000004E65787415
:10B8900020500000C9BEB3FDD0D00000D7D4B6AF51
:10B8A00000000000B8B4D6C600000000CFDFD0D43E
:10B8B00000000000B6D4CAFD0000000044656C52D0
:10B8C0006F7700004C494E450000000041544F5531
:10B8D000000000004C4F472000000000434F50592B
:10B8E00000000000B5E7D1B9D0A3D5FD00000000ED
:10B8F000B5E7C1F7D0A3D5FD00000000B5E7D7E854
:10B90000D0A3D5FD000000004D45414449535000EF
:10B910005359535345540000CEC4BCFE00000000F0
:10B92000FDF790FB0023F7A2E721A420FDF78AFB97
:10B930000023AFF29C62FB21A420FDF783FB0023D0
:10B94000F2A2F121F420FDF77DFB0023AFF2B862F3
:10B95000FB21F420FDF776FB0023AFF21412E72160
:10B960002046FDF76FFB0023EAA2FB212046D3E629
:10B970000023EAA2E7215420FDF764FB0023E9A29B
:10B98000FB215420FDF75EFB0023E8A2E721A42061
:10B99000FDF758FB0023E7A2FB21A420FDF752FB93
:10B9A0000023E6A2F121F420FDF74CFB0023E1A2E5
:10B9B000FB21F420FDF746FB0023AFF29412CEE703
:10B9C0000023E0A2F2215320FDF73CFB0023DFA27D
:10B9D000F221A320FDF736FB0023DEA29AE610BD7C
:10B9E000DE486FF07F410160DD494160DD48D0F8FD
:10B9F000D002012808D000280AD10023AFF2282263
:10BA0000F2215320FDF71EBB0023AFF20412F7E72B
:10BA1000704770B5D1486FF07F414FF48374016077
:10BA2000CF494160CF4840F29315D0F8D012012998
:10BA30001CD000292FD10023CBA2F2215320FDF7E7
:10BA400001FB0023AFF24C12F221A320FDF7FAFA1A
:10BA50000023C8A2F2212046FDF7F4FA0023C7A272
:10BA60002846BDE87040F221FDF7ECBA0023C6A2DB
:10BA7000F2215320FDF7E6FA0023C6A2F221A3200B
:10BA8000FDF7E0FA0023C6A2F2212046FDF7DAFA1C
:10BA90000023C5A2E4E770BD08B5C64800210090A8
:10BAA0001623D2220846FCF75AFF08BD08B5C24843
:10BAB0000090CD2340F2DF125C210020FCF74FFF05
:10BAC00008BD08B5BB48002100901623A0220846F7
:10BAD000FCF745FFFEF788FFBDE80840E6E708B53C
:10BAE000B448002100901623A0220846FCF737FF37
:10BAF000FEF77AFFB0480090CD2340F2DF124621D6
:10BB00000020FCF72CFF08BD2DE9F047FFF7D9FF17
:10BB1000924CA8486FF07F46924DC4E90060D5F87A
:10BB2000D002012801D018B109E00023A34A02E0A5
:10BB3000A24A0023F23A04210020FDF783FA4FF0D5
:10BB40005010C4E900609E4E00241A2706F5927931
:10BB50006FF0270801E0032C1BD2D5F8D002012892
:10BB600001D028B11AE004EB840006EB400203E0A8
:10BB7000C4EB041101EB090204EB440000EBC40028
:10BB800007EB400081B200234FEA0300FDF75AFAA9
:10BB900004E0D5F8D002012807D058B1641C042C69
:10BBA000D9D3BDE8F047FFF79BB804EB840006EB60
:10BBB000400203E0C4EB041101EB090204EB440072
:10BBC00000EBC40108EB410081B20023FA20DDE75D
:10BBD0002DE9F047FFF775FF604D76486FF07F4421
:10BBE000604EC5E90040D6F8D002012801D018B156
:10BBF0000AE00023714A02E0704A0023F23A04216D
:10BC000000201632FDF71EFA4FF05010C5E9004033
:10BC10006C4F00244FF01A0807F13C0A6FF0270917
:10BC200001E0032C1BD2D6F8D002012801D028B1A4
:10BC30001AE004EB840007EB400203E0C4EB0411BC
:10BC400001EB0A0204EB440000EBC40108EB4100E5
:10BC500081B200234FEA0300FDF7F4F904E0D6F8BF
:10BC6000D002012810D0A0B1641C062CD9D35248B0
:10BC70006860002354A2BA214FF4DD70FDF7E2F9A9
:10BC8000BDE8F047FFF72CB804EB840007EB400257
:10BC900003E0C4EB041101EB0A0204EB440000EBE7
:10BCA000C40109EB410081B20023FA20D4E72DE959
:10BCB000F041FFF706FF294D3E486FF07F44294EC3
:10BCC000C5E90040D6F8D002012801D018B10AE039
:10BCD00000233A4A02E0394A0023F23A04210020C4
:10BCE0002C32FDF7AFF94FF05010C5E900400024A9
:10BCF0001A2700E004D2D6F8D002012866D000B19D
:10BD00007AE069E0CFB5CDB300000000B9A4BEDF92
:10BD10000000000020322F320000000046494C4550
:10BD2000000000004D414E450000000053595320D3
:10BD3000000000005345542000000000544F4F4CB9
:10BD400000000000564F4C43616C00004374726C5D
:10BD500043616C0043757243616C00001000001079
:10BD60003800310020050010B5E7C8DDD0A3D5FDAF
:10BD700000000000CDCBB3F600000000C7E5B3FD26
:10BD8000D0A3D5FD000000004320436F727265749C
:10BD9000000000005220436F7272657400000000C2
:10BDA0004578697400000000436C6520436F72722F
:10BDB00000000000F3520300343465002F2C030010
:10BDC000F11C0300511E03006D414800FF4904EBC4
:10BDD000840001EB400204E0FC49C4EB04103C3158
:10BDE000421804EB440000EBC40007EB400081B2B2
:10BDF00000231846FDF726F9641C032CFFF47AAFE4
:10BE0000F3484FF00003AFF2400268604FF0BA0110
:10BE10004FF4DD70FDF716F9BDE8F041FEF760BFA5
:10BE20002DE9F047FFF75BFEEA4CEB486FF07F46E9
:10BE3000EA4DC4E90060D5F8D002012801D018B15C
:10BE40000AE00023E64A02E0E54A0023F23A042130
:10BE500000204232FDF7F6F84FF05010C4E90060C0
:10BE6000DA4E00241A27D236A6F13C096FF01108E9
:10BE700000E01AD2D5F8D002012801D020B119E093
:10BE8000C4EB0410821903E0C4EB041101EB0902B6
:10BE900004EB440000EBC40007EB400081B2002338
:10BEA0004FEA0300FDF7CEF804E0D5F8D0020128F0
:10BEB00007D050B1641C022CDBD3BDE8F047FFF77C
:10BEC00012B8C4EB0410821903E0C4EB041101EBB7
:10BED000090204EB440000EBC40108EB410081B20D
:10BEE0000023FA20DEE72DE9F84FBB4C0021162392
:10BEF000A02208460094FCF732FDB64F6FF07F4653
:10BF0000B64DC7E90064D5F8D002012801D018B1B8
:10BF10000AE00023B24A02E0B14A0023F23A0421C7
:10BF200000205832FDF78EF8DFF8B8920024B046B2
:10BF30004FF0501A1A26A9F5877B00BFC7E9008A7F
:10BF4000D5F8D002012801D028B113E0C4EB0411C8
:10BF500001EB090203E0C4EB041101EB0B0204EB5B
:10BF6000440000EBC40006EB400081B200231846F9
:10BF7000FDF768F8641C092CE0D30024D5F8D00242
:10BF8000012801D028B114E0C4EB041101EB09022F
:10BF900003E0C4EB041101EB0B0204EB440000EBE3
:10BFA000C40006EB400081B20023E8208732FDF791
:10BFB00049F8641C092CE1D3BDE8F84FFEF7D2BE66
:10BFC00008B583480090BE2340F2DF12A021002074
:10BFD000FCF7C5FC08BD08B57F480021009016237A
:10BFE000A0220846FCF7BBFCFEF7FEFCBDE80840BB
:10BFF000E6E738B5774D04464FF0501068607A4850
:10C00000012300EB8402C8211420FDF71BF87648B9
:10C0100001235C3000EB8402C8214FF48C70FDF7E3
:10C0200011F86B48686071480090372328227A2104
:10C030005020FCF781FE6E480090372328227A2199
:10C040007820FCF779FE6B480090372328227A216C
:10C050008C20FCF771FE38BD2DE9F047FFF7BBFFE0
:10C060005C4C5D486FF07F465C4DC4E90060D5F8DC
:10C07000D002012801D018B10AE00023584A02E09A
:10C08000574A0023F23A042100201632FCF7DAFF67
:10C090004FF05010C4E90060574E00241A27A6F153
:10C0A00030096FF0270801E0032C16D2D5F8D00232
:10C0B000012801D018B115E006EBC40201E009EB3C
:10C0C000C40204EB440000EBC40007EB400081B263
:10C0D00000231846FCF7B6FF04E0D5F8D00201288B
:10C0E0000CD070B1641C062CDED395F80C03FFF75E
:10C0F00080FFBDE8F0470020FFF786B906EBC402D9
:10C1000001E009EBC40204EB440000EBC40108EBBE
:10C11000410081B20023FA20DCE738B52C4C40F214
:10C12000DF15A0232A46562100200094FCF717FCB7
:10C13000E3232A46C12100200094FCF710FC38BDFF
:10C1400008B52548002100901623B2220846FCF7C6
:10C1500006FCFEF749FCBDE80840DEE70B46274930
:10C1600030B4085C183100EB4000441891B222460C
:10C1700098B230BC0023FCF765BF2DE9F05FFFF7F4
:10C18000DFFF144E14486FF07F44144DC6E90040A1
:10C19000D5F8D002012801D018B10AE00023104AD6
:10C1A00002E00F4A0023F23A042100202C32FCF76F
:10C1B00049FF4FF05019C6E90049114F00244FF0D4
:10C1C000BE08A7F1150A4FF6FF7B1FE0E71E03002C
:10C1D0003434650010000010F352030020050010F5
:10C1E0002F2C030003210300EC2403004150030023
:10C1F000846203009763030081290300402F03003A
:10C200004C2D0300012C07D0022C11D0D5F8D00200
:10C21000012828D058B336E0D5F8D002012801D043
:10C2200070B114E0FA1D404600231821FCF70AFF04
:10C23000D5F8D0124FF4B47001290AD059B125E0D5
:10C240000AF10702404600231821FCF7FBFE0224F6
:10C25000D8E7F74A01E0F64A153A002318210E32D2
:10C26000FCF7F0FE12E0C4EBC400C21903E0C4EB1B
:10C27000C40101EB0A0204EB84010BEA4110002324
:10C280001821FCF7DFFE641C032CBBD3D5F8140384
:10C29000012300EB400101EBC000E649C83542181C
:10C2A00018213C20FCF7CEFE2979002306222868BD
:10C2B000FCF764FF0123E04A1821FA20FCF7C2FED4
:10C2C000A868DE4900EB40004218012318214FF412
:10C2D000A070FCF7B7FED5F8440218224FF4A57100
:10C2E000C83DFFF73BFF0023D5A22C211846FCF7E1
:10C2F000FBFE0023D3A22C217820FCF7F5FE0023BF
:10C30000D2A22C21FA20FCF7EFFE0023D1A22C218F
:10C3100040F29D10FCF7E8FE0624DFF840834F460C
:10C320000AE000BFA4F10800052802D3A01F0828D6
:10C3300002D9C6F8048000E0776004EB840005EBC6
:10C34000C00151F8080C60B111F8041C0123062249
:10C35000FCF714FFC4EB0410203881B20123B64A65
:10C3600005E0C4EB0410203881B20123BCA2782080
:10C37000FCF7BAFE641C0F2CD4D3C6F80480D5F8A1
:10C38000640240B195F8681201230622FCF7F6FE1C
:10C390000123A94A01E00123B1A2C421FA20FCF73C
:10C3A000A3FE10240AE000BFA4F11200052802D366
:10C3B000801C082802D9C6F8048000E0776004EBEE
:10C3C000840005EBC001A1F58051D1F87C0E60B16D
:10C3D00091F8801E01230622FCF7D0FEC4EB041066
:10C3E000B63881B20123944A05E0C4EB0410B63894
:10C3F00081B201239AA2FA20FCF776FE641C192C64
:10C40000D2D3C6F80480C146D5F86402A84650B11C
:10C4100098F8541201230622D8F85002FCF7AEFE19
:10C420000123854A01E001238DA2C4217820FCF775
:10C430005BFE4D46B94601248B4F04E0E01E052803
:10C4400001D2756001E0C6F8049004EBC400C21983
:10C45000C4EB04102B3081B200230820093AFCF70A
:10C4600043FE641C0A2CE9D375607249D8F80C03AA
:10C47000783901EB80020023C4211846FCF734FE12
:10C4800000237AA2D4211846FCF72EFE002379A2BD
:10C49000D421F820FCF728FEBDE8F05F0020FEF76D
:10C4A000B3BF08B56D480090A02340F2DF12AF2162
:10C4B0000020FCF754FA08BD10B5FFF7EDFAFEF7BF
:10C4C00093FABDE81040ECE770B5FFF7F5FF6B4C51
:10C4D0006B486FF07F45C4E90050554A0023DB3AB2
:10C4E00004211846FCF7AEFD4FF05010C4E900508F
:10C4F0006448D0F8D002012801D078B120E00023B0
:10C5000061A21A211846FCF79DFD002360A230218C
:10C510002820FCF797FD002360A20DE0002361A214
:10C520001A211846FCF78EFD002360A23021282036
:10C53000FCF788FD002360A230218C20FCF782FDEF
:10C5400000235FA23021F020FCF77CFD00235EA2D7
:10C5500030214FF4AA70FCF775FD00235CA2302156
:10C560004FF4DC70FCF76EFDBDE870400020FEF774
:10C570004BBF08B5394800909A2340F2DF125A2188
:10C580000020FCF7ECF908BD08B53D4800210090FB
:10C590001623A8220846FCF7E2F9FEF725FABDE8C3
:10C5A0000840E6E72DE9F05FFFF7EEFF334D344832
:10C5B0006FF07F44334FC5E90040D7F8D00201281F
:10C5C00001D018B10AE00023424A02E0414A0023A8
:10C5D000F23A042100205832FCF734FD4FF0501697
:10C5E000C5E90046DFF8F090DFF8708000244FF0D6
:10C5F0001A0A6FF0270B00BFD7F8D002012801D02C
:10C60000A0B1A0E0032C0BD2E01E022802D2C5F894
:10C61000048000E06E6004EB840109EB410271E0EC
:10C62000A01F02285AD2C5F8048058E05CE0000040
:10C630004C2D0300C025030048530010252F030094
:10C6400042494E004C4F57205B465D0048494748E1
:10C650005B465D00434F554E540000003434650086
:10C660002D2D2D2D2D2D0000A01C03004155583AD5
:10C67000000000004F55543A000000001000001068
:10C68000F3520300200500104D657468203A000045
:10C69000467265715B487A5D000000004C65766CFF
:10C6A0005B565D00B7BDCABD203A0000C6B5C2CA20
:10C6B0005B487A5D00000000B5E7C6BD5B565D00D3
:10C6C00043705B465D000000445B205D000000009D
:10C6D000434D50002F2C0300F92903006E6004EB3A
:10C6E000840109EB410223E0032C15D2E01E02284D
:10C6F00002D2C5F8048000E06E60FC4804EB4401FF
:10C7000000EB810204EB440000EBC4010AEB4100A2
:10C7100081B20023184614E0A01F022802D2C5F8F7
:10C72000048000E06E60F14804EB440100EB8102FC
:10C7300004EB440000EBC4010BEB410081B2002389
:10C74000FA20FCF77FFC641C062CFFF455AFBDE813
:10C75000F05F0020FEF7BCBF2DE9F843E44EE54C46
:10C760004FF0501507467560D4F80C03E24900EB12
:10C77000C000421801231A21492004F54374FCF734
:10C7800061FCA068012300EB400101EBC000DB4924
:10C79000421830214920FCF755FCE068012300EBEA
:10C7A000400101EBC000D649421846214920FCF760
:10C7B00049FCA06B40F2431800EB400101EBC000C4
:10C7C000CF490023313142181A214046FCF73AFC88
:10C7D000E06B012300EB400101EBC000C849A4F568
:10C7E0004374AE31421830214046FCF72BFC3878B8
:10C7F000012822D028467560009058234FF4C47257
:10C8000044214FF4A170FCF7AAF8D4F8E000BC4D25
:10C8100000EB400101EBC000E7354219012346213E
:10C820004046FCF70FFCFEF7DFF83878012807D008
:10C83000BDE8F8430020FEF7E7BDFF207060DBE7AE
:10C840006FF07F403060AF48682770606D2600E071
:10C8500034B92A4638460023F121FCF7F3FB0124C2
:10C8600004EB440000EBC400421904EB840006EB27
:10C87000001080B20023F121FCF7E4FB641C022CC1
:10C88000E6D3BDE8F883F8B5994E04464FF0501052
:10C8900070602078012801D0706801E0FF2070608E
:10C8A000009028234FF4E672182140F2A310FCF701
:10C8B00056F89048924D0123D0F89C02E73500EBE2
:10C8C000400101EBC000421918214FF4D270FCF76F
:10C8D000B9FBFEF789F82078012804D0BDE8F840BC
:10C8E0000020FEF791BD6FF07F40306085486827DB
:10C8F00070606D2600E034B92A4638460023F121E5
:10C90000FCF7A0FB012404EB440000EBC400421937
:10C9100004EB840006EB001080B20023F121FCF749
:10C9200091FB641C022CE6D3F8BD2DE9F05F0124D5
:10C93000DFF8D491DFF8B8816E4D4FF4AD7B4FF046
:10C94000501A3326E71E042F02D2C8F8049001E0E3
:10C95000C8F804A095F8850300EB800004EB4000C4
:10C9600000EB800005EB8001D1F82005421C3DD092
:10C9700091F8241501230522FCF700FC634A06EB1D
:10C9800004110023F620FCF7AFFB95F8850300EBBC
:10C99000800004EB400000EB800005EB800101F516
:10C9A0008051D1F88805421C25D091F88C150123BF
:10C9B0000522FCF7E3FB554A06EB04110023584619
:10C9C000FCF792FB95F8850300EB800004EB400038
:10C9D000284400F5005090F8FB05FF2810D006EB26
:10C9E00004114FF0000380B149A20FE006EB0411DF
:10C9F000002348A2C6E706EB0411002345A2DEE7A8
:10CA000006EB0411002345A200E045A24FF4DF70BD
:10CA1000FCF76AFB042F02D2C8F8049001E0C8F8C2
:10CA200004A095F8850300EB800004EB4000284447
:10CA300090F885031E2804D906EB0411002335A2C3
:10CA400008E000EB400101EBC0002C49421806EB66
:10CA5000041100232620FCF747FB95F8850300EB23
:10CA6000800004EB4000284490F85704022804D9C1
:10CA700006EB0411002327A208E000EB400101EBC4
:10CA8000C0001F49421806EB041100239220FCF756
:10CA90002BFB95F88503012300EB800004EB40009D
:10CAA00003220021FCF76AFB06EB04110023174A5E
:10CAB0000820FCF719FB641CE4B20B2CFFF442AF16
:10CAC000BDE8F09F2DE9F84F05460078022829D0EF
:10CAD00002D9A878FEF762FD2878054C4FF0FF0BCD
:10CAE0004FF05017012820D021E00000B1290300A9
:10CAF000100000102005001014240300C0250300BE
:10CB00008327030038003100343465004853001097
:10CB1000500000002D2D2D2D000000002D000000E4
:10CB200046000000FEF7F3FCD6E7A878C8B1384607
:10CB3000676000902A235E221A213620FBF70FFF40
:10CB4000DFF80084D8F8C40200EBC000FE490023DF
:10CB500042181A213620FCF775FA2878022804D0EA
:10CB600006E05846C4F804B0E3E7A87800287CD073
:10CB700038466760009042231E2232210020FBF7D6
:10CB8000EEFE0023F1A232211846FCF75BFAC24602
:10CB90000326A146B8462878B04202D1A8780228D8
:10CBA0007ED0C9F8048000BFD9F80400009023208B
:10CBB00000EB0613132000EB06111F460C464FF442
:10CBC0009972FA20FBF7CBFEE87800EB800006EBC9
:10CBD000400000EB80010AEB8101D1F8F804421C0F
:10CBE0007DD091F8FC1401230522FCF7C7FAD84A3E
:10CBF00021460023FA20FCF777FA2878B04202D1C8
:10CC0000A87803286CD0C9F8048000BFD9F80400C4
:10CC100000903B4621464FF4C1724FF4A570FBF7DC
:10CC20009EFEE87800EB800006EB400000EB800100
:10CC30000AEB810101F58051D1F86005421C70D0EA
:10CC400091F8641501230522FCF798FAC04A2146A1
:10CC5000002300BF4FF4A570FCF746FA2878B042D5
:10CC600002D1A878042861D000E049E0C9F8048026
:10CC7000D9F8040000903B46214640F2DF124FF401
:10CC8000D270FBF76CFEE87800EB800006EB400109
:10CC900001EB0A0000F5005090F8F905FF2800E0CC
:10CCA00032E021464FF0000343D0AFF29C1200BFA8
:10CCB0004FF4D270FCF718FA2878B04201D1A87866
:10CCC00070B3C9F8048000BFD9F8040000903B4657
:10CCD00021467E222820FBF742FEE87801E016E09C
:10CCE0001AE000EB800006EB400101EB0A0090F82F
:10CCF0008303302823D921460023AFF2E81226E02F
:10CD00005846C4F804B035E7C9F804B04CE72146EA
:10CD10000023AFF200226DE7C9F804B076E700E027
:10CD20000AE021460023AFF2142293E7C9F804B0C9
:10CD30009EE7AFF22022BBE7C9F804B0C4E700EBDE
:10CD4000400101EBC00083494218214600232820FE
:10CD5000FCF7CAF92878B04202D1A87801281AD085
:10CD6000C9F80480D9F8040000903B462146C4224B
:10CD70007E20FBF7F4FDE87800EB800006EB400135
:10CD800001EB0A0090F85504022807D92146002338
:10CD9000AFF280220AE0C9F804B0E3E700EB4001FB
:10CDA00001EBC0006C494218214600237E20FCF7AD
:10CDB0009BF9C9F80480E878012300EB800006EBBA
:10CDC000400003220021801EFCF7D8F921460023F1
:10CDD0005F4A0820FCF788F9761CF6B20D2EFFF4A6
:10CDE000DAAEBDE8F88F2DE9F8435C4C4FF05016F1
:10CDF000054666600078FF27012800D167606068FB
:10CE000000902A2358221A213020FBF7A8FD4D4814
:10CE1000DFF84481012390F8840308F1FD0800EB5A
:10CE2000800101EB08021A213020FCF70BF9287869
:10CE300002281DD066606068009040231E223021C9
:10CE40000820FBF78CFD012340A230210820FCF7CD
:10CE5000F9F8FDF7C9FD2A7841486FF07F41012AB2
:10CE600008D0022A1AD06878BDE8F843FEF7CCBA99
:10CE70006760E0E7C4E90010002445465FF054060F
:10CE800004EB8400421906EB001080B20023F1216C
:10CE9000FCF7D8F8641C022CF2D3F2E4C4E90010C9
:10CEA000304D00244FF4A276C4EBC400421904EBC9
:10CEB000840006EB001080B20023F121FCF7C2F8D9
:10CEC000641C022CF0D3DCE42DE9F84305461D4830
:10CED000224C4FF05016D0F8500301280ED1214AB1
:10CEE0000123153A1746D2211E206660FCF7AAF8E6
:10CEF00001233A46D2219620FCF7A4F82878FF2790
:10CF000001287DD06660DFF86080002305220321C0
:10CF1000D8F80400FCF732F9606800902C23C02296
:10CF200018216720FBF71BFD0023094A1A216820FE
:10CF3000FCF788F801230DA21A21AC20FCF782F837
:10CF4000287815E020050010142403004E6F2E00F1
:10CF500048530010C0250300832703001000001071
:10CF6000380031008A280300603C001041000000B6
:10CF7000022875D06660002305220321D8F8180026
:10CF8000FCF7FCF8606800904223C0222E21672045
:10CF9000FBF7E5FC0023FE4A30216820FCF752F83D
:10CFA0000123AFF238023021AC20FCF74BF828788F
:10CFB000032857D06660002305220321D8F82C00EF
:10CFC000FCF7DCF8606800905823C02244216720F9
:10CFD000FBF7C5FC0023EE4A46216820FCF732F837
:10CFE0000123ECA24621AC20FCF72CF82878042879
:10CFF0003AD06660002303221946D8F8400000E0CA
:10D000002BE0FCF7BBF8606800902C2340F2C312C1
:10D01000182140F27110FBF7A2FC0023DC4A1A2110
:10D020004FF4B970FCF70EF80123DBA21A214FF47C
:10D03000D670FCF707F82878052817D0666028789E
:10D04000062815D0C4F80460FDF7CEFC2878002827
:10D0500010D8BDE8F843FDF743BE676053E7FFE72C
:10D06000676088E76760A6E76760C3E76760E6E731
:10D070006760E9E705E42DE9F84F0546C748C84C65
:10D080004FF05016D0F8500301280DD1C54A0123A6
:10D090001746D2211E206660FBF7D4FF01233A46D3
:10D0A000D2219620FBF7CEFF2878FF2701287CD0DD
:10D0B0006660606800902C23C02218216720FBF76F
:10D0C0004EFCDFF8E482DFF8E492002398F8C81001
:10D0D000682009EBC1021A21FBF7B4FF2878022867
:10D0E0006ED06660002305220321D8F8A400FCF767
:10D0F00045F8606800904223C0222E216720FBF78C
:10D100002EFC0023A24A30216820FBF79BFF01235D
:10D11000AFF2A8123021AC20FBF794FF2878042846
:10D1200050D06660002305220321D8F89000FCF758
:10D1300025F8606840F2C31A40F2711B00902C235E
:10D14000524618215846FBF70AFC0023904A1A2140
:10D150004FF4B970FBF776FF01238EA21A214FF42A
:10D16000D670FBF76FFF287805282DD06660002366
:10D1700005220321D8F8B800FCF700F86068009099
:10D18000422352462E215846FBF7E9FB0023804AF2
:10D1900030214FF4B970FBF755FF01237DA23021F8
:10D1A0004FF4D670FBF74EFF00E007E0FDF71CFCE4
:10D1B0002878022824D2DFE800F0090D676078E7BC
:10D1C00067608FE76760ADE76760D0E7BDE8F84F5D
:10D1D000FDF786BD6FF07F402060754860600024D9
:10D1E0004D46582604EB840006EB001005EBC40204
:10D1F00080B20023F121FBF725FF641C022CF1D340
:10D20000EFE52DE9F84FDFF8A0A106460525DAF88D
:10D210005C017278B0FBF5F1664F491D914201D96E
:10D220001E2006E0B0FBF5F105FB110000EB8000CD
:10D23000401DB870C0B2401F90FBF5F0C0B2FDF7C2
:10D24000BAFF0024DFF85881DFF86C914FF05F0BD4
:10D2500019E000BFC8F804907078002300EB80004C
:10D260002044022219461838FBF788FF04EB4400DB
:10D2700000EBC4010BEB410081B20123444A0320BF
:10D28000FBF7E0FE641CB878401F90FBF5F0A0426D
:10D29000E0D8DFF820B105240BF1360BB94613E1D5
:10D2A000B4FBF5F04349B4FBF5F7423131F8100017
:10D2B00001EB4701401E83B2B4FBF5F0B4FBF5F778
:10D2C00005FB104205FB17470BEB42023BF817002A
:10D2D000528831F8021C521E491C401CD8F80470B8
:10D2E00092B289B280B20097FBF739FBB4FBF5F03C
:10D2F00005FB1040C0B1B4FBF5F005FB1040012860
:10D3000068D0B4FBF5F005FB104002287ED0B4FBDA
:10D31000F5F005FB1040032879D0B4FBF5F005FBD0
:10D320001040042874D0CEE09AF8D508012813D113
:10D33000601FB0FBF5F2707800EB8000104400EB4A
:10D3400080021E4800EB8200D0F8940601283FD0EE
:10D350004FF47F40C8F80000601FB0FBF5F2707812
:10D3600000EB80001044504490F85501C0EBC00120
:10D370000E481E300A18B4FBF5F10E48423000EB9F
:10D38000410030F8020CC01C81B2B4FBF5F017E08C
:10D3900048530010560000006D7300002005001077
:10D3A0001000001075280300603C0010411D0300B0
:10D3B0003800310034000010343465004C45001052
:10D3C00005FB10433BF81300C01C80B2002378E03B
:10D3D000FF20BFE79AF8D508012813D1601FB0FBE2
:10D3E000F5F0727802EB8202104400EB8002FE48F6
:10D3F00000EB8200D0F8940601281FD04FF47F4044
:10D40000C8F80000601FB0FBF5F302E062E0ADE099
:10D41000D7E0727802EB8202134403EB0A0191F821
:10D42000551105290CD0B0FBF5F0104400EB80013C
:10D43000ED4800EB8100D0F8E4017AE0FF20DFE75F
:10D44000B0FBF5F11144E84B01EB810103EB8101E5
:10D45000D1F8E411B1F57A7F14D900BFB4FBF5F12E
:10D46000E24800EB410030F8020CC01C81B2B4FB72
:10D47000F5F005FB10423BF81200DDA2C01C80B2A3
:10D4800000231EE0B0FBF5F0104400EB800003EB3E
:10D490008000D0F8E40165E0FBF770FEB4FBF5F125
:10D4A000D248002300EB410030F8020CC01C81B2CE
:10D4B000B4FBF5F005FB10423BF81200CE4AC01C4D
:10D4C00080B2FBF7BFFD641C99F802008442FFF4B0
:10D4D000E7AE86E49AF8D518012913D1611FB1FB94
:10D4E000F5F1727802EB8202114401EB8102BE4930
:10D4F00001EB8201D1F8941601291ED04FF47F412F
:10D50000C8F80010621FB2FBF5F3717801EB8101DE
:10D510000B4403EB0A0090F855010528B2FBF5F027
:10D5200008440CD000EB8001AF4800EB8100D0F83C
:10D530001003002305220321AEE7FF21E0E700EB03
:10D540008003A94800EB8303D3F81033B3F57A7F47
:10D5500084D8B2FBF5F2114401EB810100EB8100AC
:10D56000D0F8100300230422012195E79AF8D5088A
:10D57000012813D1601FB0FBF5F0717801EB810138
:10D58000084400EB8001984800EB8100D0F8940635
:10D59000012814D04FF47F40C8F80000601FB0FB92
:10D5A000F5F17078002300EB8000084400EB800167
:10D5B0008D48042200EB8100D0F83C042AE0FF20D3
:10D5C000EAE79AF8D508012814D1601FB0FBF5F0FE
:10D5D000717801EB8101084400EB8001824800EB87
:10D5E0008100D0F89406012816D04FF47F4000BF88
:10D5F000C8F80000601FB0FBF5F07178002301EB64
:10D600008101084400EB80017748062200EB81008D
:10D61000D0F8680500213FE7FF20E9E72DE9F84F42
:10D6200007460078754E4FF050154FF0FF0801285F
:10D630003DD07560724C002303221946D4F85C017A
:10D64000FBF79CFD706800902C23C92218216720ED
:10D65000FBF785F90023684A1A216820FBF7F2FCE2
:10D660003878022826D02846756000904223C022D0
:10D670002E216720FBF773F994F86C01DFF884A181
:10D68000C0EBC00101EB0A02A34600233021682051
:10D69000FBF7D8FCD4F85C310520B3FBF0F253491A
:10D6A0007C784239521CA24208D923200EE0C6F8E9
:10D6B0000480BFE74046C6F80480D6E7B3FBF0F22B
:10D6C00000FB123202EB420200EB42008870C0B253
:10D6D0000625401F90FBF5F08946C0B2FDF7B6FC69
:10D6E000002419E0484870607878002300EB80003F
:10D6F000204402221946001FFBF740FD04EB4400C2
:10D7000000EBC4015F2000EB410081B201233A4AE3
:10D710000320FBF797FC641C99F80210491F91FB4A
:10D72000F5F1A142DED8797804296FD20524C4E14D
:10D730003878A04202D1C6F8048001E03248706017
:10D74000B4FBF5F005FB1040052861D0B4FBF5F003
:10D750002649B4FBF5FC31F81000401E83B2B4FB3F
:10D76000F5F005FB1042A1F11A0001EB4C01B4FBEE
:10D77000F5FC00EB420205FB1C4C928831F8021CC0
:10D7800000EB4C00521E491C4088D6F804C0401CD7
:10D7900092B289B280B2CDF800C000BFFBF7DFF8CB
:10D7A000B4FBF5F005FB104005284AD0B4FBF5F0BA
:10D7B00005FB104058B3B4FBF5F005FB1040012801
:10D7C000B4FBF5F07ED005FB10400228B4FBF5F069
:10D7D00079D005FB10400328B4FBF5F074D005FBAD
:10D7E0001040042871D067E14C450010760000100D
:10D7F0002D2D2D2D2D00000048530010100000107D
:10D80000603C0010511D0300343465005AE133E0E0
:10D81000B4FBF5F1FE4800EB41014988491E8BB28B
:10D82000B4FBF5F130F81100401C81B27068009033
:10D83000F7481A3842880088521E401C92B280B2C3
:10D84000ACE7601FB0FBF5F1787800EB8000014495
:10D8500001EB0B0090F86901C0EBC001ED480A181C
:10D86000B4FBF5F1EA4830F81100C01C81B2E84879
:10D870001A380088C01C43E0B4FBF5F17878002327
:10D8800000EB8000084400EB80010BEB81000522D7
:10D89000D0F80C010321FBF771FCB4FBF5F1DC4877
:10D8A000002300EB4100DC4A30F8020CC01C81B2BE
:10D8B000D7481A384088C01C80B2FBF7C3FBB4FBC2
:10D8C000F5F003E01FE05CE08EE0C0E0797801EB6A
:10D8D0008101014401EB0B00CE4990F868016231EF
:10D8E000C0EBC0004218B4FBF5F1C94800EB4100A1
:10D8F00030F8020CC01C81B2C5481A3840883EE09E
:10D9000080B20023D6E07978002301EB810108443E
:10D9100000EB80010BEB81000522D0F838020321D7
:10D92000FBF72CFCB4FBF5F1B948002300EB4100F8
:10D93000B94A30F8020CC01C81B2B5481A38808848
:10D94000C01C80B2FBF77EFBB4FBF5F0797801EBED
:10D950008101014401EB0B00AE4990F868018C3164
:10D96000C0EBC0004218B4FBF5F1A94800EB410040
:10D9700030F8020CC01C81B2A5481A3880883F30AC
:10D98000BEE77978002301EB8101084400EB8001B8
:10D990000BEB81000522D0F864030321FBF7EEFBBB
:10D9A000B4FBF5F19A48002300EB41009A4A30F8A5
:10D9B000020CC01C81B296481A38C088C01C80B2C4
:10D9C000FBF740FBB4FBF5F1914800EB410030F868
:10D9D000020CC01C81B28E481A38C0883F3080B219
:10D9E0000023AFF2506265E07978002301EB8101FA
:10D9F000084400EB80010BEB81000522D0F8900475
:10DA00000321FBF7BBFBB4FBF5F18148002300EBDE
:10DA10004100814A30F8020CC01C81B27C481A389F
:10DA20000089C01C80B2FBF70DFBB4FBF5F1784810
:10DA300000EB410030F8020CC01C81B274481A3867
:10DA400000893F3080B20023AFF6E02232E0B4FB21
:10DA5000F5F07978002301EB8101084400EB8001A7
:10DA60000BEB81000322D0F8BC051946FBF786FBBF
:10DA7000B4FBF5F16648002300EB4100664A30F83C
:10DA8000020CC01C81B262481A384089C01C80B2A6
:10DA9000FBF7D8FAB4FBF5F15D48002300EB410039
:10DAA0005EA230F8020CC01C81B259481A38408975
:10DAB0003F3080B2FBF7C6FA641C99F8020084423A
:10DAC000FFF436AEFCF790FF3878554A58246FF0D3
:10DAD0007F414FF4CA7705281ED220B1012841D0DA
