:020000040001F9
:10800000985A00101D920200259202002792020049
:10801000299202002B9202002D9202000000000023
:108020000000000000000000000000002F9202008D
:10803000319202000000000033920200A58B020082
:1080400037920200C38501004F8601005F86010060
:108050006F8601009BA30200379202003792020054
:1080600031A50200379202003792020037920200D7
:1080700037920200379202003792020037920200D4
:1080800037920200359002003792020037920200C8
:1080900037920200379202003792020037920200B4
:1080A0005FB70200379202009D90020037920200F3
:1080B0003792020037920200379202003792020094
:1080C0003792020037920200379202003792020084
:1080D0003792020037920200258301003792020096
:1080E00037920200DFF80CD014F09EFC00480047E5
:1080F0006B830100985A0010844840F20121C0F8B7
:108100008011C0F88411C0F88811C0F88C11C0F833
:108110009011C0F89411C0F89811C0F89C11C0F8E3
:10812000A011C0F8A411C0F8A811C0F8AC11C0F893
:10813000B011C0F8B411C0F8B811C0F8BC11C0F843
:10814000C011C0F8C411C0F8C811C0F8CC11C0F8F3
:10815000D011C0F8D411C0F8D811C0F8DC11C0F8A3
:10816000E011C0F8E411C0F8E811C0F8EC11C0F853
:10817000F011C0F8F411C0F8F811C0F8FC11C0F803
:108180000012C0F80412C0F80812C0F80C12C0F8AF
:108190001012C0F81412C0F81812C0F81C12C0F85F
:1081A0002012C0F82412C0F82812C0F82C12C0F80F
:1081B0003012C0F83412C0F83812C0F83C12C0F8BF
:1081C0004012C0F84412C0F84812C0F84C12C0F86F
:1081D0005012C0F85412C0F85812C0F85C12C0F81F
:1081E0006412C0F84011C0F84411C0F84811C0F83A
:1081F0005011C0F86011C0F87011C0F87411C0F8C7
:108200007811C0F87C1170472DE9F041DFF800814A
:10821000434653F8C40F40F40060186041F61F70E5
:10822000C3F818013B4C012222600026A660FFF72C
:1082300063FF394839490068B0FBF1F5D86B00B1EC
:108240006D084FF47A77B7FBF5F000F11301B1FB3D
:10825000F0F323630F236363A663E263B1FBF0F1E2
:10826000891C2164626400F13E01B1FBF0FCC4F89A
:1082700048C0B1FBF0FCC4F84CC02365B1FBF0F082
:108280006065A265A26240F20330C4F804014FF4B5
:108290008D40C4F80001C4F800016421002000F002
:1082A0003DF940F283102062C821002000F036F929
:1082B00040F203102062022060620020401C8028EF
:1082C000FCD340F2E7104543B5FBF7F080B26062A3
:1082D00083202062124800682662D4F8000140F42E
:1082E0000020C4F800010121002000F017F901214D
:1082F000002000F013F9D8F8DC0120F01F0040F056
:108300001100C8F8DC01BDE8F081000000C00240A7
:1083100000C00F4000C009209802001040420F002A
:10832000004006A010B501221321002011F0F4F83E
:10833000002819D06FF07F40401EFDD1724873496C
:1083400002781AB100220270132002E001220270AA
:10835000022008604FF40021002011F0FDF8BDE874
:108360001040262000F0B4B810BD002011F0DBF959
:10837000674905464FF4C030002408601D2000F016
:108380009CF862B64FF47A70B5FBF0F00026401E00
:10839000B0F1807F0CD220F07F404FF0E025401EEE
:1083A00068611F21681700F09EF8AE610720286100
:1083B0000122D5042946002011F091F80121262040
:1083C00000F091F8262000F078F810F098FD10F0F9
:1083D00015FD11F03AFF4C480670042012F053F8D6
:1083E00012F06EFA10F03BFE10F089FD10F0DBFC8D
:1083F000FFF70AFF002000F0E7F946480021406936
:1084000000F00BFA012000F0DFF9002010F053FD1E
:10841000262000F05DF810F0B2FC2946002011F093
:108420009BF83A4D13204FF05016286010F0D7FDFE
:10843000FF2803D0641C022C02D004E0002402E0D8
:10844000304600F0BBFA2868801E1228EED2DFE822
:1084500000F00A09090910181B1E2109090909243D
:108460002709092AE2E7002000F0A8FA0BF044FDF2
:10847000DCE7304600F0A2FA10F0B5FB0DF0A1FDEC
:10848000D4E70BF0E1FFD1E70CF09CF9CEE70CF05C
:108490001CFECBE70DF05AFBC8E70FF0D0FDC5E797
:1084A0000FF0DEF8C2E710F041F8BFE71A490A689A
:1084B0000B689B1A8342FBD3704700F01F02012117
:1084C00091404009800000F1E020C0F800117047A1
:1084D00000F01F02012191404009800000F1E020DE
:1084E000C0F880117047C906090E002806DA00F0AE
:1084F0000F0000F1E02080F8141D704700F1E0202B
:1085000080F80014704700007A020010800200100A
:1085100008ED00E0180000108C020010F0B59D4A34
:1085200000230224FF2612684FF47A7504274FF0C7
:10853000010CA8B1012824D0022832D003280ED182
:1085400095484460C360B2FBF5F2521E4A43826113
:1085500006604761C0F804C04168C907FCD1F0BD9E
:108560004FF040204460C360B2FBF5F2521E4A4314
:10857000826106604761C0F804C04168C907FCD148
:10858000F0BD86484460C360B2FBF5F2521E4A4318
:10859000826106604761C0F804C04168C907FCD128
:1085A000F0BD7F484460C360B2FBF5F2521E4A43FF
:1085B000826106604761C0F804C04168C907FCD108
:1085C000F0BD70B54FF0402001220260754801688F
:1085D000491C016074480078012806D17348744C26
:1085E0000078012802D00020606070BD7148744E90
:1085F000642501787148704B0129D0F8B40900EB6B
:10860000800006EB800010D002290ED003290CD088
:1086100040F6B836052901D00629E6D16168491C23
:108620006160D0F8340638B90CE06168491C6160BB
:10863000D0F834060028D8D06168B1FBF5F181424A
:1086400003D870BD6068B042FBD91A7070BD534941
:108650000120086056484168491C416070475049F4
:108660000120086052488168491C816070474A496E
:10867000012008604E48C168491CC1607047012153
:1086800038B1012808D0022809D0032806D1424871
:1086900003E04FF0402000E0404841607047404810
:1086A000FBE7002140B1012809D03D4A022801D052
:1086B000032800D1516070474FF0402000E0374858
:1086C0004160704738B1012808D002280CD0032837
:1086D00009D1314903E04FF0402100E02F494868BB
:1086E00040F00200486070472D49F8E770B500235C
:1086F0002F4D344A032438B101281BD0022824D03E
:1087000003282DD0002070BD2B6052F8C40F40F01C
:10871000020010604FF04020426842F002024260C6
:10872000C3604FF47A72B1FBF2F1491E816144617A
:1087300001201FE06B6052F8C40F40F0040010608D
:10874000164881614461022014E0AB6052F8C40F06
:1087500040F480001060124881614461032009E008
:10876000EB6052F8C40F40F4000010600A488161C9
:108770004461042000F002F8012070BD00F01F02E7
:10878000012191404009800000F1E020C0F8001173
:10879000704700009C02001000400940008000402B
:1087A0000000094034020010770200107602001029
:1087B0000000001038000010390000106C45001057
:1087C0007C3C001000C00F40FA4908B500288869B9
:1087D00042F210720CD040F001008861009288696A
:1087E00040F4006088610098401E0090F7D108BDF9
:1087F00020F40060886110460092401E0090FCD179
:10880000886920F00100886108BDEB49002208C892
:10881000521C08C1802AFAD3704770B5E84BE74C68
:108820004FF0270208001A615A61C3F87022C3F89A
:108830007422C3F81821C3F81C21C3F82021C3F8FF
:1088400024219A61DA61C3F8D020C3F8D420C3F898
:10885000D820C3F8DC20C3F8E020C3F8E4201A6273
:108860005A62C3F83021C3F83421C3F8E820C3F8B2
:10887000EC20C3F8F020C3F8F420C3F80821C3F8B3
:108880001421C3F80C21C3F81021C3F80021CD4AEC
:10889000116C41F002011164916D41F00A01916582
:1088A000C94B53F8C41F41F001011960C7490A6858
:1088B00022F001020A60BF4A4FF0000595619169FC
:1088C00021F00E019161916941F00A019161916974
:1088D00041F020019161916921F0800191619169DC
:1088E00021F480719161916921F400719161916924
:1088F00021F480619161916921F400619161B44931
:10890000B44E0968B1FBF6F1C3F8F410916841F078
:1089100080619160916821F020019160916841F43B
:1089200000619160916841F480519160916821F4F7
:1089300000519160916821F4804191609168A64B4B
:1089400001EA030191609168A44B41EA030191603F
:108950001560116841F01C511160116841F48021CB
:108960001160116841F480711160116841F0740167
:1089700011605560516841F000615160516841F4E7
:1089800000215160516841F480615160516840F2AA
:108990000F1341EA030151601461546101D0FFF7E4
:1089A00034FF00204FF47F01CA1102C4401C9042E2
:1089B000FBD342F21070401EFDD170BD7F490022F2
:1089C0004FF4FF3301C1521C9A42FBD37047F0B5FC
:1089D000C3F58874C4EB0414C2F5F075E40104EB2C
:1089E0008504764D121A2C440025C2F5F077591AE9
:1089F000059E08E0002001E040C4401C8242FBD8F4
:108A000004EB87046D1CA942F4D8F0BD6B4BB0F5A4
:108A1000F07F0DD2B1F5887F0AD2A1F20F11C0F517
:108A2000F070A1EB011100EB4110401E43F8202033
:108A300070472DE9F0439446DDF81C901F460C4624
:108A40000546604501D9AC4695B2BC4201D90F46F6
:108A50009CB2ACEB0500391B00B20EB250B1A6B10E
:108A6000B04230DDC0EB46010FB27100404201EB75
:108A7000400825E04A4621462846FFF7C7FF641C08
:108A8000A4B2A742F6D2BDE8F0834A462146284662
:108A9000FFF7BCFF6D1CADB2AC45F6D2F3E74A461A
:108AA00021462846FFF7B2FF6D1CADB2002F04DD52
:108AB000641CA4B208EB070001E007EB460007B214
:108AC0006545ECD11DE0C6EB40010FFA81FC710059
:108AD000404201EB400812E04A4621462846FFF793
:108AE00095FF641CA4B2BCF1000F04DD6D1CADB297
:108AF00008EB0C0001E00CEB46000FFA80FCBC42D6
:108B0000EAD14A4621462846BDE8F0437EE72DE9F2
:108B1000FF5F884607469A4611466846DDF838B03A
:108B20000AF0B2FF0025E946002419F805C008EB59
:108B30000506C4F107002CFA00F0C00707EB04009B
:108B4000B1B280B201D0524600E05A46FFF75EFF54
:108B5000641C082CEDD36D1C102DE5D3BDE8FF9FE0
:108B60002DE9FE4F884607469A4611466846DDF8CD
:108B700030B00AF091FF0025E946002419F805C03D
:108B800008EB0506C4F107002CFA00F0C00707EB5C
:108B90000400B1B280B201D0524600E05A46FFF75D
:108BA00035FF641C082CEDD36D1C0C2DE5D3BDE8FE
:108BB000FE8F00000080082000820820000001A035
:108BC00000C002400080092000C00F40008C082037
:108BD0009C0200109C997400FFFF00FC0000DF0164
:108BE0002DE9F8439946089F16460D4604464FF472
:108BF000EC7816F8012B4B46294620460097FFF7E4
:108C000086FF444502D20834A4B207E0FF2D4FF09E
:108C1000000402D81035ADB200E0002530780028FD
:108C2000E7D1BDE8F8832DE9FF4F81B090468C462F
:108C3000074604460D460026A4F1140080B24246C1
:108C40006146FFF7E3FEA5F11400641C81B2A4B2F3
:108C500042463846FFF7DAFE6D1C761CB6B2ADB25E
:108C6000282EE9D3ACF114003C46654600260CF1F1
:108C7000140AA7F1140B07F1140900900098A4F14D
:108C8000140881B21FFA88F0049AFFF7BFFE1FFA9A
:108C90008AF11FFA88F0049AFFF7B8FE641CA5F168
:108CA0001408A4B21FFA88F11FFA8BF0049AFFF798
:108CB000ADFE1FFA88F11FFA89F0049AFFF7A6FEAD
:108CC0006D1C761CB6B2ADB20A2ED7D30024ACF11F
:108CD000140A0CF11409A7F1140807F1140507F19F
:108CE0000A061FFA8AF1B0B2049AFFF78FFE1FFA44
:108CF00089F1B0B2049AFFF789FE7F1C0CF10A06D5
:108D0000BFB2B1B21FFA88F0049AFFF77FFEB1B28A
:108D1000A8B2049AFFF77AFE641C0CF1010CA4B20D
:108D20001FFA8CFC0A2CDAD305B0BDE8F08F30B501
:108D30000446F84A2378002000EB8011555C9D42E0
:108D400004D11144657849788D4204D0401C80B22A
:108D50007728F1D3002030BD30B50446EE4A2378A1
:108D6000002000EB001112F811509D4205D102EBDA
:108D70004101657849788D4204D0401C80B2D628E4
:108D8000EFD3002030BD2DE9F04F044684468A46DB
:108D9000002702FB03F0C1179146DFF8808300EB48
:108DA000517B21E009980025C65D300602D5D8F830
:108DB000002001E0D8F8042051462046FFF726FEA7
:108DC000641C7006A4B2060EA4EB0C01494505D143
:108DD0000AF1010064461FFA80FA03E06D1CEDB24F
:108DE000082DE2D37F1CBFB2B7EBEB0FDADB9CE7B9
:108DF0002DE9F047884604460546C74902EB0210B4
:108E0000DFF818A301EB40094FF0000C43BB09EB5E
:108E10000C0000268778380602D5DAF8002001E039
:108E2000DAF8042041462046FFF7F0FD7806641C7E
:108E3000070EA4B2601B10280CD0761CF6B2082EC8
:108E4000E9D30CF1010C0CF0FF0CBCF1200FDED3C8
:108E5000BDE8F08708F101002C461FFA80F8F0E722
:108E600009EB0C0000268778380602D5DAF80420D2
:108E700001E0DAF8002041462046FFF7C7FD7806FA
:108E8000641C070EA4B2601B10280BD0761CF6B22F
:108E9000082EE9D30CF1010C0CF0FF0CBCF1200FF3
:108EA000DED3D5E708F101002C461FFA80F8F1E780
:108EB0002DE9F047884604460546964902EB8210A4
:108EC000DFF858A200EB01094FF0000C3BBB09EBA7
:108ED0000C0000268778380602D5DAF8002001E079
:108EE000DAF8042041462046FFF790FD7806641C1E
:108EF000070EA4B2601B18280BD0761CF6B2082E01
:108F0000E9D30CF1010C0CF0FF0CBCF13F0FDED3E8
:108F10009EE708F101002C461FFA80F8F1E709EB03
:108F20000C0000268778380602D5DAF8042001E024
:108F3000DAF8002041462046FFF768FD7806641CF9
:108F4000070EA4B2601B18280BD0761CF6B2082EB0
:108F5000E9D30CF1010C0CF0FF0CBCF13F0FDED398
:108F600076E708F101002C461FFA80F8F1E730B5EA
:108F700014460D46024621462846FFF799FF182061
:108F800030BD30B514460D46024621462846FFF74F
:108F90002FFF122030BD2DE9F84F9A4615460C469A
:108FA000064600274FF4F0794FF488782A78002A93
:108FB0003AD0F01986B2802A15D906F11800484532
:108FC00005D916340026A4B2444500D90024284609
:108FD000FFF7ADFE80B2534622463146FFF7C7FF8A
:108FE0000746AD1CE2E70D2A15D00A2A1AD006F171
:108FF0000C00484505D90C340026A4B2444500D9DC
:109000000024464841680091036821463046FFF736
:109010007EFD6D1CCAE71634A4B2444500D9002475
:109020000027F6E70026FBE7BDE8F88FF8B5154600
:109030000F46064600242878002821D0A0F13001F0
:10904000092901D888B204E02E2815D02D2815D082
:109050000C2000EBC001C1EB80103149372301EB3C
:1090600080000090301980B220223946FFF78BFE35
:109070002034A4B26D1CDEE70A20EAE70B20E8E703
:10908000F8BD2DE9F8430646994615460C460020E2
:109090004FF4F0784FF488772A78002A42D0304491
:1090A00086B2802A14D906F11000404505D9103443
:1090B0000026A4B2BC4200D900242846FFF74CFE8B
:1090C00080B24B4622463146FFF75BFFAD1CE3E71B
:1090D0000D2A16D00A2A1BD006F10800404505D9F2
:1090E00008340026A4B2BC4200D900240B484168D1
:1090F0000091036821463046FFF709FD0A206D1CE8
:10910000CAE71034A4B2BC4200D900240020F6E71C
:109110000026FBE7E8E302001F0203001000001036
:109120001C4503007DE52DE9F843064699461546A2
:109130000C4600204FF4F0784FF488772A78002A04
:109140003AD0304486B2802A14D906F11000404546
:1091500005D910340026A4B2BC4200D90024284608
:10916000FFF7FAFD80B24B4622463146FFF709FF72
:10917000AD1CE3E70D2A16D00A2A1BD006F1080021
:10918000404505D908340026A4B2BC4200D90024C9
:10919000344841680091036821463046FFF7E0FCFF
:1091A00008206D1CCAE71034A4B2BC4200D90024C8
:1091B0000020F6E70026FBE733E5F0B5062A01D9E3
:1091C0000A2201E002B90122052900D905219142B4
:1091D00000D91146244D00244FF0200C05F804C09E
:1091E000641CE4B20C2CF9D314460A270CE0B0FB43
:1091F000F7F607FB1606B0FBF7F005EB040E30366A
:10920000641E0EF8016CE4B2002CF0D169B1104676
:1092100005E02C1814F8014C2C54401EC0B2491E15
:10922000C9B2F6D22E21295401E005F802C07BB95B
:109230000020511E0AE02B5C302B09D12B185B78E3
:109240002E2B05D005F800C0401CC0B28842F2DBCE
:10925000521CD0B2002102E02954401CC0B20C289C
:10926000FAD3F0BD10000010685300102DE9F04F44
:10927000C3B0DFF8988600F1290904460D461FFAAD
:1092800089F20B46CDF80080FFF7D3FB681E83B24E
:10929000209004F12B0082B208902098661E81B2C3
:1092A000CDF80080B0B2FFF7C4FBA81ECDF8008057
:1092B00083B20F9004F12D0082B214900F9881B206
:1092C000B0B2FFF7B6FBE81ECDF8008083B219906C
:1092D00004F12E0082B21890199881B22046FFF74F
:1092E000A8FB281F83B2159004F1300082B22A90A7
:1092F0001598CDF8008081B2A01C80B2FFF799FBD1
:10930000681F83B21A9004F1310082B225901A9836
:1093100004F1230781B2CDF80080B8B2FFF789FBD2
:10932000A81F83B2333681B22B90B2B2CDF8008041
:10933000B8B2FFF77EFBE81F83B281B20490B2B2ED
:10934000CDF80080B8B2FFF774FBA5F1080083B236
:1093500081B27F1C1B90B2B2CDF80080B8B2FFF78B
:1093600068FBA5F1090083B2761C81B23490B2B2D9
:10937000CDF80080B8B2FFF75CFBA5F10A00CDF88C
:10938000008083B281B204F1250A0A90B2B21FFABA
:109390008AF0FFF74EFBA5F10B0083B281B2179064
:1093A000B2B2CDF800801FFA8AF0FFF742FBA5F1B8
:1093B0000C00CDF8008083B281B21E90B2B21FFAC9
:1093C0008AF0FFF736FBA5F10D0083B2761C81B25F
:1093D000BF1C3890B2B2CDF80080B8B2FFF729FBBD
:1093E000A5F10E0083B281B21C90B2B2CDF800801C
:1093F0001FFA8AF0FFF71DFBA5F10F0083B281B2BF
:109400000B90B2B2CDF80080B8B2FFF712FBA5F115
:10941000100083B281B20C90B2B2CDF80080B8B225
:10942000FFF707FBA5F11100CDE9008083B2761CA0
:1094300081B2B2B2B8B2FFF7FCFA40460090A5F193
:10944000120083B281B27F1C0590B2B2B8B2FFF7AE
:10945000F0FA40460090A5F1130083B281B2069065
:10946000B2B2B8B2FFF7E5FA40460090A5F1140099
:1094700083B2761C81B21090B2B2B8B2FFF7D9FABB
:1094800040460090A5F1150083B281B27F1C029086
:10949000B2B2B8B2FFF7CDFA4046A5F1160B009074
:1094A0001FFA8BF3B2B21FFA8BF1B8B2FFF7C1FA11
:1094B00040460090A5F1170083B281B21190B2B27C
:1094C000B8B2FFF7B6FA40460090A5F1180083B293
:1094D00081B21D90B2B2B8B2FFF7ABFA4046A5F127
:1094E000190A00901FFA8AF3B2B21FFA8AF11FFA22
:1094F00089F0FFF79EFA4046A5F11A08761C009005
:109500001FFA88F3B2B21FFA88F11FFA89F0FFF749
:1095100090FAFE480090A5F11B0083B281B2229020
:10952000B2B21FFA89F0FFF784FAF8480090A5F16B
:109530001C0083B20790701C82B20390079804F15C
:109540002A0981B21FFA89F0FFF773FAEF480090F9
:109550000398A5F11D0782B2BBB2B9B21FFA89F018
:10956000FFF767FAE9480090781E83B224900398C9
:1095700082B2249881B21FFA89F0FFF75AFAE348C1
:109580000090B81E83B2B61C81B21290B2B21FFA1C
:1095900089F0FFF74EFADD480090F81E83B281B2E1
:1095A0000D90B2B21FFA89F0FFF743FAD748009046
:1095B0000398A5F1210982B208981FFA89F31FFACE
:1095C00089F180B2FFF735FAD0480090781F83B256
:1095D00081B216900898B2B280B2FFF72AFACB484F
:1095E0000090B81F83B281B2089004F12C00139050
:1095F000B2B280B2FFF71DFAC448009004F13A00FD
:1096000082B21F90FE1F1398B3B2B1B280B2FFF7BF
:1096100010FABE480090701E83B209901F9882B263
:10962000099881B2139880B2FFF703FAB748009007
:10963000B01E83B20E9004F13B0082B228900E98C7
:1096400081B2139880B2FFF7F4F9B0480090F01E91
:1096500083B20390289882B2039881B2139880B2A3
:10966000FFF7E7F9A9480090301F83B213902898BC
:1096700082B2139881B2149880B2FFF7DAF9A34846
:109680000090701F83B22190289882B2219881B2F5
:10969000149880B2FFF7CDF99C480090B01F83B2B8
:1096A0002C9004F13C0082B229902C9881B214983D
:1096B00080B2FFF7BEF9954800902999F01F8AB251
:1096C00083B281B2149880B2FFF7B3F98F4800904B
:1096D000A5F12C0083B22D90299882B22D9881B2E9
:1096E000189880B2FFF7A5F988480090A5F12D00E1
:1096F00083B23090299882B2309881B2189880B2A3
:10970000FFF797F981480090A5F12E0083B23190C0
:1097100004F13D0082B22690319881B2189880B24F
:10972000FFF787F979480090A5F12F0083B21890D0
:10973000269882B2189881B204F12F00239080B24B
:10974000FFF777F971480090A5F1300083B22790B8
:10975000269882B2279881B2239880B2FFF769F9E0
:109760006A48009004F13E0082B21490A5F13101E4
:1097700023988BB289B280B2FFF75BF963480090FF
:10978000A5F1320083B23390149882B2339881B23B
:10979000239880B2FFF74DF95C480090A5F13300A3
:1097A00083B22F90269882B22F9881B2239880B2EC
:1097B000FFF73FF955480090A5F1340083B223909C
:1097C000149882B2239881B22A9880B2FFF731F9B7
:1097D0004E4800901499A5F135008AB283B281B247
:1097E0002A9880B2FFF725F948480090A5F1360085
:1097F00083B22A90149882B22A9881B2259880B2B6
:10980000FFF717F941480090A5F1370083B2359072
:1098100004F13F0082B22E90359881B2259880B233
:10982000FFF707F9394800902F9883B204F15400EC
:1098300082B236902A9881B204F14800329080B208
:10984000FFF7C5F831480090239883B204F1530024
:1098500082B22590239881B204F147002A9080B209
:10986000FFF7E7F829480090189883B2259882B24C
:109870002F9881B22A9880B2FFF7A9F82348009068
:109880002D9883B204F1520082B23790189881B2B9
:1098900004F1460080B2FFF79AF81C480090139834
:1098A00083B204F1510082B2139881B204F14400F2
:1098B0002F9080B2FFF7BDF814480090039883B250
:1098C000379882B2039881B204F14500379080B294
:1098D000FFF7AFF80D4800900E9883B204F15000E6
:1098E00082B23A900E9881B22F9880B2FFF7A1F819
:1098F00006480090099883B204F14F0082B2399073
:10990000099881B22F9880B202E00000F352030060
:10991000FFF78FF8FE4800903A981FFA89F382B259
:1099200004F143003A90B1B280B2FFF750F8F84822
:10993000009004F14E0082B22F903A981FFA89F3FA
:109940001FFA89F180B2FFF774F8F1480090399856
:10995000BBB282B20D9881B204F142003A9080B25B
:10996000FFF735F8EA48009004F14D0082B23990D3
:109970003A98BBB2B9B280B2FFF75BF8E448009006
:109980002F981FFA88F382B2079881B204F1410040
:109990003A9080B2FFF71BF8DD48009004F14C00CC
:1099A00082B22F903A981FFA88F31FFA88F180B29A
:1099B000FFF73FF8D648009039981FFA8BF382B230
:1099C00004F140001FFA8AF180B2FFF700F8D04896
:1099D00000902F981FFA8BF382B22E981FFA8BF10A
:1099E00080B2FFF726F8CA480090069883B22F98F5
:1099F00082B2029881B22E9880B2FEF7E8FFC44886
:109A00000090019883B204F14B0082B2069881B2B3
:109A10002E9880B2FEF7DBFFBD480090019883B21C
:109A200004F14A0082B22E90019881B2149880B25B
:109A3000FEF7FFFFB64800901C9883B22E9882B2C2
:109A40000C9881B2149880B2FEF7C1FFB048009024
:109A5000179883B22E9882B21C9881B2269880B251
:109A6000FEF7B5FFAA480090179883B2329882B2E9
:109A7000179881B2269880B2FEF7DBFFA4480090C9
:109A8000049883B204F1490082B20A9881B22998FD
:109A900080B2FEF79CFF9E4800901A9883B23298DD
:109AA00082B2049881B2289880B2FEF790FF98485D
:109AB0000090199883B22A9882B21A9881B21F989E
:109AC00080B2FEF784FF92480090199883B22A98DA
:109AD00082B2199881B21F9880B2FEF7AAFF8C4813
:109AE00000902A982B4682B20F9881B21F9880B2BC
:109AF000FEF76DFF8648009037982B4682B21F987C
:109B0000194680B2FEF795FF81480090139883B202
:109B100004F16E0082B22890139881B204F15800CB
:109B200080B2FEF786FF7A480090039883B204F172
:109B30006F0082B22690039881B204F15500149010
:109B400080B2FEF776FF724800900E9883B204F15F
:109B5000710082B22E900E9881B2369880B2FEF7D4
:109B600068FF6B480090099883B204F1720082B2DA
:109B70001F90099881B2259880B2FEF75AFF644879
:109B800000901498B3B282B22598B1B280B2FEF7B9
:109B900050FF5F48009004F1730082B22F900B38A1
:109BA0001490B3B2B1B280B2FEF743FF58480090B0
:109BB000089883B2259882B2089881B2259880B21D
:109BC000FEF737FF52480090089883B22F9882B270
:109BD000089881B2149880B2FEF72BFF4C48009091
:109BE000129883B204F1740082B22590169881B263
:109BF000149880B2FEF7EBFE45480090079883B2B8
:109C0000259882B2129881B204F16700299080B23F
:109C1000FEF7DDFE3E480090079883B21F9882B29F
:109C2000079881B204F16600149080B2FEF701FF3C
:109C300037480090229883B21F9882B2229881B24E
:109C4000299880B2FEF7F5FE314800901F981FFA60
:109C500088F382B214981FFA88F180B2FEF7E9FE09
:109C60002B48009011981FFA8AF183B21F9882B294
:109C700004F16500149080B2FEF7A9FE244800901C
:109C8000029883B22E9882B2119881B2149880B251
:109C9000FEF79DFE1E480090059883B22E9882B272
:109CA000029881B204F1640080B2FEF790FE184879
:109CB00000900B9883B204F1700082B23290059844
:109CC00081B204F16300149080B2FEF780FE104868
:109CD00000900B9883B2289882B20B9881B21498A6
:109CE00080B2FEF7A6FE0A480090179883B2269825
:109CF00082B21C9881B204F16200269080B2FEF715
:109D000066FE03480090179883B204F16D0001E0ED
:109D1000F352030082B21490179881B2269880B251
:109D2000FEF787FEFE4800900A9883B2149882B22C
:109D30000A9881B204F16100269080B2FEF779FEA4
:109D4000F74800901A9883B2149882B2349881B27E
:109D5000269880B2FEF73BFEF14800900F9883B240
:109D600004F16C0082B214901A9881B204F1600080
:109D700080B2FEF72CFEEA480090681C83B214986B
:109D800082B20F9881B204F15F0080B2FEF71FFE2D
:109D9000E348009004F18A0082B21490A5F13801E2
:109DA0000B388BB23C9089B280B2FEF742FEDC48A1
:109DB0000090239883B204F18B0082B239903598D9
:109DC00081B204F17E00349080B2FEF700FED448E8
:109DD0000090339883B2149882B2239881B2349859
:109DE00080B2FEF7F4FDCE480090279883B204F1CC
:109DF000890082B24190339881B204F17D003390A2
:109E000080B2FEF7E4FDC6480090279883B204F1C3
:109E1000880082B23590279881B204F17C002390AB
:109E200080B2FEF706FEBE480090189883B204F197
:109E3000870082B22990189881B2239880B2FEF7E9
:109E4000F8FDB7480090319883B2359882B23198C6
:109E500081B2239880B2FEF7ECFDB14800903098B3
:109E600083B2299882B2309881B2239880B2FEF7EB
:109E7000E0FDAB4800902C9883B2359882B22D98C3
:109E800081B204F17B003A9080B2FEF7A0FDA448B5
:109E90000090039883B2299882B22C9881B23A98A4
:109EA00080B2FEF794FD9E480090219883B204F1A1
:109EB000A40082B22C90219881B204F199003090D4
:109EC00080B2FEF7B6FD96480090139883B204F175
:109ED000A30082B22D90139881B204F197002890CC
:109EE00080B2FEF7A6FD8E480090039883B204F17D
:109EF000860082B22A90039881B204F17A00189009
:109F000080B2FEF796FD86480090039883B204F174
:109F1000A10082B22690039881B204F19600369097
:109F200080B2FEF786FD7E4800902A98B3B282B2D6
:109F30000E9881B2189880B2FEF749FD78480090DB
:109F40000E9883B204F1A00082B223900E9881B2E1
:109F500004F19400429080B2FEF76BFD70480090CF
:109F6000099883B204F19E0082B2099881B204F18B
:109F7000930080B2FEF75DFD694800902A981FFAB1
:109F800089F382B204F179003190B1B280B2FEF768
:109F90001EFD6348009004F19D0082B20B38B3B2FD
:109FA000B1B280B2FEF745FD5D480090089883B2DB
:109FB00004F19B0082B23F90089881B204F19100B5
:109FC0003D9080B2FEF735FD55480090169883B25B
:109FD00004F19A0082B22790169881B204F18F00A2
:109FE0003E9080B2FEF725FD4D48009004F18400BC
:109FF00082B237900C3818901FFA89F31FFA89F152
:10A0000080B2FEF716FD4648009030981FFA89F39B
:10A0100082B204F18D0040901FFA89F180B2FEF700
:10A0200008FD3F4800900D9883B2379882B20D9892
:10A0300081B2319880B2FEF7FCFC394800900D984F
:10A0400083B2289882B20D9881B204F18C003190CD
:10A0500080B2FEF7EEFC32480090129883B2379837
:10A0600082B2129881B2189880B2FEF7E2FC2C48B6
:10A070000090129883B2369882B2129881B21498E6
:10A0800080B2FEF7D6FC26480090249883B204F1F3
:10A09000830082B23B90249881B2189880B2FEF778
:10A0A000C8FC1F480090249883B204F1950082B246
:10A0B0001890249881B2419880B2FEF7BAFC1848F3
:10A0C00000903B98BBB282B204F177002490B9B201
:10A0D00080B2FEF7AEFC124800901898BBB282B274
:10A0E0002998B9B280B2FEF7A4FC0D4800900798F9
:10A0F00083B204F1820082B2079881B2249880B2C0
:10A10000FEF797FC06480090079883B2189882B231
:10A11000079881B22A9880B2FEF78BFC004801E0D4
:10A12000F35203000090229883B2189882B22298CA
:10A1300081B2249880B2FEF77CFCFE4800904298E1
:10A140001FFA88F382B204F1760022901FFA88F198
:10A1500080B2FEF76EFCF748009018981FFA8AF359
:10A1600082B222981FFA8AF180B2FEF762FCF148AF
:10A1700000901D9883B2189882B21D9881B22298DF
:10A1800080B2FEF756FCEB480090119883B2189805
:10A1900082B2119881B204F17500249080B2FEF76A
:10A1A00048FCE448009035981FFA8BF382B222985D
:10A1B0001FFA8BF180B2FEF73CFCDE480090189845
:10A1C0001FFA8BF382B214981FFA8BF180B2FEF75C
:10A1D00030FCD8480090029883B2299882B2029845
:10A1E00081B2249880B2FEF724FCD24800900298F5
:10A1F00083B2189882B2029881B2149880B2FEF7A6
:10A2000018FCCC480090109883B22A9882B210981B
:10A2100081B2249880B2FEF70CFCC64800901098DA
:10A2200083B2369882B2109881B2149880B2FEF749
:10A2300000FCC0480090069883B2379882B2069816
:10A2400081B2259880B2FEF7F4FBBA4800900698D8
:10A2500083B2369882B2069881B2149880B2FEF723
:10A26000E8FBB4480090059883B23B9882B2059809
:10A2700081B2259880B2FEF7DCFBAE4800900598CD
:10A2800083B2289882B2059881B2149880B2FEF702
:10A29000D0FBA8480090019883B204F1810082B2FB
:10A2A000019881B2259880B2FEF7C3FBA1480090C7
:10A2B000019883B2289882B2019881B2149880B232
:10A2C000FEF7B7FB9B4800900C9883B204F1800026
:10A2D00082B218900C9881B2259880B2FEF7A9FB43
:10A2E000944800900C9883B2289882B20C9881B25E
:10A2F000149880B2FEF79DFB8E4800901E9883B2A2
:10A30000189882B20B9881B22F9880B2FEF75FFB4B
:10A31000884800901E9883B2349882B21E9881B209
:10A320002F9880B2FEF785FB824800901B9883B27D
:10A330003C9882B2179881B21F9880B2FEF747FB13
:10A340007C4800901B9883B2339882B21B9881B2EC
:10A350001F9880B2FEF76DFB76480090159883B287
:10A36000349882B2049881B22E9880B2FEF72FFB07
:10A3700070480090159883B2339882B2159881B2D4
:10A38000329880B2FEF755FB6A48009033982B460E
:10A3900082B2199881B2329880B2FEF718FB6548F4
:10A3A00000903A982B4682B23298194680B2FEF756
:10A3B00040FB604800901E9883B204F1980082B27E
:10A3C0000B9881B2399880B2FEF701FB5948009092
:10A3D0000A9883B2309882B21E9881B2399880B2BE
:10A3E000FEF7F5FA53480090049883B2309882B291
:10A3F0000A9881B2319880B2FEF7E9FA4D48009090
:10A40000159883B2279882B2049881B2319880B2AD
:10A41000FEF7DDFA474800900F9883B23F9882B26A
:10A42000159881B2319880B2FEF7D1FA4148009078
:10A430000F9883B2279882B20F9881B2409880B269
:10A44000FEF7F7FA3B480090209883B2279882B233
:10A45000209881B23E9880B2FEF7EBFA3548009022
:10A4600027982B4682B23D98194680B2FEF7E1FA52
:10A4700030480090219883B204F1CF0082B214904A
:10A48000219881B204F1AD00179080B2FEF7D1FAA5
:10A4900028480090139883B204F1D10082B218903A
:10A4A000139881B204F1AB00139080B2FEF7C1FAA9
:10A4B00020480090039883B2189882B2039881B222
:10A4C00004F1A90080B2FEF7B4FA1A4800900E9881
:10A4D00083B204F1D20082B203900E9881B204F1EB
:10A4E000A80080B2FEF7A5FA12480090099883B23E
:10A4F00004F1B30082B2099881B204F1A70080B2DE
:10A50000FEF797FA0B480090099804F1C60583B24C
:10A51000039882B2099881B2A8B2FEF78AFA054878
:10A52000009004F1B20082B21E900C38B3B2B1B206
:10A530001F9001E0F352030080B2FEF77AFAFE4862
:10A54000009004F1D30082B209900C380E90B3B29F
:10A55000B1B280B2FEF76DFAF7480090089804F1A6
:10A56000B10683B281B21F98B2B280B2FEF761FA2F
:10A57000F1480090089883B2099882B2089881B295
:10A58000A8B2FEF756FAEC4800901698B2B283B221
:10A5900081B204F1A500089080B2FEF74AFAE648BD
:10A5A0000090169883B2099882B2169881B2A8B228
:10A5B000FEF73FFAE048009008981FFA89F3B2B21C
:10A5C0001FFA89F180B2FEF734FADB480090039855
:10A5D0001FFA89F382B21FFA89F1A8B2FEF729FAAD
:10A5E000D54800900D98B2B283B281B2089880B27B
:10A5F000FEF71FFAD04800900D9883B2039882B2FC
:10A600000D9881B2A8B2FEF714FACB4800901E98BC
:10A61000BBB282B2129881B22C9880B2FEF7D7F901
:10A62000C54800900998BBB282B2129881B2681EE8
:10A63000089080B2FEF7CBF9BF480090701E82B23E
:10A640002C98BBB2B9B280B2FEF7F3F9BA480090C9
:10A650001898BBB282B20898B9B280B2FEF7E9F995
:10A66000B548009007981FFA88F381B22D98B2B2CE
:10A6700080B2FEF7ACF9B048009003981FFA88F357
:10A6800082B2079881B2A81E039080B2FEF79FF9AC
:10A69000A94800902D98B61E1FFA88F3B2B21FFA8F
:10A6A00088F180B2FEF7C5F9A348009003980A35F7
:10A6B0001FFA88F3AAB21FFA88F180B2FEF7B9F93F
:10A6C0009D4804F1A20900901FFA8AF3B2B21FFA62
:10A6D0008AF11FFA89F0FEF7ACF9974800900398C9
:10A6E0001FFA8AF3AAB21FFA8AF180B2FEF7A1F923
:10A6F0009148771E00901FFA8AF3BAB21FFA8AF1C6
:10A700001FFA89F0FEF795F98B48009004F1C30019
:10A7100007901FFA8AF3AAB21FFA8AF180B2FEF7F5
:10A7200088F9854800901D98B2B283B281B21FFAB1
:10A7300089F0FEF77EF91D987F4D009583B214983D
:10A7400082B21D9881B2079880B2FEF772F9119813
:10A75000009583B281B2BAB21FFA89F0FEF769F9A7
:10A760001198009583B2149882B2119881B207981B
:10A7700080B2FEF75EF926981FFA8BF3BAB21FFA81
:10A780008BF1009580B2FEF754F9009514981336BA
:10A7900082B21FFA8BF31FFA8BF1B0B2FEF749F9C0
:10A7A0000298009583B281B22698BAB280B2FEF7C1
:10A7B00040F90298009583B2149882B2029881B24F
:10A7C000B0B2FEF736F91098009583B2179882B2AE
:10A7D000109881B2269880B2FEF72BF91098203796
:10A7E00083B281B20095BAB2B0B2FEF722F90698F0
:10A7F000009583B2179882B2069881B2239880B2EE
:10A80000FEF717F90698009583B281B2BAB2B0B2DA
:10A81000FEF70FF90095059883B2179882B2059854
:10A8200081B2239880B2FEF704F90095059804F1EF
:10A83000C10A83B281B2BAB21FFA8AF0FEF7F9F800
:10A840000198009583B281B22398163EB2B280B2CD
:10A85000FEF7EFF80198009583B281B2BAB21FFA01
:10A860008AF0FEF7E6F80C9804F19F0883B281B2F3
:10A870000095B2B21FFA88F0FEF7DBF80C9800954D
:10A8800083B281B2BAB21FFA8AF0FEF7D2F80B98FF
:10A89000009583B281B22398B2B280B2FEF7C9F8B4
:10A8A0000B987F1E83B281B20095BAB21FFA8AF06C
:10A8B000FEF7BFF800950A98B2B283B21C9881B235
:10A8C0001FFA88F0FEF783F81C9804F1C00A83B2DF
:10A8D00081B20095BAB21FFA8AF0FEF7AAF8009585
:10A8E0000A98BAB283B2389881B21FFA8AF0FEF79A
:10A8F0006EF80498009583B2139882B20A9881B2D8
:10A900001FFA88F0FEF763F81B98009583B2781E53
:10A9100082B20A9881B204F1BF0080B2FEF757F804
:10A920001B98009583B2F81E82B21B9881B204F185
:10A93000BE0080B202E00000F3520300FEF779F897
:10A940000498009583B281B2B2B21FFA88F0FEF784
:10A9500070F804981D3683B281B204F1BC000095F2
:10A96000B2B280B2FEF765F82B98009583B281B23F
:10A97000B2B21FFA88F0FEF75CF81A98009583B21D
:10A9800081B22398C834A2B280B2FEF752F815986B
:10A99000009583B20E9882B2159881B2269880B243
:10A9A000FEF747F80095199883B2089882B2199873
:10A9B00081B21FFA89F0FEF73CF800950F9883B238
:10A9C000039882B20F9881B22D9880B2FEF731F8C9
:10A9D0002098009583B2079882B2209881B22C9873
:10A9E00080B2FEF726F843B0BDE8F08F38B50446D4
:10A9F0004FF05015E4234FF4C872D0210320009586
:10AA0000FDF7E5FF002C0ED0012C0CD1FC48FF21F6
:10AA10000023C0E9001501B0D021BDE83040F9A203
:10AA20000320FEF72EBB38BD2DE9F84F0024A246C7
:10AA30004FF04C0940F20F18FD4F4FF04E0BFD4800
:10AA4000009004EB4401A00001EB041100EB810035
:10AA500004EB840509EB051680B2B2B24346E4214B
:10AA6000FDF7B5FF012000EB0510E323B2B280B281
:10AA700019460097FDF7DDFFB2B2B0B24346E321BD
:10AA80000097FDF7D6FF4D2000EB051082B2564629
:10AA900080B24346E321CDF800A0FDF7CAFF0BEBDF
:10AAA000051082B280B24346E3210096FDF7C1FF54
:10AAB0004F2000EB051082B280B24346E32100969E
:10AAC000FDF7B7FF641C062CB9D3BDE8F88F10B5AD
:10AAD000FFF7AAFFCA48D749002341606FF07F41C2
:10AAE0000160D5A2F1215420FEF7CBFA0023F12119
:10AAF000BDE81040D2A2A420FEF7C3BA10B5FFF7FC
:10AB000093FFBF48CB49002341606FF07F41016054
:10AB1000F121BDE81040CBA25420FEF7B2BA10B527
:10AB2000FFF782FFB648C349002341606FF07F41C1
:10AB30000160F121BDE81040C3A25420FEF7A1BA84
:10AB400010B5FFF771FFAE48BA49002341606FF0BE
:10AB50007F410160F121BDE81040BCA25420FEF706
:10AB600090BA10B5FFF760FFA548B24900234160D5
:10AB70006FF07F410160F121BDE81040B4A2542084
:10AB8000FEF77FBA10B5FFF74FFF9D48A949002394
:10AB900041606FF07F410160F121BDE81040ADA23E
:10ABA0005420FEF76EBA10B5FFF73EFF9448A14956
:10ABB000002341606FF07F410160F121BDE810404A
:10ABC000A5A25420FEF75DBA10B5FFF72DFF8C4803
:10ABD0009849002341606FF07F410160F121BDE899
:10ABE00010409EA25420FEF74CBA10B5FFF71CFF90
:10ABF00083489049002341606FF07F41016093A238
:10AC0000F1215420FEF73DFA0023F121BDE8104068
:10AC100094A2A420FEF735BA2DE9F0470446FFF7C9
:10AC200003FF7749834A6FF07F40C1E900028E4EEF
:10AC3000002C06F118054FF4D1784FF071094FF050
:10AC4000000403D0AF1D4FF06C0A2DE0474601E031
:10AC5000042C11D004EB440006EB400204EB840109
:10AC600009EB01100023F121FEF70BFA641CE4B29A
:10AC7000052CEDD3BDE8F0872A463846F2E7042CD0
:10AC80000ED08CB1032C14D004EB440006EB400230
:10AC900004EB840109EB01100023F1211E320EE0C8
:10ACA00005F11E02404601E03A4650460023F121DC
:10ACB00005E06D4A4FF4A77030320023F121FEF712
:10ACC000E0F9641CE4B2052CD9D3D3E710B5FFF743
:10ACD000ABFE4B485749002341606FF07F41016054
:10ACE00062A2F1215420FEF7CCF90023F121BDE846
:10ACF00010405FA2A420FEF7C4B910B5FFF794FE80
:10AD00003F484C49002341606FF07F410160F121D1
:10AD1000BDE8104057A25420FEF7B3B910B5FFF7B5
:10AD200083FE37486FF07F4140F243140160414990
:10AD300041605148D0F8D01201291BD000292ED1F2
:10AD400000234EA2F2215320FEF79BF900234EA2CE
:10AD5000F221A320FEF795F900234EA2F221F32061
:10AD6000FEF78FF900234EA22046BDE81040F221E5
:10AD7000FEF787B900234DA2F2215320FEF781F997
:10AD800000234DA2F221A320FEF77BF900234CA261
:10AD9000F221F320FEF775F900234BA2E4E710BD82
:10ADA00070B5FFF741FE16486FF07F4140F2431443
:10ADB000016020494160304840F29315D0F8D0122C
:10ADC00001291BD000291AD100232CA2F2215320E3
:10ADD000FEF757F900232CA2F221A320FEF751F928
:10ADE00000232CA2F221F320FEF74BF900232CA222
:10ADF000F2212046FEF745F900236BE071E08FE079
:10AE000010000010C7EBC8B7C8CFB1BBB2E2B5E7BE
:10AE1000B3D8D3D0B9FDB3E4B1A3BBA4B9A6C4DC05
:10AE2000D4D9BDF8D0D0B4CBCFEEB2E2CAD40000B2
:10AE300068436900380031006D73656300000000ED
:10AE400073656300560000004100000073000000BD
:10AE50006D7300006DA6B8006BA6B80053746570E2
:10AE6000730000006D696E00CB360300487A000065
:10AE70004B487A002A3100003C050010C4DAD7E8BC
:10AE8000B2E2CAD400000000B3CCBFD8B8BAD4D85C
:10AE900000000000B3CCBFD8B5E7D4B40000000078
:10AEA000C1D0B1EDB2E2CAD400000000492E522058
:10AEB00054455354000000004C4F41440000000032
:10AEC000504F5745520000004341504143495459A7
:10AED00000000000FEA22846BDE87040F221FEF707
:10AEE000D0B80023AFF23C02F2215320FEF7C9F89C
:10AEF0000023AFF23C02F221A320FEF7C2F80023A8
:10AF0000AFF24402F221F320FEF7BBF80023AFF2C8
:10AF10004802F2212046FEF7B4F80023EFA2DAE758
:10AF200070BD10B5FFF780FDEE486FF07F41016006
:10AF3000ED494160ED48D0F8D002012818D0002832
:10AF400031D10023AFF2CC02F2215320FEF799F861
:10AF50000023AFF2CC02F221A320FEF792F80023E7
:10AF6000AFF2D002F221F320BDE81040FEF789B81D
:10AF70000023AFF2C802F2215320FEF782F800232B
:10AF8000AFF2CC02F221A320FEF77BF80023AFF250
:10AF9000D002F221F320FEF774F80023D4A2F221AC
:10AFA00040F24310E0E710BD10B5FFF73DFDCD487E
:10AFB0006FF07F410160CC494160CC48D0F8D002AD
:10AFC000012816D0002826D10023CBA2F221A320ED
:10AFD000FEF757F80023CAA2F221F320FEF751F83A
:10AFE0000023CAA2F2214FF4A670BDE81040FEF77C
:10AFF00048B80023C7A2F221A320FEF742F800239D
:10B00000C6A2F221F320FEF73CF80023C5A2F221EC
:10B0100040F24310E9E710BD10B5FFF705FDB14858
:10B020006FF07F414FF4CE740160AF494160AF488B
:10B03000D0F8D01201291CD0002930D10023BBA2A6
:10B04000F221A320FEF71DF80023BAA2F221F3207B
:10B05000FEF717F80023ADA2F2214FF4A670FEF719
:10B0600010F80023B5A22046BDE81040F221FEF7FB
:10B0700008B80023B3A2F221A320FEF702F80023B0
:10B08000A4A2F221F320FDF7FCFF0023A5A2F221E8
:10B0900040F24310FDF7F5FF0023ACA2E3E710BD3B
:10B0A0002DE9F84F0546DFF8B0824FF4F07ACA2355
:10B0B00052465C210020CDF80080FDF788FC05EBAE
:10B0C000450000EBC5015C2000EB41076FF07F46B7
:10B0D00000223B46462110460096FDF7AAFC282296
:10B0E0003B46462110460096FDF7A3FC50223B4606
:10B0F000462110460096FDF79CFC01244FF05009B4
:10B1000004EB840109EB01103B4602464621009600
:10B11000FDF78FFC641CE4B2052CF1D30024462714
:10B12000AD1C0DE004EB440000EBC40007EB400154
:10B130000B46524600200096FDF77BFC641CE4B2EF
:10B14000AC42EFD36749694840F24314C1F8048028
:10B15000D0F8D01240F2931501292ED0002953D1F6
:10B1600000237EA249210320FDF78BFF00237DA24F
:10B1700049212B20FDF785FF00237CA24921532084
:10B18000FDF77FFF00237BA24921A320FDF779FF74
:10B1900000237AA24921F320FDF773FF00237AA24E
:10B1A00049212046FDF76DFF00237AA201B0284611
:10B1B000BDE8F04F4921FDF764BF002377A2492184
:10B1C0000320FDF75EFF002375A249212B20FDF728
:10B1D00058FF002374A249215320FDF752FF00239A
:10B1E00073A24921A320FDF74CFF002372A249213D
:10B1F000F320FDF746FF002371A249212046FDF709
:10B2000040FF002370A2D1E75FE42DE9F843064632
:10B2100051484FF4F0790090CA234A465C2100203F
:10B22000FDF7D5FB06EB460000EBC6015C2000EB0A
:10B2300041076FF07F4500223B46462110460095AE
:10B24000FDF7F7FB28223B46462110460095FDF707
:10B25000F0FB50223B46462110460095FDF7E9FBE6
:10B2600001244FF0500804EBC40000EB041108EB7C
:10B2700081003B46024646210095FDF7DAFB641C3F
:10B28000E4B2042CEFD300244627B61C0DE004EBF7
:10B29000440000EBC40007EB40010B464A46002087
:10B2A0000095FDF7C6FB641CE4B2B442EFD30D4930
:10B2B0004FF0501040F21B1448600C4840F27F15CC
:10B2C000D0F8D012012901D0002981E0AAE00000C5
:10B2D000CFB5CDB3C9E8D6C30000000053595353CE
:10B2E0004554200010000010380031003C050010CB
:10B2F000434F4D5000000000CFC2D2BBB2BD000092
:10B30000B2E2CAD4BDE1B9FB0000000020B7B5BB72
:10B31000D80000004E4558540000000052455355D7
:10B320004C5400004241434B00000000C9CFD2BB47
:10B33000D2B30000CFC2D2BBD2B3000020D6D8B265
:10B34000E2000000505245560000000052455354A0
:10B35000415254200000000034346500D0F2BAC5D8
:10B3600000000000CFEEC4BF00000000B2CECAFD56
:10B3700031000000B2CECAFD32000000BDD8D6B9FF
:10B38000B5E7D1B900000000BDD8D6B9B5E7C1F71F
:10B3900000000000CAB1BCE4000000004E4F0000F5
:10B3A0004D4F444500000000504152413100000023
:10B3B0005041524132000000434F464656000000C3
:10B3C000434F46464300000054494D4500000000ED
:10B3D0004DD10023AFF27C0249210320FDF751FE3D
:10B3E0000023AFF2800249212B20FDF74AFE002303
:10B3F000FEA249215320FDF744FE0023FDA249216E
:10B40000B720FDF73EFE0023FCA249212046FDF7B0
:10B4100038FE0023FCA201B02846BDE8F0434921D4
:10B42000FDF72FBE0023AFF28C0249210320FDF768
:10B4300028FE0023AFF2980249212B20FDF721FEC0
:10B440000023AFF29C0249215320FDF71AFE00238E
:10B45000AFF2A4024921B720FDF713FE0023EDA2AD
:10B4600049212046FDF70DFE0023ECA2D3E7BDE8FD
:10B47000F88310B50446FFF7D7FAEA49EA4BEB4ADE
:10B480006FF07F40BCB1C1E90003012C3BD0D2F882
:10B49000D002012866D000286DD10023E4A2F22159
:10B4A0005320FDF7EEFD0023E3A2F221A320BDE827
:10B4B0001040FDF7E6BDC1E90003D2F8D002012833
:10B4C00012D0002857D10023DDA2F2215320FDF72E
:10B4D000D8FD0023DDA2F221A320FDF7D2FD002339
:10B4E000DDA2F221FC20E2E70023DDA2F2215320BD
:10B4F000FDF7C7FD0023DCA2F221A320FDF7C1FD6B
:10B500000023DBA2EDE7D2F8D01240F29314012918
:10B5100001D079B120E00023D7A2F2215320FDF71A
:10B52000B0FD0023D7A2F221A320FDF7AAFD00233E
:10B53000D7A20DE00023D8A2F2215320FDF7A1FDF0
:10B540000023D8A2F221A320FDF79BFD0023D8A25F
:10B55000F2212046FDF795FD0023D7A2F22140F20B
:10B56000BD10A4E70023D5A2F2215320FDF789FDE9
:10B570000023D4A299E710BD10B5FFF755FAA948EA
:10B580006FF07F41A94C0160A7494160D4F8D00217
:10B59000012826D0002835D10023CCA2E721542051
:10B5A000FDF76FFD0023CBA2FB215420FDF769FDC1
:10B5B000D4F8D0124FF4A2704FF4CA74012919D0F4
:10B5C00000291FD10023AFF29C22F121FDF759FD84
:10B5D0000023AFF2A0222046BDE81040F121FDF784
:10B5E00050BD0023BDA2E7215420FDF74AFD0023F2
:10B5F000BCA2D9E70023BDA2F121FDF742FD002343
:10B60000BCA2E8E710BD70B50646FFF70DFA854805
:10B61000854B86494FF4A2744FF4CA756FF07F4290
:10B620005EB3012E29D0C0E90023D1F8D012012940
:10B6300065D000297FD10023B0A2F1215420FDF76D
:10B6400020FD0023AFA2E721A420FDF71AFD00236F
:10B65000AEA2FB21A420FDF714FD0023AFF234328B
:10B66000F1212046FDF70DFD0023AFF238322846C8
:10B67000BDE87040F121FDF704BDC0E90023D1F819
:10B68000D01201291ED0002955D100239BA2F121FF
:10B690005420FDF7F6FC00239EA2E721A420FDF72D
:10B6A000F0FC002397A2FB21A420FDF7EAFC002375
:10B6B0009AA2E721F420FDF7E4FC0023FB2191A2EC
:10B6C000F420C8E7002397A2F1215420FDF7D9FC0C
:10B6D000002396A2E721A420FDF7D3FC002395A226
:10B6E000FB21A420FDF7CDFC002394A2E721F42048
:10B6F000FDF7C7FC0023FB218EA2F4200FE00023FE
:10B7000088A2F1215420FDF7BCFC002389A2E72187
:10B71000A420FDF7B6FC00238AA2FB21A420FDF79C
:10B72000B0FC002371A2F1212046FDF7AAFC002302
:10B7300070A29CE7FFE770BD10B50446FFF774F9EF
:10B7400038493948394A6FF07F43ECB1C1E90030DC
:10B75000012C36D0D2F8D002012843D0002842D1A3
:10B7600000237AA2F2215320FDF78BFC00237AA25A
:10B77000F221A320FDF785FC00237AA2F221F32019
:10B78000BDE81040FDF77DBCC1E90030D2F8D00221
:10B7900001280DD0002826D1002329A2F221532010
:10B7A000FDF76FFC0023AFF2D842F221A320E7E7B8
:10B7B00000236FA2F2215320FDF763FC00236EA249
:10B7C000F3E7D2F8D0124FF4CA7401290CD0002943
:10B7D00009D100236AA2E7215420FDF752FC00237F
:10B7E0002EA2D1E022E130E1F8E00000BDE1B9FB9A
:10B7F00031000000BDE1B9FB32000000BDE1B9FB42
:10B800003320202000000000BDE1B9FB34202020BF
:10B8100000000000524553310000000052455332F1
:10B820000000000010000010380031003C0500103E
:10B830002020C8A1CFFB20002020C8B7C8CF2000FF
:10B84000B2E2C1BFCFD4CABE00000000B5B5BAC5D0
:10B85000CFD4CABE00000000B5B5BCC6CAFD00000A
:10B860004D454153534554004E6F2E4449535000AB
:10B87000434F554E5420000046494C4520534554F3
:10B8800000000000536176654461746100000000AF
:10B890004D4F524500000000CEC4BCFEB9DCC0EDE7
:10B8A00000000000B1A3B4E6CAFDBEDD0000000048
:10B8B000B8FCB6E000000000322F320043414E4396
:10B8C000454C2000434F4E4649524D00C7E5B3FD5D
:10B8D00000000000B1EDB8F100000000434C45410C
:10B8E000000000004C495354000000004C61737488
:10B8F000205000004E65787420500000C9BEB3FD92
:10B90000D0D00000D7D4B6AF00000000B8B4D6C67F
:10B9100000000000CFDFD0D400000000B6D4CAFD84
:10B920000000000044656C526F7700004C494E45A2
:10B930000000000041544F55000000004C4F4720CC
:10B9400000000000434F505900000000B5E7D1B996
:10B95000D0A3D5FD00000000B5E7C1F7D0A3D5FD09
:10B9600000000000B5E7D7E8D0A3D5FD0000000037
:10B970004D454144495350005359535345540000D9
:10B98000CEC4BCFE00000000FB215420FDF779FB73
:10B990000023F7A2E721A420FDF773FB0023AFF2F9
:10B9A000CC62FB21A420FDF76CFB0023F2A2F12165
:10B9B000F420FDF766FB0023AFF2E862FB21F420E0
:10B9C000FDF75FFB0023AFF21812E7212046FDF7D9
:10B9D00058FB0023EAA2FB212046D1E60023EAA27D
:10B9E000E7215420FDF74DFB0023E9A2FB21542061
:10B9F000FDF747FB0023E8A2E721A420FDF741FB68
:10BA00000023E7A2FB21A420FDF73BFB0023E6A2D5
:10BA1000F121F420FDF735FB0023E1A2FB21F42006
:10BA2000FDF72FFB0023AFF29812CEE70023E0A230
:10BA3000F2215320FDF725FB0023DFA2F221A320F2
:10BA4000FDF71FFB0023DEA298E610BDDE486FF075
:10BA50007F410160DD494160DD48D0F8D002012816
:10BA600008D000280AD10023AFF22C22F221532063
:10BA7000FDF707BB0023AFF20812F7E7704770B578
:10BA8000D1486FF07F414FF483740160CF4941602A
:10BA9000CF4840F29315D0F8D01201291CD00029CC
:10BAA0002FD10023CBA2F2215320FDF7EAFA002385
:10BAB000AFF25012F221A320FDF7E3FA0023C8A24F
:10BAC000F2212046FDF7DDFA0023C7A22846BDE893
:10BAD0007040F221FDF7D5BA0023C6A2F22153200F
:10BAE000FDF7CFFA0023C6A2F221A320FDF7C9FA81
:10BAF0000023C6A2F2212046FDF7C3FA0023C5A207
:10BB0000E4E770BD08B5C648002100901623D22294
:10BB10000846FCF75CFF08BD08B5C2480090CD237D
:10BB200040F2DF125C210020FCF751FF08BD08B590
:10BB3000BB48002100901623A0220846FCF747FFCF
:10BB4000FEF772FFBDE80840E6E708B5B4480021FB
:10BB500000901623A0220846FCF739FFBDE80840F4
:10BB6000FEF762BF2DE9F047FFF7E1FF964CAC48C6
:10BB70006FF07F46964DC4E90060D5F8D0020128E9
:10BB800001D018B109E00023A74A02E0A64A002329
:10BB9000F23A04210020FDF774FA4FF05010C4E986
:10BBA0000060A24F00244FF01A0907F5CA786FF021
:10BBB000270601E0032C1AD2D5F8D002012801D0C3
:10BBC00028B119E004EB840007EB400203E0C4EB6A
:10BBD000041101EB080204EB440000EBC40109EB83
:10BBE000410081B200231846FDF74BFA04E0D5F876
:10BBF000D002012807D058B1641C042CDAD3BDE868
:10BC0000F047FFF78BB804EB840007EB400203E03A
:10BC1000C4EB041101EB080204EB440000EBC40088
:10BC200006EB400081B20023FA20DDE72DE9F04762
:10BC3000FFF77DFF644C7A486FF07F46644DC4E99E
:10BC40000060D5F8D002012801D018B10AE0002325
:10BC5000754A02E0744A0023F23A042100201632A9
:10BC6000FDF70FFA4FF05011C4E90061704FA24682
:10BC700000244FF01A0907F13C086FF0270601E095
:10BC8000032C1AD2D5F8D002012801D028B119E02E
:10BC900004EB840007EB400203E0C4EB041101EB6A
:10BCA000080204EB440000EBC40109EB410081B23F
:10BCB00000231846FDF7E5F904E0D5F8D002012885
:10BCC00011D0A8B1641C062CDAD35649CAF8041066
:10BCD000002358A2BA214FF4DD70FDF7D2F9BDE878
:10BCE000F047FFF71BB804EB840007EB400203E0CA
:10BCF000C4EB041101EB080204EB440000EBC400A8
:10BD000006EB400081B20023FA20D3E72DE9F04191
:10BD1000FFF70DFF2C4E42486FF07F442C4FC6E9D1
:10BD20000040D7F8D002012801D018B10AE0002362
:10BD30003D4A02E03C4A0023F23A042100202C3222
:10BD4000FDF79FF94FF05010C6E9004000241A2576
:10BD500000E004D2D7F8D002012801D038B17AE04F
:10BD6000334904EB8400963101EB400268E063E064
:10BD7000CFB5CDB300000000B9A4BEDF00000000C5
:10BD800020322F320000000046494C4500000000E0
:10BD90004D414E4500000000535953200000000063
:10BDA0005345542000000000544F4F4C0000000049
:10BDB000564F4C43616C00004374726C43616C00DD
:10BDC00043757243616C00001000001038003100B0
:10BDD0003C050010B5E7C8DDD0A3D5FD000000008C
:10BDE000CDCBB3F600000000C7E5B3FDD0A3D5FD71
:10BDF000000000004320436F727265740000000071
:10BE00005220436F727265740000000045786974B7
:10BE100000000000436C6520436F72720000000058
:10BE2000F352030034346500113403008D24030001
:10BE30005D2603006D414800FD49C4EB0410421823
:10BE400004EB440000EBC40005EB400081B200238A
:10BE50001846FDF716F9641C032CFFF47AAFF54879
:10BE60004FF00003AFF2340270604FF0BA014FF4AC
:10BE7000DD70FDF706F9BDE8F041FEF74FBF2DE993
:10BE8000F047FFF762FEEC4CEC486FF07F46EC4D5C
:10BE9000C4E90060D5F8D002012801D018B10AE049
:10BEA0000023E84A02E0E74A0023F23A0421002096
:10BEB0004232FDF7E6F84FF05010C4E90060DC4F65
:10BEC000002496374FF01A09A7F13C086FF01106CD
:10BED00001E0022C19D2D5F8D002012801D020B1FE
:10BEE00018E0C4EB0410C21903E0C4EB041101EB29
:10BEF000080204EB440000EBC40109EB410081B2ED
:10BF000000231846FDF7BDF804E0D5F8D00201285B
:10BF100007D050B1641C042CDBD3BDE8F047FFF719
:10BF200000B8C4EB0410C21903E0C4EB041101EB28
:10BF3000080204EB440000EBC40006EB400081B2B1
:10BF40000023FA20DEE72DE9F84FBC4C0021162330
:10BF5000A02208460094FCF73AFDB74D6FF07F47EA
:10BF6000B74EC5E90074D6F8D002012801D018B147
:10BF70000AE00023B34A02E0B24A0023F23A042165
:10BF800000205832FDF77DF8DFF8BC820024BA4665
:10BF9000A9464FF0501B1A25A8F58777C9E900ABD1
:10BFA000D6F8D002012801D028B112E0C4EB041168
:10BFB00001EB080202E0C4EB0410C21904EB4400D8
:10BFC00000EBC40005EB400081B200231846FDF7EA
:10BFD00058F8641C092CE1D30024D6F8D0020128BB
:10BFE00001D028B113E0C4EB041101EB080202E018
:10BFF000C4EB0410C21904EB440000EBC40005EBD1
:10C00000400081B20023E8208732FDF73AF8641C33
:10C01000092CE2D3BDE8F84FFEF7C2BE08B585484B
:10C020000090BE2340F2DF12A0210020FCF7CFFCDD
:10C0300008BD08B58148002100901623A0220846BB
:10C04000FCF7C5FCFEF7F0FCBDE80840E6E738B5B4
:10C05000794D04464FF0501068607C48012300EB96
:10C060008402C8211420FDF70CF8784801235C30C5
:10C0700000EB8402C8214FF48C70FDF702F86D4884
:10C08000686073480090372328227A215020FCF7FB
:10C090007AFE70480090372328227A217820FCF716
:10C0A00072FE6D480090372328227A218C20FCF7FD
:10C0B0006AFE38BD2DE9F047FFF7BBFF5E4C5F48D5
:10C0C0006FF07F455E4EC4E90050D6F8D0020128DB
:10C0D00001D018B10AE000235A4A02E0594A00236D
:10C0E000F23A042100201632FCF7CBFF4FF050103B
:10C0F000C4E90050594F00244FF01A09A7F1300845
:10C100006FF0270501E0032C16D2D6F8D0020128E3
:10C1100001D018B115E007EBC40201E008EBC4023E
:10C1200004EB440000EBC40109EB410081B20023A1
:10C130001846FCF7A6FF04E0D6F8D00201280CD080
:10C1400070B1641C062CDED396F80C03FFF77FFF5A
:10C15000BDE8F0470020FFF78CB907EBC40201E00F
:10C1600008EBC40204EB440000EBC40005EB400004
:10C1700081B20023FA20DCE738B52E4C40F2DF15FF
:10C18000A0232A46562100200094FCF720FCE3233C
:10C190002A46C12100200094FCF719FC38BD08B5DF
:10C1A0002648002100901623B2220846FCF70FFC17
:10C1B000FEF73AFCBDE80840DEE70B4630B42849FC
:10C1C0001446085C183100EB40004218A1B298B246
:10C1D00030BC0023FCF755BF2DE9F05FFFF7DFFF10
:10C1E000154C16486FF07F45C4E90050144ED6F840
:10C1F000D002012801D018B10AE00023114A02E060
:10C20000104A0023F23A042100202C32FCF739FFB7
:10C210000948DFF85090002405604FF05015BE2704
:10C220004FF4B478A9F1150A4FF6FF7B45601FE083
:10C230002F2703003434650010000010F352030070
:10C240003C050010113403000F290300F82C0300F3
:10C2500021580300646A0300776B03006331030015
:10C26000223703002E350300012C08D0022C15D0F4
:10C27000D6F8D00201287AD000287DD01EE0D6F86A
:10C28000D002012801D0C8B902E009F1070201E09B
:10C290000AF107023846002318210DE0D6F8D00233
:10C2A000012801D050B901E0F84A01E0F74A153AF7
:10C2B0004046002318210E32FCF7E3FE641C032CD9
:10C2C000D2D3D6F81403012300EB400101EBC001E7
:10C2D000EF48C8360A1818213C20FCF7D2FE317905
:10C2E000002306223068FCF768FF0123E94A182181
:10C2F000FA20FCF7C6FEB068E74900EB40004218A0
:10C30000012318214FF4A070FCF7BBFED6F84402BD
:10C3100018224FF4A571C83EFFF74FFF0023DFA29C
:10C320002C211846FCF7FFFE0023DDA22C217820EB
:10C33000FCF7F9FE0023DCA22C21FA20FCF7F3FE27
:10C340000023DBA22C2140F29D10FCF7ECFEDFF86D
:10C350006883DA4F0624A4F10800052802D3A01F41
:10C36000082812D9C7F8048010E000E004E0C4EB0C
:10C37000C40101EB090203E0C4EBC40101EB0A02B2
:10C3800004EB84010BEA411085E77D6004EB840037
:10C3900006EBC00151F8080C60B111F8041C012330
:10C3A0000622FCF70AFFC4EB0410203881B20123F7
:10C3B000B84A05E0C4EB0410203881B20123C0A2C2
:10C3C0007820FCF7B0FE641C0F2CC4D3C7F804809F
:10C3D000D6F864024446B94640B196F86812012383
:10C3E0000622FCF7EAFE0123AA4A01E00123B4A2D7
:10C3F000C421FA20FCF797FEB04610274E46A7F15D
:10C400001200052802D3801C082801D9746000E0BE
:10C41000756007EB870108EBC101A1F58051D1F8E8
:10C420007C0E60B191F8801E01230622FCF7C5FE48
:10C43000C7EB0710B63881B20123964A05E0C7EB77
:10C440000710B63881B201239DA2FA20FCF76BFEDB
:10C450007F1C192FD3D37460D8F86402A1464746D5
:10C4600050B197F8541201230622D7F85002FCF776
:10C47000A4FE0123874A01E0012391A2C421782070
:10C48000FCF751FEC846DFF840920124E01E052863
:10C4900002D2C6F8048000E0756004EBC40101EB31
:10C4A0000902C4EB04102B3081B200230820093AA2
:10C4B000FCF739FE641C0A2CE8D3C6F804807449E2
:10C4C000D7F80C03783901EB80020023C421184609
:10C4D000FCF729FE00237DA2D4211846FCF723FE99
:10C4E00000237CA2D421F820FCF71DFEBDE8F05FFC
:10C4F0000020FEF7BEBF08B56F480090A02340F2B1
:10C50000DF12AF210020FCF762FA08BD10B5FFF77B
:10C51000F9FAFEF789FABDE81040ECE770B5FFF7CD
:10C52000F5FF664C6D486FF07F45C4E90050574AEF
:10C530000023DB3A04211846FCF7A3FD4FF050100E
:10C54000C4E900506648D0F8D002012801D078B183
:10C5500020E0002363A21A211846FCF792FD002375
:10C5600062A230212820FCF78CFD002362A20DE09E
:10C57000002363A21A211846FCF783FD002362A260
:10C5800030212820FCF77DFD002362A230218C2081
:10C59000FCF777FD002361A23021F020FCF771FD4C
:10C5A000002360A230214FF4AA70FCF76AFD00233B
:10C5B0005EA230214FF4DC70FCF763FDBDE87040F3
:10C5C0000020FEF756BF08B53B4800909A2340F282
:10C5D000DF125A210020FCF7FAF908BD08B53F48E0
:10C5E000002100901623A8220846FCF7F0F9FEF778
:10C5F0001BFABDE80840E6E72DE9F05FFFF7EEFF24
:10C600002E4D36486FF07F44354FC5E90040D7F8CE
:10C61000D002012801D018B10AE00023444A02E008
:10C62000434A0023F23A042100205832FCF729FD46
:10C630004FF05016C5E90046DFF8F8B01E4F002451
:10C640004FF01A086FF02709ABF1480A2448D0F8D8
:10C65000D002012801D0C0B199E0032C0AD2E01E1B
:10C66000022801D26F6000E06E6004EB84010BEBE6
:10C6700041026DE0A01F022801D26F6000E06E60F1
:10C6800004EB84010BEB410276E055E02E3503000C
:10C69000CC2D0300685300100737030042494E00B9
:10C6A0004C4F57205B465D00484947485B465D005C
:10C6B000434F554E54000000343465001000001004
:10C6C0002D2D2D2D2D2D00003C2403004155583AD1
:10C6D000000000004F55543A00000000F3520300E0
:10C6E0003C0500104D657468203A00004672657183
:10C6F0005B487A5D000000004C65766C5B565D001F
:10C70000B7BDCABD203A0000C6B5C2CA5B487A5D53
:10C7100000000000B5E7C6BD5B565D0043705B4698
:10C720005D000000445B205D00000000434D5000B0
:10C7300011340300DB310300032C13D2E01E022866
:10C7400001D26F6000E06E6004EB44010AEB8102ED
:10C7500004EB440000EBC40108EB410081B200236C
:10C76000184612E0A01F022801D26F6000E06E6040
:10C7700004EB44010AEB810204EB440000EBC4012A
:10C7800009EB410081B20023FA20FCF77AFC641C1B
:10C79000062CFFF45BAFBDE8F05F0020FEF7CCBFD6
:10C7A0002DE9F843FF4E07464FF05015FE4C7560DB
:10C7B000FE49D4F80C03012300EBC00042181A21F3
:10C7C000492004F54374FCF75CFCA068012300EBEE
:10C7D000400101EBC000F649421830214920FCF726
:10C7E00050FCE068012300EB400101EBC000F1497F
:10C7F000421846214920FCF744FCA06B40F2431844
:10C8000000EB400101EBC000EA490023313142183E
:10C810001A214046FCF735FCE06B012300EB400198
:10C8200001EBC000E349A4F54374AE314218302156
:10C830004046FCF726FC3878012800D0002010B1D3
:10C84000FF20706001E028467560009058234FF487
:10C85000C47244214FF4A170FCF7B9F8D4F8E00099
:10C86000D44D00EB400101EBC000E7354219012334
:10C8700046214046FCF705FCFEF7D6F8387801283B
:10C8800004D0BDE8F8430020FEF7F3BD6FF07F4011
:10C890003060C9480024682770606D2613E094B1A9
:10C8A00004EB440000EBC400421904EB840006EBE7
:10C8B000001080B20023F121FCF7E3FB641C022C82
:10C8C000EDD3BDE8F8832A463846F3E7F8B5B54C12
:10C8D00006464FF0501060603078012800D00020EC
:10C8E00020B3FF206060009028234FF4E6721821E7
:10C8F00040F2A310FCF76BF8AB48AE4D0123D0F823
:10C900009C12E73501EB410000EBC10042191821F0
:10C910004FF4D270FCF7B5FBFEF786F830780128AB
:10C9200006D0BDE8F8400020FEF7A3BD6068DAE756
:10C930006FF07F402060A0486060002468276D266B
:10C9400012E08CB104EB440000EBC400421904EB8C
:10C95000840006EB001080B20023F121FCF791FB6C
:10C96000641C022CEDD3F8BD2A463846F4E72DE9C5
:10C97000F05F0124DFF844928A4EDFF82C824FF4F6
:10C98000AD7B4FF0501A3325E71E042F02D2C6F8B4
:10C99000049001E0C6F804A098F8850300EB80003D
:10C9A00004EB400000EB800008EB8001D1F820058B
:10C9B000421C3DD091F8241501230522FCF7FDFB14
:10C9C0007F4A05EB04110023F620FCF7ACFB98F836
:10C9D000850300EB800004EB400000EB800008EBD7
:10C9E000800101F58051D1F88805421C25D091F8CD
:10C9F0008C1501230522FCF7E0FB714A05EB0411BD
:10CA000000235846FCF78FFB98F8850300EB800065
:10CA100004EB4000404400F5005090F8FB05FF286F
:10CA200010D005EB04114FF0000380B165A20FE0B8
:10CA300005EB0411002364A2C6E705EB04110023F3
:10CA400061A2DEE705EB0411002361A200E061A210
:10CA50004FF4DF70FCF767FB042F02D2C6F8049096
:10CA600001E0C6F804A098F88503474600EB800073
:10CA700004EB4000384490F885031E2804D905EBE8
:10CA80000411002350A208E000EB400101EBC000BC
:10CA90004749421805EB041100232620FCF743FB0D
:10CAA00097F8850300EB800004EB4000384490F8D1
:10CAB0005704022804D905EB0411002342A208E020
:10CAC00000EB400101EBC0003A49421805EB0411AC
:10CAD00000239220FCF727FB97F88503012300EB46
:10CAE000800004EB400003220021FCF766FB05EB0D
:10CAF00004110023324A0820FCF715FB641CE4B241
:10CB00000B2CFFF441AFBDE8F09F2DE9F84F044630
:10CB1000007802280CD002D9A078FEF774FD2078A6
:10CB2000204E4FF0FF094FF05017012803D004E0CA
:10CB3000FEF722FDF3E7A078C8B138467760009091
:10CB40002A235E221A213620FBF741FFDFF85880A6
:10CB500016490023D8F8C40200EBC00042181A217D
:10CB60003620FCF78EFA2078022804D006E04846EA
:10CB7000C6F80490E3E7A07800287DD038467760B7
:10CB8000009042231E2232210020FBF720FF0023C9
:10CB900011A232211846FCF774FAC3460325B246A7
:10CBA000B8461BE0100000103C050010202C0300CC
:10CBB000CC2D03008F2F0300380031003434650082
:10CBC00068530010500000002D2D2D2D0000000096
:10CBD0002D000000460000004E6F2E002078A84275
:10CBE00002D1A07802287CD0CAF80480DAF80400C8
:10CBF0000090232000EB0517132000EB05163B46A1
:10CC00004FF499723146FA20FBF7E1FEE07800EB31
:10CC1000800005EB400000EB80010BEB8101D1F8B7
:10CC2000F804421C7DD091F8FC1401230522FCF786
:10CC3000C4FAFF4A31460023FA20FCF774FA207840
:10CC4000A84202D1A07803286CD0CAF80480DAF890
:10CC5000040000903B4631464FF4C1724FF4A5707A
:10CC6000FBF7B5FEE07800EB800005EB400000EB41
:10CC700080010BEB810100E060E001F58051D1F80B
:10CC80006005421C69D091F8641501230522FCF768
:10CC900094FAE74A314600234FF4A570FCF743FAB3
:10CCA0002078A84202D1A07804285CD0CAF8048079
:10CCB000DAF8040000903B46314640F2DF124FF4B0
:10CCC000D270FBF784FEE07800EB800005EB4001BA
:10CCD00001EB0B0000F50050314690F8F905FF28F4
:10CCE00000E02FE04FF0000340D0AFF228124FF4E5
:10CCF000D270FCF718FA2078A84201D1A07888B346
:10CD0000CAF80480DAF8040000903B4631467E22DF
:10CD10002820FBF75CFEE07800EB800005EB40018B
:10CD200001E012E016E001EB0B0090F883033028DD
:10CD300022D931460023AFF2701225E04846C6F8EA
:10CD400004901DE7CAF8049050E731460023AFF283
:10CD5000881271E7CAF8049079E731460023AFF2F0
:10CD6000981299E705E0CAF80490A1E7AFF2A8127B
:10CD7000BDE7CAF80490C5E700EB400101EBC00035
:10CD8000AC494218314600232820FCF7CCF9207822
:10CD9000A84202D1A07801281AD0CAF80480DAF893
:10CDA000040000903B463146C4227E20FBF70FFE74
:10CDB000E07800EB800005EB400101EB0B0090F800
:10CDC0005504022807D931460023AFF204220AE0B5
:10CDD000CAF80490E3E700EB400101EBC00096497C
:10CDE0004218314600237E20FCF79DF9CAF80480E2
:10CDF000E078012300EB800005EB400003220021D6
:10CE0000801EFCF7DAF931460023894A0820FCF736
:10CE10008AF96D1CEDB20D2DFFF4C3AEBDE8F88F9D
:10CE20002DE9F843854D4FF0501604466E600078AA
:10CE3000012800D00020FF2700B16F6068680090D3
:10CE40002A2358221A213020FBF7C1FD7C48DFF845
:10CE5000E881012390F8840308F1FD0800EB8001CC
:10CE600001EB08021A213020FCF70BF92078022888
:10CE700003D0002018B16F6002E00120FAE76E6075
:10CE80006868009040231E2230210820FBF79FFD98
:10CE90000123AFF2BC2230210820FCF7F2F8FDF7A5
:10CEA000C3FD207867496FF07F42012806D0022831
:10CEB00017D06078BDE8F843FEF7DBBAC5E900217A
:10CEC00000244546542604EB8400421906EB00106A
:10CED00080B20023F121FCF7D4F8641C022CF2D3B9
:10CEE000EFE4C5E90021584D00244FF4A276C4EBCD
:10CEF000C400421904EB840006EB001080B200234A
:10CF0000F121FCF7BEF8641C022CF0D3D9E42DE922
:10CF1000F84304464A48494F4FF05015D0F85003A3
:10CF200001280ED1484A0123153A1646D2211E2067
:10CF30007D60FCF7A6F801233246D2219620FCF74B
:10CF4000A0F82078012800D00020FF2608B17E60DC
:10CF500000E07D60DFF8F480002305220321D8F88B
:10CF60000400FCF72AF9786800902C23C0221821CD
:10CF70006720FBF72CFD00232D4A1A216820FCF7BF
:10CF800080F8012332A21A21AC20FCF77AF820782D
:10CF9000022803D0002018B17E6002E00120FAE7E9
:10CFA0007D60002305220321D8F81800FCF705F95D
:10CFB000786800904223C0222E216720FBF707FDEE
:10CFC00000231B4A30216820FCF75BF8012320A2D4
:10CFD0003021AC20FCF755F82078032803D000203E
:10CFE00018B17E6002E00120FAE77D60002305228F
:10CFF0000321D8F82C00FCF7E0F87868009058235B
:10D00000C02244216720FBF7E2FC0023084A4621A6
:10D010006820FCF736F801230EA24621AC20FCF76D
:10D0200030F82078042817D00020B8B17E6016E0D0
:10D0300068530010CC2D03008F2F03001000001048
:10D040003C05001038003100963003007C3C001095
:10D0500041000000560000000120E6E77D6000234B
:10D0600003221946D8F84000FCF7A7F8786800902A
:10D070002C2340F2C312182140F27110FBF7A7FCD9
:10D080000023FE4A1A214FF4B970FBF7FAFF01237F
:10D09000FBA21A214FF4D670FBF7F3FF2078052886
:10D0A00003D0002018B17E6002E00120FAE77D6025
:10D0B0002078062803D0002018B17E6002E001200D
:10D0C000FAE77D60FDF7B0FC2078002803D8BDE8C2
:10D0D000F843FDF723BE03E72DE9F84F0446E9487E
:10D0E000E94E4FF05015D0F8500301280DD1E74A12
:10D0F00001231746D2211E207560FBF7C2FF0123D2
:10D100003A46D2219620FBF7BCFF2078012800D0B8
:10D110000020FF2708B1776000E07560706800901C
:10D120002C23C02218216720FBF751FCDFF8608315
:10D13000DFF86093002398F8C810682009EBC1025B
:10D140001A21FBF79EFF2078022803D0002018B197
:10D15000776002E00120FAE77560002305220321D1
:10D16000D8F8A400FCF729F8706800904223C02288
:10D170002E216720FBF72BFC0023C04A30216820BA
:10D18000FBF77FFF0123AFF238123021AC20FBF711
:10D1900078FF2078042803D0002018B1776002E0DF
:10D1A0000120FAE77560002305220321D8F89000DA
:10D1B000FCF703F8706840F2C31A40F2711B00904C
:10D1C0002C23524618215846FBF701FC0023AB4A9A
:10D1D0001A214FF4B970FBF754FF0123AFF28C1200
:10D1E0001A214FF4D670FBF74CFF2078052803D0A6
:10D1F000002018B1776002E00120FAE77560002393
:10D2000005220321D8F8B800FBF7D7FF706800901B
:10D21000422352462E215846FBF7D9FB0023974A5A
:10D2200030214FF4B970FBF72CFF0123AFF2DC1271
:10D2300030214FF4D670FBF724FFFDF7F5FB207883
:10D2400002281CD2DFE800F00105BDE8F84FFDF729
:10D2500065BD6FF07F4030608F48002470604D46A0
:10D26000582604EB840006EB001005EBC40280B2E4
:10D270000023F121FBF705FF641C022CF1D3CDE55F
:10D280002DE9F84F0546824805276A78D0F85C01F9
:10D29000824EB0FBF7F1491D914201D91E2006E0F4
:10D2A000B0FBF7F107FB110000EB8000401DB070F0
:10D2B000C0B2401F90FBF7F0C0B2FDF7A6FF0024FC
:10D2C000DFF8DC914FF05F0A19E06F49002302227A
:10D2D000C1F804906878194600EB800020441838A3
:10D2E000FBF76BFF04EB440000EBC4010AEB4100C9
:10D2F00081B20123614A0320FBF7C3FE641CB078AE
:10D30000B846401F90FBF8F0A042DED8DFF88C91C1
:10D31000052409F13E09DFF88CB109F10C07B2E2EE
:10D32000B4FBF8F0DFF860A137F81000401E83B2BC
:10D33000B4FBF8F008FB104009EB4000DAF8046099
:10D340004088401E82B2B4FBF8F007EB400030F892
:10D35000020C401C81B2B4FBF8F008FB104039F815
:10D3600010000096401C80B2FBF731FBB4FBF8F0D4
:10D3700008FB104090B1B4FBF8F008FB1040012806
:10D380005FD0B4FBF8F008FB1040022874D0B4FB67
:10D39000F8F008FB104003286FD073E23C4E96F87B
:10D3A000D50801282ED1601FB0FBF8F269785B46E2
:10D3B00001EB81010A4402EB82020BEB8202D2F8FC
:10D3C0009426012A15D0B0FBF8F20A4402EB82023F
:10D3D00003EB8202D2F894266AB1B0FBF8F008445D
:10D3E00000EB80000BEB8000D0F89406022805D0FB
:10D3F00008E0FF2004E04FF47F4001E06FF07F4041
:10D40000CAF80000601FB0FBF8F1687800EB8000FC
:10D41000084430441F4990F855012C31C0EBC0003E
:10D420004218B4FBF8F007EB400030F8020CC01CC7
:10D4300081B2B4FBF8F008FB104339F81300C01CAC
:10D440001CE2134B93F8D508012849D1601FB0FBAB
:10D45000F8F269785E4601EB81010A4402EB820230
:10D460000BEB8202D2F89426012A2ED0B0FBF8F200
:10D470000A4402EB820217E0AFE080E1685300103B
:10D480006D7300003C050010100000108130030097
:10D490007C3C0010DD240300380031003400001013
:10D4A000343465006C45001006EB8202D2F89426F5
:10D4B0006AB1B0FBF8F0084400EB80000BEB800091
:10D4C000D0F89406022807D00AE0FF2006E04FF4C7
:10D4D0007F41CAF8001003E06FF07F40CAF80000F7
:10D4E000661FB6FBF8F168789A4600EB80000A18D0
:10D4F00002EB0A0191F8551105290CD0B6FBF8F1A1
:10D50000084400EB80010BEB810000230522D0F8DA
:10D51000E40103212BE04246B6FBF2F1014401EBAA
:10D5200081030BEB8303D3F8E431B3F5FA6F12D91F
:10D53000B4FBF2F007EB400030F8020CC01C81B2E3
:10D54000B4FBF2F008FB104239F81200F9A2C01C3B
:10D5500080B200231FE0B6FBF8F2104400EB80001D
:10D560000BEB80000023D0F8E40104220121FBF73B
:10D5700024FEB4FBF8F0B4FBF8F207EB400008FB24
:10D58000124230F8020C0023C01C81B239F812009C
:10D59000EA4AC01C80B2FBF774FD4046B6FBF0F2CD
:10D5A0006978B4FBF8F301EB81010A4402EB0A014C
:10D5B000E34A91F8551108FB1343C1EBC1010A443A
:10D5C000B4FBF0F107EB4101DE4831F8021CC91C45
:10D5D00030F8130089B23F3050E1DB4B93F8D508A7
:10D5E00001282ED1601FB0FBF8F269785E4601EB8E
:10D5F00081010A4402EB82020BEB8202D2F89426EC
:10D60000012A15D0B0FBF8F20A4402EB820206EBC5
:10D610008202D2F894266AB1B0FBF8F0084400EB1D
:10D6200080000BEB8000D0F89406022805D008E0BB
:10D63000FF2104E04FF47F4101E06FF07F41CAF821
:10D640000010661FB6FBF8F168789A4600EB800080
:10D650000A1802EB0A01424691F855110529B6FB5A
:10D66000F2F113D00B1803EB0A0191F855110629BA
:10D6700036D0B6FBF8F1084400EB80010BEB8100DB
:10D6800000230522D0F81003032141E0014401EBFF
:10D6900081030BEB8303D3F81033B3F5FA6F12D980
:10D6A000B4FBF2F007EB400030F8020CC01C81B272
:10D6B000B4FBF2F008FB104239F812009DA2C01C26
:10D6C00080B2002338E0B6FBF8F2104400EB800093
:10D6D0000BEB800000230422D0F81003012117E097
:10D6E000B6FBF2F1014401EB81030BEB8303D3F8AA
:10D6F0001033B3F5FA6FD3D8B6FBF8F2104400EB51
:10D7000080000BEB80000023D0F8100304221946A0
:10D71000FBF753FDB4FBF8F0B4FBF8F207EB400065
:10D7200008FB124230F8020C0023C01C81B239F809
:10D730001200824AC01C80B2FBF7A3FC4046B6FB35
:10D74000F0F26978B4FBF8F301EB81010A4402EBD3
:10D750000A017B4A91F855113132C1EBC1010A44EB
:10D76000B4FBF0F107EB410108FB1343754831F8B6
:10D77000021CC91C30F8130089B253307EE0661FCA
:10D78000B6FBF8F1687800EB80000A186E490A448D
:10D7900092F855217AB1B6FBF8F202440A4492F8A5
:10D7A0005521012A07D0B6FBF8F202440A4492F848
:10D7B0005521022A66D191F8D528012A0ED1B6FB4F
:10D7C000F8F2104400EB80020BEB8200D0F89406D4
:10D7D00001285FD04FF47F40CAF80000B6FBF8F292
:10D7E00068788A4600EB8000024402EB0A014FF0A1
:10D7F000000391F855110229B6FBF8F1084400EB3B
:10D8000080010BEB8100D0F83C0445D005220021BB
:10D81000FBF7D3FCB4FBF8F0B4FBF8F207EB4000E5
:10D8200008FB124230F8020C0023C01C81B239F808
:10D830001200424AC01C80B2FBF723FC4046B6FBF4
:10D84000F0F26978B4FBF8F301EB81010A4402EBD2
:10D850000A013B4A91F855116232C1EBC1010A44F9
:10D86000B4FBF0F107EB410108FB1343354831F8F5
:10D87000021CC91C30F8130089B2673080B2002343
:10D88000FBF7FFFB641C2F48303880788442FFF49C
:10D8900047ADF4E4FF209FE70622B8E72DE9F84FF3
:10D8A00004460078012800D00020284FFF254FF0C3
:10D8B000501608B17D6000E07E60DFF88C800023A8
:10D8C00003221946D8F85C01FBF777FC78680090D2
:10D8D0002C23C92218216720FBF779F80023174A67
:10D8E0001A216820FBF7CDFB2078022803D0002006
:10D8F00018B17D6002E00120FAE77E607868009050
:10D900004223C0222E216720FBF761F898F86C01B2
:10D910000023C0EBC0010A48A1380A183021682052
:10D92000FBF7AFFB2078032812D0002090B17D6078
:10D9300011E000002D2D2D2D2D000000685300104A
:10D940008E250300640000107C3C001010000010C5
:10D950000120EBE77E60786840F2711A00902C237A
:10D9600040F2C31218215046FBF731F898F8EC0842
:10D970004FF4B979C0EBC001FC4800230A181A2102
:10D980004846FBF77EFB2078042803D0002018B11E
:10D990007D6002E00120FAE77E600023052203217A
:10D9A000D8F8DC08FBF709FC78680090422340F2C5
:10D9B000C7122E215046FBF70AF80023EC4A30210B
:10D9C0004846FBF75EFB0123AFF6781230214FF497
:10D9D000D770FBF756FB6FF07F49C7E90096CA2363
:10D9E000FA225C2100200096FAF7F1FF0023E1A261
:10D9F0005E211846FBF745FB0023DFA25E213220A3
:10DA0000FBF73FFBDFF874A300230222DAF8B40926
:10DA10001946401CFBF7D1FB0023D54A5E21162096
:10DA2000FBF72FFB2078052803D0002018B17D607C
:10DA300002E00120FAE77E60786800907023AA2255
:10DA40005C216420FAF7C3FFDFF834B3DAF8B419C5
:10DA5000002311F80B00C549C0EBC0000E3142187D
:10DA60005E216420FBF70DFB7E60DAF8B41911F833
:10DA70000B0060B101287DD002287CD003287BD028
:10DA800004287AD0052879D00628FCD0A1E200230A
:10DA9000BCA272211846FBF7F4FA0023BC4A882185
:10DAA0001846FBF7EEFABA4A002318329E211846B0
:10DAB000FBF7E7FA0023AFF668227221AD20FBF7EF
:10DAC000E0FA0023AFF674228821AD20FBF7D9FAE3
:10DAD0000023B0A29E21AD20FBF7D3FA20780628C0
