:020000040000FA
:10000000785A001041F3000049F300004BF3000060
:100010004DF300004FF3000051F30000000000001A
:1000200000000000000000000000000053F300008A
:1000300055F300000000000057F3000081040000A9
:100040005BF3000077050000A7050000B70500007E
:10005000C70500008B0401005BF300005BF30000A8
:10006000230601005BF300005BF300005BF300007C
:100070005BF300005BF300005BF300005BF3000048
:100080005BF3000059F100005BF300005BF300003C
:100090005BF300005BF300005BF300005BF3000028
:1000A0006B1801005BF30000C1F100005BF300007E
:1000B0005BF300005BF300005BF300005BF3000008
:1000C0005BF300005BF300005BF300005BF30000F8
:1000D0005BF300005BF30000210300005BF3000012
:1000E0005BF30000DFF80CD012F022FD004800475F
:1000F00063030000785A0010834840F20121C0F8E1
:100100008011C0F88411C0F88811C0F88C11C0F8B3
:100110009011C0F89411C0F89811C0F89C11C0F863
:10012000A011C0F8A411C0F8A811C0F8AC11C0F813
:10013000B011C0F8B411C0F8B811C0F8BC11C0F8C3
:10014000C011C0F8C411C0F8C811C0F8CC11C0F873
:10015000D011C0F8D411C0F8D811C0F8DC11C0F823
:10016000E011C0F8E411C0F8E811C0F8EC11C0F8D3
:10017000F011C0F8F411C0F8F811C0F8FC11C0F883
:100180000012C0F80412C0F80812C0F80C12C0F82F
:100190001012C0F81412C0F81812C0F81C12C0F8DF
:1001A0002012C0F82412C0F82812C0F82C12C0F88F
:1001B0003012C0F83412C0F83812C0F83C12C0F83F
:1001C0004012C0F84412C0F84812C0F84C12C0F8EF
:1001D0005012C0F85412C0F85812C0F85C12C0F89F
:1001E0006412C0F84011C0F84411C0F84811C0F8BA
:1001F0005011C0F86011C0F87011C0F87411C0F847
:100200007811C0F87C1170472DE9F041DFF8FC80CF
:10021000434653F8C40F40F40060186041F61F7065
:10022000C3F818013A4C012222600026A660FFF7AD
:1002300063FF384838490068B0FBF1F5D86B00B16E
:100240006D084FF47A77B7FBF5F101F11300B0FBBD
:10025000F1F323630F236363A663E263B0FBF1F062
:10026000801C2064626401F13E00B0FBF1FCC4F824
:1002700048C0B0FBF1FCC4F84CC02365B0FBF1F002
:100280006065A265A26240F20330C4F804014FF435
:100290008D40C4F80001C4F800016421002000F082
:1002A00017F940F283102062C821002000F010F9F5
:1002B00040F20310206202206062401C8028FCD3C0
:1002C00040F2E7104543B5FBF7F080B2606283204F
:1002D0002062124800682662D4F8000140F4002031
:1002E000C4F800010121002000F0F2F801210020F3
:1002F00000F0EEF8D8F8DC1121F01F0141F01101F7
:10030000C8F8DC11BDE8F08100C0024000C00F4019
:1003100000C009207802001040420F00004006A0F3
:1003200010B50122132100200FF087F9002817D003
:100330006148401EFDD161486149012203781BB12B
:1003400000220270132001E00270022008604FF4C6
:10035000002100200FF090F95A494020C1F8800197
:1003600010BD00200FF06FFA4FF47A71B0FBF1F07E
:100370000024401E2646B0F1807F0CD220F07F4042
:100380004FF0E025401E68611F21601E00F084F8D8
:10039000AE61072028610122D10400200FF031F95D
:1003A0000121262000F078F846494020C1F80001DC
:1003B0000EF039FE0EF0B6FD0FF0C0FF3F4806709C
:1003C000042010F0D9F810F0E3FA0EF0DBFE0EF086
:1003D0002AFE0EF07CFDFFF717FF002000F096F9D3
:1003E00039480021406900F0BAF9012000F08EF987
:1003F00000200EF0F4FD324D13204FF0501628600F
:100400000EF07CFEFF2803D0641C022C02D004E016
:10041000002402E0304600F073FA2868801E12289B
:10042000EED2DFE800F00A09090910181B1E2109A5
:10043000090909242709092AE2E7304600F060FA91
:1004400009F02AFDDCE7304600F05AFA0EF058FCBD
:100450000BF012FED4E709F0D4FFD1E70AF09EF9C1
:10046000CEE70AF062FDCBE70BF0AAFBC8E70DF080
:100470009DFEC5E70DF09BF9C2E70EF0EDF8BFE772
:1004800012480168491C01607047104A11681368DE
:100490005B1A8342FBD37047C906090E002806DAAF
:1004A00000F00F0000F1E02080F8141D704700F10B
:1004B000E02080F800147047FDFFFF006402001088
:1004C0006802001004E000E01C00001000000010B2
:1004D000F0B5864A0023FF25042612684FF0020C6F
:1004E0004FF47A740127A8B1012824D0022832D011
:1004F00003280ED17E48C0F804C0C360B2FBF4F2FA
:10050000521E4A4382610560466147604168C907DF
:10051000FCD1F0BD4FF04020C0F804C0C360B2FB76
:10052000F4F2521E4A4382610560466147604168A9
:10053000C907FCD1F0BD6F48C0F804C0C360B2FB6E
:10054000F4F2521E4A438261056046614760416889
:10055000C907FCD1F0BD6848C0F804C0C360B2FB55
:10056000F4F2521E4A438261056046614760416869
:10057000C907FCD1F0BD4FF04021012008605F4861
:100580000168491C01605E4801785E48012906D077
:100590008168491C81604168491C4160704701685D
:1005A000491C0160F7E7534901200860554841683C
:1005B000491C4160704750490120086051488168DA
:1005C000491C816070474A49012008604D48C16854
:1005D000491CC1607047012138B1012808D00228A8
:1005E00009D0032806D1424803E04FF0402000E044
:1005F0004048416070474048FBE7002140B1012876
:1006000009D03D4A022801D0032800D1516070472B
:100610004FF0402000E037484160704738B1012872
:100620000CD002280CD0032807D1314809E04FF044
:100630004021486840F00200486070472D4800E0C3
:100640002D48416841F002014160704770B50024B7
:100650002C4D2D4A032338B1012818D0022821D06F
:1006600003282AD0002070BD2C6052F8C40F40F03F
:10067000020010604FF04020426842F002024260E7
:100680004EF65F22C2608161436101201FE06C6011
:1006900052F8C40F40F004001060164881614361B5
:1006A000022014E0AC6052F8C40F40F480001060E7
:1006B000114881614361032009E0EC6052F8C40FE6
:1006C00040F4000010600A4881614361042000F09A
:1006D00002F8012070BD00F01F0201219140400985
:1006E000800000F1E020C0F8001170477C0200108B
:1006F0000040094000800040000009402C0200102A
:10070000600200100400001000C00F40FC4908B552
:100710000028886942F210720CD040F00100886114
:100720000092886940F4006088610098401E009043
:10073000F7D108BD20F40060886110460092401E89
:100740000090FCD1886920F00100886108BDED4A65
:10075000002108C8491C08C28029FAD3704770B527
:10076000EA4BE94C4FF0270208001A615A61C3F8BE
:100770007022C3F87422C3F81821C3F81C21C3F8EF
:100780002021C3F824219A61DA61C3F8D020C3F88C
:10079000D420C3F8D820C3F8DC20C3F8E020C3F885
:1007A000E4201A625A62C3F83021C3F83421C3F836
:1007B000E820C3F8EC20C3F8F020C3F8F420C3F815
:1007C0000821C3F81421C3F80C21C3F81021C3F881
:1007D0000021CF4A116C41F002011164916D41F08A
:1007E0000A019165CB4951F8C42F42F001020A6019
:1007F000C94A136823F001031360C14A4FF0000394
:100800009361956925F00E059561956945F00A0596
:100810009561956945F020059561956925F08005FC
:100820009561956925F480759561956925F4007544
:100830009561956925F480659561956925F4006554
:100840009561B64DB64E2D68B5FBF6F5C1F8F4507E
:10085000916841F080619160916821F02001916080
:10086000916841F400619160916841F48051916018
:10087000916821F400519160916821F48041916068
:100880009168A84D01EA050191609168A64D41EA81
:10089000050191601360116841F01C5111601168ED
:1008A00041F480211160116841F480711160116878
:1008B00041F0740111605360516841F00061516072
:1008C000516841F400215160516841F480615160E8
:1008D000516840F20F1341EA030151601461546101
:1008E00001D0FFF734FF00204FF47F01CA1102C48A
:1008F000401C9042FBD342F20E70401EFDD170BDF1
:10090000814A00214FF4FF3301C2491C9942FBD3B5
:100910007047F0B5C3F58874C4EB0414C2F5F075E4
:10092000E40104EB8504784D121A2C440025C2F52D
:10093000F076591A059F08E0002001E080C4401CB1
:100940008242FBD804EB86046D1CA942F4D8F0BDAA
:100950006D4BB0F5F07F0DD2B1F5887F0AD2A1F2D0
:100960000F11C0F5F070A1EB011100EB4110401E1A
:1009700043F8202070472DE9F0431746DDF81C901E
:100980001E460D460446B84201D9274694B2B542E8
:1009900001D90E469DB2381B711B00B20FFA81FCC3
:1009A00068B1BCF1000F15D0604531DDC0EB4C01E2
:1009B0000EB24FEA4C01404201EB400825E04A46A6
:1009C00029462046FFF7C4FF6D1CADB2AE42F6D2F9
:1009D000BDE8F0834A4629462046FFF7B9FF641C6C
:1009E000A4B2A742F6D2F3E74A4629462046FFF7CB
:1009F000AFFF641CA4B2002E04DD6D1CADB208EB89
:100A0000060001E006EB4C0006B2BC42ECD11BE054
:100A1000CCEB40010FB24FEA4C01404201EB4008E1
:100A200010E04A4629462046FFF792FF6D1CADB202
:100A3000002F04DD641CA4B208EB070001E007EB03
:100A40004C0007B2B542ECD14A4629462046BDE8E3
:100A5000F0437DE72DE9FF5F884606469A4611463A
:100A60006846DDF838B008F0BDFF00254FEA0D09F3
:100A7000002419F805C008EB050700BFC4F1070002
:100A80002CFA00F0C00706EB0400B9B280B201D026
:100A9000524600E05A46FFF75BFF641C082CEDD37A
:100AA0006D1C102DE4D3BDE8FF9F2DE9FE4F884655
:100AB00006469A4611466846DDF830B008F09AFFBF
:100AC0000025E946002419F805C008EB050700BF1A
:100AD000C4F107002CFA00F0C00706EB0400B9B21D
:100AE00080B201D0524600E05A46FFF731FF641C45
:100AF000082CEDD36D1C0C2DE4D3BDE8FE8F000057
:100B00000080082000820820000001A000C00240F0
:100B10000080092000C00F40008C08207C020010DB
:100B20009C997400FFFF00FC0000DF012DE9F843F1
:100B30009946DDF8207016460D4604464FF4EC78D1
:100B400016F8012B4B46294620460097FFF782FFF7
:100B5000444502D20834A4B207E0FF2D4FF0000450
:100B600002D81035ADB200E0002530780028E7D17A
:100B7000BDE8F8832DE9FF4F81B090460C4605464D
:100B800006460F464FF0000CA6F1140080B2424614
:100B90002146FFF7DDFEA7F11400761C81B2B6B244
:100BA00042462846FFF7D4FE7F1C0CF1010C1FFAC9
:100BB0008CFCBFB2BCF1280FE6D3A4F114002E4682
:100BC00027464FF0000C04F1140AA5F1140B05F1AF
:100BD000140900900098A6F1140881B21FFA88F059
:100BE000049AFFF7B5FE1FFA8AF11FFA88F0049AFB
:100BF000FFF7AEFE761CA7F11408B6B21FFA88F113
:100C00001FFA8BF0049AFFF7A3FE1FFA88F11FFA70
:100C100089F0049AFFF79CFE7F1C0CF1010C1FFA6F
:100C20008CFCBFB2BCF10A0FD4D30026A4F1140A85
:100C300004F11409A5F1140805F1140705F10A0CD3
:100C40001FFA8AF11FFA8CF0049AFFF781FE1FFA4F
:100C500089F11FFA8CF0049AFFF77AFE6D1C04F1FB
:100C60000A0CADB21FFA8CF11FFA88F0049AFFF754
:100C70006FFE1FFA8CF1B8B2049AFFF769FE641C8C
:100C8000761CB6B2A4B20A2ED8D305B0BDE8F08F58
:100C900030B50246F8491378002000BF00EB8014FD
:100CA0000D5D9D4204D10C4455786478A54204D072
:100CB000401C80B27728F1D3002030BD30B5024609
:100CC000EE491378002000BF00EB001411F8145017
:100CD0009D4205D101EB440455786478A54204D0C7
:100CE000401C80B2D228EFD3002030BD2DE9F04F58
:100CF000044684468B46002502FB03F0C11790464C
:100D0000DFF87CA300EB517921E009980026475DCC
:100D1000380602D5DAF8002001E0DAF80420594656
:100D20002046FFF715FE641C7806A4B2070EA4EB5C
:100D30000C01414505D10BF1010064461FFA80FB0F
:100D400003E0761CF6B2082EE2D36D1CADB2B5EB13
:100D5000E90FDADB9AE72DE9F047894604460546B4
:100D6000C64902EB0210DFF818A301EB40084FF070
:100D7000000653BB08EB06005FF0000790F802C0C6
:100D80005FEA0C6002D5DAF8002001E0DAF804200E
:100D900049462046FFF7DCFD4FEA4C60641C4FEAF1
:100DA000106CA4B2601B102809D07F1CFFB2082F62
:100DB000E6D3761CF6B2202EDCD3BDE8F08709F12D
:100DC00001002C461FFA80F9F3E708EB0600002724
:100DD00090F802C05FEA0C6002D5DAF8042001E066
:100DE000DAF8002049462046FFF7B2FD4FEA4C6092
:100DF000641C4FEA106CA4B2601B102808D07F1C42
:100E0000FFB2082FE6D3761CF6B2202EDDD3D4E74E
:100E100009F101002C461FFA80F9F4E72DE9F047AB
:100E2000894604460546944902EB8210DFF850A239
:100E300000EB01084FF0000653BB00BF08EB0600B3
:100E40005FF0000790F802C05FEA0C6002D5DAF8A4
:100E5000002001E0DAF8042049462046FFF778FD3B
:100E60004FEA4C60641C4FEA106CA4B2601B182857
:100E700008D07F1CFFB2082FE6D3761CF6B23F2EB7
:100E8000DCD39AE709F101002C461FFA80F9F4E758
:100E900008EB06005FF0000790F802C05FEA0C6004
:100EA00002D5DAF8042001E0DAF8002049462046AD
:100EB000FFF74EFD4FEA4C60641C4FEA106CA4B281
:100EC000601B182808D07F1CFFB2082FE6D3761CC1
:100ED000F6B23F2EDCD370E709F101002C461FFA71
:100EE00080F9F4E730B514460D46024621462846FF
:100EF000FFF794FF182030BD30B514460D4602466A
:100F000021462846FFF727FF122030BD2DE9F84F74
:100F10009A4615460C46064600274FF4F0784FF4E3
:100F200088792A78002A3AD0F01986B2802A15D911
:100F300006F11800404505D916340026A4B24C45E8
:100F400000D900242846FFF7A3FE80B2534622466C
:100F50003146FFF7C7FF0746AD1CE2E70D2A15D063
:100F60000A2A1AD006F10C00404505D90C34002697
:100F7000A4B24C4500D9002441484168009103685F
:100F800021463046FFF766FD6D1CCAE71634A4B251
:100F90004C4500D900240027F6E70026FBE7BDE812
:100FA000F88FF8B515460F46064600242878002825
:100FB00021D0A0F13001092901D888B204E02E28FF
:100FC00015D02D2815D00C2000EBC001C1EB8010EE
:100FD0002C49372301EB80000090301980B2202289
:100FE0003946FFF783FE2034A4B26D1CDEE70A20E9
:100FF000EAE70B20E8E7F8BD2DE9F84306469946F5
:1010000015460C4600204FF4F0774FF488782A7884
:10101000002A42D0304486B2802A14D906F110004A
:10102000B84205D910340026A4B2444500D90024A2
:101030002846FFF743FE80B24B4622463146FFF773
:101040005BFFAD1CE3E70D2A1ED00A2A23D006F170
:101050000800B84205D908340026A4B2444500D996
:101060000024074841680091036821463046FFF795
:10107000F1FC0A206D1CCAE7F0440100276301005F
:101080001400001058A501001034A4B2444500D942
:1010900000240020EEE70026FBE769E52DE9F84390
:1010A0000646994615460C4600204FF4F0774FF45B
:1010B00088782A78002A3AD0304486B2802A14D917
:1010C00006F11000B84205D910340026A4B24445F8
:1010D00000D900242846FFF7F1FD80B24B46224696
:1010E0003146FFF709FFAD1CE3E70D2A16D00A2AA7
:1010F0001BD006F10800B84205D908340026A4B276
:10110000444500D9002433484168009103682146D2
:101110003046FFF7CAFC08206D1CCAE71034A4B2A1
:10112000444500D900240020F6E70026FBE71FE530
:10113000F0B5062A01D90A2201E002B901220529E7
:1011400000D90521914200D911460025224C2026C4
:1011500066556D1CEDB20C2DFAD315460A270DE02D
:10116000B0FBF7FC07FB1C0CB0FBF7F004EB050E23
:101170000CF1300C6D1E0EF801CCEDB2002DEFD14C
:1011800069B1104605E0251815F8015C2554401E8C
:10119000C0B2491EC9B2F6D22E21215400E0A65495
:1011A00073B90020511E09E0235C302B08D12318AD
:1011B0005B782E2B04D02654401CC0B28842F3DB4F
:1011C000521CD0B2002102E02154401CC0B20C28B5
:1011D000FAD3F0BD1400001044530010704738B526
:1011E00005464FF05014E4234FF4C872D021032079
:1011F0000094FFF78EFB002D0ED0012D0CD1FD4881
:10120000FF210023C0E9001401B0D021BDE8304027
:10121000F9A20320FFF7F0BE38BD2DE9F84F0024F6
:10122000A2464FF04C0940F20F18FE4F4FF04E0B04
:10123000FD48009004EB4401A00001EB041100EB19
:10124000810004EB840509EB051680B2B2B2434677
:10125000E421FFF75EFB012000EB0510E323B2B2AF
:1012600080B219460097FFF786FBB2B2B0B2434690
:10127000E3210097FFF77FFB4D2000EB051082B2C2
:10128000564680B24346E321CDF800A0FFF773FB3A
:101290000BEB051082B280B24346E3210096FFF7C4
:1012A0006AFB4F2000EB051082B280B24346E32177
:1012B0000096FFF760FB641C062CB9D3BDE8F88FDD
:1012C00010B5FFF7AAFFCB48D749002341606FF064
:1012D0007F410160D5A2F1215420FFF78DFE00234C
:1012E000F121BDE81040D3A2A420FFF785BE10B5C0
:1012F000FFF793FFBF48CC49002341606FF07F4167
:101300000160F121BDE81040CBA25420FFF774BE6C
:1013100010B5FFF782FFB748C349002341606FF063
:101320007F410160F121BDE81040C4A25420FFF7C5
:1013300063BE10B5FFF771FFAE48BB4900234160A3
:101340006FF07F410160F121BDE81040BCA2542044
:10135000FFF752BE10B5FFF760FFA648B249002361
:1013600041606FF07F410160F121BDE81040B5A2FE
:101370005420FFF741BE10B5FFF74FFF9D48AA4923
:10138000002341606FF07F410160F121BDE8104012
:10139000ADA25420FFF730BE10B5FFF73EFF9548D1
:1013A000A149002341606FF07F410160F121BDE858
:1013B0001040A6A25420FFF71FBE10B5FFF72DFF67
:1013C0008C489949002341606FF07F410160F12111
:1013D000BDE810409EA25420FFF70EBE10B5FFF7E7
:1013E0001CFF84489049002341606FF07F410160F9
:1013F00093A2F1215420FFF7FFFD0023F121BDE866
:10140000104095A2A420FFF7F7BD2DE9F047044650
:10141000FFF703FF77488449904E41606FF07F41AA
:10142000002C06F118054FF4D1794FF0710A0160D4
:101430004FF0000404D037461E364FF06C082EE003
:101440004F46D04601E0042C11D004EB440006EBDB
:10145000400204EB840108EB01100023F121FFF7A7
:10146000CBFD641CE4B2052CEDD3BDE8F0872A4621
:101470003846F2E7042C0ED08CB1032C14D004EBC8
:10148000440007EB400204EB84010AEB0110002347
:10149000F1211E320EE005F11E02484601E03246FF
:1014A00040460023F12105E06C4A4FF4A77030322A
:1014B0000023F121FFF7A0FD641CE4B2052CD9D371
:1014C000D3E710B5FFF7A9FE4A485749002341600A
:1014D0006FF07F41016062A2F1215420FFF78CFD83
:1014E0000023F121BDE810405EA2A420FFF784BDD7
:1014F00010B5FFF792FE3F484B49002341606FF063
:101500007F410160F121BDE8104057A25420FFF750
:1015100073BD10B5FFF781FE36486FF07F4140F292
:1015200043140160404941605048D0F8D01201296D
:101530001BD000292ED100234DA2F2215320FFF70A
:101540005BFD00234DA2F221A320FFF755FD0023F0
:101550004DA2F221F320FFF74FFD00234DA22046BC
:10156000BDE81040F221FFF747BD00234CA2F22155
:101570005320FFF741FD00234CA2F221A320FFF7E7
:101580003BFD00234BA2F221F320FFF735FD0023A2
:101590004AA2E4E710BD70B5FFF73FFE15486FF0B3
:1015A0007F4140F2431401601F4941602F4840F2DF
:1015B0009315D0F8D01201291AD0002919D100238F
:1015C0002BA2F2215320FFF717FD00232BA2F221BB
:1015D000A320FFF711FD00232BA2F221F320FFF738
:1015E0000BFD00232BA2F2212046FFF705FD6BE047
:1015F00072E090E014000010C7EBC8B7C8CFB1BBD1
:10160000B2E2B5E7B3D8D3D0B9FDB3E4B1A3BBA47C
:10161000B9A6C4DCD4D9BDF8D0D0B4CBCFEEB2E2F9
:10162000CAD4000068436900380031006D736563F7
:1016300000000000736563005600000041000000D8
:10164000730000006D7300006DA6B8006BA6B800B3
:1016500053746570730000006D696E00059701009A
:10166000487A00004B487A002A3100001C0500101F
:10167000C4DAD7E8B2E2CAD400000000B3CCBFD8C5
:10168000B8BAD4D800000000B3CCBFD8B5E7D4B402
:1016900000000000C1D0B1EDB2E2CAD400000000E9
:1016A000492E522054455354000000004C4F4144F1
:1016B00000000000504F5745520000004341504188
:1016C00043495459000000000023FDA22846BDE80C
:1016D0007040F221FFF790BC0023AFF23C02F221F0
:1016E0005320FFF789FC0023AFF24002F221A32030
:1016F000FFF782FC0023AFF24402F221F320FFF750
:101700007BFC0023AFF24C02F2212046FFF774FC71
:101710000023EEA2DAE770BD10B5FFF77EFDED48BD
:101720006FF07F410160EC494160EC48D0F8D00295
:10173000012818D0002831D10023AFF2CC02F221C9
:101740005320FFF759FC0023AFF2D002F221A3206F
:10175000FFF752FC0023AFF2D002F221F320BDE8E4
:101760001040FFF749BC0023AFF2CC02F221532016
:10177000FFF742FC0023AFF2CC02F221A320FFF7D7
:101780003BFC0023AFF2D402F221F320FFF734FC3C
:101790000023D3A2F22140F24310E0E710BD10B5C0
:1017A000FFF73BFDCB486FF07F410160CA494160C4
:1017B000CA48D0F8D002012816D0002826D100232C
:1017C000C9A2F221A320FFF717FC0023C8A2F2212F
:1017D000F320FFF711FC0023C8A2F2214FF4A670FA
:1017E000BDE81040FFF708BC0023C6A2F221A320E9
:1017F000FFF702FC0023C5A2F221F320FFF7FCFB58
:101800000023C4A2F22140F24310E9E710BD10B555
:10181000FFF703FDAF486FF07F410160AE494160C3
:10182000AE48D0F8D002012816D0002826D10023D7
:10183000BAA2F221A320FFF7DFFB0023B9A2F22115
:10184000F320FFF7D9FB0023ACA2F2214FF4A670DE
:10185000BDE81040FFF7D0BB0023B4A2F221A320C3
:10186000FFF7CAFB0023A7A2F221F320FFF7C4FB76
:101870000023A8A2F22140F24310E9E710BD2DE9B0
:10188000F84F0646DFF8AC924FF4F07ACA2352467E
:101890005C210020CDF80090FFF73BF806EB4600F6
:1018A00000EBC6015C2000EB41056FF07F44002295
:1018B0002B46462110460094FFF75DF828222B4660
:1018C000462110460094FFF756F850222B46462139
:1018D00010460094FFF74FF801274FF0500807EB30
:1018E000870108EB01122B46104646210094FFF7B2
:1018F00042F87F1CFFB2052FF1D300254627B61C06
:101900000EE000BF05EB450000EBC50007EB400310
:101910001946524600200094FFF72DF86D1CEDB2D9
:10192000B542EFD36B496D4840F24314C1F80490BF
:10193000D0F8D01240F2931501292ED0002953D1AE
:1019400000237DA249210320FFF756FB00237CA240
:1019500049212B20FFF750FB00237BA24921532074
:10196000FFF74AFB00237AA24921A320FFF744FB9B
:10197000002379A24921F320FFF73EFB002379A23F
:1019800049212046FFF738FB002379A201B0284601
:10199000BDE8F04F4921FFF72FBB002376A2492174
:1019A0000320FFF729FB002374A249212B20FFF716
:1019B00023FB002373A249215320FFF71DFB0023C3
:1019C00072A24921A320FFF717FB002371A249212E
:1019D000F320FFF711FB002370A249212046FFF7F7
:1019E0000BFB00236FA2D1E768E42DE9F84F064610
:1019F000DFF840914FF4F07ACA2352465C21002070
:101A0000CDF80090FEF785FF06EB460000EBC6011F
:101A10005C2000EB41056FF07F4400222B464621FD
:101A200010460094FEF7A7FF28222B4646211046B9
:101A30000094FEF7A0FF50222B464621104600944A
:101A4000FEF799FF01274FF0500807EBC70000EBA6
:101A5000071108EB81022B46104646210094FEF741
:101A60008AFF7F1CFFB2042FEFD300254627B61C48
:101A70000EE000BF05EB450000EBC50007EB40039F
:101A80001946524600200094FEF775FF6D1CEDB21A
:101A9000B542EFD30F49114840F21B14C1F804902E
:101AA000D0F8D01240F27F1501297FD000297ED1D5
:101AB000002321A249210320FFF79EFA002377E0AB
:101AC000CFB5CDB3C9E8D6C3000000005359535376
:101AD0004554200014000010380031001C0500108F
:101AE000434F4D5000000000CFC2D2BBB2BD00003A
:101AF000B2E2CAD4BDE1B9FB0000000020B7B5BB1B
:101B0000D80000004E45585400000000524553557F
:101B10004C5400004241434B00000000C9CFD2BBEF
:101B2000D2B30000CFC2D2BBD2B300005052455650
:101B30000000000034346500D0F2BAC50000000097
:101B4000CFEEC4BF00000000B2CECAFD31000000DD
:101B5000B2CECAFD32000000BDD8D6B9B5E7D1B9C2
:101B600000000000BDD8D6B9B5E7C1F700000000FD
:101B7000CAB1BCE4000000004E4F00004D4F444588
:101B800000000000504152413100000050415241DC
:101B900032000000434F464656000000434F464681
:101BA0004300000054494D450000000021E045E09D
:101BB000AFF2740249212B20FFF71EFA0023F6A290
:101BC00049215320FFF718FA0023F5A24921B72035
:101BD000FFF712FA0023F4A249212046FFF70CFA7E
:101BE0000023F4A201B02846BDE8F04F4921FFF7D9
:101BF00003BA0023AFF2800249210320FFF7FCF96A
:101C00000023AFF2880249212B20FFF7F5F90023CA
:101C1000AFF2900249215320FFF7EEF90023AFF213
:101C200094024921B720FFF7E7F90023E4A24921F4
:101C30002046FFF7E1F90023E3A2D3E7D4E610B58D
:101C40000446FFF7EAFAE249E248E34A6FF07F43CD
:101C5000BCB1C1E90030012C3BD0D2F8D002012840
:101C600066D000286DD10023DCA2F2215320FFF7BB
:101C7000C3F90023DBA2F221A320BDE81040FFF747
:101C8000BBB9C1E90030D2F8D002012812D0002837
:101C900057D10023D5A2F2215320FFF7ADF900233D
:101CA000D5A2F221A320FFF7A7F90023D5A2F221A4
:101CB000FC20E2E70023D5A2F2215320FFF79CF994
:101CC0000023D4A2F221A320FFF796F90023D3A288
:101CD000EDE7D2F8D01240F29314012901D079B186
:101CE00020E00023CFA2F2215320FFF785F9002343
:101CF000CFA2F221A320FFF77FF90023CFA20DE0AE
:101D00000023D0A2F2215320FFF776F90023D0A2BE
:101D1000F221A320FFF770F90023D0A2F221204680
:101D2000FFF76AF90023CFA2F22140F2BD10A4E729
:101D30000023CDA2F2215320FFF75EF90023CCA2AD
:101D400099E710BD10B5FFF768FAA1486FF07F4121
:101D5000A14C01609F494160D4F8D002012826D0EF
:101D6000002835D10023C4A2E7215420FFF744F90D
:101D70000023C3A2FB215420FFF73EF9D4F8D01270
:101D80004FF4A2704FF4CA74012919D000291FD151
:101D90000023AFF27822F121FFF72EF90023AFF2F2
:101DA0007C222046BDE81040F121FFF725B9002331
:101DB000B5A2E7215420FFF71FF90023B4A2D9E709
:101DC0000023B5A2F121FFF717F90023B4A2E8E739
:101DD00010BD70B50446FFF720FA7D487D4A7E4964
:101DE0004FF4A2754FF4CA766FF07F4364B3012CB1
:101DF0002AD0C0E90032D1F8D002012866D00028EC
:101E00007ED10023A8A2F1215420FFF7F5F800238A
:101E1000A7A2E721A420FFF7EFF80023A6A2FB2149
:101E20005FF0A400FFF7E8F80023AFF21032F121D1
:101E30002846FFF7E1F80023AFF218323046BDE83C
:101E40007040F121FFF7D8B8C0E90032D1F8D002D4
:101E500001281ED0002856D1002393A2F12154203E
:101E6000FFF7CAF8002396A2E721A420FFF7C4F8E1
:101E700000238FA2FB21A420FFF7BEF8002392A22B
:101E8000E721F420FFF7B8F80023FB2188A2F42013
:101E9000C8E700238EA2F1215420FFF7ADF80023FC
:101EA0008DA2E721A420FFF7A7F800238CA2FB2135
:101EB000A420FFF7A1F800238BA2E721F420FFF76D
:101EC0009BF80023FB2186A2F4200FE0002380A2D0
:101ED000F1215420FFF790F8002381A2E721A420EC
:101EE000FFF78AF8002382A2FB21A420FFF784F8E1
:101EF000002369A2F1212846FFF77EF8002300E0C5
:101F000001E067A29AE770BD10B50446FFF785F9B6
:101F10002F493048304A6FF07F43ECB1C1E90030BF
:101F2000D2F8D002012C34D0012833D0002832D18D
:101F3000002371A2F2215320FFF75EF8002371A263
:101F4000F221A320FFF758F8002371A2F221F32019
:101F5000BDE81040FFF750B8C1E90030D2F8D00218
:101F600001280DD0002816D1002320A2F2215320F1
:101F7000FFF742F80023AFF2B842F221A320E7E7CF
:101F8000002366A2F2215320FFF736F8002365A252
:101F9000F3E7CBE02BE139E1BDE1B9FB3100000013
:101FA000BDE1B9FB32000000BDE1B9FB33202020C8
:101FB00000000000BDE1B9FB34202020000000003B
:101FC00052455331000000005245533200000000DA
:101FD00014000010380031001C0500102020C8A19A
:101FE000CFFB20002020C8B7C8CF2000B2E2C1BF7D
:101FF000CFD4CABE00000000B5B5BAC5CFD4CABEA2
:1020000000000000B5B5BCC6CAFD00004D454153F7
:10201000534554004E6F2E4449535000434F554E84
:102020005420000046494C45205345540000000010
:102030005361766544617461000000004D4F524564
:1020400000000000CEC4BCFEB9DCC0ED0000000002
:10205000B1A3B4E6CAFDBEDD00000000B8FCB6E0E6
:1020600000000000322F320043414E43454C200017
:10207000434F4E4649524D00C7E5B3FD00000000F6
:10208000B1EDB8F100000000434C454100000000F4
:102090004C495354000000004C6173742050000000
:1020A0004E65787420500000C9BEB3FDD0D000004A
:1020B000D7D4B6AF00000000B8B4D6C60000000008
:1020C000CFDFD0D400000000B6D4CAFD000000006D
:1020D00044656C526F7700004C494E45000000008B
:1020E00041544F55000000004C4F472000000000B5
:1020F000434F505900000000B5E7D1B9D0A3D5FD3A
:1021000000000000B5E7C1F7D0A3D5FD0000000036
:10211000B5E7D7E8D0A3D5FD000000004D45414408
:102120004953500053595353455400004FF4CA7457
:10213000012834D0002869D10023F9A2E7215420D6
:10214000FEF75AFF0023AFF20012FB215420FEF7E6
:1021500053FF0023F4A2E721A420FEF74DFF002344
:10216000AFF2A062FB21A420FEF746FF0023F0A2FD
:10217000F121F420FEF740FF0023AFF2B862FB210B
:10218000F420FEF739FF0023AFF23012E72120469A
:10219000FEF732FF0023E8A2FB212046D8E6002309
:1021A000E7A2E7215420FEF727FF0023E6A2FB2148
:1021B0005420FEF721FF0023E5A2E721A420FEF72B
:1021C0001BFF0023E4A2FB21A420FEF715FF002340
:1021D000E3A2F121F420FEF70FFF0023DEA2FB2192
:1021E000F420FEF709FF0023AFF2B012CEE7002380
:1021F000DDA2F2215320FEF7FFFE0023DCA2F22134
:10220000A320FEF7F9FE0023DBA29FE610BDDC4809
:102210006FF07F410160DB494160DB48D0F8D002BC
:10222000012808D000280AD10023AFF24022F22171
:102230005320FEF7E1BE0023AFF22012F7E770470C
:1022400070B5CF486FF07F414FF483740160CD4982
:102250004160CD4840F29315D0F8D01201291CD02E
:1022600000292FD10023C9A2F2215320FEF7C4FE7A
:102270000023AFF26412F221A320FEF7BDFE00237B
:10228000C5A2F2212046FEF7B7FE0023C4A22846CD
:10229000BDE87040F221FEF7AFBE0023C3A2F221D9
:1022A0005320FEF7A9FE0023C3A2F221A320FEF7CC
:1022B000A3FE0023C3A2F2212046FEF79DFE0023C9
:1022C000C2A2E4E770BD08B5C34800210090162300
:1022D000D2220846FEF71DFB08BD08B5BF48009096
:1022E000CD2340F2DF125C210020FEF712FB08BD77
:1022F00008B5B948002100901623A0220846FEF731
:1023000008FBFEF78AFFBDE80840E6E708B5B248DB
:10231000002100901623A0220846FEF7FAFAFEF7E5
:102320007CFFAE480090CD2340F2DF124621002012
:10233000FEF7EFFA08BD2DE9F047FFF7D9FF904C03
:10234000A5486FF07F46904DC4E90060D5F8D002F3
:10235000012801D018B109E00023A14A02E0A04AF7
:102360000023F23A04210020FEF746FE4FF0501001
:10237000C4E900609B4E00241A2706F592796FF09D
:10238000270801E0032C1AD2D5F8D002012801D089
:1023900028B119E004EB840006EB400203E0C4EB33
:1023A000041101EB090204EB440000EBC40007EB4D
:1023B000400081B200231846FEF71EFE04E0D5F867
:1023C000D002012807D058B1641C042CDAD3BDE830
:1023D000F047FFF79EB804EB840006EB400203E0F1
:1023E000C4EB041101EB090204EB440000EBC4014F
:1023F00008EB410081B20023FA20DDE72DE9F04728
:10240000FFF776FF5E4D74486FF07F445E4EC5E97E
:102410000040D6F8D002012801D018B10AE000230C
:102420006F4A02E06E4A0023F23A0421002016327D
:10243000FEF7E2FD4FF05010C5E900406A4F00245E
:102440004FF01A0807F13C0A6FF0270901E0032C4E
:102450001BD2D6F8D002012801D028B11AE004EB33
:10246000840007EB400203E0C4EB041101EB0A0215
:1024700004EB440000EBC40108EB410081B20023EF
:102480004FEA0300FEF7B8FD04E0D6F8D0020128B9
:1024900010D0A0B1641C062CD9D35048686000232A
:1024A00052A2BA214FF4DD70FEF7A6FDBDE8F04759
:1024B000FFF72FB804EB840007EB400203E0C4EB06
:1024C000041101EB0A0204EB440000EBC40109EB28
:1024D000410081B20023FA20D4E72DE9F041FFF753
:1024E00007FF274D3C486FF07F44274EC5E9004069
:1024F000D6F8D002012801D018B10AE00023384AEA
:1025000002E0374A0023F23A042100202C32FEF781
:1025100073FD4FF05010C5E9004000241A2768E011
:10252000CEC4BCFE00000000CFB5CDB3000000005B
:10253000B9A4BEDF0000000020322F3200000000EE
:1025400046494C45000000004D414E45000000004A
:102550005359532000000000534554200000000050
:10256000544F4F4C00000000564F4C43616C00002C
:102570004374726C43616C0043757243616C00007C
:1025800014000010380031001C050010B5E7C8DD4C
:10259000D0A3D5FD00000000CDCBB3F600000000B5
:1025A000C7E5B3FDD0A3D5FD000000004320436F75
:1025B00072726574000000005220436F727265747D
:1025C000000000004578697400000000436C65203D
:1025D000436F727200000000F35203003434650050
:1025E0004B9401000D8501006D8601006D4148008E
:1025F0001BD2D6F8D002012801D030B115E0FF4936
:1026000004EB840001EB400204E0FC49C4EB04103D
:102610003C31421804EB440000EBC40007EB4000DF
:1026200081B200231846FEF7E7FC641C032CDFD3BD
:10263000F3484FF00003AFF24C0268604FF0BA016C
:102640004FF4DD70FEF7D8FCBDE8F041FEF761BF46
:102650002DE9F047FFF75AFEEA4CEB486FF07F4652
:10266000EA4DC4E90060D5F8D002012801D018B1C4
:102670000AE00023E64A02E0E54A0023F23A042198
:1026800000204232FEF7B8FC4FF05010C4E9006061
:10269000DA4E00241A27D236A6F13C096FF0110851
:1026A00000E01AD2D5F8D002012801D020B119E0FB
:1026B000C4EB0410821903E0C4EB041101EB09021E
:1026C00004EB440000EBC40007EB400081B20023A0
:1026D0004FEA0300FEF790FC04E0D5F8D002012891
:1026E00007D050B1641C022CDBD3BDE8F047FFF7E4
:1026F00013B8C4EB0410821903E0C4EB041101EB1E
:10270000090204EB440000EBC40108EB410081B274
:102710000023FA20DEE72DE9F84FBB4C00211623F9
:10272000A02208460094FEF7F4F8B64F6FF07F46FB
:10273000B64DC7E90064D5F8D002012801D018B120
:102740000AE00023B24A02E0B14A0023F23A04212F
:1027500000205832FEF750FCDFF8B8920024B04653
:102760004FF0501A1A26A9F5877B00BFC7E9008AE7
:10277000D5F8D002012801D028B113E0C4EB041130
:1027800001EB090203E0C4EB041101EB0B0204EBC3
:10279000440000EBC40006EB400081B20023184661
:1027A000FEF72AFC641C092CE0D30024D5F8D002E3
:1027B000012801D028B114E0C4EB041101EB090297
:1027C00003E0C4EB041101EB0B0204EB440000EB4B
:1027D000C40006EB400081B20023E8208732FEF7F8
:1027E0000BFC641C092CE1D3BDE8F84FFEF7D3BE07
:1027F00008B583480090BE2340F2DF12A0210020DC
:10280000FEF787F808BD08B57F4800210090162321
:10281000A0220846FEF77DF8FEF7FFFCBDE8084061
:10282000E6E738B5774D04464FF0501068607A48B7
:10283000012300EB8402C8211420FEF7DDFB76485B
:1028400001235C3000EB8402C8214FF48C70FEF74A
:10285000D3FB6B48686071480090372328227A21A7
:102860005020FEF743FA6E480090372328227A2141
:102870007820FEF73BFA6B480090372328227A2114
:102880008C20FEF733FA38BD2DE9F047FFF7BBFF88
:102890005C4C5D486FF07F465C4DC4E90060D5F844
:1028A000D002012801D018B10AE00023584A02E002
:1028B000574A0023F23A042100201632FEF79CFB0F
:1028C0004FF05010C4E90060574E00241A27A6F1BB
:1028D00030096FF0270801E0032C16D2D5F8D0029A
:1028E000012801D018B115E006EBC40201E009EBA4
:1028F000C40204EB440000EBC40007EB400081B2CB
:1029000000231846FEF778FB04E0D5F8D002012832
:102910000CD070B1641C062CDED395F80C03FFF7C5
:1029200080FFBDE8F0470020FFF789B906EBC4023D
:1029300001E009EBC40204EB440000EBC40108EB26
:10294000410081B20023FA20DCE738B52C4C40F27C
:10295000DF15A0232A46562100200094FDF7D9FF59
:10296000E3232A46C12100200094FDF7D2FF38BDA1
:1029700008B52548002100901623B2220846FDF72D
:10298000C8FFFEF74AFCBDE80840DEE70B462749D2
:1029900030B4085C183100EB4000441891B2224674
:1029A00098B230BC0023FEF727BB2DE9F05FFFF79C
:1029B000DFFF144E14486FF07F44144DC6E9004009
:1029C000D5F8D002012801D018B10AE00023104A3E
:1029D00002E00F4A0023F23A042100202C32FEF7D5
:1029E0000BFB4FF05019C6E90049114F00244FF07E
:1029F000BE08A7F1150A4FF6FF7B1FE00387010011
:102A00003434650014000010F35203001C0500105C
:102A10004B9401001F890100088D01005DB8010081
:102A2000A0CA0100B3CB01009D9101005C97010099
:102A300068950100012C07D0022C11D0D5F8D002E6
:102A4000012828D058B336E0D5F8D002012801D0AB
:102A500070B114E0FA1D404600231821FEF7CCFAAD
:102A6000D5F8D0124FF4B47001290AD059B125E03D
:102A70000AF10702404600231821FEF7BDFA02249E
:102A8000D8E7F74A01E0F64A153A002318210E323A
:102A9000FEF7B2FA12E0C4EBC400C21903E0C4EBC3
:102AA000C40101EB0A0204EB84010BEA411000238C
:102AB0001821FEF7A1FA641C032CBBD3D5F814032C
:102AC000012300EB400101EBC000E649C835421884
:102AD00018213C20FEF790FA297900230622286865
:102AE000FEF726FB0123E04A1821FA20FEF784FABC
:102AF000A868DE4900EB40004218012318214FF47A
:102B0000A070FEF779FAD5F8440218224FF4A571A7
:102B1000C83DFFF73BFF0023D5A22C211846FEF746
:102B2000BDFA0023D3A22C217820FEF7B7FA0023A8
:102B3000D2A22C21FA20FEF7B1FA0023D1A22C2137
:102B400040F29D10FEF7AAFA0624DFF840834F46B4
:102B50000AE000BFA4F10800052802D3A01F08283E
:102B600002D9C6F8048000E0776004EB840005EB2E
:102B7000C00151F8080C60B111F8041C01230622B1
:102B8000FEF7D6FAC4EB0410203881B20123B64A0E
:102B900005E0C4EB0410203881B20123BCA27820E8
:102BA000FEF77CFA641C0F2CD4D3C6F80480D5F849
:102BB000640240B195F8681201230622FEF7B8FAC4
:102BC0000123A94A01E00123B1A2C421FA20FEF7A2
:102BD00065FA10240AE000BFA4F11200052802D310
:102BE000801C082802D9C6F8048000E0776004EB56
:102BF000840005EBC001A1F58051D1F87C0E60B1D5
:102C000091F8801E01230622FEF792FAC4EB04100D
:102C1000B63881B20123944A05E0C4EB0410B638FB
:102C200081B201239AA2FA20FEF738FA641C192C0B
:102C3000D2D3C6F80480C146D5F86402A84650B184
:102C400098F8541201230622D8F85002FEF770FAC1
:102C50000123854A01E001238DA2C4217820FEF7DB
:102C60001DFA4D46B94601248B4F04E0E01E0528AD
:102C700001D2756001E0C6F8049004EBC400C219EB
:102C8000C4EB04102B3081B200230820093AFEF770
:102C900005FA641C0A2CE9D375607249D8F80C0354
:102CA000783901EB80020023C4211846FEF7F6F9BB
:102CB00000237AA2D4211846FEF7F0F9002379A266
:102CC000D421F820FEF7EAF9BDE8F05F0020FEF716
:102CD000B6BF08B56D480090A02340F2DF12AF21C7
:102CE0000020FDF716FE08BD10B5FFF7ECFAFEF761
:102CF00094FABDE81040ECE770B5FFF7F5FF6B4CB8
:102D00006B486FF07F45C4E90050554A0023DB3A19
:102D100004211846FEF770F94FF05010C4E9005036
:102D20006448D0F8D002012801D078B120E0002317
:102D300061A21A211846FEF75FF9002360A2302134
:102D40002820FEF759F9002360A20DE0002361A2BC
:102D50001A211846FEF750F9002360A230212820DE
:102D6000FEF74AF9002360A230218C20FEF744F9D7
:102D700000235FA23021F020FEF73EF900235EA27F
:102D800030214FF4AA70FEF737F900235CA23021FE
:102D90004FF4DC70FEF730F9BDE870400020FEF71C
:102DA0004EBF08B5394800909A2340F2DF125A21ED
:102DB0000020FDF7AEFD08BD08B53D48002100909C
:102DC0001623A8220846FDF7A4FDFEF726FABDE863
:102DD0000840E6E72DE9F05FFFF7EEFF334D34489A
:102DE0006FF07F44334FC5E90040D7F8D002012887
:102DF00001D018B10AE00023424A02E0414A002310
:102E0000F23A042100205832FEF7F6F84FF050163F
:102E1000C5E90046DFF8F090DFF8708000244FF03D
:102E20001A0A6FF0270B00BFD7F8D002012801D093
:102E3000A0B1A0E0032C0BD2E01E022802D2C5F8FC
:102E4000048000E06E6004EB840109EB410271E054
:102E5000A01F02285AD2C5F8048058E05CE00000A8
:102E600068950100DC8D010044530010419701007A
:102E700042494E004C4F57205B465D004849474849
:102E80005B465D00434F554E5400000034346500EE
:102E90002D2D2D2D2D2D0000BC8401004155583ABB
:102EA000000000004F55543A0000000014000010CC
:102EB000F35203001C0500104D657468203A0000B1
:102EC000467265715B487A5D000000004C65766C67
:102ED0005B565D00B7BDCABD203A0000C6B5C2CA88
:102EE0005B487A5D00000000B5E7C6BD5B565D003B
:102EF00043705B465D000000445B205D0000000005
:102F0000434D50004B940100159201006E6004EB9C
:102F1000840109EB410223E0032C15D2E01E0228B4
:102F200002D2C5F8048000E06E60FC4804EB440166
:102F300000EB810204EB440000EBC4010AEB41000A
:102F400081B20023184614E0A01F022802D2C5F85F
:102F5000048000E06E60F14804EB440100EB810264
:102F600004EB440000EBC4010BEB410081B20023F1
:102F7000FA20FEF741F8641C062CFFF455AFBDE8BB
:102F8000F05F0020FEF7C0BF2DE9F843E44EE54CAA
:102F90004FF0501507467560D4F80C03E24900EB7A
:102FA000C000421801231A21492004F54374FEF79A
:102FB00023F8A068012300EB400101EBC000DB49CE
:102FC000421830214920FEF717F8E068012300EB92
:102FD000400101EBC000D649421846214920FEF7C6
:102FE0000BF8A06B40F2431800EB400101EBC0006E
:102FF000CF490023313142181A214046FDF7FCFF2A
:10300000E06B012300EB400101EBC000C849A4F5CF
:103010004374AE31421830214046FDF7EDFF387859
:10302000012822D028467560009058234FF4C472BE
:1030300044214FF4A170FDF76CFCD4F8E000BC4DC6
:1030400000EB400101EBC000E735421901234621A6
:103050004046FDF7D1FFFEF7E0F83878012807D0A9
:10306000BDE8F8430020FEF7EABDFF207060DBE713
:103070006FF07F403060AF48682770606D2600E0D9
:1030800034B92A4638460023F121FDF7B5FF012463
:1030900004EB440000EBC400421904EB840006EB8F
:1030A000001080B20023F121FDF7A6FF641C022C62
:1030B000E6D3BDE8F883F8B5994E04464FF05010BA
:1030C00070602078012801D0706801E0FF207060F6
:1030D000009028234FF4E672182140F2A310FDF768
:1030E00018FC9048924D0123D0F89C02E73500EB84
:1030F000400101EBC000421918214FF4D270FDF7D6
:103100007BFFFEF78AF82078012804D0BDE8F8405C
:103110000020FEF794BD6FF07F403060854868273F
:1031200070606D2600E034B92A4638460023F1214C
:10313000FDF762FF012404EB440000EBC4004219D8
:1031400004EB840006EB001080B20023F121FDF7B0
:1031500053FF641C022CE6D3F8BD2DE9F05F012477
:10316000DFF8D491DFF8B8816E4D4FF4AD7B4FF0AE
:10317000501A3326E71E042F02D2C8F8049001E04B
:10318000C8F804A095F8850300EB800004EB40002C
:1031900000EB800005EB8001D1F82005421C3DD0FA
:1031A00091F8241501230522FDF7C2FF634A06EBBF
:1031B00004110023F620FDF771FF95F8850300EB5D
:1031C000800004EB400000EB800005EB800101F57E
:1031D0008051D1F88805421C25D091F88C15012327
:1031E0000522FDF7A5FF554A06EB041100235846BA
:1031F000FDF754FF95F8850300EB800004EB4000D9
:10320000284400F5005090F8FB05FF2810D006EB8D
:1032100004114FF0000380B149A20FE006EB041146
:10322000002348A2C6E706EB0411002345A2DEE70F
:1032300006EB0411002345A200E045A24FF4DF7025
:10324000FDF72CFF042F02D2C8F8049001E0C8F863
:1032500004A095F8850300EB800004EB40002844AF
:1032600090F885031E2804D906EB0411002335A22B
:1032700008E000EB400101EBC0002C49421806EBCE
:10328000041100232620FDF709FF95F8850300EBC4
:10329000800004EB4000284490F85704022804D929
:1032A00006EB0411002327A208E000EB400101EB2C
:1032B000C0001F49421806EB041100239220FDF7BD
:1032C000EDFE95F88503012300EB800004EB400040
:1032D00003220021FDF72CFF06EB04110023174AFF
:1032E0000820FDF7DBFE641CE4B20B2CFFF442AFB8
:1032F000BDE8F09F2DE9F84F05460078022829D057
:1033000002D9A878FEF765FD2878054C4FF0FF0B31
:103310004FF05017012820D021E00000CD9101008E
:10332000140000101C050010308C0100DC8D010021
:103330009F8F010038003100343465004453001081
:10334000500000002D2D2D2D000000002D0000004C
:1033500046000000FEF7F6FCD6E7A878C8B138466C
:10336000676000902A235E221A213620FDF7D1FAE9
:10337000DFF80084D8F8C40200EBC000FE49002347
:1033800042181A213620FDF737FE2878022804D08B
:1033900006E05846C4F804B0E3E7A87800287CD0DB
:1033A00038466760009042231E2232210020FDF73C
:1033B000B0FA0023F1A232211846FDF71DFEC246E5
:1033C0000326A146B8462878B04202D1A878022840
:1033D0007ED0C9F8048000BFD9F8040000902320F3
:1033E00000EB0613132000EB06111F460C464FF4AA
:1033F0009972FA20FDF78DFAE87800EB800006EB71
:10340000400000EB80010AEB8101D1F8F804421C76
:103410007DD091F8FC1401230522FDF789FED84ADE
:1034200021460023FA20FDF739FE2878B04202D168
:10343000A87803286CD0C9F8048000BFD9F804002C
:1034400000903B4621464FF4C1724FF4A570FDF742
:1034500060FAE87800EB800006EB400000EB8001AA
:103460000AEB810101F58051D1F86005421C70D052
:1034700091F8641501230522FDF75AFEC04A214642
:10348000002300BF4FF4A570FDF708FE2878B04276
:1034900002D1A878042861D000E049E0C9F804808E
:1034A000D9F8040000903B46214640F2DF124FF469
:1034B000D270FDF72EFAE87800EB800006EB4001B1
:1034C00001EB0A0000F5005090F8F905FF2800E034
:1034D00032E021464FF0000343D0AFF29C1200BF10
:1034E0004FF4D270FDF7DAFD2878B04201D1A87808
:1034F00070B3C9F8048000BFD9F8040000903B46BF
:1035000021467E222820FDF704FAE87801E016E043
:103510001AE000EB800006EB400101EB0A0090F896
:103520008303302823D921460023AFF2E81226E096
:103530005846C4F804B035E7C9F804B04CE7214652
:103540000023AFF200226DE7C9F804B076E700E08F
:103550000AE021460023AFF2142293E7C9F804B031
:103560009EE7AFF22022BBE7C9F804B0C4E700EB46
:10357000400101EBC0008349421821460023282066
:10358000FDF78CFD2878B04202D1A87801281AD026
:10359000C9F80480D9F8040000903B462146C422B3
:1035A0007E20FDF7B6F9E87800EB800006EB4001DD
:1035B00001EB0A0090F85504022807D921460023A0
:1035C000AFF280220AE0C9F804B0E3E700EB400163
:1035D00001EBC0006C494218214600237E20FDF714
:1035E0005DFDC9F80480E878012300EB800006EB5C
:1035F000400003220021801EFDF79AFD2146002392
:103600005F4A0820FDF74AFD761CF6B20D2EFFF446
:10361000DAAEBDE8F88F2DE9F8435C4C4FF0501658
:10362000054666600078FF27012800D16760606862
:1036300000902A2358221A213020FDF76AF94D48BC
:10364000DFF84481012390F8840308F1FD0800EBC2
:10365000800101EB08021A213020FDF7CDFC28780B
:1036600002281DD066606068009040231E22302131
:103670000820FDF74EF9012340A230210820FDF774
:10368000BBFCFDF7CAFD2A7841486FF07F41012A53
:1036900008D0022A1AD06878BDE8F843FEF7CFBAFE
:1036A0006760E0E7C4E90010002445465FF0540677
:1036B00004EB8400421906EB001080B20023F121D4
:1036C000FDF79AFC641C022CF2D3F2E4C4E900106A
:1036D000304D00244FF4A276C4EBC400421904EB31
:1036E000840006EB001080B20023F121FDF784FC7A
:1036F000641C022CF0D3DCE42DE9F84305461D4898
:10370000224C4FF05016D0F8500301280ED1214A18
:103710000123153A1746D2211E206660FDF76CFC86
:1037200001233A46D2219620FDF766FC2878FF2730
:1037300001287DD06660DFF8608000230522032128
:10374000D8F80400FDF7F4FC606800902C23C02238
:1037500018216720FDF7DDF80023094A1A216820A7
:10376000FDF74AFC01230DA21A21AC20FDF744FC11
:10377000287815E01C050010308C01004E6F2E00DB
:1037800044530010DC8D01009F8F010014000010D5
:1037900038003100A69001005C3C001041000000A0
:1037A000022875D06660002305220321D8F818008E
:1037B000FDF7BEFC606800904223C0222E216720E6
:1037C000FDF7A7F80023FE4A30216820FDF714FC1E
:1037D0000123AFF238023021AC20FDF70DFC287830
:1037E000032857D06660002305220321D8F82C0057
:1037F000FDF79EFC606800905823C022442167209A
:10380000FDF787F80023EE4A46216820FDF7F4FB18
:103810000123ECA24621AC20FDF7EEFB287804281A
:103820003AD06660002303221946D8F8400000E031
:103830002BE0FDF77DFC606800902C2340F2C31262
:10384000182140F27110FDF764F80023DC4A1A21B8
:103850004FF4B970FDF7D0FB0123DBA21A214FF41E
:10386000D670FDF7C9FB2878052817D06660287840
:10387000062815D0C4F80460FDF7CFFC287800288E
:1038800010D8BDE8F843FDF744BE676053E7FFE793
:10389000676088E76760A6E76760C3E76760E6E799
:1038A0006760E9E705E42DE9F84F0546C748C84CCD
:1038B0004FF05016D0F8500301280DD1C54A01230E
:1038C0001746D2211E206660FDF796FB01233A467B
:1038D000D2219620FDF790FB2878FF2701287CD085
:1038E0006660606800902C23C02218216720FDF7D5
:1038F00010F8DFF8E482DFF8E492002398F8C810AB
:10390000682009EBC1021A21FDF776FB287802280E
:103910006ED06660002305220321D8F8A400FDF7CD
:1039200007FC606800904223C0222E216720FCF72C
:10393000F0FF0023A24A30216820FDF75DFB012340
:10394000AFF2A8123021AC20FDF756FB28780428EE
:1039500050D06660002305220321D8F89000FDF7BF
:10396000E7FB606840F2C31A40F2711B00902C2301
:10397000524618215846FCF7CCFF0023904A1A21E2
:103980004FF4B970FDF738FB01238EA21A214FF4D2
:10399000D670FDF731FB287805282DD0666000230E
:1039A00005220321D8F8B800FDF7C2FB606800903B
:1039B000422352462E215846FCF7ABFF0023804A93
:1039C00030214FF4B970FDF717FB01237DA23021A0
:1039D0004FF4D670FDF710FB00E007E0FDF71DFC8B
:1039E0002878022824D2DFE800F0090D676078E724
:1039F00067608FE76760ADE76760D0E7BDE8F84FC5
:103A0000FDF787BD6FF07F4020607548606000243F
:103A10004D46582604EB840006EB001005EBC4026B
:103A200080B20023F121FDF7E7FA641C022CF1D3E8
:103A3000EFE52DE9F84FDFF8A0A106460525DAF8F5
:103A40005C017278B0FBF5F1664F491D914201D9D6
:103A50001E2006E0B0FBF5F105FB110000EB800035
:103A6000401DB870C0B2401F90FBF5F0C0B2FDF72A
:103A7000BCFF0024DFF85881DFF86C914FF05F0B3A
:103A800019E000BFC8F804907078002300EB8000B4
:103A90002044022219461838FDF74AFB04EB440083
:103AA00000EBC4010BEB410081B20123444A032027
:103AB000FDF7A2FA641CB878401F90FBF5F0A04215
:103AC000E0D8DFF820B105240BF1360BB94613E13D
:103AD000B4FBF5F04349B4FBF5F7423131F810007F
:103AE00001EB4701401E83B2B4FBF5F0B4FBF5F7E0
:103AF00005FB104205FB17470BEB42023BF8170092
:103B0000528831F8021C521E491C401CD8F804701F
:103B100092B289B280B20097FCF7FBFEB4FBF5F0DD
:103B200005FB1040C0B1B4FBF5F005FB10400128C7
:103B300068D0B4FBF5F005FB104002287ED0B4FB42
:103B4000F5F005FB1040032879D0B4FBF5F005FB38
:103B50001040042874D0CEE09AF8D508012813D17B
:103B6000601FB0FBF5F2707800EB8000104400EBB2
:103B700080021E4800EB8200D0F8940601283FD056
:103B80004FF47F40C8F80000601FB0FBF5F270787A
:103B900000EB80001044504490F85501C0EBC00188
:103BA0000E481E300A18B4FBF5F10E48423000EB07
:103BB000410030F8020CC01C81B2B4FBF5F017E0F4
:103BC00044530010560000006D7300001C050010E7
:103BD00014000010919001005C3C00105D85010014
:103BE00038003100380000103434650048450010BA
:103BF00005FB10433BF81300C01C80B2002378E0A3
:103C0000FF20BFE79AF8D508012813D1601FB0FB49
:103C1000F5F0727802EB8202104400EB8002FE485D
:103C200000EB8200D0F8940601281FD04FF47F40AB
:103C3000C8F80000601FB0FBF5F302E062E0ADE001
:103C4000D7E0727802EB8202134403EB0A0191F889
:103C5000551105290CD0B0FBF5F0104400EB8001A4
:103C6000ED4800EB8100D0F8E4017AE0FF20DFE7C7
:103C7000B0FBF5F11144E84B01EB810103EB81014D
:103C8000D1F8E411B1F57A7F14D900BFB4FBF5F196
:103C9000E24800EB410030F8020CC01C81B2B4FBDA
:103CA000F5F005FB10423BF81200DDA2C01C80B20B
:103CB00000231EE0B0FBF5F0104400EB800003EBA6
:103CC0008000D0F8E40165E0FDF732FAB4FBF5F1CD
:103CD000D248002300EB410030F8020CC01C81B236
:103CE000B4FBF5F005FB10423BF81200CE4AC01CB5
:103CF00080B2FDF781F9641C99F802008442FFF458
:103D0000E7AE86E49AF8D518012913D1611FB1FBFB
:103D1000F5F1727802EB8202114401EB8102BE4997
:103D200001EB8201D1F8941601291ED04FF47F4196
:103D3000C8F80010621FB2FBF5F3717801EB810146
:103D40000B4403EB0A0090F855010528B2FBF5F08F
:103D500008440CD000EB8001AF4800EB8100D0F8A4
:103D60001003002305220321AEE7FF21E0E700EB6B
:103D70008003A94800EB8303D3F81033B3F57A7FAF
:103D800084D8B2FBF5F2114401EB810100EB810014
:103D9000D0F8100300230422012195E79AF8D508F2
:103DA000012813D1601FB0FBF5F0717801EB8101A0
:103DB000084400EB8001984800EB8100D0F894069D
:103DC000012814D04FF47F40C8F80000601FB0FBFA
:103DD000F5F17078002300EB8000084400EB8001CF
:103DE0008D48042200EB8100D0F83C042AE0FF203B
:103DF000EAE79AF8D508012814D1601FB0FBF5F066
:103E0000717801EB8101084400EB8001824800EBEE
:103E10008100D0F89406012816D04FF47F4000BFEF
:103E2000C8F80000601FB0FBF5F07178002301EBCB
:103E30008101084400EB80017748062200EB8100F5
:103E4000D0F8680500213FE7FF20E9E72DE9F84FAA
:103E500007460078754E4FF050154FF0FF080128C7
:103E60003DD07560724C002303221946D4F85C01E2
:103E7000FDF75EF9706800902C23C9221821672095
:103E8000FCF747FD0023684A1A216820FDF7B4F8C3
:103E90003878022826D02846756000904223C02238
:103EA0002E216720FCF735FD94F86C01DFF884A122
:103EB000C0EBC00101EB0A02A346002330216820B9
:103EC000FDF79AF8D4F85C310520B3FBF0F25349C2
:103ED0007C784239521CA24208D923200EE0C6F851
:103EE0000480BFE74046C6F80480D6E7B3FBF0F293
:103EF00000FB123202EB420200EB42008870C0B2BB
:103F00000625401F90FBF5F08946C0B2FDF7B7FCCF
:103F1000002419E0484870607878002300EB8000A6
:103F2000204402221946001FFDF702F904EB440069
:103F300000EBC4015F2000EB410081B201233A4A4B
:103F40000320FDF759F8641C99F80210491F91FBF2
:103F5000F5F1A142DED8797804296FD20524C4E1B5
:103F60003878A04202D1C6F8048001E0324870607F
:103F7000B4FBF5F005FB1040052861D0B4FBF5F06B
:103F80002649B4FBF5FC31F81000401E83B2B4FBA7
:103F9000F5F005FB1042A1F11A0001EB4C01B4FB56
:103FA000F5FC00EB420205FB1C4C928831F8021C28
:103FB00000EB4C00521E491C4088D6F804C0401C3F
:103FC00092B289B280B2CDF800C000BFFCF7A1FC6C
:103FD000B4FBF5F005FB104005284AD0B4FBF5F022
:103FE00005FB104058B3B4FBF5F005FB1040012869
:103FF000B4FBF5F07ED005FB10400228B4FBF5F0D1
:1040000079D005FB10400328B4FBF5F074D005FB14
:104010001040042871D067E1484500107A00001074
:104020002D2D2D2D2D0000004453001014000010E4
:104030005C3C00106D850100343465005AE133E0CA
:10404000B4FBF5F1FE4800EB41014988491E8BB2F3
:10405000B4FBF5F130F81100401C81B2706800909B
:10406000F7481A3842880088521E401C92B280B22B
:10407000ACE7601FB0FBF5F1787800EB80000144FD
:1040800001EB0B0090F86901C0EBC001ED480A1884
:10409000B4FBF5F1EA4830F81100C01C81B2E848E1
:1040A0001A380088C01C43E0B4FBF5F1787800238F
:1040B00000EB8000084400EB80010BEB810005223F
:1040C000D0F80C010321FDF733F8B4FBF5F1DC481F
:1040D000002300EB4100DC4A30F8020CC01C81B226
:1040E000D7481A384088C01C80B2FCF785FFB4FB63
:1040F000F5F003E01FE05CE08EE0C0E0797801EBD2
:104100008101014401EB0B00CE4990F86801623156
:10411000C0EBC0004218B4FBF5F1C94800EB410008
:1041200030F8020CC01C81B2C5481A3840883EE005
:1041300080B20023D6E07978002301EB81010844A6
:1041400000EB80010BEB81000522D0F8380203213F
:10415000FCF7EEFFB4FBF5F1B948002300EB41009A
:10416000B94A30F8020CC01C81B2B5481A388088B0
:10417000C01C80B2FCF740FFB4FBF5F0797801EB8E
:104180008101014401EB0B00AE4990F868018C31CC
:10419000C0EBC0004218B4FBF5F1A94800EB4100A8
:1041A00030F8020CC01C81B2A5481A3880883F3014
:1041B000BEE77978002301EB8101084400EB800120
:1041C0000BEB81000522D0F864030321FCF7B0FF5C
:1041D000B4FBF5F19A48002300EB41009A4A30F80D
:1041E000020CC01C81B296481A38C088C01C80B22C
:1041F000FCF702FFB4FBF5F1914800EB410030F809
:10420000020CC01C81B28E481A38C0883F3080B280
:104210000023AFF2506265E07978002301EB810161
:10422000084400EB80010BEB81000522D0F89004DC
:104230000321FCF77DFFB4FBF5F18148002300EB7F
:104240004100814A30F8020CC01C81B27C481A3807
:104250000089C01C80B2FCF7CFFEB4FBF5F17848B2
:1042600000EB410030F8020CC01C81B274481A38CF
:1042700000893F3080B20023AFF6E02232E0B4FB89
:10428000F5F07978002301EB8101084400EB80010F
:104290000BEB81000322D0F8BC051946FCF748FF60
:1042A000B4FBF5F16648002300EB4100664A30F8A4
:1042B000020CC01C81B262481A384089C01C80B20E
:1042C000FCF79AFEB4FBF5F15D48002300EB4100DA
:1042D0005EA230F8020CC01C81B259481A384089DD
:1042E0003F3080B2FCF788FE641C99F802008442DB
:1042F000FFF436AEFCF791FF3878554A58246FF03A
:104300007F414FF4CA7705281ED220B1012841D041
:1043100002283FD104E0C6E90012FDF7FAF839E0BF
:10432000C6E9001200255646C5EBC500821905EB0B
:10433000850004EB001080B20023F121FCF75CFE45
:104340006D1C022DF0D325E0401F90FBF5F3C6E96C
:10435000001205FB1300E8B93E4E0025307810B17D
:10436000012806D013E03749C5EBC5002A314218B1
:1043700004E03448C5EBC50146300A1805EB85005A
:1043800004EB001080B20023F121FCF735FE6D1C18
:10439000042DE3D301B03846BDE8F04F00232EA230
:1043A000F221FCF729BE2DE9F84F2E4D6FF07F4B1F
:1043B0000446C5F800B00078FF264FF050170128DA
:1043C0007ED06F60DFF8A080002305220321D8F89B
:1043D0007407FCF7ADFE686800902C23D0221821EA
:1043E0007820FCF796FA0023174A1A217820FCF768
:1043F00003FE0123AFF634021A21BC20FCF7FCFDBA
:10440000207802287ED06F60002305220321D8F88F
:104410006007FCF78DFE686800904223D0222E21B1
:104420007820FCF776FA0023074A30217820FCF741
:10443000E3FD0123AFF674023021BC2016E000003A
:104440007A0000107B8501004453001053000000E7
:104450003800310025020010BDF8C8EBB2E2CAD422
:1044600000000000140000105C3C0010FCF7C4FDCC
:10447000207803287DD06F60002305220321D8F81F
:10448000C407FCF755FE686800905823D0224421E9
:104490007820FCF73EFA0023FE4A46217820FCF7FC
:1044A000ABFD0123AFF60C524621BC20FCF7A4FD66
:1044B000207804287ED06F6000230522032100E0CD
:1044C00021E2D8F8B007FCF733FE686800906E234D
:1044D000D0225A217820FCF71CFA0023ED4A5C21F7
:1044E0007820FCF789FD0123AFF650525C21BC20F7
:1044F000FCF782FD207805287ED06F60002304221F
:10450000194600E003E2D8F81408FCF711FE6868C9
:1045100000908423E02270217820FCF7FAF9002330
:10452000DC4A72217820FCF767FD0023DA4A722109
:10453000AA20FCF761FD207806287CD06F6000235C
:1045400004221946D8F80008FCF7F2FD68680090CC
:104550009A23E02286217820FCF7DBF90023CD4A5C
:1045600088217820FCF748FD00238821CA4AAA2028
:1045700000E0CEE1FCF740FD207807287DD06F6099
:10458000002305220321D8F83C08FCF7D1FD686818
:104590000090B023D0229C217820FCF7BAF90023A8
:1045A000BC4A9E217820FCF727FD0123AFF6146258
:1045B0009E2100E0AFE1BC20FCF71EFD207808281A
:1045C0007ED06F60002305220321D8F82808FCF76D
:1045D000AFFD68680090C623D022B2217820FCF796
:1045E00098F90023AB4AB4217820FCF705FD01239C
:1045F000AFF65862B42100E08FE1BC20FCF7FCFC70
:10460000207809287ED06F60002304221946D8F84C
:10461000C408FCF78DFD68680090DC23D022C82117
:104620007820FCF776F900239A4ACA217820FCF713
:10463000E3FC012300E072E1AFF67422CA21BC2042
:10464000FCF7DAFC20780A287ED06F600023052270
:104650000321D8F89C07FCF76BFD68684FF4B1792B
:1046600000902C234FF4E5721A214846FCF751F9CB
:104670000023884A1A21484600E052E1FCF7BCFCBE
:104680000123AFF6C0221A214FF4D470FCF7B4FC1A
:1046900020780B287ED06F60C246002305220321BC
:1046A000D8F88807FCF744FD6868009042234FF46F
:1046B000E5723021C8464846FCF72BF9002300E09C
:1046C00031E1744A30214046FCF796FC0123AFF6F5
:1046D0000C3230214FF4D470FCF78EFC20780C287B
:1046E0007ED06F60D146002305220321DAF8EC0763
:1046F000FCF71EFD686858234FF4E57A52464621C0
:10470000009000E011E14046FCF703F90023614A04
:1047100046214046FCF770FC0123AFF6807246212B
:104720004FF4D470FCF768FC20780D287ED06F60C1
:10473000002305220321D9F8D807FCF7F9FC6E23E2
:10474000686852465C2100E0F1E000904046FCF7CA
:10475000E0F800234F4A5C214046FCF74DFC012362
:10476000AFF6C8725C214FF4D470FCF745FC20789A
:104770000E287DD06F60002304220121D9F874082F
:10478000FCF7D6FC6868842300905246702140F202
:10479000611000E0CDE0FCF7BCF800233D4A722137
:1047A0004FF4B170FCF728FC3B4A0023121D722124
:1047B0004FF4CA70FCF720FC20780F286ED06F6091
:1047C000C846002304220121D9F86008FCF7B0FC98
:1047D0009A2368684FF4E57286214FF4B17900E0BE
:1047E000A9E000904846FCF794F80023294A882164
:1047F0004846FCF701FC284A0023121D88214FF48B
:10480000CA70FCF7F9FB207810287DD06F60C24693
:10481000002304220121D8F89C08FCF789FCB0236E
:1048200068684FF4E5729C21C84600E086E000907D
:104830004846FCF76EF80023164A9E214046FCF7D6
:10484000DBFB154A4FF4CA790023121D9E2148460E
:10485000FCF7D2FB2078112878D06F600023042267
:104860000121DAF88808FCF763FC6868C62300E0D9
:1048700066E000904FF4E572B2214046FCF749F83B
:104880000023044AB4214046FCF7B6FB024A002349
:10489000121D04E0445300104816000052E0B421F9
:1048A0004846FCF7A9FB2078122851D06F600023FE
:1048B00004221946DAF8B008FCF73AFC6868009060
:1048C000DC234FF4E572C82146464046FCF721F848
:1048D0000023FE4ACA213046FCF78EFB0023AFF6C8
:1048E0001852CA214846FCF787FBFCF796FC207853
:1048F00005282FD200282DD1F548C5E900B0BDE824
:10490000F84FFCF748BE00E01EE06E605AE56E60AE
:104910007AE56E60B0E56E60CEE56E60EEE56E60E5
:104920000DE66E602CE66E604CE66E606CE66E60C6
:104930008CE66E60B0E66E60D4E607E06E60F7E687
:104940006E6018E76E603BE76E6060E76E6085E75B
:104950006E60ACE7BDE8F88F2DE9F8430546DD4809
:10496000DD4C4FF05016D0F8500301280DD1DB4A32
:1049700001231746D2211E206660FCF73DFB012370
:104980003A46D2219620FCF737FB2878FF270128EA
:1049900065D06660DFF84883002305220321D8F83C
:1049A0005400FCF7C5FB606800902C23C02218213E
:1049B0006720FBF7AEFF0023C44A1A216820FCF7EA
:1049C0001BFB0123AFF604621A21AC20FCF714FB99
:1049D0002878022845D06660002305220321D8F8F4
:1049E0006800FCF7A5FB606800904223C0222E21DE
:1049F0006720FBF78EFF0023B44A30216820FCF7C4
:104A0000FBFA0123B7A23021AC20FCF7F5FA287895
:104A1000032828D06660002305220321D8F87C00F3
:104A2000FCF786FB606800905823C0224421672071
:104A3000FBF76FFF0023A54A46216820FCF7DCFA4C
:104A40000123A8A24621AC20FCF7D6FAFCF7E5FB2F
:104A50002878002809D8BDE8F843FCF75ABD6760FC
:104A600098E76760B8E76760D5E7BDE8F88310B5F9
:104A70000446FCF7D2FB2078002804D16078BDE81A
:104A80001040FDF741BA10BD30B40C4696491346AC
:104A900000EB40004218A0B299B230BC0123FCF7F1
:104AA000FDBA2DE9F84F8C4DDFF828924FF05016E3
:104AB0006E60D9F8D81004464FF4B97000297DD043
:104AC00000238AA23F21FCF7E9FA002387A23F21B5
:104AD000C820FCF7E3FA2078FF2701286FD06E602A
:104AE00068680090A8462A23992218214520FBF7E0
:104AF00010FFD9F80C037E4900EBC00042184D4668
:104B0000012318214620FCF777FA207802287DD06F
:104B1000C8F80460A94695F8CC1055F8C80F0023D2
:104B20000522FCF705FBD8F8040000902A2340F288
:104B300045121821E220FBF7ECFE0123634A1821FD
:104B4000E520FCF759FAA868012300EB400166480C
:104B500033380A18182140F22910FCF74DFA1822B0
:104B600040F23311D5F84402FDF710FF20780328F6
:104B700040466FD0C8F804600546406800902A237C
:104B800040F2DD12182140F28F10FBF7C2FE5948A7
:104B9000D9F8D810C84600EB8102012318214FF440
:104BA000C870FCF729FA2078042856D06E6068682F
:104BB0003E2399222C210090452001E035E043E07E
:104BC000FBF7A7FED8F8C000DFF810A100EB8001CA
:104BD0000AF14D0A01EB0A0200232C214620FCF7C2
:104BE0000BFA207805283AD06E6068680090A946D4
:104BF0003E234FF49C722C21E420FBF78AFED8F868
:104C0000E00000EB800135484D3000E01EE00A185E
:104C100001232C21E520FCF7EFF90625C246207878
:104C2000A8421ED1C9F8047025E0D9F80C3301461A
:104C30004F463F221846FFF727FF3F22C821D7F8EB
:104C40000C03FFF721FF46E76F6049E7C8F80470DF
:104C500060E7FFE7C8F804708EE76F60A7E76F6052
:104C6000C3E7A5F10900042803D22348C9F80400CA
:104C700001E0C9F80460D9F804000090C5EB051004
:104C8000811CA0F10E088BB21FFA88F1E622942055
:104C9000FBF73FFE05EB850B0AEBCB0151F8080C47
:104CA00060B311F8041C00230522FCF741FA1FFA37
:104CB00088F10123054AA020FCF7F0F9DAF8D800C2
:104CC00030BB5AF83B0000EB400118E044530010A1
:104CD000380031001C0500101400001091900100F4
:104CE0005C3C0010410000007497010025000000AA
:104CF000308C0100B48401003434650013E0FD48B9
:104D000001230A181FFA88F15FF0D000FCF7C6F9FA
:104D10006D1C0F2D83D31025D3462078A84208D1CF
:104D2000C9F804700FE001231FFA88F1F24AA020AD
:104D3000ECE7A5F11300042803D2F048C9F80400F9
:104D400001E0C9F80460D9F804000090C5EB051033
:104D5000A0F19401A0F1A4088BB21FFA88F14FF4DE
:104D6000C3724FF49A70FBF7D4FD05EB85010BEB92
:104D7000C101A1F5805ADAF87CCEBCF1000F7DD0DC
:104D80009AF8801E002305226046FCF7D1F91FFA2D
:104D900088F10023DA4A4FF4A570FCF77FF9DBF8BD
:104DA000D80068B9DAF8840E00EB4001D1480A183F
:104DB0001FFA88F101234FF4BD7000BFFCF76EF9B4
:104DC0006D1C192DA9D320780F28484667D0C9F843
:104DD0000460054640680090E323E622D321942036
:104DE000FBF797FDD8469BF8541200230522DBF809
:104DF0005002FCF79DF90123C14AD321A020FCF702
:104E00004DF9D8F85802DFF8EC9200EB400101EBC5
:104E100009020123D321D020FCF740F9207819287A
:104E200040D06E6068680090E3234FF4C372D321D2
:104E30004FF49A70FBF76DFD98F868120023052275
:104E4000D8F86402FCF774F90023AD4AD3214FF47B
:104E5000A570FCF723F9D8F86C02012300EB4001A0
:104E600001EB0902D3214FF4BD70FCF717F9FCF7F1
:104E7000D4F922786FF07F40A24900E008E068266C
:104E80006D27062A65D2DFE802F00F2F2F14304A73
:104E90001FFA88F10123984A4FF4A5708EE7C9F8EC
:104EA000047096E76F60BDE76078BDE8F84FFDF7E6
:104EB0002BB8C5E90001944C722500E037B92246B1
:104EC00030460023F121FCF797F8012707EB870014
:104ED00005EB001004EB870280B20023F121FCF700
:104EE0008BF87F1C022FE9D334E5C5E90001874D1B
:104EF00000E034B92A4630460023F121FCF77CF863
:104F0000012404EB8400421907EB001080B2002357
:104F1000F121FCF771F8641C022CEAD31AE5C5E90B
:104F200000017A4D00E034B92A4630460023F121D1
:104F3000FCF762F8012404EB8400421907EB00102F
:104F400080B20023F121FCF757F8641C022CEAD34D
:104F500000E5C5E90001D8F8D0024FF4CA74012871
:104F600010D00028C0D1002369A2F1215D20FCF7F8
:104F700043F8002368A201B02046BDE8F04FF221BB
:104F8000FCF73AB8002367A2F1215D20FCF734F862
:104F9000002366A2EFE72DE9F84F06460078FF25CB
:104FA000644C4FF0501701284ED067606068009045
:104FB0002C23C02218215820FBF7ABFCDFF87881A6
:104FC000DFF848910123D8F8000000EB800101EBE5
:104FD00009021A215820FCF70FF83078022835D042
:104FE0006760606800904223C0222E215820FBF7A2
:104FF00090FCD8F80400012300EB800101EB0902CA
:1050000030215820FBF7F8FFFCF707F93F4F3078C5
:10501000A13F3C4A54256FF07F414FF0670B4FF0A2
:105020006C0A07F1B00CA7F1200907F58D7812285A
:1050300049D2DFE800F00D12A2BFD2F6F4F3F2F18C
:10504000F0EFEEEDECEBEAE96560AFE76560C8E72D
:105050007078BDE8F84FFCF757BF7078B8B1C4E975
:10506000001240F2931540F2BD1801282CD0002305
:10507000324A4FF482715420FBF7BEFF0023304ABE
:10508000F2212846FBF7B8FF00232EA266E0C4E910
:1050900000122D4D5F46564600E034B92A46384688
:1050A0000023F121FBF7A8FF012404EB840006EBA9
:1050B000001005EBC40280B20023F121FBF79CFF36
:1050C000641C022CE9D345E41C4E0024283E6227D0
:1050D00001E0032C49D004EB840007EB001006EB41
:1050E000C40280B20023F121FBF786FF641C042C6C
:1050F000EFD32BE041970100902E0000343465007F
:105100004453001038003100B4840100DE900100E7
:10511000C7E5B3FDD0D00000C7E5B3FDB1EDB8F1F0
:105120000000000043656C205200000043656C4C99
:1051300069737400140000101C050010088C010035
:105140003C200000332F33007D9501000023FE4AF0
:10515000F2212846FBF750FF0023FCA201B0404695
:10516000BDE8F04FF221FBF747BFF94A40F2571074
:105170000023F121FBF740FFBBE7C4E90012F54D26
:105180005F46564600E034B92A4638460023F121EE
:10519000FBF732FF012404EB840006EB001005EB63
:1051A000C40280B20023F121FBF726FF641C022C0D
:1051B000E9D399E6C4E90012E74E002404EB840029
:1051C00005EB001006EBC40280B20023F121FBF7CF
:1051D00013FF641C022CF1D386E6C4E90012DF4EF3
:1051E000002400BF04EB440000EBC400821904EB70
:1051F000840005EB001080B20023F121FBF7FCFED8
:10520000641C042CEED36FE6FBE0E8E0D1E0BCE0E8
:10521000A8E090E07BE068E053E040E02CE014E0A0
:10522000FFE7C4E9001200244FEA0C0604EB8400F7
:1052300005EB001006EBC40280B20023F121FBF75E
:10524000DBFE641C022CF1D34EE6C4E90012C34E0F
:1052500000242C3604EB440000EBC400821904EB5C
:10526000840005EB001080B20023F121FBF7C4FE9F
:10527000641C022CEED337E6C4E900125FF0000490
:1052800004EB840005EB001007EBC40280B200239E
:10529000F121FBF7B1FE641C022CF1D324E6C4E932
:1052A0000012002404EB840005EB001007EBC4029D
:1052B00080B20023F121FBF79FFE641C022CF1D386
:1052C00012E6C4E90012A54E0024423604EB840025
:1052D00005EB001006EBC40280B20023F121FBF7BE
:1052E0008BFE641C032CF1D3FEE5C4E900120024FC
:1052F00004EB840005EB001009EBC40280B200232C
:10530000F121FBF779FE641C042CF1D3ECE5C4E930
:105310000012924E00248F3E04EB840005EB001037
:1053200006EBC40280B20023F121FBF765FE641C8A
:10533000032CF1D3D8E5C4E90012884E0024773E4F
:1053400004EB440000EBC400821904EB840005EB7D
:10535000001080B20023F121FBF74EFE641C022CEA
:10536000EED3C1E5C4E900125FF0000404EB840051
:1053700005EB001007EBC40280B20023F121FBF71C
:105380003BFE641C022CF1D3AEE5C4E900120024FC
:105390004FEA0C0604EB840005EB001006EBC40298
:1053A00080B20023F121FBF727FE641C022CF1D30D
:1053B0009AE5C4E90012002404EB440000EBC400A9
:1053C00000EB080204EB840005EB001080B2002320
:1053D000F121FBF711FE641C022CEDD384E5C4E936
:1053E0000012002404EB840005EB001009EBC4025A
:1053F00080B20023F121FBF7FFFD641C042CF1D3E4
:1054000072E5C4E90012002404EB440000EBC40080
:1054100000EB080204EB840005EB001080B20023CF
:10542000F121FBF7E9FD641C042CEDD35CE52DE9CB
:10543000F84F05460078FF27494C4FF050160128D9
:1054400013D06660606800902C23C0221A215E2071
:10545000FBF75FFADFF80CA1DFF80C81DAF8D00275
:1054600001286FD00028FCD008E06760EAE73FA27F
:1054700000E041A21C215F20FBF7BEFD2878022836
:1054800061D06660606800904223C02230215E20B7
:10549000FBF73FFA98F84D08DFF8C09000EB800169
:1054A000A9F11F0901EB0902012332215F20FBF75B
:1054B000A3FD2878032867D06660606800905823B1
:1054C000C02246215E20FBF724FA98F85A080123EF
:1054D00000EB800121481F380A1848215F20FBF7A4
:1054E0008BFD287804287DD06660606800906E236C
:1054F000C0225C215E20FBF70CFA1A48DFF884B06A
:105500000023D0F8D0125F200BEBC1025E21FBF725
:1055100073FD2878052866D0666060680090842353
:10552000C02272215E20FBF7F4F9DFF858A098F84A
:1055300059180AF1100A0AEBC10200237421C1466E
:105540005F2022E09EE1A5E13C200000322F3300E5
:10555000F88B01009D950100C08F0100FD900100B6
:10556000140000101C0500105C3C00104A4B35353F
:1055700033302B2848290000353533302B28482973
:1055800000000000CD96010086E1FBF735FD28788C
:1055900006287CD06660606800909A237322882178
:1055A0005E20FBF7B6F9DFF8088401230222002110
:1055B000D8F81C00FBF7BCFD0023FE4A8A215F20BF
:1055C000FBF71AFD0023FCA28A2173206660FBF71B
:1055D00013FD287807287CD066609A2391226068A2
:1055E000882101E05AE15BE100907C20FBF791F912
:1055F000012302220021D8F81800FBF799FD0023AF
:10560000EC4A8A217D20FBF7F7FC0023EAA28A21DD
:1056100091206660FBF7F0FC287808287DD0666052
:10562000606800909A23B12288219C20FBF771F9D1
:10563000012302220021D8F80C00FBF779FDDD4997
:105640000020034688700A468A219D20FBF7D4FC7F
:105650000023DAA2A02118466660FBF7CDFC0023E8
:10566000D94AA0215E20FBF7C7FC287809287CD006
:105670006660606800902C234FF4DD721A214FF4AD
:10568000AC70FBF746F999F8D418D04800E00AE16D
:1056900000EBC10200231C2140F25910FBF7ACFCC7
:1056A00028780A287ED066606068009042234FF414
:1056B000DD7230214FF4AC70FBF72BF999F8D50867
:1056C000012300EB8001C2480A18322140F2591030
:1056D00000E0EAE0FBF790FC28780B287ED06660BB
:1056E0006068009058234FF4DD7246214FF4AC708F
:1056F000FBF70FF9B64A0123D21F482140F2591097
:10570000FBF77AFC28780C2869D0666060686E2305
:105710004FF4DD725C21009000E0C8E04FF4AC7003
:10572000FBF7F7F8AB48ACA1D0F80423A1480DF083
:1057300085FC0123A9A25E2140F25910FBF75CFC15
:1057400028780D287DD066606068009084234FF42F
:10575000DD7272214FF4AC70FBF7DBF89C4A012339
:105760000A32742140F2591000E0A2E0FBF744FC39
:1057700028780E2866D06660606840F26D19009047
:105780009A234A4688214FF4AC70FBF7C2F80123F4
:1057900002220021D8F80800FBF7CAFC0023854A42
:1057A0008A2100E087E040F25910FBF725FC002336
:1057B00084A28A2148466660FBF71EFC28780F28E1
:1057C00070D06660606840F28B1900909A234A4658
:1057D00088214FF4BB70FBF79CF801E06DE06EE0B0
:1057E000012302220021D8F80400FBF7A1FC0023CA
:1057F000704A8A2140F27710FBF7FEFB002371A26A
:105800008A2148466660FBF7F7FB287810285ED0AF
:105810006660606800909A2340F2AB1288214FF4D2
:10582000CB70FBF776F8012302220021D8F80000A4
:10583000FBF77EFC5F4900200A46887003468A21F8
:1058400001E03EE03FE040F29710FBF7D5FBFBF7AD
:10585000E4FC5F4E2A78583E6249672758256FF06E
:105860007F404FF06C09A6F14908112A51D2DFE8B8
:1058700002F0305034516E8AC2D4EFEDECEBEAE91D
:10588000E8E7E60098F84C084FF0000301287FF4A1
:10589000F0ADECE56760F5E567600EE6676024E66D
:1058A00067603AE611E0676075E6676095E66760F5
:1058B000B6E66760DDE66760F6E6676010E767609A
:1058C00024E7676040E7676056E767607AE76760EC
:1058D0009FE7BDE8F84FFCF79ABCC4E9000100E07F
:1058E00034B932460023F1216720FBF785FB012400
:1058F00004EB440000EBC400821904EB840009EBC4
:10590000001080B20023F121FBF776FB641C022C0F
:10591000E6D34EE4C4E9000100E034B93246002386
:10592000F1216720FBF768FB012404EB440000EB46
:10593000C400821904EB840009EB001080B200233C
:10594000F121FBF759FB641C022CE6D331E4C4E9D6
:1059500000015C46542600E035B922460023F121BF
:105960006620FBF749FB012505EB850006EB0010DF
:1059700004EBC50280B20023F121FBF73DFB6D1C57
:10598000022DE9D315E4C4E90001544600E035B91D
:1059900022460023F1216720FBF72EFB012505EBB2
:1059A000850009EB001004EBC50280B200231BE068
:1059B00050530010445300102D00000046616374E2
:1059C000204E6F2E3A000000AB440010ED9601000F
:1059D000DE9001001C050010253264004E4F4E453C
:1059E0000000000038003100F121FBF705FB6D1CC1
:1059F000022DCCD307E4C4E90001002404EB8400A9
:105A000005EB001008EBC40280B20023F121FBF784
:105A1000F3FA641C022CF1D316E4C4E9000100245B
:105A200004EB840005EB001008EBC40280B20023F5
:105A3000F121FBF7E1FA641C022CF1D304E4D4E079
:105A4000C1E0ADE08FE07CE046E028E013E0FFE756
:105A5000C4E900015FF0000404EB840005EB0010D2
:105A600008EBC40280B20023F121FBF7C5FA641CE5
:105A7000022CF1D312E4C4E90001FD4E002400BF62
:105A800004EB840005EB001006EBC40280B2002397
:105A9000F121FBF7B1FA641C032CF1D310E4C4E943
:105AA000000100E034B9324638460023F121FBF70B
:105AB000A3FA012404EB440000EBC400821904EBB8
:105AC000840005EB001080B20023F121FBF794FA6B
:105AD000641C022CE6D307E4C4E900010024E54E6F
