:020000040000FA
:10000000785A001099090100A1090100A309010013
:10001000A5090100A7090100A909010000000000CD
:10002000000000000000000000000000AB0901001B
:10003000AD09010000000000AF090100D304000079
:10004000B3090100C9050000F90500000906000018
:10005000190600001F1D0100B3090100B3090100CA
:10006000071F0100B3090100B3090100B309010032
:10007000B3090100B3090100B3090100B30901008C
:10008000B3090100B9070100B3090100B309010078
:10009000B3090100B3090100B3090100B30901006C
:1000A0003F320100B309010021080100B30901003A
:1000B000B3090100B3090100B3090100B30901004C
:1000C000B3090100B3090100B3090100B30901003C
:1000D000B3090100B309010001030000B3090100E5
:1000E000B3090100DFF80CD014F02AFA00480047E9
:1000F00047030000785A0010734840F20121016064
:1001000041608160C160016141618161C1610162E1
:1001100041628162C162016341638163C1630164C1
:1001200041648164C164016541658165C1650166A1
:1001300041668166C166016741678167C167C0F832
:100140008010C0F88410C0F88810C0F88C10C0F877
:100150009010C0F89410C0F89810C0F89C10C0F827
:10016000A010C0F8A410C0F8A810C0F8AC10C0F8D7
:10017000B010C0F8B410C0F8B810C0F8BC10C0F887
:10018000C010C0F8C410C0F8C810C0F8CC10C0F837
:10019000D010C0F8D410C0F8D810C0F8DC10C0F8E7
:1001A000E41040F8401C40F83C1C40F8381C40F873
:1001B000301C40F8201C40F8101C40F80C1C40F883
:1001C000081C40F8041C70472DE9F0413F4E306890
:1001D00040F40060306041F61F70C6F818013C4CD6
:1001E000012222600027A760FFF786FF39483A49BD
:1001F0000068B0FBF1F5F06BC43E00B16D084FF440
:100200007A78B8FBF5F000F11303B3FBF0F121634A
:100210004FF00F0CC4F834C0A763E263B3FBF0F1F6
:10022000891C2164626400F13E01B1FBF0F3A36418
:10023000B1FBF0F3E364C4F850C0B1FBF0F06065CB
:10024000A265A26240F20330C4F804014FF48D406D
:10025000C4F80001C4F800016421002000F060F936
:1002600040F283102062C821002000F059F940F2CA
:1002700003102062022060620020401C8028FCD312
:1002800040F2E7104543B5FBF8F080B2606283208E
:100290002062124800682762D4F8000140F4002070
:1002A000C4F800010121002000F03AF901210020EA
:1002B00000F036F9D6F8DC0120F01F0040F0110004
:1002C000C6F8DC01BDE8F08180C10240C4C00F4027
:1002D00000C009207802001040420F00004006A034
:1002E000421E12F8013F002BFBD111F8013B02F82E
:1002F000013B002BF9D1704713F05CBDFFFFFFFFFE
:1003000010B501221321002010F02EFD002819D075
:100310006FF07F40401E0028FCD17C487C490122C0
:10032000037823B1002202701320086002E00270FB
:10033000022008604FF40021002010F040FD7549B4
:100340004020086010BD002010F02AFE00244FF469
:100350007A71B0FBF1F0401E0026B0F1807F0CD224
:1003600020F07F404FF0E025401E68611F21601E95
:1003700000F0BBF8AE61072028610122D104002003
:1003800010F0D3FC0121262000F0AFF86149402095
:100390008039086010F06CF910F0E8F811F017FCE3
:1003A0005A480670042011F05BFD11F08DFF10F02B
:1003B00018FA0FF0FAFF10F05BF910F0ACF8FFF745
:1003C00003FF002000F0E6F953480021406900F0E7
:1003D00010FA012000F0DEF9002010F024F94C4D55
:1003E000132028604FF0501610F0B6F9FF2803D004
:1003F000641C022C02D004E00024FAE7304600F02E
:10040000B6FA2868801E1228EED2DFE800F0093E16
:1004100038440F171A1D20262C324A235C50565F91
:10042000304600F0A4FA0AF0B0FBDDE7304600F0F9
:100430009EFA0FF089FF0CF0DCFDD5E70AF09BFE79
:10044000D2E70BF0B1F8CFE70BF091FCCCE70CF062
:1004500048FBC9E70FF054F9C6E7304600F087FAC9
:100460000DF010FBC0E7304600F081FA0DF0BCFB48
:10047000BAE7304600F07BFA0DF050FCB4E73046A6
:1004800000F075FA0DF07EF8AEE7304600F06FFA36
:100490000DF03AF9A8E7304600F069FA0DF07DF862
:1004A000A2E7304600F063FA0EF074FF9CE7304696
:1004B00000F05DFA0EF02DF996E7304600F057FA9D
:1004C0000DF011FD90E70EF003FB8DE70FF0C0FB80
:1004D0008AE712480168491C016070470F490A68A1
:1004E0000B689B1A8342FBD37047C906090E00288C
:1004F00006DA00F00F0000F1E02080F8141D7047CC
:1005000000F1E02080F80014704700006402001041
:100510006802001084E100E01C00001000000010E0
:10052000F0B5944A0023FF250426012712684FF0F6
:10053000020C4FF47A74002815D0012824D0022828
:1005400032D003280ED18C48C0F804C0C360B2FB7F
:10055000F4F2521E4A438261056046614760416879
:10056000C907FCD1F0BD4FF04020C0F804C0C36003
:10057000B2FBF4F2521E4A43826105604661476055
:100580004168C907FCD1F0BD7C48C0F804C0C36015
:10059000B2FBF4F2521E4A43826105604661476035
:1005A0004168C907FCD1F0BD7548C0F804C0C360FC
:1005B000B2FBF4F2521E4A43826105604661476015
:1005C0004168C907FCD1F0BD4FF04021012008600F
:1005D0006C480168491C01606B4801786B4801292F
:1005E00006D08168491C81604168491C41607047A0
:1005F0000168491C0160F7E7604901200860634811
:100600004168491C416070475D49012008605F48AE
:100610008168491C816070475749012008605B4828
:10062000C168491CC16070470121002808D0012819
:100630000AD002280BD0032801D14F4841607047EF
:100640004FF04020416070474C48416070474C4833
:10065000416070470021002808D001280AD0484A8C
:1006600002280AD0032800D1516070474FF0402083
:1006700041607047414841607047516070470028B1
:100680000BD0012810D0022814D0032804D13A49F5
:10069000486840F00200486070474FF040214868C9
:1006A00040F00200486070473449486840F002005A
:1006B000486070473249486840F00200486070471F
:1006C00070B50024314D324A0323002807D0012899
:1006D0001BD0022827D0032833D0002070BD2C6007
:1006E00052F8C40F40F0020010604FF04020426802
:1006F00042F0020242604EF65F22C26081614361B5
:10070000012000F02CF8012070BD6C6052F8C40F7D
:1007100040F004001060194881614361022000F03C
:100720001EF8012070BDAC6052F8C40F40F4800088
:100730001060134881614361032000F010F801202C
:1007400070BDEC6052F8C40F40F4000010600A481D
:1007500081614361042000F002F8012070BD00F0C7
:100760001F02012191404009800000F1E020C0F803
:10077000001170477C0200100040094000800040DA
:10078000000009402C02001060020010040000105C
:1007900000C00F4008B5F94942F2107200280FD08E
:1007A000886940F0010088610092886940F4006027
:1007B00088610098401E009000980028F5D108BD7F
:1007C000886920F400608861009202E00098401E71
:1007D000009000980028F9D1886920F00100886114
:1007E00008BDE74A002108C808C2491C8029FAD37D
:1007F000704770B50846E34CE34B272243F8A82C1A
:1008000043F8A42CC3F8B821C3F8BC211A665A6671
:100810009A66DA6643F8A02C43F89C2C9A61DA6158
:100820001A625A629A62DA6243F8982C43F8942C5E
:100830009A67DA671A635A639A63DA631A65DA6544
:100840005A659A659A64D14A116C41F002011164AB
:10085000916D41F00A019165CD4B196841F001019C
:100860001960CC490A6822F001020A60C34A0025D7
:100870009561916921F00E019161916941F00A0140
:100880009161916941F020019161916921F08001AC
:100890009161916921F480719161916921F40071F4
:1008A0009161916921F480619161916921F4006104
:1008B0009161B949B94E0968B1FBF6F1C3F8F4107A
:1008C000916841F080619160916821F02001916010
:1008D000916841F400619160916841F480519160A8
:1008E000916821F400519160916821F480419160F8
:1008F0009168AB4B194091609168AA4B1943916084
:100900001560116841F01C511160116841F480219B
:100910001160116841F480711160116841F0740137
:1009200011605560516841F000615160516841F4B7
:1009300000215160516841F480615160516840F27A
:100940000F131943516014615461002801D0FFF75F
:1009500048FF00204FF47F01CA1102C4401C90429E
:10096000FBD342F21070401E0028FCD170BD854AB6
:1009700000214FF4FF3301C2491C9942FBD3704759
:10098000F0B5059EC3F58874C4EB0414E401C2F508
:10099000F07504EB85047B4D2C440025121AC2F53A
:1009A000F077591A08E0002001E040C4401C824260
:1009B000FBD804EB87046D1CA942F4D8F0BD714B41
:1009C000B0F5F07F0ED2B1F5887F0BD2A1F20F11F6
:1009D000C0F5F070A1EB011100EB4110401E03EBDC
:1009E0008000026070472DE9F0470446DDF820A042
:1009F0000D4690469946444502D94046A04684B2E9
:100A00004D4502D94846A94685B2A8EB040000B27C
:100A1000A9EB05010EB250B1A6B1B04236DDC0EB74
:100A200046010FB27100404201EB400926E05246F8
:100A300029462046FFF7C3FF6D1CADB2A945F6D28B
:100A4000BDE8F087524629462046FFF7B8FF641CF0
:100A5000A4B2A045F6D2F3E7524629462046FFF756
:100A6000AEFF641CA4B2002F05DD6D1CADB209EB16
:100A7000070007B202E007EB460007B24445EBD19E
:100A8000524629462046BDE8F04798E7C6EB4001AC
:100A90000FB27100404201EB400811E05246294676
:100AA0002046FFF78CFF6D1CADB2002F05DD641CE6
:100AB000A4B208EB070007B202E007EB460007B25A
:100AC0004D45EBD1524629462046BDE8F04776E732
:100AD0002DE9FF5F8946074611469B46684609F0A7
:100AE000F3FD0025EA461AF80580002409EB050607
:100AF000C4F1070028FA00F0C00706D03819B1B2D7
:100B000080B25A46FFF75BFF05E03819B1B280B2F8
:100B10000E9AFFF754FF641C082CE9D36D1C102DAE
:100B2000E1D3BDE8FF9F2DE9FE4F894607461146F8
:100B30009B46684609F0CFFD0025EA461AF8058075
:100B4000002409EB0506C4F1070028FA00F0C007ED
:100B500006D03819B1B280B25A46FFF730FF05E02F
:100B60003819B1B280B20C9AFFF729FF641C082C27
:100B7000E9D36D1C0C2DE1D3BDE8FE8F0080082069
:100B800000820820000001A0B8C0024000800920B7
:100B9000C4C00F40008C08207C0200109C99740097
:100BA000FFFF00FC0000DF012DE9F8430446089F29
:100BB0000D46164699464FF4EC7816F8012B4B4635
:100BC000294620460097FFF783FF444502D20834A8
:100BD000A4B207E0FF2D03D800241035ADB201E028
:100BE0000024002530780028E7D1BDE8F8832DE9FE
:100BF000FF4F82B005460C4617462E46A0464FF0E2
:100C0000000AA6F1140080B23A462146FFF7D7FE4B
:100C1000761CB6B2A8F1140081B23A462846FFF716
:100C2000CEFE08F101081FFA88F80AF1010A1FFA3E
:100C30008AFABAF1280FE4D3A94627460026A5F17F
:100C4000140001902830A4F1140804F1140A009053
:100C5000A9F1140083461FFA88F180B2059AFFF7C4
:100C6000AEFE1FFA8AF11FFA8BF0059AFFF7A7FE76
:100C700009F101091FFA89F9A7F11400834681B22D
:100C80000198059A80B2FFF79AFE00981FFA8BF13F
:100C900080B2059AFFF793FE7F1CBFB2761CB6B2F6
:100CA0000A2ED5D30026A4F1140704F11408A5F1E7
:100CB000140905F1140A05F10A008346B9B280B29D
:100CC000059AFFF77CFE1FFA88F11FFA8BF0059A50
:100CD000FFF775FE6D1CADB204F10A00834681B2C8
:100CE0001FFA89F0059AFFF76AFE1FFA8BF11FFAC7
:100CF0008AF0059AFFF763FE641CA4B2761CB6B2B4
:100D00000A2ED8D306B0BDE8F08F30B502460020D9
:100D10001478FE4B00EB80115D5CA54204D11944B0
:100D2000557849788D4204D0401C80B27728F1D3A1
:100D3000002030BD30B5024600201478F44B00EBA3
:100D4000001113F81150A54205D103EB410155786C
:100D500049788D4204D0401C80B2D228EFD30020C5
:100D600030BD2DE9F84F04468B469246A046002739
:100D70000AFB03F0C11700EB5170DFF89893009065
:100D800025E00A98C65D0025300606D5594620465E
:100D9000D9F80020FFF713FE05E059462046D9F8A0
:100DA0000420FFF70CFE7006060E641CA4B2A4EB30
:100DB0000800504505D144460BF1010B1FFA8BFB8F
:100DC00003E06D1CEDB2082DDED37F1CBFB200988E
:100DD000B7EBE00FD5DBBDE8F88F2DE9F04F044607
:100DE00088462546CA4902EB0210DFF828A301EB2A
:100DF0004009002B0FD0002709EB070090F802B044
:100E000000265FEA0B6034D541462046DAF804201C
:100E1000FFF7D5FD33E04FF0000B09EB0B008778AF
:100E20000026380606D541462046DAF80020FFF7AE
:100E3000C6FD05E041462046DAF80420FFF7BFFD75
:100E40007806070E641CA4B2601B10280BD0761C19
:100E5000F6B2082EE5D30BF1010B0BF0FF0BBBF143
:100E6000200FDAD34FE72C4608F101081FFA88F863
:100E7000F1E741462046DAF80020FFF7A0FD4FEAEF
:100E80004B604FEA106B641CA4B2601B102808D0A2
:100E9000761CF6B2082EB4D37F1CFFB2202FABD342
:100EA00031E72C4608F101081FFA88F8F4E72DE92C
:100EB000F04F044688462546944902EB8210DFF83D
:100EC00054A200EB0109002B0FD0002709EB07000B
:100ED00090F802B000265FEA0B6034D54146204608
:100EE000DAF80420FFF76BFD33E04FF0000B09EB5D
:100EF0000B0087780026380606D541462046DAF8EA
:100F00000020FFF75CFD05E041462046DAF80420AA
:100F1000FFF755FD7806070E641CA4B2601B182865
:100F20000BD0761CF6B2082EE5D30BF1010B0BF0BB
:100F3000FF0BBBF13F0FDAD3E5E62C4608F10108C1
:100F40001FFA88F8F1E741462046DAF80020FFF75B
:100F500036FD4FEA4B604FEA106B641CA4B2601B75
:100F6000182808D0761CF6B2082EB4D37F1CFFB226
:100F70003F2FABD3C7E62C4608F101081FFA88F8CB
:100F8000F4E710B50446084611462246FFF78FFFE6
:100F9000182010BD10B50446084611462246FFF73A
:100FA0001CFF122010BD2DE9F84F06460C461546D1
:100FB0009A4600274FF4F0794FF488782A78002A6F
:100FC0003DD0F01986B2802A15D906F1180048459F
:100FD00005D900261634A4B2444500D90024284679
:100FE000FFF793FE80B2534622463146FFF7C9FF12
:100FF0000746AD1CE2E70D2A15D00A2A1BD006F1E0
:101000000C00484505D900260C34A4B2444500D94B
:101010000024404841680091036821463046FFF7AC
:1010200057FD6D1CCAE71634A4B2444500D900240C
:101030006D1C0027C2E700266D1C0027BEE7CAE62C
:10104000F8B506460F46154600242B78002B21D014
:10105000A3F13002092A01D893B204E02E2B15D057
:101060002D2B15D00C2303EBC300C0EB83102A49B2
:10107000372301EB80000090301980B220223946DE
:10108000FFF76FFE6D1C2034A4B2DEE70A23EAE707
:101090000B23E8E7F8BD2DE9F84306460C46154654
:1010A000994600204FF4F0784FF488772A78002A88
:1010B00046D0304486B2802A14D906F1100040454B
:1010C00005D900261034A4B2BC4200D90024284619
:1010D000FFF730FE80B24B4622463146FFF75AFFFB
:1010E000AD1CE3E70D2A1FD00A2A25D006F108001F
:1010F000404505D900260834A4B2BC4200D90024DA
:101100000448416800912146036807E0FC5E010045
:10111000337D01001400001064BF01003046FFF76A
:10112000D7FC6D1C0A20C1E71034A4B2BC4200D920
:1011300000246D1C0020B9E700266D1C0020B5E7D7
:1011400053E52DE9F84306460C461546994600201E
:101150004FF4F0784FF488772A78002A3DD0304455
:1011600086B2802A14D906F11000404505D9002620
:101170001034A4B2BC4200D900242846FFF7DAFD9F
:1011800080B24B4622463146FFF704FFAD1CE3E731
:101190000D2A16D00A2A1CD006F10800404505D9B0
:1011A00000260834A4B2BC4200D900243548416866
:1011B0000091036821463046FFF7B5FC6D1C0820FE
:1011C000CAE71034A4B2BC4200D900246D1C002030
:1011D000C2E700266D1C0020BEE706E52DE9F041C0
:1011E000062A00D90A2202B90122052900D90521BF
:1011F000914200D911460024234E20273755641C04
:10120000E4B20C2CFAD314460A250DE0B0FBF5FC31
:1012100005FB1C0C06EB04080CF1300C08F801CCA3
:10122000B0FBF5F0641EE4B2002CEFD169B11046BA
:1012300005E0341814F8014C3454401EC0B2491E65
:10124000C9B2F6D22E21315400E0B75473B9002050
:10125000511E09E0335C302B08D133185B782E2BFC
:1012600004D03754401CC0B28842F3DB521CD0B2C9
:10127000002102E03154401CC0B20C28FAD3BDE872
:10128000F08100001400001044530010704738B57E
:1012900004464FF05015E4234FF4C872D0210320C8
:1012A0000095FFF76DFB002C0ED0012C0CD1FE48F1
:1012B0004560FF21016001B00023BDE83040D0212E
:1012C000FAA20320FFF7E7BE38BD2DE9F84F00244E
:1012D000DFF804844FF04C0940F20F174FF04D0A2D
:1012E0004FF04E0BFD48009004EB4401A00001EBD1
:1012F000041100EB810004EB840509EB051680B2B4
:10130000B2B23B46E421FFF73BFB012000EB0510A6
:10131000E323B2B280B21946CDF80080FFF763FB39
:10132000B2B2B0B23B46E321CDF80080FFF75BFBE1
:101330000AEB0510002682B280B23B46E3210096FC
:10134000FFF751FB0BEB051082B280B23B46E32165
:101350000096FFF748FB4F2000EB051082B280B2E9
:101360003B46E3210096FFF73EFB641C062CB9D3F5
:10137000BDE8F88F10B5FFF7A8FFCB48D74941600B
:101380006FF07F4101600023D5A2F1215420FFF7C7
:1013900082FE0023F121BDE81040D3A2A420FFF774
:1013A0007ABE10B5FFF791FFBF48CC4941606FF09E
:1013B0007F4101600023F121BDE81040CBA2542001
:1013C000FFF769BE10B5FFF780FFB748C34941601A
:1013D0006FF07F4101600023F121BDE81040C4A2FD
:1013E0005420FFF758BE10B5FFF76FFFAE48BB495A
:1013F00041606FF07F4101600023F121BDE81040A2
:10140000BCA25420FFF747BE10B5FFF75EFFA64809
:10141000B24941606FF07F4101600023F121BDE8D6
:101420001040B5A25420FFF736BE10B5FFF74DFFB0
:101430009D48AA4941606FF07F4101600023F1217E
:10144000BDE81040ADA25420FFF725BE10B5FFF750
:101450003CFF9548A14941606FF07F410160002346
:10146000F121BDE81040A6A25420FFF714BE10B52C
:10147000FFF72BFF8C48994941606FF07F41016075
:101480000023F121BDE810409EA25420FFF703BEC7
:101490002DE9F0410446FFF718FF83498F4A4A605F
:1014A0006FF07F420A60994E4FF4D1757127C4B135
:1014B0000024042C32D084B3032C3FD0611D01EBF7
:1014C000410006EB400204EB840007EB0010002310
:1014D000F121FFF7E0FD641CE4B2052CE9D3BDE87F
:1014E000F0810024042C10D004EB440006EB4002F1
:1014F00004EB840007EB00100023F121FFF7CBFD84
:10150000641CE4B2052CEDD3E9E7804A2846183282
:101510000023F121FFF7BFFDF2E707E07B4A2846F1
:1015200036320023F121FFF7B6FDD4E7774A6C206D
:101530001E320023F121FFF7AEFDCCE7734A4FF4D2
:10154000A77030320023F121FFF7A5FDC3E710B5E6
:10155000FFF7BBFE5448614941606FF07F41016075
:1015600000236BA2F1215420FFF795FD0023F12108
:10157000BDE8104067A2A420FFF78DBD10B5FFF7AE
:10158000A4FE4948554941606FF07F410160002346
:10159000F121BDE8104060A25420FFF77CBD10B5DA
:1015A000FFF793FE40486FF07F4101604B49416077
:1015B0005A4840F24314D0F8D01201291BD0002918
:1015C00033D1002356A2F2215320FFF764FD0023FC
:1015D00056A2F221A320FFF75EFD002356A2F221BE
:1015E000F320FFF758FD20460023BDE8104055A228
:1015F000F221FFF750BD002355A2F2215320FFF73F
:101600004AFD002355A2F221A320FFF744FD002349
:1016100054A2F221F320FFF73EFD20460023BDE84F
:10162000104052A2F221FFF736BD10BD70B5FFF792
:101630004CFE1D486FF07F410160284941603748EA
:1016400040F2431440F29315D0F8D012012921D072
:10165000002927D1002332A2F2215320FFF71BFDDE
:10166000002332A2F221A320FFF715FD002332A2AE
:10167000F221F320FFF70FFD002332A2F2212046D2
:10168000FFF709FD2846BDE8704000233AA2F22189
:10169000FFF701BD00232EA2F2215320FFF7FBFC30
:1016A00000236FE08AE0000014000010C7EBC8B709
:1016B000C8CFB1BBB2E2B5E7B3D8D3D0B9FDB3E47C
:1016C000B1A3BBA4B9A6C4DCD4D9BDF8D0D0B4CBE7
:1016D000CFEEB2E2CAD4000068436900380031009E
:1016E0006D736563000000007365630056000000C1
:1016F00041000000730000006D7300006DA6B8008B
:101700006BA6B800537465707300000011B101003E
:10171000487A00004B487A002A3100001C0500106E
:10172000C4DAD7E8B2E2CAD400000000B3CCBFD814
:10173000B8BAD4D800000000B3CCBFD8B5E7D4B451
:1017400000000000C1D0B1EDB2E2CAD40000000038
:10175000492E522054455354000000004C4F414440
:1017600000000000504F57455200000043415041D7
:101770004349545900000000CFB5CDB3C9E8D6C3E2
:1017800000000000AFF22C02F221A320FFF783FC3F
:101790000023AFF23002F221F320FFF77CFC00239C
:1017A000AFF23802F2212046FFF775FC2846BDE86B
:1017B00070400023FCA2F221FFF76DBC70BD10B594
:1017C000FFF783FDFA486FF07F410160F9494160FE
:1017D000F948D0F8D002012818D0002834D10023CD
:1017E000AFF2C402F2215320FFF755FC0023AFF201
:1017F000C402F221A320FFF74EFC0023AFF2C8027F
:10180000F221BDE81040F320FFF745BC0023AFF202
:10181000C002F2215320FFF73EFC0023AFF2C402C6
:10182000F221A320FFF737FC0023AFF2C802F22118
:10183000F320FFF730FC0023BDE81040DFA2F221C7
:1018400040F24310FFF727BC10BD10B5FFF73DFD78
:10185000D7486FF07F410160D6494160D648D0F843
:10186000D002012816D0002829D10023D5A2F221C8
:10187000A320FFF710FC0023D4A2F221F320FFF7EE
:101880000AFC0023BDE81040D3A2F2214FF4A67059
:10189000FFF701BC0023D2A2F221A320FFF7FBFB3C
:1018A0000023D1A2F221F320FFF7F5FB0023BDE8CE
:1018B0001040CFA2F22140F24310FFF7ECBB10BD65
:1018C00010B5FFF702FDBA486FF07F410160B949DA
:1018D0004160B948D0F8D002012816D0002829D19B
:1018E0000023C5A2F221A320FFF7D5FB0023C4A249
:1018F000F221F320FFF7CFFB0023BDE81040B6A292
:10190000F2214FF4A670FFF7C6BB0023BEA2F2215E
:10191000A320FFF7C0FB0023B1A2F221F320FFF7C1
:10192000BAFB0023BDE81040B1A2F22140F24310FF
:10193000FFF7B1BB10BD2DE9F84F8046B44F4FF40F
:10194000F079CA234A465C2100200097FFF718F877
:10195000A8F1050000EB400101EBC001CA2000EB3B
:1019600041056FF07F460022ABB24621104600963B
:10197000FFF739F82822ABB2462110460096FFF750
:1019800032F85022ABB2462110460096FFF72BF8F2
:1019900001244FF0500A04EB84000AEB0010ABB2B4
:1019A000024646210096FFF71EF8641CE4B2052C9F
:1019B000F1D30024462508F102080DE004EB4400B1
:1019C00000EBC40005EB40010B464A4600200096A0
:1019D000FFF709F8641CE4B24445EFD3744847604C
:1019E000754840F2431440F29315D0F8D012012903
:1019F0002ED0002959D1002386A249210320FFF7C8
:101A00004AFB002385A249212B20FFF744FB00233A
:101A100084A249215320FFF73EFB002383A24921E2
:101A2000A320FFF738FB002382A24921F320FFF710
:101A300032FB002382A249212046FFF72CFB01B094
:101A40002846BDE8F04F002380A24921FFF723BBC1
:101A5000002380A249210320FFF71DFB00237EA263
:101A600049212B20FFF717FB00237DA2492153209A
:101A7000FFF711FB00237CA24921A320FFF70BFBFA
:101A800000237BA24921F320FFF705FB00237AA264
:101A900049212046FFF7FFFA01B02846BDE8F04F84
:101AA000002377A24921FFF7F6BA61E42DE9F84F48
:101AB0008046574F4FF4F079CA234A465C210020F4
:101AC0000097FEF75DFFA8F1050000EB400101EB78
:101AD000C001CA2000EB41056FF07F460022ABB287
:101AE000462110460096FEF77EFF2822ABB2462123
:101AF00010460096FEF777FF5022ABB24621104603
:101B00000096FEF770FF01244FF0500A04EBC4006A
:101B100000EB04100AEB8000ABB2024646210096AF
:101B2000FEF761FF641CE4B2042CEFD300244625C9
:101B300008F102080DE004EB440000EBC40005EBE3
:101B400040010B464A4600200096FEF74CFF641CFD
:101B5000E4B24445EFD316484760174840F21B14DF
:101B600040F27F15D0F8D01201291BD000291AD1DC
:101B7000002328A249210320FFF78DFA002327A282
:101B800049212B20FFF787FA00233FA24921532048
:101B9000FFF781FA00233EA24921B720FFF77BFA25
:101BA000002379E086E0B0E05359535345542000B8
:101BB00014000010380031001C050010434F4D5038
:101BC00000000000CFC2D2BBB2BD0000B2E2CAD456
:101BD000BDE1B9FB0000000020B7B5BBD800000094
:101BE0004E45585400000000524553554C540000D7
:101BF0004241434B00000000C9CFD2BBD2B300002A
:101C0000CFC2D2BBD2B300005052455600000000F4
:101C100034346500D0F2BAC500000000CFEEC4BF76
:101C200000000000B2CECAFD31000000B2CECAFDF5
:101C300032000000BDD8D6B9B5E7D1B90000000028
:101C4000BDD8D6B9B5E7C1F700000000CAB1BCE401
:101C5000000000004E4F00004D4F444500000000C2
:101C600050415241310000005041524132000000C9
:101C7000434F464656000000434F4646430000008F
:101C800054494D4500000000BDE1B9FB31000000A2
:101C9000BDE1B9FB32000000FEA249212046FFF75A
:101CA000FAF901B02846BDE8F04F0023FCA2492113
:101CB000FFF7F1B90023AFF2640249210320FFF7D7
:101CC000EAF90023AFF2700249212B20FFF7E3F974
:101CD0000023AFF2740249215320FFF7DCF90023FF
:101CE000AFF27C024921B720FFF7D5F90023EFA21C
:101CF00049212046FFF7CFF901B02846BDE8F04F53
:101D00000023ECA24921FFF7C6B9CEE670B505461F
:101D1000FFF7DBFAE949EA4CEA4A6FF07F43BDB1CD
:101D2000012D45D00B604C60D2F8D002012877D04D
:101D300000287DD10023E4A2F2215320FFF7ABF964
:101D4000BDE870400023F221E1A2A320FFF7A3B970
:101D50000B604C60D2F8D002012815D000286FD15A
:101D60000023DDA2F2215320FFF795F90023DDA225
:101D7000F221A320FFF78FF9BDE870400023F22184
:101D8000DBA2FC20FFF787B90023DBA2F22153205E
:101D9000FFF781F90023DAA2F221A320FFF77BF9F4
:101DA000BDE870400023F221D7A2FC20FFF773B9F1
:101DB0000B604C60D2F8D01240F29314012901D08C
:101DC00099B124E00023D2A2F2215320FFF763F956
:101DD0000023D2A2F221A320FFF75DF90023D2A2B3
:101DE000F2212046FFF757F911E00023D0A2F2219B
:101DF0005320FFF750F90023D0A2F221A320FFF7D0
:101E00004AF90023D0A2F2212046FFF744F9BDE8A9
:101E100070400023CEA2F22140F2BD10FFF73BB983
:101E20000023CCA2F2215320FFF735F9002300E074
:101E300006E0BDE87040F221C8A2A320FFF72BB94D
:101E400070BD10B5FFF741FA9C486FF07F4101600B
:101E50009B4941609B4CD4F8D002012801D068B165
:101E600018E00023BFA2E7215420FFF714F9002354
:101E7000BEA2FB215420FFF70EF90BE00023BDA208
:101E8000E7215420FFF707F90023BCA2FB215420CF
:101E9000FFF701F9D4F8D0124FF4A2704FF4CA74CE
:101EA000012910D000291BD10023AFF2B422F12167
:101EB000FFF7F1F80023AFF2B8222046BDE810404A
:101EC000F121FFF7E8B80023AEA2F121FFF7E3F814
:101ED00020460023BDE81040ACA2F121FFF7DBB89B
:101EE00010BD70B50446FFF7F0F974487449754B9E
:101EF0004FF4A2754FF4CA766FF07F425CB3012CA9
:101F000029D002604160D3F8D00201287ED0002899
:101F10007DD100239FA2F1215420FFF7BCF80023BC
:101F20009EA2E721A420FFF7B6F800239DA2FB2183
:101F3000A420FFF7B0F80023AFF24432F121284685
:101F4000FFF7A9F80023AFF248323046BDE87040F1
:101F5000F121FFF7A0B802604160D3F8D002012858
:101F60002FD000287CD100238AA2F1215420FFF732
:101F700092F800238DA2E721A420FFF78CF800231C
:101F800086A2FB21A420FFF786F8002389A2E7217F
:101F9000F420FFF780F8002380A2FB21F420FFF754
:101FA0007AF80023AFF2B032F1212846FFF773F838
:101FB0000023AFF2B4323046BDE87040F121FFF7A4
:101FC0006AB800237DA2F1215420FFF764F80023B2
:101FD0007CA2E721A420FFF75EF800237BA2FB216F
:101FE000A420FFF758F800237AA2E721F420FFF796
:101FF00052F8002375A2FB21F420FFF74CF80023D0
:1020000060A2F1212846FFF746F801E008E027E04A
:102010003046BDE8704000235CA2F121FFF73BB8D9
:10202000002366A2F1215420FFF735F8002367A2B0
:10203000E721A420FFF72FF8002368A2FB21A420AA
:10204000FFF729F800234FA2F1212846FFF723F8D4
:102050003046BDE8704000234CA2F121FFF71BB8C9
:1020600070BD70B50546FFF730F91449144C154A98
:102070006FF07F4355B1012D09D00B604C60D2F851
:10208000D002012804D0002803D1ABE0BEE0E3E099
:1020900057E141E1BDE1B9FB332020200000000001
:1020A000BDE1B9FB3420202000000000524553312F
:1020B00000000000524553320000000014000010E0
:1020C000380031001C0500102020C8A1CFFB2000E3
:1020D0002020C8B7C8CF2000B2E2C1BFCFD4CABE4B
:1020E00000000000B5B5BAC5CFD4CABE00000000DC
:1020F000B5B5BCC6CAFD00004D454153534554001B
:102100004E6F2E4449535000434F554E542000000B
:1021100046494C4520534554000000005361766504
:1021200044617461000000004D4F52450000000002
:10213000CEC4BCFEB9DCC0ED00000000B1A3B4E623
:10214000CAFDBEDD00000000B8FCB6E000000000E3
:10215000322F320043414E43454C2000434F4E4600
:1021600049524D00434C4541000000004C49535436
:1021700000000000C7E5B3FD00000000B1EDB8F1BC
:10218000000000004C617374205000004E657874AC
:1021900020500000C9BEB3FDD0D00000D7D4B6AFE8
:1021A00000000000B8B4D6C600000000CFDFD0D4D5
:1021B00000000000B6D4CAFD0000000044656C5267
:1021C0006F7700004C494E450000000041544F55C8
:1021D000000000004C4F472000000000434F5059C2
:1021E000000000000023F8A2F2215320FEF753FF65
:1021F0000023F8A2F221A320FEF74DFFBDE87040B6
:102200000023F221F6A2F320FEF745BF0B604C60DD
:10221000D2F8D002012811D000287DD10023AFF2DE
:102220004812F2215320FEF736FF0023AFF6B82202
:10223000BDE87040F221A320FEF72DBF0023EBA2E2
:10224000F2215320FEF727FFBDE870400023F22162
:10225000E8A2A320FEF71FBF0B604C60D2F8D0129B
:102260004FF4CA74012937D000297ED10023E3A29C
:10227000E7215420FEF70FFF0023AFF24812FB21A5
:102280005420FEF708FF0023DEA2E721A420FEF77A
:1022900002FF0023AFF61C32FB21A420FEF7FBFE59
:1022A0000023DAA2F121F420FEF7F5FE0023AFF6B9
:1022B0003432FB21F420FEF7EEFE0023AFF2781259
:1022C000E7212046FEF7E7FE2046BDE870400023E8
:1022D000D0A2FB21FEF7DFBE0023D0A2E7215420CD
:1022E000FEF7D9FE0023CFA2FB215420FEF7D3FE38
:1022F0000023CEA2E721A420FEF7CDFE0023CDA22D
:10230000FB21A420FEF7C7FE0023CCA2F121F4207C
:10231000FEF7C1FE002300E027E0C6A2FB21F42067
:10232000FEF7B9FE0023AFF20022E7212046FEF7B8
:10233000B2FE2046BDE870400023B6A2FB21FEF7A6
:10234000AABE0023BFA2F2215320FEF7A4FE002361
:10235000BEA2F221A320FEF79EFEBDE8704000233E
:10236000F221BCA2F320FEF796BE70BDBB486FF011
:102370007F410160BA494160BA48D0F8D0020128D3
:1023800008D000280CD10023AFF2B422F221532050
:10239000FEF781BE0023F22194A25320FEF77BBEFC
:1023A000704770B5AD486FF07F410160AC49416046
:1023B000AC484FF4837440F29315D0F8D012012941
:1023C0001BD0002933D10023A7A2F2215320FEF70E
:1023D00062FE002382A2F221A320FEF75CFE00230E
:1023E000A4A2F2212046FEF756FE2846BDE8704022
:1023F0000023A2A2F221FEF74EBE0023A2A2F221E8
:102400005320FEF748FE0023A2A2F221A320FEF7EC
:1024100042FE0023A2A2F2212046FEF73CFE2846FF
:10242000BDE870400023A0A2F221FEF734BE70BDCB
:1024300008B5A048002100901623D2220846FEF7D6
:102440009FFA08BD08B59C480090CD2340F2DF12EA
:102450005C210020FEF794FA08BD08B595480021DC
:1024600000901623A0220846FEF78AFAFEF72DFFF9
:10247000BDE80840E6E708B58E4800210090162325
:10248000A0220846FEF77CFAFEF71FFF8A4800905C
:10249000CD2340F2DF1246210020FEF771FA08BD7D
:1024A0002DE9F041FFF7D9FF6C4C6FF07F452560B7
:1024B000804860606B4ED6F8D002012801D038B158
:1024C0000DE000237D4A04211846FEF7E4FD06E0F6
:1024D0007A4A0023F23A04211846FEF7DCFD256013
:1024E0004FF0501060600024754F1A2507F5927860
:1024F000032C25D2D6F8D002012801D080B146E0C5
:1025000004EB840007EB400204EB440000EBC40042
:1025100005EB400081B200231846FEF7BCFD36E013
:10252000C4EB041000EB080204EB440000EBC40011
:1025300005EB400081B200231846FEF7ACFD26E013
:10254000D6F8D002012801D088B120E004EB840045
:1025500007EB4002E01E00EB400101EBC00005EB81
:10256000400081B20023FA20FEF795FD0FE0C4EB96
:10257000041000EB0802E01E00EB400101EBC0007C
:1025800005EB400081B20023FA20FEF784FD641CB5
:10259000042CADD3BDE8F041FFF701B82DE9F047B9
:1025A000FFF75BFFDFF8B4906FF07F44C9F800409D
:1025B0004048C9F804002B4ED6F8D002012802D0BA
:1025C00000B18DE085E07DE0B5E7D1B9D0A3D5FDC0
:1025D00000000000B5E7C1F7D0A3D5FD0000000062
:1025E000B5E7D7E8D0A3D5FD000000004D45414434
:1025F000495350005359535345540000CEC4BCFEB8
:1026000000000000CFB5CDB300000000B9A4BEDFCC
:102610000000000020322F320000000046494C45E7
:10262000000000004D414E4500000000535953206A
:10263000000000005345542000000000544F4F4C50
:1026400000000000564F4C43616C00004374726CF4
:1026500043616C0043757243616C0000140000100C
:10266000380031001C050010B5E7C8DDD0A3D5FD4A
:1026700000000000CDCBB3F600000000C7E5B3FDBD
:10268000D0A3D5FD000000004320436F7272657433
:10269000000000005220436F727265740000000059
:1026A0004578697400000000436C6520436F7272C6
:1026B00000000000F35203003434650057AE0100FF
:1026C000199F01000023FC4A04211846FEF7E3FC91
:1026D00006E0F94A0023F23A04211846FEF7DBFC33
:1026E000C9F800404FF05010C9F804000024F34F1F
:1026F0001A2507F13C08032C25D2D6F8D002012870
:1027000001D080B146E004EB840007EB400204EB0B
:10271000440000EBC40005EB400081B200231846E2
:10272000FEF7B9FC36E0C4EB041000EB080204EB42
:10273000440000EBC40005EB400081B200231846C2
:10274000FEF7A9FC26E0D6F8D002012801D088B116
:1027500020E004EB840007EB4002E01E00EB4001A8
:1027600001EBC00005EB400081B20023FA20FEF728
:1027700092FC0FE0C4EB041000EB0802E01E00EB3B
:10278000400101EBC00005EB400081B20023FA20BC
:10279000FEF781FC641C062CADD3C948C9F80400BF
:1027A0000023C8A2BA214FF4DD70FEF774FCBDE827
:1027B000F047FEF7F4BE2DE9F041FFF74EFEC24FA1
:1027C0006FF07F443C60C1487860C14ED6F8D002BB
:1027D000012801D040B10EE0B74A0023163204218F
:1027E0001846FEF758FC06E0B34A0023DC3A042101
:1027F0001846FEF750FC3C604FF050107860002403
:102800001A25032C27D2D6F8D002012801D090B186
:1028100021E0AA4904EB8400963101EB400204EB6D
:10282000440000EBC40005EB400081B200231846D1
:10283000FEF731FC0FE0A149C4EB0410D23142187D
:1028400004EB440000EBC40005EB400081B2002320
:102850001846FEF720FC641C032CD2D398487860FD
:10286000002398A2BA214FF4DD70FEF714FCBDE8F6
:10287000F041FEF794BE2DE9F041FFF7FCFD924DCB
:102880006FF07F442C6091486860914ED6F8D0027A
:10289000012801D040B10EE0874A00232C320421E8
:1028A0001846FEF7F8FB06E0834A0023C63A0421E7
:1028B0001846FEF7F0FB2C604FF0501068600024C3
:1028C000844F1A25A7F13C08022C24D2D6F8D00256
:1028D000012801D078B144E0C4EB0410C21904EB24
:1028E000440000EBC40005EB400081B20023184611
:1028F000FEF7D1FB35E0C4EB041000EB080204EB5B
:10290000440000EBC40005EB400081B200231846F0
:10291000FEF7C1FB25E0D6F8D002012801D080B136
:102920001FE0C4EB0410C219A01E00EB400101EB34
:10293000C00005EB400081B20023FA20FEF7ABFB9C
:102940000FE0C4EB041000EB0802A01E00EB4001F6
:1029500001EBC00005EB400081B20023FA20FEF736
:102960009AFB641C042CAFD3BDE8F041FEF727BFEF
:102970002DE9F84F554C00211623A022084600945B
:10298000FDF7FEFFDFF840916FF07F4AC9F800A025
:10299000C9F804404E4ED6F8D002012801D040B10B
:1029A0000EE0454A0023423204211846FEF773FB2D
:1029B00006E0414A0023B03A04211846FEF76BFBBB
:1029C0000024454F4FF0501B1A25A7F58778C9F80A
:1029D00000A0C9F804B0D6F8D002012801D078B11F
:1029E0001DE0C4EB0410C21904EB440000EBC4006A
:1029F00005EB400081B200231846FEF74CFB0EE0C9
:102A0000C4EB041000EB080204EB440000EBC4002C
:102A100005EB400081B200231846FEF73CFB641C26
:102A2000092CD4D30024D6F8D002012801D088B1D3
:102A300021E004F10900C0EB0010C21904EB4400CE
:102A400000EBC40005EB400081B20023E820FEF754
:102A500022FB10E004F10900C0EB001000EB0802BB
:102A600004EB440000EBC40005EB400081B20023FE
:102A7000E820FEF710FB641C092CD4D3BDE8F84F06
:102A8000FEF7D4BD08B50E480090BE2340F2DF1219
:102A9000A0210020FDF774FF08BD08B50B480021F8
:102AA00000901623A0220846FDF76AFFFEF70DFCF2
:102AB000BDE80840E6E700006DAE010079A0010026
:102AC000343465006D41480014000010F3520300D7
:102AD0001C050010E1A101002BA3010038B504463C
:102AE000FC4D4FF050106860FB48012300EB84025E
:102AF000C8211420FEF7CFFAF74801235C3000EB21
:102B00008402C8214FF48C70FEF7C5FAF348686060
:102B1000F3480090372328227A215020FEF721F92C
:102B2000F0480090372328227A217820FEF719F9FF
:102B3000ED480090372328227A218C20FEF711F9E6
:102B400038BD2DE9F041FFF7A8FFE24C6FF07F455B
:102B50002560E6486060E64ED6F8D002012801D034
:102B600038B10DE00023E34A04211846FEF793FA3A
:102B700006E0E04A0023F23A04211846FEF78BFAF9
:102B800025604FF0501060600024DB4F1A25A7F13C
:102B90003008032C21D2D6F8D002012801D070B120
:102BA0003EE004EB440000EBC40005EB400081B2C2
:102BB000002307EBC4021846FEF76DFA30E004EB81
:102BC000440000EBC40005EB400081B2002308EB99
:102BD000C4021846FEF75FFA22E0D6F8D0020128B8
:102BE00001D078B11CE0E01E00EB400101EBC00019
:102BF00005EB400081B207EBC4020023FA20FEF788
:102C00004AFA0DE0E01E00EB400101EBC00005EBCD
:102C1000400081B208EBC4020023FA20FEF73BFA21
:102C2000641C062CB5D396F80C03FFF757FFBDE8DC
:102C3000F0410020FFF76AB838B5A84C40F2DF1524
:102C4000A0232A46562100200094FDF799FEE32395
:102C50002A46C12100200094FDF792FE38BD08B538
:102C6000A248002100901623B2220846FDF788FEF4
:102C7000FEF72BFBBDE80840DEE70B4611469F4AF6
:102C800089B2105C183200EB4000024498B2002375
:102C9000FEF701BA2DE9F05FFFF7E1FF8D4C6FF011
:102CA0007F45256091486060914FD7F8D002012898
:102CB00001D040B10EE08F4A00231632042118469D
:102CC000FEF7E9F906E08B4A0023DC3A04211846B6
:102CD000FEF7E1F97F4805604FF05015456000248C
:102CE000874E4FF0BE094FF4B47AA6F115084FF69F
:102CF000FF7B012C07D0022C1AD0D7F8D002012874
:102D00002CD0B8B343E0D7F8D002012801D038B1B5
:102D10003DE0F21D484600231821FEF7BCF936E0DD
:102D200008F10702484600231821FEF7B4F92EE007
:102D3000D7F8D002012801D040B128E0704A5046AF
:102D40000E3200231821FEF7A6F920E06C4A504607
:102D5000D21F00231821FEF79EF918E0C4EBC4002F
:102D6000821904EB84000BEA401000231821FEF7BF
:102D700092F90CE0FFE7C4EBC40000EB080204EB9F
:102D800084000BEA401000231821FEF784F9641C2C
:102D9000032CAED3C8370123D7F84C0200EB400117
:102DA00001EBC0004C49D431421818213C20FEF7F9
:102DB00072F93979002306223868FEF70FFA0123E9
:102DC000504A1821FA20FEF766F9B8684B4900EB23
:102DD00040001B394218012318214FF4A070FEF760
:102DE0005AF9D7F84402C83F18224FF4A571FFF7EB
:102DF00044FF002344A22C211846FEF7A2F9002329
:102E000042A22C217820FEF79CF9002341A22C211C
:102E1000FA20FEF796F9002340A22C2140F29D10E3
:102E2000FEF78FF90624DFF8B4802A4EA4F10800DB
:102E3000052802D3A01F082802D9C6F8048000E0A4
:102E40007560A01F814600EB800007EBC001D1F840
:102E5000E80078B191F8EC1001230622FEF7BEF9E4
:102E6000C9EB09103A3081B20123264A7820FEF7D7
:102E700068F908E0C9EB09103A3081B2012329A2B0
:102E80007820FEF75EF9641C0F2CCFD3C6F80480BF
:102E9000D7F8640260B197F8681201230622FEF7A2
:102EA0009DF90123174AC421FA20FEF74AF905E0EB
:102EB00001231CA2C421FA20FEF743F91024A4F137
:102EC0001200052802D3801C08282FD9C6F80480D8
:102ED0002DE000001400001014A701003434650038
:102EE00069D20100ACE40100BFE50100F352030028
:102EF0001C0500106DAE0100A9AB010068B1010016
:102F000074AF01004453001042494E004C4F57200B
:102F10005B465D00484947485B465D00434F554E60
:102F2000540000002D2D2D2D2D2D00007560A4F1D5
:102F30001000814600EB800007EBC001D1F8FC00D7
:102F400078B191F8001101230622FEF747F9C9EB89
:102F500009103A3081B20123FE4AFA20FEF7F1F857
:102F600009E0C9EB09103A3081B20123AFF24C02FB
:102F7000FA20FEF7E6F8641C192CA0D3C6F80480EA
:102F8000D7F8640270B197F8541201230622D7F8DB
:102F90005002FEF723F90123EE4AC4217820FEF700
:102FA000D0F806E00123AFF28402C4217820FEF7B6
:102FB000C8F80124DFF8A093E01E052802D2C6F865
:102FC000048000E07560601E00EBC00000EB0902A9
:102FD000C4EB04102B3081B200230820FEF7B1F8B7
:102FE000641C0A2CE8D3C6F80480DC49D7F80C032B
:102FF000002301EB8002C4211846FEF7A2F800234B
:10300000D7A2D4211846FEF79CF80023D6A2D421DB
:10301000F820FEF796F8BDE8F05F0020FEF776BED8
:1030200008B5D3480090A02340F2DF12AF21002062
:10303000FDF7A6FC08BD10B5FFF7FAF9FEF745F954
:10304000BDE81040ECE770B5FFF7F5FFC94C6FF035
:103050007F452560C84860600023C84A042118469F
:10306000FEF719F825604FF050106060C448D0F8A2
:10307000D002012801D098B124E00023C1A21A2176
:103080001846FEF708F80023C0A230212820FEF7DA
:1030900002F80023C0A230218C20FDF7FCFF11E0D4
:1030A0000023BFA21A211846FDF7F5FF0023BEA298
:1030B00030212820FDF7EFFF0023BEA230218C2015
:1030C000FDF7E9FF0023BDA23021F020FDF7E3FF6B
:1030D0000023BCA230214FF4AA70FDF7DCFF0023CF
:1030E000BAA230214FF4DC70FDF7D5FFBDE8704087
:1030F0000020FEF70BBE08B59D4800909A2340F2D1
:10310000DF125A210020FDF73BFC08BD08B59A48A4
:10311000002100901623A8220846FDF731FCFEF797
:10312000D4F8BDE80840E6E72DE9F05FFFF7EEFFD1
:10313000904D6FF07F442C608F486860DFF840B29C
:10314000DBF8D002012801D040B10EE08B4A002309
:10315000163204211846FDF79EFF06E0874A002339
:10316000DC3A04211846FDF796FF2C604FF050160C
:103170006E600024DFF858927D4F4FF01A08A9F1D5
:10318000480ADBF8D002012801D078B35DE0032CB7
:1031900015D2E01E022801D26F6000E06E6004EBE1
:1031A000840009EB400204EB440000EBC40008EB90
:1031B000400081B200231846FDF76DFF45E0A01FD7
:1031C000022801D26F6000E06E6004EB840009EB1E
:1031D0004002E01E00EB400101EBC00008EB4000A4
:1031E00081B20023FA20FDF756FF2EE0FFE7032C03
:1031F00015D2E01E022801D26F6000E06E6004EB81
:1032000044000AEB800204EB440000EBC40008EB2E
:10321000400081B200231846FDF73DFF15E0A01FD6
:10322000022801D26F6000E06E6004EB44000AEBFC
:103230008002E01E00EB400101EBC00008EB400003
:1032400081B20023FA20FDF726FF641C062C98D3D8
:10325000BDE8F05F0020FEF704BF2DE9F843064605
:10326000444C4FF0501767605A4D5B490123286862
:1032700000EBC00042181A214920FDF70CFFA96895
:10328000012301EB410000EBC100344978314218C1
:1032900030214920FDF7FFFEE968012301EB4100E1
:1032A00000EBC1004D49421846214920FDF7F3FECD
:1032B000A96B40F2431801EB410000EBC100474904
:1032C0000023313142181A214046FDF7E4FEE96B34
:1032D000A5F5437501EB410000EBC1003F49012317
:1032E000AE31421830214046FDF7D5FE3078012836
:1032F00004D0002020B1FF20606002E00120F9E747
:1033000067606068009058234FF4C47244214FF402
:10331000A170FDF735FBD5F8E010304D01EB410011
:1033200000EBC100E7354219012346214046FDF775
:10333000B2FEFDF7CAFF3078012804D0BDE8F8439B
:103340000020FEF7E3BC6FF07F40206024486060FF
:10335000002447E044530010C89E010070A70100FC
:103360004155583A000000004F55543A0000000003
:103370003434650014000010F352030099AE0100CC
:103380001C0500104D657468203A00004672657196
:103390005B487A5D000000004C65766C5B565D0012
:1033A000B7BDCABD203A0000C6B5C2CA5B487A5D47
:1033B00000000000B5E7C6BD5B565D0043705B468C
:1033C0005D000000445B205D00000000434D5000A4
:1033D00021AC0100280800103CA60100ABA90100A7
:1033E000380031009CB104EB440000EBC4004219EA
:1033F00004EB84006D2101EB001080B20023F12169
:10340000FDF749FE641C022CA3D3BDE8F8832A46CD
:1034100068200023F121FDF73EFEF3E7F8B50646EC
:10342000FF4C4FF0501060603078012826D000210A
:1034300009B1FF2060606068009028234FF4E672B5
:10344000182140F2A310FDF79BFAF648F64D012330
:10345000D0F89C1201EB410000EBC1004219182189
:103460004FF4D270FDF717FEFDF72FFF30780128DB
:1034700006D0BDE8F8400020FEF748BC0121D7E7A0
:103480006FF07F402060E9486060002494B104EB55
:10349000440000EBC400421904EB84006D2101EBF1
:1034A000001080B20023F121FDF7F5FD641C022C11
:1034B000ECD3F8BD2A4668200023F121FDF7EBFD8F
:1034C000F4E72DE9F05F0124DFF86493D44EDFF8D0
:1034D00054834FF4AD7B4FF0501A3325E71E042F71
:1034E00002D2C6F8049001E0C6F804A098F885035B
:1034F00000EB800004EB4000401E00EB800008EB76
:103500008001D1F83405421C41D091F838150123CF
:103510000522FDF763FE05EB04110023C54AF620E2
:10352000FDF70FFE98F8850300EB800004EB4000E8
:10353000401E00EB800008EB800101F58051D1F8BE
:103540009C05421C2BD091F8A01501230522FDF704
:1035500045FE05EB04110023B64A5846FDF7F1FD80
:1035600098F8850300EB800004EB4000404400F530
:10357000005090F8FB05FF2819D008B305EB0411A3
:103580000023ADA24FF4DF70FDF7DBFD20E005EB7B
:1035900004110023A9A2F620FDF7D3FDC2E705EB35
:1035A00004110023A5A25846FDF7CBFDD8E705EB93
:1035B00004110023A3A24FF4DF70FDF7C2FD07E062
:1035C00005EB04110023A0A24FF4DF70FDF7B9FD55
:1035D000042F02D2C6F8049001E0C6F804A098F8BF
:1035E000850300EB800004EB4000404490F8850325
:1035F0001E2807D905EB0411002390A22620FDF711
:10360000A0FD0BE000EB400101EBC0008F4900235F
:10361000421805EB04112620FDF793FD98F8850369
:1036200000EB800004EB4000404490F8570402286F
:1036300007D905EB0411002380A29220FDF781FD3C
:103640000CE000EB400101EBC00077490023E739B3
:10365000421805EB04119220FDF773FD98F88503DD
:10366000012300EB800004EB400003220021FDF762
:10367000B5FD05EB041100236E4A0820FDF761FD3E
:10368000641CE4B20B2CFFF429AFBDE8F09F2DE9D8
:10369000F84F0446207802280DD002D9A078FEF712
:1036A00020FC2078DFF878A14FF0FF094FF0501888
:1036B000012803D004E0FEF7C4FBF2E7A078D8B1FC
:1036C000CAF80480DAF8040000902A235E221A2146
:1036D0003620FDF755F9DFF84CB15D490023DBF8E2
:1036E000C40200EBC00042181A213620FDF7D3FCBB
:1036F0002078022803D005E0CAF80490E2E7A07819
:1037000000287DD0CAF80480DAF804000090422333
:103710001E2232210020FDF733F900234DA2322171
:103720001846FDF7B8FC03262078B04202D1A078F5
:10373000022866D0CAF80480DAF804000090B01EAF
:10374000432101EB0017332101EB0015BBB2A9B2F5
:103750004FF49972FA20FDF713F9E07800EB80003E
:1037600006EB4000C01E00EB80000BEB8001D1F89F
:103770003405421C53D091F8381501230522FDF77A
:103780002DFDA9B200232B4AFA20FDF7DAFC2078A0
:10379000B04202D1A07803287ED0CAF80480DAF8BB
:1037A00004000090BBB2A9B24FF4C1724FF4A570EF
:1037B000FDF7E6F8E07800EB800006EB4000C01E65
:1037C00000EB80000BEB800101F58051D1F89C05E6
:1037D000421C78D091F8A01501230522FDF7FEFCCC
:1037E000A9B20023134A4FF4A570FDF7AAFC207874
:1037F000B04202D1A078042874D0CAF8048001E055
:1038000062E064E0DAF804000090BBB2A9B240F2D2
:10381000DF124FF4D270FDF7B3F8E0781CE059E006
:10382000140000101C05001092AA0100380031009D
:103830003434650044530010500000002D2D2D2D10
:10384000000000002D00000046000000E8A7010075
:103850003CA601004E6F2E0000EB800006EB4000FE
:10386000584400F5005090F8F905FF284BD0A9B254
:103870000023AFF23C024FF4D270FDF762FC2078D7
:10388000B04201D1A07870B3CAF80480DAF804001D
:10389000BBB2A9B27E2200E026E000902820FDF70E
:1038A0006FF8E07800EB800006EB4000584490F899
:1038B0008303302833D9A9B20023AFF28002282035
:1038C000FDF73FFC36E012E0CAF804901CE7CAF8A6
:1038D000049031E7A9B20023AFF2A002FA20FDF76D
:1038E00030FC54E70CE017E0CAF8049057E7A9B29F
:1038F0000023AFF2B8024FF4A570FDF722FC76E783
:10390000CAF804907BE7A9B20023AFF2D0024FF4CB
:10391000D270FDF716FCB2E7CAF80490B6E700EBE8
:10392000400101EBC000FE4900234218A9B2282043
:10393000FDF707FC2078B04202D1A07801281CD006
:10394000CAF80480DAF804000090BBB2A9B2C4221D
:103950007E20FDF715F8E07800EB800006EB4000D4
:10396000584490F8550402280AD9A9B20023AFF2AE
:1039700034127E20FDF7E5FB0DE0CAF80490E1E784
:1039800000EB400101EBC000E64900234218A9B258
:103990007E20FDF7D6FBCAF80480E078012300EB17
:1039A000800006EB4000801E03220021FDF716FC7C
:1039B000A9B20023DC4A0820FDF7C3FB761CF6B24F
:1039C0000D2EFFF4B1AEBDE8F88F2DE9F8430446A3
:1039D000D64F4FF050157D602078012822D000206E
:1039E0004FF0FF0808B1C7F80480786800902A23D8
:1039F00058221A213020FCF7C3FFCD48C94E0123BD
:103A000090F88403FD3600EB800082191A213020E3
:103A1000FDF741FB2078022806D0002030B1C7F81E
:103A2000048004E00120DBE70120F7E77D6078688F
:103A3000009040231E2230210820FCF7A1FF012323
:103A4000AFF2F01230210820FDF725FBFDF73DFC19
:103A50002078B84A54256FF07F41012806D002280B
:103A600015D06078BDE8F843FEF750B939607A6048
:103A7000002404EB8400821905EB001080B20023BF
:103A8000F121FDF708FB641C022CF2D3BDE4396080
:103A90007A600024A84EC4EBC4008219E01C00EB3D
:103AA000800005EB001080B20023F121FDF7F3FA4E
:103AB000641C022CEFD3A8E42DE9F84304469C488B
:103AC0009A4F4FF05015D0F8500301280ED17D6069
:103AD000994A0123153A1646D2211E20FDF7DBFA3A
:103AE00001233246D2219620FDF7D5FA207801280D
:103AF00004D00020FF2618B17E6002E00120F9E723
:103B00007D60DFF83882002305220321D8F8040005
:103B1000FDF764FB786800902C23C02218216720F1
:103B2000FCF72EFF0023804A1A216820FDF7B3FA24
:103B3000012383A21A21AC20FDF7ADFA20780228D8
:103B400003D0002018B17E6002E00120FAE77D601A
:103B5000002305220321D8F81800FDF73FFB786801
:103B600000904223C0222E216720FCF709FF00238A
:103B70006D4A30216820FDF78EFA012370A23021B2
:103B8000AC20FDF788FA2078032803D0002018B174
:103B90007E6002E00120FAE77D6000230522032118
:103BA000D8F82C00FDF71AFB786800905823C02243
:103BB00044216720FCF7E4FE00235B4A462168208D
:103BC000FDF769FA01235FA24621AC20FDF763FAF5
:103BD0002078042803D0002018B17E6002E0012084
:103BE000FAE77D60002303221946D8F84000FDF76C
:103BF000F5FA786800902C2340F2C312182140F2A5
:103C00007110FCF7BDFE0023474A1A214FF4B9702A
:103C1000FDF741FA01234CA21A214FF4D670FDF7AB
:103C20003AFA2078052803D0002018B17E6002E01F
:103C30000120FAE77D602078062803D0002018B123
:103C40007E6002E00120FAE77D60FDF73EFB207810
:103C5000002803D8BDE8F843FDF7A1BC16E72DE91D
:103C6000F84F04463248314F4FF05016D0F8500309
:103C700001280ED17E60304A0123153A1546D22123
:103C80001E20FDF708FA01232A46D2219620FDF7CF
:103C900002FA2078012806D000204FF0FF0820B15A
:103CA000C7F8048002E00120F7E77E6078680090A2
:103CB0002C23C02218216720FCF762FEDFF87C90DD
:103CC000224D002399F8C8001A2105EBC002682094
:103CD000FDF7E1F92078022804D0002020B1C7F8D0
:103CE000048002E00120F9E77E6000230522032121
:103CF000D9F8A400FDF772FA786800904223C02238
:103D00002E216720FCF73CFE0023074A3021682063
:103D1000FDF7C1F90123302109A2AC2018E0000011
:103D2000E8A70100ABA901004453001014000010E3
:103D30001C05001038003100B2AA01005C3C0010E4
:103D400041000000560000006D730000699F0100F3
:103D5000FDF7A1F92078042804D0002020B1C7F88D
:103D6000048002E00120F9E77E60002305220321A0
:103D7000D9F89000FDF732FA786840F2C31A40F2A1
:103D8000711B00902C23524618215846FCF7F8FD71
:103D90000023FE4A1A214FF4B970FDF77CF9012384
:103DA000AFF260021A214FF4D670FDF774F9207853
:103DB000052804D0002020B1C7F8048002E00120CB
:103DC000F9E77E60002305220321D9F8B800FDF74A
:103DD00005FA78680090422352462E215846FCF797
:103DE000CFFD0023E94A30214FF4B970FDF753F9B4
:103DF0000123AFF2B00230214FF4D670FDF74BF93A
:103E0000FDF763FA207802281BD2DFE800F00105F5
:103E1000BDE8F84FFDF7C3BB6FF07F403860DC486A
:103E200078600024582604EB840006EB001005EBB4
:103E3000C40280B20023F121FDF72DF9641C022C8D
:103E4000F1D3C0E52DE9F84F0546DFF848B34FF050
:103E5000050A6A78DBF85C01CF4CB0FBFAF1491D2A
:103E6000914202D91E20A07007E0B0FBFAF10AFBD4
:103E7000110000EB8000401DA070A078401F90FB57
:103E8000FAF0C0B2FDF712FE0027C44EDFF810832F
:103E90004FF05F0919E0C6F8048068780023401FDE
:103EA00000EB80003844401C02221946FDF796F9C9
:103EB00007EB470000EBC70009EB400081B201238C
:103EC000B24A0320FDF7E7F87F1CA078401F90FB63
:103ED000FAF0B842DFD80524AF4FDFF8C892423776
:103EE000A7F10C082BE2B4FBFAF0D6F804C037F8BF
:103EF0001000401E83B2B4FBFAF00AFB1040401CD5
:103F000038F81000401E82B2B4FBFAF0401E37F8B9
:103F10001000401C81B2B4FBFAF00AFB104038F8E4
:103F20001000CDF800C0401C80B2FCF729FDB4FBA6
:103F3000FAF00AFB1040C0B1B4FBFAF00AFB1040E3
:103F400001284ED0B4FBFAF00AFB104002287DD0C5
:103F5000B4FBFAF00AFB1040032878D0B4FBFAF067
:103F60000AFB1040042873D0E8E19BF8D50801282B
:103F700012D1601FB0FBFAF16878401F00EB80009F
:103F8000084400EB800009EB8000D0F88808012885
:103F900024D04FF47F403060601FB0FBFAF16878A6
:103FA0000023401F00EB8000084458447E4990F8ED
:103FB0006E01C0EBC0004218B4FBFAF0401E37F8A7
:103FC0001000C01C81B2B4FBFAF00AFB104038F8B4
:103FD0001000C01C80B2FDF75EF8AFE1FF2030603A
:103FE000DAE79BF8D508012812D1601FB0FBFAF17F
:103FF0006878401F00EB8000084400EB800009EB6C
:104000008000D0F88808012835D04FF47F40306018
:10401000601FB0FBFAF26978491F01EB81010A4485
:104020005A4492F86E21052A28D0B0FBFAF00844D1
:1040300000EB800009EB80000023D0F8D8030522B4
:104040000321FDF7CBF8B4FBFAF002E058E0F7E00B
:1040500037E1401E002337F810004C4AC01C81B2E3
:10406000B4FBFAF00AFB104038F81000C01C80B214
:10407000FDF711F862E1FF203060C9E7B0FBFAF20A
:104080000A4402EB820209EB8202D2F8D823B2F58D
:104090007A7F13D9B4FBFAF0401E002337F81000E2
:1040A00042A2C01C81B2B4FBFAF00AFB104038F8FF
:1040B0001000C01C80B2FCF7EEFF3FE1B0FBFAF04D
:1040C000084400EB800009EB80000023D0F8D803FF
:1040D00004220121FDF782F8B4FBFAF0401E002310
:1040E00037F81000294AC01C81B2B4FBFAF00AFB71
:1040F000104038F81000C01C80B2FCF7CCFF1DE166
:104100009BF8D508012812D1601FB0FBFAF168783E
:10411000401F00EB8000084400EB800009EB8000AA
:10412000D0F88808012845D04FF47F403060601FE8
:10413000B0FBFAF26978491F01EB81010A445A4445
:1041400092F86E21052A38D0B0FBFAF0084400EB53
:10415000800009EB80000023D0F80405052203212C
:10416000FDF73CF8B4FBFAF0401E002337F81000CE
:10417000064AC01C81B2B4FBFAF00AFB104038F8C2
:104180001000C01C80B2FCF786FFD7E0445300103B
:10419000380031005C3C00103800001014000010A2
:1041A0003434650048450010879F01002D2D2D2DCA
:1041B0002D000000FF203060B9E7B0FBFAF20A449E
:1041C00002EB820209EB8202D2F80425B2F57A7F73
:1041D00014D9B4FBFAF0401E37F81000C01C81B2AD
:1041E000B4FBFAF00AFB104038F81000C01C80B293
:1041F0000023AFF24802FCF74EFF9FE0B0FBFAF05D
:10420000084400EB800009EB80000023D0F804058F
:1042100004220121FCF7E2FFB4FBFAF0401E37F85C
:104220001000C01C81B2B4FBFAF00AFB104038F851
:104230001000C01C80B20023FE4AFCF72CFF7DE07A
:104240009BF8D508012812D1601FB0FBFAF16878FD
:10425000401F00EB8000084400EB800009EB800069
:10426000D0F88808012829D04FF47F403060601FC3
:10427000B0FBFAF168780023401F00EB800008448F
:1042800000EB800009EB80000422D0F830061946CC
:10429000FCF7A4FFB4FBFAF0401E002337F810002F
:1042A000E44AC01C81B2B4FBFAF00AFB104038F8B3
:1042B0001000C01C80B2FCF7EEFE3FE0FF20306033
:1042C000D5E79BF8D508012812D1601FB0FBFAF1A1
:1042D0006878401F00EB8000084400EB800009EB89
:1042E0008000D0F8880801282FD04FF47F4030603C
:1042F000601FB0FBFAF168780023401F00EB8000DC
:10430000084400EB800009EB80000622D0F85C072F
:104310001946FCF763FFB4FBFAF0401E002337F8A0
:104320001000C44AC01C81B2B4FBFAF00AFB104072
:1043300038F81000C01C80B2FCF7ADFE641CBE480B
:1043400080788442FFF4CFAD7BE5FF203060CFE77B
:104350002DE9F84F0546287801280AD00020DFF81B
:10436000DC824FF050174FF0FF0B20B1C8F804B0BB
:1043700003E00120F3E7C8F80470DFF8C4920023DB
:1043800003221946D9F85C01FCF728FFD8F804008D
:1043900000902C23C92218216720FCF7F1FA002392
:1043A000A44A1A216820FCF776FE2878022804D057
:1043B000002020B1C8F804B003E00120F9E7C8F8F4
:1043C0000470D8F8040000904223C0222E216720F8
:1043D000FCF7D6FA99F86C010023C0EBC0019948AC
:1043E0000A1830216820FCF756FE2878032804D0EC
:1043F000002020B1C8F804B003E00120F9E7C8F8B4
:104400000470002303221946D9F84801FCF7E6FEA0
:10441000D8F804004FF4DD7640F2711400902C239C
:10442000324618212046FCF7ABFA0023814A1A21B4
:104430002046FCF730FE2878042804D0002020B164
:10444000C8F804B003E00120F9E7C8F804700023BD
:1044500003221946D9F84801FCF7C0FED8F8040039
:104460000090422332462E212046FCF789FA002391
:10447000704A30212046FCF70EFED9F85C01052178
:10448000B0FBF1F26B78521C6B4C9A4202D923209C
:10449000A07008E0B0FBF1F201FB120000EB40005D
:1044A00001EB4000A070A0784FF0060A401F90FB7F
:1044B000FAF0C0B2FDF73FFA00265F271AE0624823
:1044C000C8F8040068780023401E00EB80003044E8
:1044D000401C02221946FCF781FE06EB460000EB69
:1044E000C60007EB400081B20123524A0320FCF7CB
:1044F000D2FD761CA078401F90FBFAF0B042DED8C7
:10450000687804287AD205244B4E4236A6F11A0761
:10451000B2E12878A04201D1012000E0002010B1D2
:10452000C8F804B002E04848C8F80400B4FBFAF048
:104530000AFB1040052848D0B4FBFAF0D8F804C0B4
:1045400036F81000401E83B2B4FBFAF00AFB1040AC
:10455000801C37F81000401E82B2B4FBFAF0401EF7
:1045600036F81000401C81B2B4FBFAF00AFB104090
:10457000401C37F81000CDF800C0401C80B2FCF79A
:10458000FFF9B4FBFAF00AFB1040052838D0B4FB61
:10459000FAF00AFB104090B3B4FBFAF00AFB1040AB
:1045A00001287DD0B4FBFAF00AFB1040022878D035
:1045B000B4FBFAF00AFB1040032873D0B4FBFAF006
:1045C0000AFB104004286ED055E1B4FBFAF0401C01
:1045D00036F81000401E83B2B4FBFAF036F8100033
:1045E000401C81B2D8F8040000907888401E82B246
:1045F0003888401C80B2FCF7C3F9C2E741E129E0EA
:10460000601FB0FBFAF16878401E00EB80000844A0
:1046100048440C4990F86E010E31C0EBC0004218BE
:10462000B4FBFAF036F81000C01C81B23888C01C08
:1046300080B20BE04453001038000010140000104A
:104640005C3C0010799F0100343465000023FCF7C6
:1046500022FD10E1B4FBFAF168780023401E00EB64
:1046600080000844401E00EB800009EB800005221A
:10467000D0F884010321FCF7B1FDB4FBFAF0401E31
:1046800036F81000C01C81B27888C01C80B20023AC
:10469000FE4AFCF700FDB4FBFAF16878401E03E027
:1046A0001AE057E087E0B7E000EB80000844484498
:1046B000F74990F86D010023C0EBC0004218B4FB2D
:1046C000FAF0401E36F81000C01C81B278883F30E6
:1046D00080B2FCF7E0FCCEE0B4FBFAF1687800238E
:1046E000401E00EB80000844401E00EB800009EBF8
:1046F00080000522D0F8B0020321FCF76FFDB4FB67
:10470000FAF0401E002336F81000E04AC01C81B2C7
:10471000B888C01C80B2FCF7BEFCB4FBFAF1687824
:104720000023401E00EB800008444844D84990F81C
:104730006D012A31C0EBC0004218B4FBFAF0401EF4
:1047400036F81000C01C81B2B8883F3080B2FCF748
:10475000A2FC90E0B4FBFAF168780023401E00EB65
:1047600080000844401E00EB800009EB8000052219
:10477000D0F8DC030321FCF731FDB4FBFAF0401E56
:10478000002336F81000C14AC01C81B2F888C01C52
:1047900080B2FCF780FCB4FBFAF0401E36F8100043
:1047A000C01C81B2F8883F3080B20023AFF66C2283
:1047B000FCF771FC5FE0B4FBFAF168780023401E5F
:1047C00000EB80000844401E00EB800009EB8000F5
:1047D0000522D0F808050321FCF700FDB4FBFAF030
:1047E000401E002336F81000A84AC01C81B2388948
:1047F000C01C80B2FCF74FFCB4FBFAF0401E36F848
:104800001000C01C81B238893F3080B20023AFF65F
:10481000D022FCF740FC2EE0B4FBFAF168780023CC
:10482000401E00EB80000844401E00EB800009EBB6
:1048300080000322D0F834061946FCF7CFFCB4FB05
:10484000FAF0401E002336F81000904AC01C81B2D6
:104850007889C01C80B2FCF71EFCB4FBFAF0401E45
:10486000002336F810008BA2C01C81B278893F303B
:1048700080B2FCF710FC641C874880788442FFF407
:1048800048AEFCF722FD2878844A58256FF07F4116
:104890004FF4CA7605282BD220B101281FD0022858
:1048A0001DD106E0C8F80010C8F80420FCF777FE18
:1048B00015E0C8F80010C8F804200024744F703FB9
:1048C000C4EBC400C21904EB840005EB001080B2F5
:1048D0000023F121FCF7DFFB641C022CF0D301B0B4
:1048E0003046BDE8F04F00236DA2F221FCF7D3BBA8
:1048F000401F90FBFAF30AFB130060B1C8F80010E8
:10490000C8F8042001B03046BDE8F04F002364A28F
:10491000F221FCF7C0BBC8F80010C8F8042000243E
:10492000624F397811B101290FD01CE05849C4EB0E
:10493000C4003839421804EB840005EB001080B243
:104940000023F121FCF7A7FB0DE05149C4EBC400A3
:104950001C39421804EB840005EB001080B20023E0
:10496000F121FCF798FB641C042CDAD301B030462B
:10497000BDE8F04F00234AA2F221FCF78CBB2DE9E1
:10498000F84F04464A4F6FF07F4AC7F800A02078DE
:10499000012806D00020FF254FF0501618B17D6089
:1049A00002E00120F7E77E60DFF80881002305229E
:1049B0000321D8F87407FCF711FC786800902C23C9
:1049C000D02218217820FBF7DBFF00232F4A1A2181
:1049D0007820FCF760FB0123AFF698421A21BC2037
:1049E000FCF759FB2078022803D0002018B17D6025
:1049F00002E00120FAE77E60002305220321D8F8B7
:104A00006007FCF7EBFB786800904223D0222E2150
:104A10007820FBF7B5FF00231C4A30217820FCF7F3
:104A20003AFB0123AFF6E4423021BC20FCF733FB14
:104A30002078032803D0002018B17D6002E0012017
:104A4000FAE77E60002305220321D8F8C407FCF7AB
:104A5000C5FB786800905823D02244217820FBF7CA
:104A60008FFF0023094A46217820FCF714FB01231D
:104A7000AFF634524621BC20FCF70DFB2078042809
:104A80001AD00020D0B17D6019E00000445300101E
:104A9000E99F010053000000380000103800310089
:104AA000BDF8C8EBB2E2CAD4000000002502001035
:104AB000140000105C3C00100120E3E77E6000233E
:104AC00005220321D8F8B007FCF788FB786800902E
:104AD0006E23D0225A217820FBF752FF0023FE4A92
:104AE0005C217820FCF7D7FA0123AFF6AC525C21A9
:104AF000BC20FCF7D0FA2078052803D0002018B19C
:104B00007D6002E00120FAE77E600023042219465E
:104B1000D8F81408FCF762FB786800908423E02240
:104B200070217820FBF72CFF0023EB4A72217820BC
:104B3000FCF7B1FA0023E94A7221AA20FCF7ABFA8C
:104B40002078062803D0002018B17D6002E0012003
:104B5000FAE77E60002304221946D8F80008FCF723
:104B60003DFB786800909A23E02286217820FBF7AD
:104B700007FF0023D84A88217820FCF78CFA00230D
:104B8000D64A8821AA20FCF786FA2078072803D085
:104B9000002018B17D6002E00120FAE77E6000236A
:104BA00005220321D8F83C08FCF718FB7868009030
:104BB000B023D0229C217820FBF7E2FE0023C64AD6
:104BC0009E217820FCF767FA0123AFF68C629E21C4
:104BD000BC20FCF760FA2078082803D0002018B128
:104BE0007D6002E00120FAE77E60002305220321B8
:104BF000D8F82808FCF7F2FA78680090C623D0228B
:104C0000B2217820FBF7BCFE0023B34AB421782000
:104C1000FCF741FA0123AFF6D862B421BC20FCF7BF
:104C20003AFA2078092803D0002018B17D6002E00C
:104C30000120FAE77E60002304221946D8F8C40850
:104C4000FCF7CCFA78680090DC23D022C8217820C9
:104C5000FBF796FE0023A04ACA217820FCF71BFA36
:104C60000123AFF61C72CA21BC20FCF714FA20788D
:104C70000A2803D0002018B17D6002E00120FAE785
:104C80007E60002305220321D8F89C07FCF7A6FAD2
:104C900078684FF4E57B4FF4B17900902C235A46A5
:104CA0001A214846FBF76CFE00238B4A1A2148461E
:104CB000FCF7F1F90123AFF674721A214FF4D470A6
:104CC000FCF7E9F920780B2803D0002018B17D60AB
:104CD00002E00120FAE77E60002305220321D8F8D4
:104CE0008807FCF77BFA7868009042235A46302107
:104CF0004846FBF745FE0023774A30214846FCF73B
:104D0000CAF90123AFF6C47230214FF4D470FCF716
:104D1000C2F920780C2803D0002018B17D6002E091
:104D20000120FAE77E60002305220321D8F8EC0772
:104D3000FCF754FA7868009058235A4646214846B2
:104D4000FBF71EFE0023644A46214846FCF7A3F900
:104D5000012363A246214FF4D470FCF79CF920781C
:104D60000D2803D0002018B17D6002E00120FAE791
:104D70007E60002305220321D8F8D807FCF72EFA1D
:104D8000786800906E235A465C214846FBF7F8FD90
:104D90000023514A5C214846FCF77DF9012350A2CB
:104DA0005C214FF4D470FCF776F920780E2803D0FC
:104DB000002018B17D6002E00120FAE77E60002348
:104DC00004220121D8F87408FCF708FA78680090EA
:104DD00084235A46702140F26110FBF7D1FD002375
:104DE0003D4A72214846FCF756F93C4A0023121D01
:104DF00072214FF4CA70FCF74EF920780F2803D0C7
:104E0000002018B17D6002E00120FAE77E600023F7
:104E100004220121D8F86008FCF7E0F978680090D6
:104E20009A235A4686214846FBF7AAFD00232A4AC0
:104E300088214846FCF72FF9284A0023121D8821B3
:104E40004FF4CA70FCF727F92078102803D000200F
:104E500018B17D6002E00120FAE77E6000230422A1
:104E60000121D8F89C08FCF7B9F978680090B023C4
:104E70004FF4E5729C214846FBF782FD0023164A59
:104E80009E214846FCF707F9144A4FF4CA7B0023D9
:104E9000121D9E215846FCF7FEF82078112803D0F9
:104EA000002018B17D6002E00120FAE77E60002357
:104EB00004220121D8F88808FCF790F9786800905E
:104EC000C6234FF4E572B2214846FBF759FD002393
:104ED000014AB421484605E044530010FC16000086
:104EE00041000000FCF7D7F80023FE4AB4215846E1
:104EF000FCF7D1F82078122803D0002018B17D608B
:104F000002E00120FAE77E60002304221946D8F867
:104F1000B008FCF763F978680090DC234FF4E57281
:104F2000C8214846FBF72CFD0023EF4ACA2148461A
:104F3000FCF7B1F80023EDA2CA215846FCF7ABF804
:104F4000FCF7C3F92078052809D2002807D1C7F853
:104F500000A0E7487860BDE8F84FFCF767BBBDE804
:104F6000F88F2DE9F8430446E248E34D4FF0501620
:104F7000D0F8500301280DD16E60E04A0123174696
:104F8000D2211E20FCF787F801233A46D221962031
:104F9000FCF781F82078012804D00020FF2718B101
:104FA0006F6002E00120F9E76E60DFF854830023B0
:104FB00005220321D8F85400FCF710F96868009026
:104FC0002C23C02218216720FBF7DAFC0023C64AF5
:104FD0001A216820FCF75FF80123CAA21A21AC202D
:104FE000FCF759F82078022803D0002018B16F6030
:104FF00002E00120FAE76E60002305220321D8F8C1
:105000006800FCF7EBF8686800904223C0222E216C
:105010006720FBF7B5FC0023B34A30216820FCF77A
:105020003AF80123AFF248123021AC20FCF733F8F4
:105030002078032803D0002018B16F6002E001201F
:10504000FAE76E60002305220321D8F87C00FCF704
:10505000C5F8686800905823C02244216720FBF7F8
:105060008FFC0023A04A46216820FCF714F8012396
:10507000AFF294124621AC20FCF70DF8FCF725F9AD
:105080002078002803D8BDE8F843FCF788BABDE8CB
:10509000F88310B50446FCF718F92078002804D1ED
:1050A0006078BDE81040FCF7DCBF10BD0B46114630
:1050B000954A00EB4000024498B289B20123FCF704
:1050C00040B82DE9F84F0446DFF82CA24FF05017F6
:1050D000CAF80470DFF81CB24FF4B975DBF8D800D9
:1050E000002815D0002389A23F212846FCF729F883
:1050F000002386A23F21C820FCF723F8207801284E
:1051000013D000204FF0FF0988B1CAF8049010E0D6
:105110003F222946DBF80C03FFF7C8FF3F22C821D6
:10512000DBF80C03FFF7C2FFE8E70120EAE7CAF863
:105130000470DAF8040000902A23992218214520EF
:10514000FBF71EFCDBF80C03714900EBC0004218B2
:10515000012318214620FBF79EFF2078022804D067
:10516000002020B1CAF8049003E00120F9E7CAF852
:1051700004709BF8CC1000230522DBF8C800FCF774
:105180002DF8DAF8040000902A2340F24512182185
:10519000E220FBF7F5FB0123534A1821E520FBF73A
:1051A0007AFFDBF8D000012300EB4001564833388A
:1051B0000A18182140F22910FBF76DFF182240F25F
:1051C0003311DBF80C03FDF758FD2078032804D0D9
:1051D000002020B1CAF8049003E00120F9E7CAF8E2
:1051E0000470DAF8040000902A2340F2DD1218213E
:1051F00040F28F10FBF7C4FB4648DBF8D8100123C0
:1052000000EB810218214FF4C870FBF744FF2078AF
:10521000042804D0002020B1CAF8049003E0012043
:10522000F9E7CAF80470DAF8040000903E239922E6
:105230002C214520FBF7A4FBDBF8C0002F4D00EB31
:1052400080004D35421900232C214620FBF723FF17
:105250002078052804D0002020B1CAF8049003E08B
:105260000120F9E7CAF80470DAF8040000903E2340
:105270004FF49C722C21E420FBF782FBDBF8E0006A
:10528000012300EB80011D484D300A182C21E52038
:10529000FBF701FF06252078A84202D1CAF8049046
:1052A00009E0A5F10900042803D21B48CAF804004C
:1052B00001E0CAF80470DAF80400A5F10608C8EBAA
:1052C0000816009006F15C0083B24C36B1B2E622BB
:1052D0009420FBF755FB08EB88000BEBC008D8F8CF
:1052E000E8001BE000170000445300106D7300003D
:1052F000380031001C050010140000109DAA0100A8
:105300005C3C00105600000080B101002500000048
:105310003CA60100C09E010034346500D0B198F86D
:10532000EC1000230522FBF759FFB1B20123FB4A21
:10533000A020FBF706FFDBF8D80088B9D8F8F0000A
:10534000012300EB4001F6480A18B1B2D020FBF768
:10535000F8FE05E0B1B20123F24AA020FBF7F1FE0E
:105360006D1C0F2D97D310252078A84202D1CAF8C2
:10537000049009E0A5F11300042803D2EA48CAF812
:10538000040001E0CAF80470DAF804000090A5F106
:1053900010008046C0EB001606F15C0083B24C366C
:1053A000B1B24FF4C3724FF49A70FBF7E9FA08EB0D
:1053B00088000BEBC008D8F8FC00E0B198F80011A9
:1053C00000230522FBF70AFFB1B20023D34A4FF4B2
:1053D000A570FBF7B6FEDBF8D80098B9D8F8040141
:1053E000012300EB4001CE480A18B1B24FF4BD7062
:1053F000FBF7A7FE06E0B1B20123CA4A4FF4A5703D
:10540000FBF79FFE6D1C192DAED320780F285CD0C2
:10541000CAF80470DAF804000090E323E622D321EE
:105420009420FBF7ADFA9BF8541200230522DBF819
:105430005002FBF7D3FE0123B84AD321A020FBF78B
:1054400080FEDBF85802B64D00EB40004219012304
:10545000D321D020FBF775FE2078192838D0CAF860
:105460000470DAF804000090E3234FF4C372D321F0
:105470004FF49A70FBF784FA9BF868120023052218
:10548000DBF86402FBF7AAFE0023A44AD3214FF401
:10549000A570FBF756FEDBF86C02012300EB400021
:1054A0004219D3214FF4BD70FBF74BFEFBF70DFF04
:1054B00022789E4968256D266FF07F40062A65D2C6
:1054C000DFE802F00924240E2C48CAF80490A1E772
:1054D000CAF80490C5E76078BDE8F84FFCF7C1BD95
:1054E000CAF80000CAF804100024914E722774B163
:1054F00004EB840007EB001006EB840280B200236B
:10550000F121FBF7C8FD641C022CF0D327E53246DD
:1055100028460023F121FBF7BEFDF4E7CAF800009E
:10552000CAF804100024834F6CB104EB8400C21944
:1055300006EB001080B20023F121FBF7ACFD641CE8
:10554000022CF1D30BE53A4628460023F121FBF764
:10555000A2FDF4E7CAF80000CAF804100024754F51
:105560006CB104EB8400C21906EB001080B200237A
:10557000F121FBF790FD641C022CF1D3EFE43A46D5
:1055800028460023F121FBF786FDF4E7CAF8000066
:10559000CAF80410DBF8D0124FF4CA74012910D0F5
:1055A0000029B3D1002364A2F1215D20FBF773FD34
:1055B00001B02046BDE8F04F002361A2F221FBF7C5
:1055C0006ABD002361A2F1215D20FBF764FD01B0FB
:1055D0002046BDE8F04F00235EA2F221FBF75BBD41
:1055E0002DE9F84F06463078012807D000205B4CA3
:1055F000FF274FF0501818B1676003E00120F6E76D
:10560000C4F80480606800902C23C0221821582020
:10561000FBF7B6F9524DDFF81C91012328681A21D7
:1056200000EB800000EB09025820FBF734FD3078D6
:10563000022803D0002018B1676003E00120FAE7D8
:10564000C4F80480606800904223C0222E215820B4
:10565000FBF796F96868012300EB800000EB090274
:1056600030215820FBF717FDFBF72FFE314F337821
:10567000A13F2E4A54256FF07F414FF067084FF04D
:105680006C0B07F1B00AA7F1200907F58D70122BFA
:1056900042D2DFE803F0090EA6C1D4F7F5F4F3F225
:1056A000F1F0EFEEEDECEBEA7078BDE8F84FFCF7C7
:1056B000D8BC7078E8B140F2931540F2BD160128CD
:1056C0005FD0216062600023264A4FF4827154202B
:1056D000FBF7E1FC0023244AF2212846FBF7DBFC20
:1056E00001B03046BDE8F04F002320A2F221FBF7C5
:1056F000D2BC2160626000241D4D74B104EB8400B3
:105700000BEB001005EBC40280B20023F121FBF784
:10571000C2FC641C022CF0D321E42BE044530010A3
:105720004DB10100242F00003434650038003100F1
:10573000C09E0100EAAA0100C7E5B3FDD0D0000079
:10574000C7E5B3FDB1EDB8F10000000043656C2082
:105750005200000043656C4C697374001400001023
:105760001C05001014A6010028210000332F33006F
:1057700089AF01002A4640460023F121FBF78BFC4C
:10578000C7E7216062600024FE4F40F2571807F11E
:10579000180A4FF06209032C1CD004EB840009EBBB
:1057A000001007EBC40280B20023F121FBF773FC69
:1057B000641C042CEFD30023F34AF2212846FBF7A4
:1057C0006AFC01B03046BDE8F04F0023EFA2F221A1
:1057D000FBF761BC524640460023F121FBF75BFC1E
:1057E000E6E7216062600024E94D74B104EB8400B7
:1057F0000BEB001005EBC40280B20023F121FBF794
:105800004AFC641C022CF0D380E62A464046002362
:10581000F121FBF740FCF4E7216062600024DD4EDB
:1058200004EB840005EB001006EBC40280B20023F9
:10583000F121FBF730FC641C022CF1D366E62160F9
:1058400062600024D44E04EB440000EBC4008219D3
:1058500004EB840005EB001080B20023F121FBF77C
:105860001AFC641C042CEED350E6F5E0E2E0CBE039
:10587000B8E0A5E08DE078E065E050E03DE02AE0AA
:1058800012E0FFE721606260002404EB840005EB76
:1058900000100AEBC40280B20023F121FBF7FBFBEE
:1058A000641C022CF1D331E6216062600024BA4E00
:1058B0002C3604EB440000EBC400821904EB840096
:1058C00005EB001080B20023F121FBF7E4FB641C20
:1058D000022CEED31AE621606260002404EB8400FF
:1058E00005EB001007EBC40280B20023F121FBF7A7
:1058F000D2FB641C022CF1D308E621606260002414
:1059000004EB840005EB001007EBC40280B2002317
:10591000F121FBF7C0FB641C022CF1D3F6E52160FA
:10592000626000249C4E423604EB840005EB0010BC
:1059300006EBC40280B20023F121FBF7ACFB641C30
:10594000032CF1D3E2E521606260002404EB8400C3
:1059500005EB001009EBC40280B20023F121FBF734
:105960009AFB641C042CF1D3D0E521606260002412
:10597000894E8F3E04EB840005EB001006EBC40259
:1059800080B20023F121FBF786FB641C032CF1D3CA
:10599000BCE52160626000247F4E773E04EB44004A
:1059A00000EBC400821904EB840005EB001080B208
:1059B0000023F121FBF76FFB641C022CEED3A5E55D
:1059C00021606260002404EB840005EB001007EB0B
:1059D000C40280B20023F121FBF75DFB641C022CA2
:1059E000F1D393E521606260002404EB840005EBB1
:1059F00000100AEBC40280B20023F121FBF74BFB3D
:105A0000641C022CF1D381E521606260002407460A
:105A100004EB440000EBC400C21904EB840005EB66
:105A2000001080B20023F121FBF735FB641C022C2F
:105A3000EED36BE521606260002404EB840005EB8B
:105A4000001009EBC40280B20023F121FBF723FB15
:105A5000641C042CF1D359E52160626000240746E0
:105A600004EB440000EBC400C21904EB840005EB16
:105A7000001080B20023F121FBF70DFB641C042C05
:105A8000EED343E52DE9F84F04462078012807D0EE
:105A90000020424FFF254FF0501618B17D6002E004
:105AA0000120F6E77E60786800902C23C0221A213E
:105AB0005E20FAF765FFDFF8E890DFF8E880D9F8B4
:105AC000D002012801D090B11BE098F84C080128C1
:105AD00006D0002334A21C215F20FBF7DCFA10E083
